{"abi":[{"inputs":[{"internalType":"address payable","name":"creator","type":"address"},{"internalType":"string","name":"manName","type":"string"},{"internalType":"string","name":"campDesc","type":"string"},{"internalType":"string","name":"campName","type":"string"},{"internalType":"uint256","name":"min","type":"uint256"},{"internalType":"uint256","name":"premium","type":"uint256"}],"stateMutability":"nonpayable","type":"constructor"},{"inputs":[{"internalType":"uint256","name":"index","type":"uint256"}],"name":"approveRequest","outputs":[],"stateMutability":"nonpayable","type":"function"},{"inputs":[],"name":"approversCount","outputs":[{"internalType":"uint256","name":"","type":"uint256"}],"stateMutability":"view","type":"function"},{"inputs":[],"name":"campaignDesc","outputs":[{"internalType":"string","name":"","type":"string"}],"stateMutability":"view","type":"function"},{"inputs":[],"name":"campaignName","outputs":[{"internalType":"string","name":"","type":"string"}],"stateMutability":"view","type":"function"},{"inputs":[],"name":"contribution","outputs":[],"stateMutability":"payable","type":"function"},{"inputs":[{"internalType":"string","name":"desc","type":"string"},{"internalType":"uint256","name":"val","type":"uint256"},{"internalType":"address payable","name":"toAddr","type":"address"}],"name":"createRequest","outputs":[],"stateMutability":"nonpayable","type":"function"},{"inputs":[{"internalType":"uint256","name":"index","type":"uint256"}],"name":"finaliseRequest","outputs":[],"stateMutability":"nonpayable","type":"function"},{"inputs":[],"name":"getRequest","outputs":[{"internalType":"uint256","name":"","type":"uint256"}],"stateMutability":"view","type":"function"},{"inputs":[],"name":"getSummary","outputs":[{"internalType":"uint256","name":"","type":"uint256"},{"internalType":"uint256","name":"","type":"uint256"},{"internalType":"uint256","name":"","type":"uint256"},{"internalType":"uint256","name":"","type":"uint256"},{"internalType":"uint256","name":"","type":"uint256"},{"internalType":"address","name":"","type":"address"},{"internalType":"string","name":"","type":"string"},{"internalType":"string","name":"","type":"string"},{"internalType":"string","name":"","type":"string"},{"internalType":"uint256","name":"","type":"uint256"}],"stateMutability":"view","type":"function"},{"inputs":[],"name":"manager","outputs":[{"internalType":"address payable","name":"","type":"address"}],"stateMutability":"view","type":"function"},{"inputs":[],"name":"managerName","outputs":[{"internalType":"string","name":"","type":"string"}],"stateMutability":"view","type":"function"},{"inputs":[],"name":"minContribution","outputs":[{"internalType":"uint256","name":"","type":"uint256"}],"stateMutability":"view","type":"function"},{"inputs":[],"name":"premiumContribution","outputs":[{"internalType":"uint256","name":"","type":"uint256"}],"stateMutability":"view","type":"function"},{"inputs":[{"internalType":"uint256","name":"","type":"uint256"}],"name":"requests","outputs":[{"internalType":"string","name":"description","type":"string"},{"internalType":"uint256","name":"value","type":"uint256"},{"internalType":"address payable","name":"recipient","type":"address"},{"internalType":"bool","name":"completed","type":"bool"},{"internalType":"uint256","name":"yesVotes","type":"uint256"}],"stateMutability":"view","type":"function"}],"devdoc":{"kind":"dev","methods":{},"version":1},"evm":{"assembly":"    /* \"Campaign.sol\":870:4376  contract Campaign {... */\n  mstore(0x40, 0xa0)\n    /* \"Campaign.sol\":1721:2122  constructor(... */\n  callvalue\n  dup1\n  iszero\n  tag_1\n  jumpi\n  0x00\n  dup1\n  revert\ntag_1:\n  pop\n  mload(0x40)\n  sub(codesize, bytecodeSize)\n  dup1\n  bytecodeSize\n  dup4\n  codecopy\n  dup2\n  dup2\n  add\n  0x40\n  mstore\n  dup2\n  add\n  swap1\n  tag_2\n  swap2\n  swap1\n  tag_3\n  jump\t// in\ntag_2:\n    /* \"Campaign.sol\":1935:1942  creator */\n  dup6\n    /* \"Campaign.sol\":1925:1942  manager = creator */\n  0xffffffffffffffffffffffffffffffffffffffff\n  and\n  0x80\n  dup2\n  0xffffffffffffffffffffffffffffffffffffffff\n  and\n  dup2\n  mstore\n  pop\n  pop\n    /* \"Campaign.sol\":1967:1974  manName */\n  dup5\n    /* \"Campaign.sol\":1953:1964  managerName */\n  0x02\n    /* \"Campaign.sol\":1953:1974  managerName = manName */\n  swap1\n  dup2\n  tag_6\n  swap2\n  swap1\n  tag_7\n  jump\t// in\ntag_6:\n  pop\n    /* \"Campaign.sol\":2000:2008  campDesc */\n  dup4\n    /* \"Campaign.sol\":1985:1997  campaignDesc */\n  0x03\n    /* \"Campaign.sol\":1985:2008  campaignDesc = campDesc */\n  swap1\n  dup2\n  tag_8\n  swap2\n  swap1\n  tag_7\n  jump\t// in\ntag_8:\n  pop\n    /* \"Campaign.sol\":2034:2042  campName */\n  dup3\n    /* \"Campaign.sol\":2019:2031  campaignName */\n  0x01\n    /* \"Campaign.sol\":2019:2042  campaignName = campName */\n  swap1\n  dup2\n  tag_9\n  swap2\n  swap1\n  tag_7\n  jump\t// in\ntag_9:\n  pop\n    /* \"Campaign.sol\":2071:2074  min */\n  dup2\n    /* \"Campaign.sol\":2053:2068  minContribution */\n  0x04\n    /* \"Campaign.sol\":2053:2074  minContribution = min */\n  dup2\n  swap1\n  sstore\n  pop\n    /* \"Campaign.sol\":2107:2114  premium */\n  dup1\n    /* \"Campaign.sol\":2085:2104  premiumContribution */\n  0x05\n    /* \"Campaign.sol\":2085:2114  premiumContribution = premium */\n  dup2\n  swap1\n  sstore\n  pop\n    /* \"Campaign.sol\":1721:2122  constructor(... */\n  pop\n  pop\n  pop\n  pop\n  pop\n  pop\n    /* \"Campaign.sol\":870:4376  contract Campaign {... */\n  jump(tag_10)\n    /* \"#utility.yul\":7:82   */\ntag_11:\n    /* \"#utility.yul\":40:46   */\n  0x00\n    /* \"#utility.yul\":73:75   */\n  0x40\n    /* \"#utility.yul\":67:76   */\n  mload\n    /* \"#utility.yul\":57:76   */\n  swap1\n  pop\n    /* \"#utility.yul\":7:82   */\n  swap1\n  jump\t// out\n    /* \"#utility.yul\":88:205   */\ntag_12:\n    /* \"#utility.yul\":197:198   */\n  0x00\n    /* \"#utility.yul\":194:195   */\n  dup1\n    /* \"#utility.yul\":187:199   */\n  revert\n    /* \"#utility.yul\":211:328   */\ntag_13:\n    /* \"#utility.yul\":320:321   */\n  0x00\n    /* \"#utility.yul\":317:318   */\n  dup1\n    /* \"#utility.yul\":310:322   */\n  revert\n    /* \"#utility.yul\":334:460   */\ntag_14:\n    /* \"#utility.yul\":371:378   */\n  0x00\n    /* \"#utility.yul\":411:453   */\n  0xffffffffffffffffffffffffffffffffffffffff\n    /* \"#utility.yul\":404:409   */\n  dup3\n    /* \"#utility.yul\":400:454   */\n  and\n    /* \"#utility.yul\":389:454   */\n  swap1\n  pop\n    /* \"#utility.yul\":334:460   */\n  swap2\n  swap1\n  pop\n  jump\t// out\n    /* \"#utility.yul\":466:570   */\ntag_15:\n    /* \"#utility.yul\":511:518   */\n  0x00\n    /* \"#utility.yul\":540:564   */\n  tag_55\n    /* \"#utility.yul\":558:563   */\n  dup3\n    /* \"#utility.yul\":540:564   */\n  tag_14\n  jump\t// in\ntag_55:\n    /* \"#utility.yul\":529:564   */\n  swap1\n  pop\n    /* \"#utility.yul\":466:570   */\n  swap2\n  swap1\n  pop\n  jump\t// out\n    /* \"#utility.yul\":576:714   */\ntag_16:\n    /* \"#utility.yul\":657:689   */\n  tag_57\n    /* \"#utility.yul\":683:688   */\n  dup2\n    /* \"#utility.yul\":657:689   */\n  tag_15\n  jump\t// in\ntag_57:\n    /* \"#utility.yul\":650:655   */\n  dup2\n    /* \"#utility.yul\":647:690   */\n  eq\n    /* \"#utility.yul\":637:708   */\n  tag_58\n  jumpi\n    /* \"#utility.yul\":704:705   */\n  0x00\n    /* \"#utility.yul\":701:702   */\n  dup1\n    /* \"#utility.yul\":694:706   */\n  revert\n    /* \"#utility.yul\":637:708   */\ntag_58:\n    /* \"#utility.yul\":576:714   */\n  pop\n  jump\t// out\n    /* \"#utility.yul\":720:879   */\ntag_17:\n    /* \"#utility.yul\":785:790   */\n  0x00\n    /* \"#utility.yul\":816:822   */\n  dup2\n    /* \"#utility.yul\":810:823   */\n  mload\n    /* \"#utility.yul\":801:823   */\n  swap1\n  pop\n    /* \"#utility.yul\":832:873   */\n  tag_60\n    /* \"#utility.yul\":867:872   */\n  dup2\n    /* \"#utility.yul\":832:873   */\n  tag_16\n  jump\t// in\ntag_60:\n    /* \"#utility.yul\":720:879   */\n  swap3\n  swap2\n  pop\n  pop\n  jump\t// out\n    /* \"#utility.yul\":885:1002   */\ntag_18:\n    /* \"#utility.yul\":994:995   */\n  0x00\n    /* \"#utility.yul\":991:992   */\n  dup1\n    /* \"#utility.yul\":984:996   */\n  revert\n    /* \"#utility.yul\":1008:1125   */\ntag_19:\n    /* \"#utility.yul\":1117:1118   */\n  0x00\n    /* \"#utility.yul\":1114:1115   */\n  dup1\n    /* \"#utility.yul\":1107:1119   */\n  revert\n    /* \"#utility.yul\":1131:1233   */\ntag_20:\n    /* \"#utility.yul\":1172:1178   */\n  0x00\n    /* \"#utility.yul\":1223:1225   */\n  0x1f\n    /* \"#utility.yul\":1219:1226   */\n  not\n    /* \"#utility.yul\":1214:1216   */\n  0x1f\n    /* \"#utility.yul\":1207:1212   */\n  dup4\n    /* \"#utility.yul\":1203:1217   */\n  add\n    /* \"#utility.yul\":1199:1227   */\n  and\n    /* \"#utility.yul\":1189:1227   */\n  swap1\n  pop\n    /* \"#utility.yul\":1131:1233   */\n  swap2\n  swap1\n  pop\n  jump\t// out\n    /* \"#utility.yul\":1239:1419   */\ntag_21:\n    /* \"#utility.yul\":1287:1364   */\n  0x4e487b7100000000000000000000000000000000000000000000000000000000\n    /* \"#utility.yul\":1284:1285   */\n  0x00\n    /* \"#utility.yul\":1277:1365   */\n  mstore\n    /* \"#utility.yul\":1384:1388   */\n  0x41\n    /* \"#utility.yul\":1381:1382   */\n  0x04\n    /* \"#utility.yul\":1374:1389   */\n  mstore\n    /* \"#utility.yul\":1408:1412   */\n  0x24\n    /* \"#utility.yul\":1405:1406   */\n  0x00\n    /* \"#utility.yul\":1398:1413   */\n  revert\n    /* \"#utility.yul\":1425:1706   */\ntag_22:\n    /* \"#utility.yul\":1508:1535   */\n  tag_66\n    /* \"#utility.yul\":1530:1534   */\n  dup3\n    /* \"#utility.yul\":1508:1535   */\n  tag_20\n  jump\t// in\ntag_66:\n    /* \"#utility.yul\":1500:1506   */\n  dup2\n    /* \"#utility.yul\":1496:1536   */\n  add\n    /* \"#utility.yul\":1638:1644   */\n  dup2\n    /* \"#utility.yul\":1626:1636   */\n  dup2\n    /* \"#utility.yul\":1623:1645   */\n  lt\n    /* \"#utility.yul\":1602:1620   */\n  0xffffffffffffffff\n    /* \"#utility.yul\":1590:1600   */\n  dup3\n    /* \"#utility.yul\":1587:1621   */\n  gt\n    /* \"#utility.yul\":1584:1646   */\n  or\n    /* \"#utility.yul\":1581:1669   */\n  iszero\n  tag_67\n  jumpi\n    /* \"#utility.yul\":1649:1667   */\n  tag_68\n  tag_21\n  jump\t// in\ntag_68:\n    /* \"#utility.yul\":1581:1669   */\ntag_67:\n    /* \"#utility.yul\":1689:1699   */\n  dup1\n    /* \"#utility.yul\":1685:1687   */\n  0x40\n    /* \"#utility.yul\":1678:1700   */\n  mstore\n    /* \"#utility.yul\":1468:1706   */\n  pop\n    /* \"#utility.yul\":1425:1706   */\n  pop\n  pop\n  jump\t// out\n    /* \"#utility.yul\":1712:1841   */\ntag_23:\n    /* \"#utility.yul\":1746:1752   */\n  0x00\n    /* \"#utility.yul\":1773:1793   */\n  tag_70\n  tag_11\n  jump\t// in\ntag_70:\n    /* \"#utility.yul\":1763:1793   */\n  swap1\n  pop\n    /* \"#utility.yul\":1802:1835   */\n  tag_71\n    /* \"#utility.yul\":1830:1834   */\n  dup3\n    /* \"#utility.yul\":1822:1828   */\n  dup3\n    /* \"#utility.yul\":1802:1835   */\n  tag_22\n  jump\t// in\ntag_71:\n    /* \"#utility.yul\":1712:1841   */\n  swap2\n  swap1\n  pop\n  jump\t// out\n    /* \"#utility.yul\":1847:2155   */\ntag_24:\n    /* \"#utility.yul\":1909:1913   */\n  0x00\n    /* \"#utility.yul\":1999:2017   */\n  0xffffffffffffffff\n    /* \"#utility.yul\":1991:1997   */\n  dup3\n    /* \"#utility.yul\":1988:2018   */\n  gt\n    /* \"#utility.yul\":1985:2041   */\n  iszero\n  tag_73\n  jumpi\n    /* \"#utility.yul\":2021:2039   */\n  tag_74\n  tag_21\n  jump\t// in\ntag_74:\n    /* \"#utility.yul\":1985:2041   */\ntag_73:\n    /* \"#utility.yul\":2059:2088   */\n  tag_75\n    /* \"#utility.yul\":2081:2087   */\n  dup3\n    /* \"#utility.yul\":2059:2088   */\n  tag_20\n  jump\t// in\ntag_75:\n    /* \"#utility.yul\":2051:2088   */\n  swap1\n  pop\n    /* \"#utility.yul\":2143:2147   */\n  0x20\n    /* \"#utility.yul\":2137:2141   */\n  dup2\n    /* \"#utility.yul\":2133:2148   */\n  add\n    /* \"#utility.yul\":2125:2148   */\n  swap1\n  pop\n    /* \"#utility.yul\":1847:2155   */\n  swap2\n  swap1\n  pop\n  jump\t// out\n    /* \"#utility.yul\":2161:2407   */\ntag_25:\n    /* \"#utility.yul\":2242:2243   */\n  0x00\n    /* \"#utility.yul\":2252:2365   */\ntag_77:\n    /* \"#utility.yul\":2266:2272   */\n  dup4\n    /* \"#utility.yul\":2263:2264   */\n  dup2\n    /* \"#utility.yul\":2260:2273   */\n  lt\n    /* \"#utility.yul\":2252:2365   */\n  iszero\n  tag_79\n  jumpi\n    /* \"#utility.yul\":2351:2352   */\n  dup1\n    /* \"#utility.yul\":2346:2349   */\n  dup3\n    /* \"#utility.yul\":2342:2353   */\n  add\n    /* \"#utility.yul\":2336:2354   */\n  mload\n    /* \"#utility.yul\":2332:2333   */\n  dup2\n    /* \"#utility.yul\":2327:2330   */\n  dup5\n    /* \"#utility.yul\":2323:2334   */\n  add\n    /* \"#utility.yul\":2316:2355   */\n  mstore\n    /* \"#utility.yul\":2288:2290   */\n  0x20\n    /* \"#utility.yul\":2285:2286   */\n  dup2\n    /* \"#utility.yul\":2281:2291   */\n  add\n    /* \"#utility.yul\":2276:2291   */\n  swap1\n  pop\n    /* \"#utility.yul\":2252:2365   */\n  jump(tag_77)\ntag_79:\n    /* \"#utility.yul\":2399:2400   */\n  0x00\n    /* \"#utility.yul\":2390:2396   */\n  dup5\n    /* \"#utility.yul\":2385:2388   */\n  dup5\n    /* \"#utility.yul\":2381:2397   */\n  add\n    /* \"#utility.yul\":2374:2401   */\n  mstore\n    /* \"#utility.yul\":2223:2407   */\n  pop\n    /* \"#utility.yul\":2161:2407   */\n  pop\n  pop\n  pop\n  jump\t// out\n    /* \"#utility.yul\":2413:2847   */\ntag_26:\n    /* \"#utility.yul\":2502:2507   */\n  0x00\n    /* \"#utility.yul\":2527:2593   */\n  tag_81\n    /* \"#utility.yul\":2543:2592   */\n  tag_82\n    /* \"#utility.yul\":2585:2591   */\n  dup5\n    /* \"#utility.yul\":2543:2592   */\n  tag_24\n  jump\t// in\ntag_82:\n    /* \"#utility.yul\":2527:2593   */\n  tag_23\n  jump\t// in\ntag_81:\n    /* \"#utility.yul\":2518:2593   */\n  swap1\n  pop\n    /* \"#utility.yul\":2616:2622   */\n  dup3\n    /* \"#utility.yul\":2609:2614   */\n  dup2\n    /* \"#utility.yul\":2602:2623   */\n  mstore\n    /* \"#utility.yul\":2654:2658   */\n  0x20\n    /* \"#utility.yul\":2647:2652   */\n  dup2\n    /* \"#utility.yul\":2643:2659   */\n  add\n    /* \"#utility.yul\":2692:2695   */\n  dup5\n    /* \"#utility.yul\":2683:2689   */\n  dup5\n    /* \"#utility.yul\":2678:2681   */\n  dup5\n    /* \"#utility.yul\":2674:2690   */\n  add\n    /* \"#utility.yul\":2671:2696   */\n  gt\n    /* \"#utility.yul\":2668:2780   */\n  iszero\n  tag_83\n  jumpi\n    /* \"#utility.yul\":2699:2778   */\n  tag_84\n  tag_19\n  jump\t// in\ntag_84:\n    /* \"#utility.yul\":2668:2780   */\ntag_83:\n    /* \"#utility.yul\":2789:2841   */\n  tag_85\n    /* \"#utility.yul\":2834:2840   */\n  dup5\n    /* \"#utility.yul\":2829:2832   */\n  dup3\n    /* \"#utility.yul\":2824:2827   */\n  dup6\n    /* \"#utility.yul\":2789:2841   */\n  tag_25\n  jump\t// in\ntag_85:\n    /* \"#utility.yul\":2508:2847   */\n  pop\n    /* \"#utility.yul\":2413:2847   */\n  swap4\n  swap3\n  pop\n  pop\n  pop\n  jump\t// out\n    /* \"#utility.yul\":2867:3222   */\ntag_27:\n    /* \"#utility.yul\":2934:2939   */\n  0x00\n    /* \"#utility.yul\":2983:2986   */\n  dup3\n    /* \"#utility.yul\":2976:2980   */\n  0x1f\n    /* \"#utility.yul\":2968:2974   */\n  dup4\n    /* \"#utility.yul\":2964:2981   */\n  add\n    /* \"#utility.yul\":2960:2987   */\n  slt\n    /* \"#utility.yul\":2950:3072   */\n  tag_87\n  jumpi\n    /* \"#utility.yul\":2991:3070   */\n  tag_88\n  tag_18\n  jump\t// in\ntag_88:\n    /* \"#utility.yul\":2950:3072   */\ntag_87:\n    /* \"#utility.yul\":3101:3107   */\n  dup2\n    /* \"#utility.yul\":3095:3108   */\n  mload\n    /* \"#utility.yul\":3126:3216   */\n  tag_89\n    /* \"#utility.yul\":3212:3215   */\n  dup5\n    /* \"#utility.yul\":3204:3210   */\n  dup3\n    /* \"#utility.yul\":3197:3201   */\n  0x20\n    /* \"#utility.yul\":3189:3195   */\n  dup7\n    /* \"#utility.yul\":3185:3202   */\n  add\n    /* \"#utility.yul\":3126:3216   */\n  tag_26\n  jump\t// in\ntag_89:\n    /* \"#utility.yul\":3117:3216   */\n  swap2\n  pop\n    /* \"#utility.yul\":2940:3222   */\n  pop\n    /* \"#utility.yul\":2867:3222   */\n  swap3\n  swap2\n  pop\n  pop\n  jump\t// out\n    /* \"#utility.yul\":3228:3305   */\ntag_28:\n    /* \"#utility.yul\":3265:3272   */\n  0x00\n    /* \"#utility.yul\":3294:3299   */\n  dup2\n    /* \"#utility.yul\":3283:3299   */\n  swap1\n  pop\n    /* \"#utility.yul\":3228:3305   */\n  swap2\n  swap1\n  pop\n  jump\t// out\n    /* \"#utility.yul\":3311:3433   */\ntag_29:\n    /* \"#utility.yul\":3384:3408   */\n  tag_92\n    /* \"#utility.yul\":3402:3407   */\n  dup2\n    /* \"#utility.yul\":3384:3408   */\n  tag_28\n  jump\t// in\ntag_92:\n    /* \"#utility.yul\":3377:3382   */\n  dup2\n    /* \"#utility.yul\":3374:3409   */\n  eq\n    /* \"#utility.yul\":3364:3427   */\n  tag_93\n  jumpi\n    /* \"#utility.yul\":3423:3424   */\n  0x00\n    /* \"#utility.yul\":3420:3421   */\n  dup1\n    /* \"#utility.yul\":3413:3425   */\n  revert\n    /* \"#utility.yul\":3364:3427   */\ntag_93:\n    /* \"#utility.yul\":3311:3433   */\n  pop\n  jump\t// out\n    /* \"#utility.yul\":3439:3582   */\ntag_30:\n    /* \"#utility.yul\":3496:3501   */\n  0x00\n    /* \"#utility.yul\":3527:3533   */\n  dup2\n    /* \"#utility.yul\":3521:3534   */\n  mload\n    /* \"#utility.yul\":3512:3534   */\n  swap1\n  pop\n    /* \"#utility.yul\":3543:3576   */\n  tag_95\n    /* \"#utility.yul\":3570:3575   */\n  dup2\n    /* \"#utility.yul\":3543:3576   */\n  tag_29\n  jump\t// in\ntag_95:\n    /* \"#utility.yul\":3439:3582   */\n  swap3\n  swap2\n  pop\n  pop\n  jump\t// out\n    /* \"#utility.yul\":3588:5257   */\ntag_3:\n    /* \"#utility.yul\":3741:3747   */\n  0x00\n    /* \"#utility.yul\":3749:3755   */\n  dup1\n    /* \"#utility.yul\":3757:3763   */\n  0x00\n    /* \"#utility.yul\":3765:3771   */\n  dup1\n    /* \"#utility.yul\":3773:3779   */\n  0x00\n    /* \"#utility.yul\":3781:3787   */\n  dup1\n    /* \"#utility.yul\":3830:3833   */\n  0xc0\n    /* \"#utility.yul\":3818:3827   */\n  dup8\n    /* \"#utility.yul\":3809:3816   */\n  dup10\n    /* \"#utility.yul\":3805:3828   */\n  sub\n    /* \"#utility.yul\":3801:3834   */\n  slt\n    /* \"#utility.yul\":3798:3918   */\n  iszero\n  tag_97\n  jumpi\n    /* \"#utility.yul\":3837:3916   */\n  tag_98\n  tag_12\n  jump\t// in\ntag_98:\n    /* \"#utility.yul\":3798:3918   */\ntag_97:\n    /* \"#utility.yul\":3957:3958   */\n  0x00\n    /* \"#utility.yul\":3982:4054   */\n  tag_99\n    /* \"#utility.yul\":4046:4053   */\n  dup10\n    /* \"#utility.yul\":4037:4043   */\n  dup3\n    /* \"#utility.yul\":4026:4035   */\n  dup11\n    /* \"#utility.yul\":4022:4044   */\n  add\n    /* \"#utility.yul\":3982:4054   */\n  tag_17\n  jump\t// in\ntag_99:\n    /* \"#utility.yul\":3972:4054   */\n  swap7\n  pop\n    /* \"#utility.yul\":3928:4064   */\n  pop\n    /* \"#utility.yul\":4124:4126   */\n  0x20\n    /* \"#utility.yul\":4113:4122   */\n  dup8\n    /* \"#utility.yul\":4109:4127   */\n  add\n    /* \"#utility.yul\":4103:4128   */\n  mload\n    /* \"#utility.yul\":4155:4173   */\n  0xffffffffffffffff\n    /* \"#utility.yul\":4147:4153   */\n  dup2\n    /* \"#utility.yul\":4144:4174   */\n  gt\n    /* \"#utility.yul\":4141:4258   */\n  iszero\n  tag_100\n  jumpi\n    /* \"#utility.yul\":4177:4256   */\n  tag_101\n  tag_13\n  jump\t// in\ntag_101:\n    /* \"#utility.yul\":4141:4258   */\ntag_100:\n    /* \"#utility.yul\":4282:4356   */\n  tag_102\n    /* \"#utility.yul\":4348:4355   */\n  dup10\n    /* \"#utility.yul\":4339:4345   */\n  dup3\n    /* \"#utility.yul\":4328:4337   */\n  dup11\n    /* \"#utility.yul\":4324:4346   */\n  add\n    /* \"#utility.yul\":4282:4356   */\n  tag_27\n  jump\t// in\ntag_102:\n    /* \"#utility.yul\":4272:4356   */\n  swap6\n  pop\n    /* \"#utility.yul\":4074:4366   */\n  pop\n    /* \"#utility.yul\":4426:4428   */\n  0x40\n    /* \"#utility.yul\":4415:4424   */\n  dup8\n    /* \"#utility.yul\":4411:4429   */\n  add\n    /* \"#utility.yul\":4405:4430   */\n  mload\n    /* \"#utility.yul\":4457:4475   */\n  0xffffffffffffffff\n    /* \"#utility.yul\":4449:4455   */\n  dup2\n    /* \"#utility.yul\":4446:4476   */\n  gt\n    /* \"#utility.yul\":4443:4560   */\n  iszero\n  tag_103\n  jumpi\n    /* \"#utility.yul\":4479:4558   */\n  tag_104\n  tag_13\n  jump\t// in\ntag_104:\n    /* \"#utility.yul\":4443:4560   */\ntag_103:\n    /* \"#utility.yul\":4584:4658   */\n  tag_105\n    /* \"#utility.yul\":4650:4657   */\n  dup10\n    /* \"#utility.yul\":4641:4647   */\n  dup3\n    /* \"#utility.yul\":4630:4639   */\n  dup11\n    /* \"#utility.yul\":4626:4648   */\n  add\n    /* \"#utility.yul\":4584:4658   */\n  tag_27\n  jump\t// in\ntag_105:\n    /* \"#utility.yul\":4574:4658   */\n  swap5\n  pop\n    /* \"#utility.yul\":4376:4668   */\n  pop\n    /* \"#utility.yul\":4728:4730   */\n  0x60\n    /* \"#utility.yul\":4717:4726   */\n  dup8\n    /* \"#utility.yul\":4713:4731   */\n  add\n    /* \"#utility.yul\":4707:4732   */\n  mload\n    /* \"#utility.yul\":4759:4777   */\n  0xffffffffffffffff\n    /* \"#utility.yul\":4751:4757   */\n  dup2\n    /* \"#utility.yul\":4748:4778   */\n  gt\n    /* \"#utility.yul\":4745:4862   */\n  iszero\n  tag_106\n  jumpi\n    /* \"#utility.yul\":4781:4860   */\n  tag_107\n  tag_13\n  jump\t// in\ntag_107:\n    /* \"#utility.yul\":4745:4862   */\ntag_106:\n    /* \"#utility.yul\":4886:4960   */\n  tag_108\n    /* \"#utility.yul\":4952:4959   */\n  dup10\n    /* \"#utility.yul\":4943:4949   */\n  dup3\n    /* \"#utility.yul\":4932:4941   */\n  dup11\n    /* \"#utility.yul\":4928:4950   */\n  add\n    /* \"#utility.yul\":4886:4960   */\n  tag_27\n  jump\t// in\ntag_108:\n    /* \"#utility.yul\":4876:4960   */\n  swap4\n  pop\n    /* \"#utility.yul\":4678:4970   */\n  pop\n    /* \"#utility.yul\":5009:5012   */\n  0x80\n    /* \"#utility.yul\":5036:5100   */\n  tag_109\n    /* \"#utility.yul\":5092:5099   */\n  dup10\n    /* \"#utility.yul\":5083:5089   */\n  dup3\n    /* \"#utility.yul\":5072:5081   */\n  dup11\n    /* \"#utility.yul\":5068:5090   */\n  add\n    /* \"#utility.yul\":5036:5100   */\n  tag_30\n  jump\t// in\ntag_109:\n    /* \"#utility.yul\":5026:5100   */\n  swap3\n  pop\n    /* \"#utility.yul\":4980:5110   */\n  pop\n    /* \"#utility.yul\":5149:5152   */\n  0xa0\n    /* \"#utility.yul\":5176:5240   */\n  tag_110\n    /* \"#utility.yul\":5232:5239   */\n  dup10\n    /* \"#utility.yul\":5223:5229   */\n  dup3\n    /* \"#utility.yul\":5212:5221   */\n  dup11\n    /* \"#utility.yul\":5208:5230   */\n  add\n    /* \"#utility.yul\":5176:5240   */\n  tag_30\n  jump\t// in\ntag_110:\n    /* \"#utility.yul\":5166:5240   */\n  swap2\n  pop\n    /* \"#utility.yul\":5120:5250   */\n  pop\n    /* \"#utility.yul\":3588:5257   */\n  swap3\n  swap6\n  pop\n  swap3\n  swap6\n  pop\n  swap3\n  swap6\n  jump\t// out\n    /* \"#utility.yul\":5263:5362   */\ntag_31:\n    /* \"#utility.yul\":5315:5321   */\n  0x00\n    /* \"#utility.yul\":5349:5354   */\n  dup2\n    /* \"#utility.yul\":5343:5355   */\n  mload\n    /* \"#utility.yul\":5333:5355   */\n  swap1\n  pop\n    /* \"#utility.yul\":5263:5362   */\n  swap2\n  swap1\n  pop\n  jump\t// out\n    /* \"#utility.yul\":5368:5548   */\ntag_32:\n    /* \"#utility.yul\":5416:5493   */\n  0x4e487b7100000000000000000000000000000000000000000000000000000000\n    /* \"#utility.yul\":5413:5414   */\n  0x00\n    /* \"#utility.yul\":5406:5494   */\n  mstore\n    /* \"#utility.yul\":5513:5517   */\n  0x22\n    /* \"#utility.yul\":5510:5511   */\n  0x04\n    /* \"#utility.yul\":5503:5518   */\n  mstore\n    /* \"#utility.yul\":5537:5541   */\n  0x24\n    /* \"#utility.yul\":5534:5535   */\n  0x00\n    /* \"#utility.yul\":5527:5542   */\n  revert\n    /* \"#utility.yul\":5554:5874   */\ntag_33:\n    /* \"#utility.yul\":5598:5604   */\n  0x00\n    /* \"#utility.yul\":5635:5636   */\n  0x02\n    /* \"#utility.yul\":5629:5633   */\n  dup3\n    /* \"#utility.yul\":5625:5637   */\n  div\n    /* \"#utility.yul\":5615:5637   */\n  swap1\n  pop\n    /* \"#utility.yul\":5682:5683   */\n  0x01\n    /* \"#utility.yul\":5676:5680   */\n  dup3\n    /* \"#utility.yul\":5672:5684   */\n  and\n    /* \"#utility.yul\":5703:5721   */\n  dup1\n    /* \"#utility.yul\":5693:5774   */\n  tag_114\n  jumpi\n    /* \"#utility.yul\":5759:5763   */\n  0x7f\n    /* \"#utility.yul\":5751:5757   */\n  dup3\n    /* \"#utility.yul\":5747:5764   */\n  and\n    /* \"#utility.yul\":5737:5764   */\n  swap2\n  pop\n    /* \"#utility.yul\":5693:5774   */\ntag_114:\n    /* \"#utility.yul\":5821:5823   */\n  0x20\n    /* \"#utility.yul\":5813:5819   */\n  dup3\n    /* \"#utility.yul\":5810:5824   */\n  lt\n    /* \"#utility.yul\":5790:5808   */\n  dup2\n    /* \"#utility.yul\":5787:5825   */\n  sub\n    /* \"#utility.yul\":5784:5868   */\n  tag_115\n  jumpi\n    /* \"#utility.yul\":5840:5858   */\n  tag_116\n  tag_32\n  jump\t// in\ntag_116:\n    /* \"#utility.yul\":5784:5868   */\ntag_115:\n    /* \"#utility.yul\":5605:5874   */\n  pop\n    /* \"#utility.yul\":5554:5874   */\n  swap2\n  swap1\n  pop\n  jump\t// out\n    /* \"#utility.yul\":5880:6021   */\ntag_34:\n    /* \"#utility.yul\":5929:5933   */\n  0x00\n    /* \"#utility.yul\":5952:5955   */\n  dup2\n    /* \"#utility.yul\":5944:5955   */\n  swap1\n  pop\n    /* \"#utility.yul\":5975:5978   */\n  dup2\n    /* \"#utility.yul\":5972:5973   */\n  0x00\n    /* \"#utility.yul\":5965:5979   */\n  mstore\n    /* \"#utility.yul\":6009:6013   */\n  0x20\n    /* \"#utility.yul\":6006:6007   */\n  0x00\n    /* \"#utility.yul\":5996:6014   */\n  keccak256\n    /* \"#utility.yul\":5988:6014   */\n  swap1\n  pop\n    /* \"#utility.yul\":5880:6021   */\n  swap2\n  swap1\n  pop\n  jump\t// out\n    /* \"#utility.yul\":6027:6120   */\ntag_35:\n    /* \"#utility.yul\":6064:6070   */\n  0x00\n    /* \"#utility.yul\":6111:6113   */\n  0x20\n    /* \"#utility.yul\":6106:6108   */\n  0x1f\n    /* \"#utility.yul\":6099:6104   */\n  dup4\n    /* \"#utility.yul\":6095:6109   */\n  add\n    /* \"#utility.yul\":6091:6114   */\n  div\n    /* \"#utility.yul\":6081:6114   */\n  swap1\n  pop\n    /* \"#utility.yul\":6027:6120   */\n  swap2\n  swap1\n  pop\n  jump\t// out\n    /* \"#utility.yul\":6126:6233   */\ntag_36:\n    /* \"#utility.yul\":6170:6178   */\n  0x00\n    /* \"#utility.yul\":6220:6225   */\n  dup3\n    /* \"#utility.yul\":6214:6218   */\n  dup3\n    /* \"#utility.yul\":6210:6226   */\n  shl\n    /* \"#utility.yul\":6189:6226   */\n  swap1\n  pop\n    /* \"#utility.yul\":6126:6233   */\n  swap3\n  swap2\n  pop\n  pop\n  jump\t// out\n    /* \"#utility.yul\":6239:6632   */\ntag_37:\n    /* \"#utility.yul\":6308:6314   */\n  0x00\n    /* \"#utility.yul\":6358:6359   */\n  0x08\n    /* \"#utility.yul\":6346:6356   */\n  dup4\n    /* \"#utility.yul\":6342:6360   */\n  mul\n    /* \"#utility.yul\":6381:6478   */\n  tag_121\n    /* \"#utility.yul\":6411:6477   */\n  0xffffffffffffffffffffffffffffffffffffffffffffffffffffffffffffffff\n    /* \"#utility.yul\":6400:6409   */\n  dup3\n    /* \"#utility.yul\":6381:6478   */\n  tag_36\n  jump\t// in\ntag_121:\n    /* \"#utility.yul\":6499:6538   */\n  tag_122\n    /* \"#utility.yul\":6529:6537   */\n  dup7\n    /* \"#utility.yul\":6518:6527   */\n  dup4\n    /* \"#utility.yul\":6499:6538   */\n  tag_36\n  jump\t// in\ntag_122:\n    /* \"#utility.yul\":6487:6538   */\n  swap6\n  pop\n    /* \"#utility.yul\":6571:6575   */\n  dup1\n    /* \"#utility.yul\":6567:6576   */\n  not\n    /* \"#utility.yul\":6560:6565   */\n  dup5\n    /* \"#utility.yul\":6556:6577   */\n  and\n    /* \"#utility.yul\":6547:6577   */\n  swap4\n  pop\n    /* \"#utility.yul\":6620:6624   */\n  dup1\n    /* \"#utility.yul\":6610:6618   */\n  dup7\n    /* \"#utility.yul\":6606:6625   */\n  and\n    /* \"#utility.yul\":6599:6604   */\n  dup5\n    /* \"#utility.yul\":6596:6626   */\n  or\n    /* \"#utility.yul\":6586:6626   */\n  swap3\n  pop\n    /* \"#utility.yul\":6315:6632   */\n  pop\n  pop\n    /* \"#utility.yul\":6239:6632   */\n  swap4\n  swap3\n  pop\n  pop\n  pop\n  jump\t// out\n    /* \"#utility.yul\":6638:6698   */\ntag_38:\n    /* \"#utility.yul\":6666:6669   */\n  0x00\n    /* \"#utility.yul\":6687:6692   */\n  dup2\n    /* \"#utility.yul\":6680:6692   */\n  swap1\n  pop\n    /* \"#utility.yul\":6638:6698   */\n  swap2\n  swap1\n  pop\n  jump\t// out\n    /* \"#utility.yul\":6704:6846   */\ntag_39:\n    /* \"#utility.yul\":6754:6763   */\n  0x00\n    /* \"#utility.yul\":6787:6840   */\n  tag_125\n    /* \"#utility.yul\":6805:6839   */\n  tag_126\n    /* \"#utility.yul\":6814:6838   */\n  tag_127\n    /* \"#utility.yul\":6832:6837   */\n  dup5\n    /* \"#utility.yul\":6814:6838   */\n  tag_28\n  jump\t// in\ntag_127:\n    /* \"#utility.yul\":6805:6839   */\n  tag_38\n  jump\t// in\ntag_126:\n    /* \"#utility.yul\":6787:6840   */\n  tag_28\n  jump\t// in\ntag_125:\n    /* \"#utility.yul\":6774:6840   */\n  swap1\n  pop\n    /* \"#utility.yul\":6704:6846   */\n  swap2\n  swap1\n  pop\n  jump\t// out\n    /* \"#utility.yul\":6852:6927   */\ntag_40:\n    /* \"#utility.yul\":6895:6898   */\n  0x00\n    /* \"#utility.yul\":6916:6921   */\n  dup2\n    /* \"#utility.yul\":6909:6921   */\n  swap1\n  pop\n    /* \"#utility.yul\":6852:6927   */\n  swap2\n  swap1\n  pop\n  jump\t// out\n    /* \"#utility.yul\":6933:7202   */\ntag_41:\n    /* \"#utility.yul\":7043:7082   */\n  tag_130\n    /* \"#utility.yul\":7074:7081   */\n  dup4\n    /* \"#utility.yul\":7043:7082   */\n  tag_39\n  jump\t// in\ntag_130:\n    /* \"#utility.yul\":7104:7195   */\n  tag_131\n    /* \"#utility.yul\":7153:7194   */\n  tag_132\n    /* \"#utility.yul\":7177:7193   */\n  dup3\n    /* \"#utility.yul\":7153:7194   */\n  tag_40\n  jump\t// in\ntag_132:\n    /* \"#utility.yul\":7145:7151   */\n  dup5\n    /* \"#utility.yul\":7138:7142   */\n  dup5\n    /* \"#utility.yul\":7132:7143   */\n  sload\n    /* \"#utility.yul\":7104:7195   */\n  tag_37\n  jump\t// in\ntag_131:\n    /* \"#utility.yul\":7098:7102   */\n  dup3\n    /* \"#utility.yul\":7091:7196   */\n  sstore\n    /* \"#utility.yul\":7009:7202   */\n  pop\n    /* \"#utility.yul\":6933:7202   */\n  pop\n  pop\n  pop\n  jump\t// out\n    /* \"#utility.yul\":7208:7281   */\ntag_42:\n    /* \"#utility.yul\":7253:7256   */\n  0x00\n    /* \"#utility.yul\":7208:7281   */\n  swap1\n  jump\t// out\n    /* \"#utility.yul\":7287:7476   */\ntag_43:\n    /* \"#utility.yul\":7364:7396   */\n  tag_135\n  tag_42\n  jump\t// in\ntag_135:\n    /* \"#utility.yul\":7405:7470   */\n  tag_136\n    /* \"#utility.yul\":7463:7469   */\n  dup2\n    /* \"#utility.yul\":7455:7461   */\n  dup5\n    /* \"#utility.yul\":7449:7453   */\n  dup5\n    /* \"#utility.yul\":7405:7470   */\n  tag_41\n  jump\t// in\ntag_136:\n    /* \"#utility.yul\":7340:7476   */\n  pop\n    /* \"#utility.yul\":7287:7476   */\n  pop\n  pop\n  jump\t// out\n    /* \"#utility.yul\":7482:7668   */\ntag_44:\n    /* \"#utility.yul\":7542:7662   */\ntag_138:\n    /* \"#utility.yul\":7559:7562   */\n  dup2\n    /* \"#utility.yul\":7552:7557   */\n  dup2\n    /* \"#utility.yul\":7549:7563   */\n  lt\n    /* \"#utility.yul\":7542:7662   */\n  iszero\n  tag_140\n  jumpi\n    /* \"#utility.yul\":7613:7652   */\n  tag_141\n    /* \"#utility.yul\":7650:7651   */\n  0x00\n    /* \"#utility.yul\":7643:7648   */\n  dup3\n    /* \"#utility.yul\":7613:7652   */\n  tag_43\n  jump\t// in\ntag_141:\n    /* \"#utility.yul\":7586:7587   */\n  0x01\n    /* \"#utility.yul\":7579:7584   */\n  dup2\n    /* \"#utility.yul\":7575:7588   */\n  add\n    /* \"#utility.yul\":7566:7588   */\n  swap1\n  pop\n    /* \"#utility.yul\":7542:7662   */\n  jump(tag_138)\ntag_140:\n    /* \"#utility.yul\":7482:7668   */\n  pop\n  pop\n  jump\t// out\n    /* \"#utility.yul\":7674:8217   */\ntag_45:\n    /* \"#utility.yul\":7775:7777   */\n  0x1f\n    /* \"#utility.yul\":7770:7773   */\n  dup3\n    /* \"#utility.yul\":7767:7778   */\n  gt\n    /* \"#utility.yul\":7764:8210   */\n  iszero\n  tag_143\n  jumpi\n    /* \"#utility.yul\":7809:7847   */\n  tag_144\n    /* \"#utility.yul\":7841:7846   */\n  dup2\n    /* \"#utility.yul\":7809:7847   */\n  tag_34\n  jump\t// in\ntag_144:\n    /* \"#utility.yul\":7893:7922   */\n  tag_145\n    /* \"#utility.yul\":7911:7921   */\n  dup5\n    /* \"#utility.yul\":7893:7922   */\n  tag_35\n  jump\t// in\ntag_145:\n    /* \"#utility.yul\":7883:7891   */\n  dup2\n    /* \"#utility.yul\":7879:7923   */\n  add\n    /* \"#utility.yul\":8076:8078   */\n  0x20\n    /* \"#utility.yul\":8064:8074   */\n  dup6\n    /* \"#utility.yul\":8061:8079   */\n  lt\n    /* \"#utility.yul\":8058:8107   */\n  iszero\n  tag_146\n  jumpi\n    /* \"#utility.yul\":8097:8105   */\n  dup2\n    /* \"#utility.yul\":8082:8105   */\n  swap1\n  pop\n    /* \"#utility.yul\":8058:8107   */\ntag_146:\n    /* \"#utility.yul\":8120:8200   */\n  tag_147\n    /* \"#utility.yul\":8176:8198   */\n  tag_148\n    /* \"#utility.yul\":8194:8197   */\n  dup6\n    /* \"#utility.yul\":8176:8198   */\n  tag_35\n  jump\t// in\ntag_148:\n    /* \"#utility.yul\":8166:8174   */\n  dup4\n    /* \"#utility.yul\":8162:8199   */\n  add\n    /* \"#utility.yul\":8149:8160   */\n  dup3\n    /* \"#utility.yul\":8120:8200   */\n  tag_44\n  jump\t// in\ntag_147:\n    /* \"#utility.yul\":7779:8210   */\n  pop\n  pop\n    /* \"#utility.yul\":7764:8210   */\ntag_143:\n    /* \"#utility.yul\":7674:8217   */\n  pop\n  pop\n  pop\n  jump\t// out\n    /* \"#utility.yul\":8223:8340   */\ntag_46:\n    /* \"#utility.yul\":8277:8285   */\n  0x00\n    /* \"#utility.yul\":8327:8332   */\n  dup3\n    /* \"#utility.yul\":8321:8325   */\n  dup3\n    /* \"#utility.yul\":8317:8333   */\n  shr\n    /* \"#utility.yul\":8296:8333   */\n  swap1\n  pop\n    /* \"#utility.yul\":8223:8340   */\n  swap3\n  swap2\n  pop\n  pop\n  jump\t// out\n    /* \"#utility.yul\":8346:8515   */\ntag_47:\n    /* \"#utility.yul\":8390:8396   */\n  0x00\n    /* \"#utility.yul\":8423:8474   */\n  tag_151\n    /* \"#utility.yul\":8471:8472   */\n  0x00\n    /* \"#utility.yul\":8467:8473   */\n  not\n    /* \"#utility.yul\":8459:8464   */\n  dup5\n    /* \"#utility.yul\":8456:8457   */\n  0x08\n    /* \"#utility.yul\":8452:8465   */\n  mul\n    /* \"#utility.yul\":8423:8474   */\n  tag_46\n  jump\t// in\ntag_151:\n    /* \"#utility.yul\":8419:8475   */\n  not\n    /* \"#utility.yul\":8504:8508   */\n  dup1\n    /* \"#utility.yul\":8498:8502   */\n  dup4\n    /* \"#utility.yul\":8494:8509   */\n  and\n    /* \"#utility.yul\":8484:8509   */\n  swap2\n  pop\n    /* \"#utility.yul\":8397:8515   */\n  pop\n    /* \"#utility.yul\":8346:8515   */\n  swap3\n  swap2\n  pop\n  pop\n  jump\t// out\n    /* \"#utility.yul\":8520:8815   */\ntag_48:\n    /* \"#utility.yul\":8596:8600   */\n  0x00\n    /* \"#utility.yul\":8742:8771   */\n  tag_153\n    /* \"#utility.yul\":8767:8770   */\n  dup4\n    /* \"#utility.yul\":8761:8765   */\n  dup4\n    /* \"#utility.yul\":8742:8771   */\n  tag_47\n  jump\t// in\ntag_153:\n    /* \"#utility.yul\":8734:8771   */\n  swap2\n  pop\n    /* \"#utility.yul\":8804:8807   */\n  dup3\n    /* \"#utility.yul\":8801:8802   */\n  0x02\n    /* \"#utility.yul\":8797:8808   */\n  mul\n    /* \"#utility.yul\":8791:8795   */\n  dup3\n    /* \"#utility.yul\":8788:8809   */\n  or\n    /* \"#utility.yul\":8780:8809   */\n  swap1\n  pop\n    /* \"#utility.yul\":8520:8815   */\n  swap3\n  swap2\n  pop\n  pop\n  jump\t// out\n    /* \"#utility.yul\":8820:10215   */\ntag_7:\n    /* \"#utility.yul\":8937:8974   */\n  tag_155\n    /* \"#utility.yul\":8970:8973   */\n  dup3\n    /* \"#utility.yul\":8937:8974   */\n  tag_31\n  jump\t// in\ntag_155:\n    /* \"#utility.yul\":9039:9057   */\n  0xffffffffffffffff\n    /* \"#utility.yul\":9031:9037   */\n  dup2\n    /* \"#utility.yul\":9028:9058   */\n  gt\n    /* \"#utility.yul\":9025:9081   */\n  iszero\n  tag_156\n  jumpi\n    /* \"#utility.yul\":9061:9079   */\n  tag_157\n  tag_21\n  jump\t// in\ntag_157:\n    /* \"#utility.yul\":9025:9081   */\ntag_156:\n    /* \"#utility.yul\":9105:9143   */\n  tag_158\n    /* \"#utility.yul\":9137:9141   */\n  dup3\n    /* \"#utility.yul\":9131:9142   */\n  sload\n    /* \"#utility.yul\":9105:9143   */\n  tag_33\n  jump\t// in\ntag_158:\n    /* \"#utility.yul\":9190:9257   */\n  tag_159\n    /* \"#utility.yul\":9250:9256   */\n  dup3\n    /* \"#utility.yul\":9242:9248   */\n  dup3\n    /* \"#utility.yul\":9236:9240   */\n  dup6\n    /* \"#utility.yul\":9190:9257   */\n  tag_45\n  jump\t// in\ntag_159:\n    /* \"#utility.yul\":9284:9285   */\n  0x00\n    /* \"#utility.yul\":9308:9312   */\n  0x20\n    /* \"#utility.yul\":9295:9312   */\n  swap1\n  pop\n    /* \"#utility.yul\":9340:9342   */\n  0x1f\n    /* \"#utility.yul\":9332:9338   */\n  dup4\n    /* \"#utility.yul\":9329:9343   */\n  gt\n    /* \"#utility.yul\":9357:9358   */\n  0x01\n    /* \"#utility.yul\":9352:9970   */\n  dup2\n  eq\n  tag_161\n  jumpi\n    /* \"#utility.yul\":10014:10015   */\n  0x00\n    /* \"#utility.yul\":10031:10037   */\n  dup5\n    /* \"#utility.yul\":10028:10105   */\n  iszero\n  tag_162\n  jumpi\n    /* \"#utility.yul\":10080:10089   */\n  dup3\n    /* \"#utility.yul\":10075:10078   */\n  dup8\n    /* \"#utility.yul\":10071:10090   */\n  add\n    /* \"#utility.yul\":10065:10091   */\n  mload\n    /* \"#utility.yul\":10056:10091   */\n  swap1\n  pop\n    /* \"#utility.yul\":10028:10105   */\ntag_162:\n    /* \"#utility.yul\":10131:10198   */\n  tag_163\n    /* \"#utility.yul\":10191:10197   */\n  dup6\n    /* \"#utility.yul\":10184:10189   */\n  dup3\n    /* \"#utility.yul\":10131:10198   */\n  tag_48\n  jump\t// in\ntag_163:\n    /* \"#utility.yul\":10125:10129   */\n  dup7\n    /* \"#utility.yul\":10118:10199   */\n  sstore\n    /* \"#utility.yul\":9987:10209   */\n  pop\n    /* \"#utility.yul\":9322:10209   */\n  jump(tag_160)\n    /* \"#utility.yul\":9352:9970   */\ntag_161:\n    /* \"#utility.yul\":9404:9408   */\n  0x1f\n    /* \"#utility.yul\":9400:9409   */\n  not\n    /* \"#utility.yul\":9392:9398   */\n  dup5\n    /* \"#utility.yul\":9388:9410   */\n  and\n    /* \"#utility.yul\":9438:9475   */\n  tag_164\n    /* \"#utility.yul\":9470:9474   */\n  dup7\n    /* \"#utility.yul\":9438:9475   */\n  tag_34\n  jump\t// in\ntag_164:\n    /* \"#utility.yul\":9497:9498   */\n  0x00\n    /* \"#utility.yul\":9511:9719   */\ntag_165:\n    /* \"#utility.yul\":9525:9532   */\n  dup3\n    /* \"#utility.yul\":9522:9523   */\n  dup2\n    /* \"#utility.yul\":9519:9533   */\n  lt\n    /* \"#utility.yul\":9511:9719   */\n  iszero\n  tag_167\n  jumpi\n    /* \"#utility.yul\":9604:9613   */\n  dup5\n    /* \"#utility.yul\":9599:9602   */\n  dup10\n    /* \"#utility.yul\":9595:9614   */\n  add\n    /* \"#utility.yul\":9589:9615   */\n  mload\n    /* \"#utility.yul\":9581:9587   */\n  dup3\n    /* \"#utility.yul\":9574:9616   */\n  sstore\n    /* \"#utility.yul\":9655:9656   */\n  0x01\n    /* \"#utility.yul\":9647:9653   */\n  dup3\n    /* \"#utility.yul\":9643:9657   */\n  add\n    /* \"#utility.yul\":9633:9657   */\n  swap2\n  pop\n    /* \"#utility.yul\":9702:9704   */\n  0x20\n    /* \"#utility.yul\":9691:9700   */\n  dup6\n    /* \"#utility.yul\":9687:9705   */\n  add\n    /* \"#utility.yul\":9674:9705   */\n  swap5\n  pop\n    /* \"#utility.yul\":9548:9552   */\n  0x20\n    /* \"#utility.yul\":9545:9546   */\n  dup2\n    /* \"#utility.yul\":9541:9553   */\n  add\n    /* \"#utility.yul\":9536:9553   */\n  swap1\n  pop\n    /* \"#utility.yul\":9511:9719   */\n  jump(tag_165)\ntag_167:\n    /* \"#utility.yul\":9747:9753   */\n  dup7\n    /* \"#utility.yul\":9738:9745   */\n  dup4\n    /* \"#utility.yul\":9735:9754   */\n  lt\n    /* \"#utility.yul\":9732:9911   */\n  iszero\n  tag_168\n  jumpi\n    /* \"#utility.yul\":9805:9814   */\n  dup5\n    /* \"#utility.yul\":9800:9803   */\n  dup10\n    /* \"#utility.yul\":9796:9815   */\n  add\n    /* \"#utility.yul\":9790:9816   */\n  mload\n    /* \"#utility.yul\":9848:9896   */\n  tag_169\n    /* \"#utility.yul\":9890:9894   */\n  0x1f\n    /* \"#utility.yul\":9882:9888   */\n  dup10\n    /* \"#utility.yul\":9878:9895   */\n  and\n    /* \"#utility.yul\":9867:9876   */\n  dup3\n    /* \"#utility.yul\":9848:9896   */\n  tag_47\n  jump\t// in\ntag_169:\n    /* \"#utility.yul\":9840:9846   */\n  dup4\n    /* \"#utility.yul\":9833:9897   */\n  sstore\n    /* \"#utility.yul\":9755:9911   */\n  pop\n    /* \"#utility.yul\":9732:9911   */\ntag_168:\n    /* \"#utility.yul\":9957:9958   */\n  0x01\n    /* \"#utility.yul\":9953:9954   */\n  0x02\n    /* \"#utility.yul\":9945:9951   */\n  dup9\n    /* \"#utility.yul\":9941:9955   */\n  mul\n    /* \"#utility.yul\":9937:9959   */\n  add\n    /* \"#utility.yul\":9931:9935   */\n  dup9\n    /* \"#utility.yul\":9924:9960   */\n  sstore\n    /* \"#utility.yul\":9359:9970   */\n  pop\n  pop\n  pop\n    /* \"#utility.yul\":9322:10209   */\ntag_160:\n  pop\n    /* \"#utility.yul\":8912:10215   */\n  pop\n  pop\n  pop\n    /* \"#utility.yul\":8820:10215   */\n  pop\n  pop\n  jump\t// out\n    /* \"Campaign.sol\":870:4376  contract Campaign {... */\ntag_10:\n  mload(0x80)\n  codecopy(0x00, dataOffset(sub_0), dataSize(sub_0))\n  0x00\n  assignImmutable(\"0xa3bcf8af6929b66d6da7ee355c48fd1cf926fd090bc75a4dcbf7bd8e365645e3\")\n  return(0x00, dataSize(sub_0))\nstop\n\nsub_0: assembly {\n        /* \"Campaign.sol\":870:4376  contract Campaign {... */\n      mstore(0x40, 0x80)\n      jumpi(tag_1, lt(calldatasize, 0x04))\n      shr(0xe0, calldataload(0x00))\n      dup1\n      0x95bc3cb7\n      gt\n      tag_16\n      jumpi\n      dup1\n      0xd7d1bbdb\n      gt\n      tag_17\n      jumpi\n      dup1\n      0xd7d1bbdb\n      eq\n      tag_12\n      jumpi\n      dup1\n      0xe7b668b4\n      eq\n      tag_13\n      jumpi\n      dup1\n      0xebd94e21\n      eq\n      tag_14\n      jumpi\n      dup1\n      0xfed4416a\n      eq\n      tag_15\n      jumpi\n      jump(tag_1)\n    tag_17:\n      dup1\n      0x95bc3cb7\n      eq\n      tag_9\n      jumpi\n      dup1\n      0xaaffadf3\n      eq\n      tag_10\n      jumpi\n      dup1\n      0xc2bb515f\n      eq\n      tag_11\n      jumpi\n      jump(tag_1)\n    tag_16:\n      dup1\n      0x50520b1f\n      gt\n      tag_18\n      jumpi\n      dup1\n      0x50520b1f\n      eq\n      tag_5\n      jumpi\n      dup1\n      0x81d12c58\n      eq\n      tag_6\n      jumpi\n      dup1\n      0x82fde093\n      eq\n      tag_7\n      jumpi\n      dup1\n      0x8a9cfd55\n      eq\n      tag_8\n      jumpi\n      jump(tag_1)\n    tag_18:\n      dup1\n      0x0724fda9\n      eq\n      tag_2\n      jumpi\n      dup1\n      0x4051ddac\n      eq\n      tag_3\n      jumpi\n      dup1\n      0x481c6a75\n      eq\n      tag_4\n      jumpi\n    tag_1:\n      0x00\n      dup1\n      revert\n        /* \"Campaign.sol\":1184:1210  string public campaignName */\n    tag_2:\n      callvalue\n      dup1\n      iszero\n      tag_19\n      jumpi\n      0x00\n      dup1\n      revert\n    tag_19:\n      pop\n      tag_20\n      tag_21\n      jump\t// in\n    tag_20:\n      mload(0x40)\n      tag_22\n      swap2\n      swap1\n      tag_23\n      jump\t// in\n    tag_22:\n      mload(0x40)\n      dup1\n      swap2\n      sub\n      swap1\n      return\n        /* \"Campaign.sol\":3630:4275  function getSummary()... */\n    tag_3:\n      callvalue\n      dup1\n      iszero\n      tag_24\n      jumpi\n      0x00\n      dup1\n      revert\n    tag_24:\n      pop\n      tag_25\n      tag_26\n      jump\t// in\n    tag_25:\n      mload(0x40)\n      tag_27\n      swap11\n      swap10\n      swap9\n      swap8\n      swap7\n      swap6\n      swap5\n      swap4\n      swap3\n      swap2\n      swap1\n      tag_28\n      jump\t// in\n    tag_27:\n      mload(0x40)\n      dup1\n      swap2\n      sub\n      swap1\n      return\n        /* \"Campaign.sol\":1137:1177  address payable public immutable manager */\n    tag_4:\n      callvalue\n      dup1\n      iszero\n      tag_29\n      jumpi\n      0x00\n      dup1\n      revert\n    tag_29:\n      pop\n      tag_30\n      tag_31\n      jump\t// in\n    tag_30:\n      mload(0x40)\n      tag_32\n      swap2\n      swap1\n      tag_33\n      jump\t// in\n    tag_32:\n      mload(0x40)\n      dup1\n      swap2\n      sub\n      swap1\n      return\n        /* \"Campaign.sol\":2130:2480  function contribution() public payable {... */\n    tag_5:\n      tag_34\n      tag_35\n      jump\t// in\n    tag_34:\n      stop\n        /* \"Campaign.sol\":1105:1130  Request[] public requests */\n    tag_6:\n      callvalue\n      dup1\n      iszero\n      tag_36\n      jumpi\n      0x00\n      dup1\n      revert\n    tag_36:\n      pop\n      tag_37\n      0x04\n      dup1\n      calldatasize\n      sub\n      dup2\n      add\n      swap1\n      tag_38\n      swap2\n      swap1\n      tag_39\n      jump\t// in\n    tag_38:\n      tag_40\n      jump\t// in\n    tag_37:\n      mload(0x40)\n      tag_41\n      swap6\n      swap5\n      swap4\n      swap3\n      swap2\n      swap1\n      tag_42\n      jump\t// in\n    tag_41:\n      mload(0x40)\n      dup1\n      swap2\n      sub\n      swap1\n      return\n        /* \"Campaign.sol\":1403:1429  uint public approversCount */\n    tag_7:\n      callvalue\n      dup1\n      iszero\n      tag_43\n      jumpi\n      0x00\n      dup1\n      revert\n    tag_43:\n      pop\n      tag_44\n      tag_45\n      jump\t// in\n    tag_44:\n      mload(0x40)\n      tag_46\n      swap2\n      swap1\n      tag_47\n      jump\t// in\n    tag_46:\n      mload(0x40)\n      dup1\n      swap2\n      sub\n      swap1\n      return\n        /* \"Campaign.sol\":2488:3019  function createRequest(... */\n    tag_8:\n      callvalue\n      dup1\n      iszero\n      tag_48\n      jumpi\n      0x00\n      dup1\n      revert\n    tag_48:\n      pop\n      tag_49\n      0x04\n      dup1\n      calldatasize\n      sub\n      dup2\n      add\n      swap1\n      tag_50\n      swap2\n      swap1\n      tag_51\n      jump\t// in\n    tag_50:\n      tag_52\n      jump\t// in\n    tag_49:\n      stop\n        /* \"Campaign.sol\":1316:1347  uint public premiumContribution */\n    tag_9:\n      callvalue\n      dup1\n      iszero\n      tag_53\n      jumpi\n      0x00\n      dup1\n      revert\n    tag_53:\n      pop\n      tag_54\n      tag_55\n      jump\t// in\n    tag_54:\n      mload(0x40)\n      tag_56\n      swap2\n      swap1\n      tag_47\n      jump\t// in\n    tag_56:\n      mload(0x40)\n      dup1\n      swap2\n      sub\n      swap1\n      return\n        /* \"Campaign.sol\":1282:1309  uint public minContribution */\n    tag_10:\n      callvalue\n      dup1\n      iszero\n      tag_57\n      jumpi\n      0x00\n      dup1\n      revert\n    tag_57:\n      pop\n      tag_58\n      tag_59\n      jump\t// in\n    tag_58:\n      mload(0x40)\n      tag_60\n      swap2\n      swap1\n      tag_47\n      jump\t// in\n    tag_60:\n      mload(0x40)\n      dup1\n      swap2\n      sub\n      swap1\n      return\n        /* \"Campaign.sol\":4283:4373  function getRequest() public view returns (uint) {... */\n    tag_11:\n      callvalue\n      dup1\n      iszero\n      tag_61\n      jumpi\n      0x00\n      dup1\n      revert\n    tag_61:\n      pop\n      tag_62\n      tag_63\n      jump\t// in\n    tag_62:\n      mload(0x40)\n      tag_64\n      swap2\n      swap1\n      tag_47\n      jump\t// in\n    tag_64:\n      mload(0x40)\n      dup1\n      swap2\n      sub\n      swap1\n      return\n        /* \"Campaign.sol\":3027:3299  function approveRequest(uint index) public {... */\n    tag_12:\n      callvalue\n      dup1\n      iszero\n      tag_65\n      jumpi\n      0x00\n      dup1\n      revert\n    tag_65:\n      pop\n      tag_66\n      0x04\n      dup1\n      calldatasize\n      sub\n      dup2\n      add\n      swap1\n      tag_67\n      swap2\n      swap1\n      tag_39\n      jump\t// in\n    tag_67:\n      tag_68\n      jump\t// in\n    tag_66:\n      stop\n        /* \"Campaign.sol\":3307:3622  function finaliseRequest(uint index) public restriction {... */\n    tag_13:\n      callvalue\n      dup1\n      iszero\n      tag_69\n      jumpi\n      0x00\n      dup1\n      revert\n    tag_69:\n      pop\n      tag_70\n      0x04\n      dup1\n      calldatasize\n      sub\n      dup2\n      add\n      swap1\n      tag_71\n      swap2\n      swap1\n      tag_39\n      jump\t// in\n    tag_71:\n      tag_72\n      jump\t// in\n    tag_70:\n      stop\n        /* \"Campaign.sol\":1249:1275  string public campaignDesc */\n    tag_14:\n      callvalue\n      dup1\n      iszero\n      tag_73\n      jumpi\n      0x00\n      dup1\n      revert\n    tag_73:\n      pop\n      tag_74\n      tag_75\n      jump\t// in\n    tag_74:\n      mload(0x40)\n      tag_76\n      swap2\n      swap1\n      tag_23\n      jump\t// in\n    tag_76:\n      mload(0x40)\n      dup1\n      swap2\n      sub\n      swap1\n      return\n        /* \"Campaign.sol\":1217:1242  string public managerName */\n    tag_15:\n      callvalue\n      dup1\n      iszero\n      tag_77\n      jumpi\n      0x00\n      dup1\n      revert\n    tag_77:\n      pop\n      tag_78\n      tag_79\n      jump\t// in\n    tag_78:\n      mload(0x40)\n      tag_80\n      swap2\n      swap1\n      tag_23\n      jump\t// in\n    tag_80:\n      mload(0x40)\n      dup1\n      swap2\n      sub\n      swap1\n      return\n        /* \"Campaign.sol\":1184:1210  string public campaignName */\n    tag_21:\n      0x01\n      dup1\n      sload\n      tag_81\n      swap1\n      tag_82\n      jump\t// in\n    tag_81:\n      dup1\n      0x1f\n      add\n      0x20\n      dup1\n      swap2\n      div\n      mul\n      0x20\n      add\n      mload(0x40)\n      swap1\n      dup2\n      add\n      0x40\n      mstore\n      dup1\n      swap3\n      swap2\n      swap1\n      dup2\n      dup2\n      mstore\n      0x20\n      add\n      dup3\n      dup1\n      sload\n      tag_83\n      swap1\n      tag_82\n      jump\t// in\n    tag_83:\n      dup1\n      iszero\n      tag_84\n      jumpi\n      dup1\n      0x1f\n      lt\n      tag_85\n      jumpi\n      0x0100\n      dup1\n      dup4\n      sload\n      div\n      mul\n      dup4\n      mstore\n      swap2\n      0x20\n      add\n      swap2\n      jump(tag_84)\n    tag_85:\n      dup3\n      add\n      swap2\n      swap1\n      0x00\n      mstore\n      keccak256(0x00, 0x20)\n      swap1\n    tag_86:\n      dup2\n      sload\n      dup2\n      mstore\n      swap1\n      0x01\n      add\n      swap1\n      0x20\n      add\n      dup1\n      dup4\n      gt\n      tag_86\n      jumpi\n      dup3\n      swap1\n      sub\n      0x1f\n      and\n      dup3\n      add\n      swap2\n    tag_84:\n      pop\n      pop\n      pop\n      pop\n      pop\n      dup2\n      jump\t// out\n        /* \"Campaign.sol\":3630:4275  function getSummary()... */\n    tag_26:\n        /* \"Campaign.sol\":3714:3718  uint */\n      0x00\n        /* \"Campaign.sol\":3733:3737  uint */\n      dup1\n        /* \"Campaign.sol\":3752:3756  uint */\n      0x00\n        /* \"Campaign.sol\":3771:3775  uint */\n      dup1\n        /* \"Campaign.sol\":3790:3794  uint */\n      0x00\n        /* \"Campaign.sol\":3809:3816  address */\n      dup1\n        /* \"Campaign.sol\":3831:3844  string memory */\n      0x60\n        /* \"Campaign.sol\":3859:3872  string memory */\n      dup1\n        /* \"Campaign.sol\":3887:3900  string memory */\n      0x60\n        /* \"Campaign.sol\":3915:3919  uint */\n      0x00\n        /* \"Campaign.sol\":3969:3984  minContribution */\n      sload(0x04)\n        /* \"Campaign.sol\":3999:4018  premiumContribution */\n      sload(0x05)\n        /* \"Campaign.sol\":4033:4054  address(this).balance */\n      selfbalance\n        /* \"Campaign.sol\":4069:4077  requests */\n      0x00\n        /* \"Campaign.sol\":4069:4084  requests.length */\n      dup1\n      sload\n      swap1\n      pop\n        /* \"Campaign.sol\":4099:4113  approversCount */\n      sload(0x07)\n        /* \"Campaign.sol\":4128:4135  manager */\n      immutable(\"0xa3bcf8af6929b66d6da7ee355c48fd1cf926fd090bc75a4dcbf7bd8e365645e3\")\n        /* \"Campaign.sol\":4150:4162  campaignName */\n      0x01\n        /* \"Campaign.sol\":4177:4189  campaignDesc */\n      0x03\n        /* \"Campaign.sol\":4204:4215  managerName */\n      0x02\n        /* \"Campaign.sol\":4230:4249  premiumContributors */\n      0x08\n        /* \"Campaign.sol\":4230:4256  premiumContributors.length */\n      dup1\n      sload\n      swap1\n      pop\n        /* \"Campaign.sol\":3947:4267  return (... */\n      dup4\n      dup1\n      sload\n      tag_88\n      swap1\n      tag_82\n      jump\t// in\n    tag_88:\n      dup1\n      0x1f\n      add\n      0x20\n      dup1\n      swap2\n      div\n      mul\n      0x20\n      add\n      mload(0x40)\n      swap1\n      dup2\n      add\n      0x40\n      mstore\n      dup1\n      swap3\n      swap2\n      swap1\n      dup2\n      dup2\n      mstore\n      0x20\n      add\n      dup3\n      dup1\n      sload\n      tag_89\n      swap1\n      tag_82\n      jump\t// in\n    tag_89:\n      dup1\n      iszero\n      tag_90\n      jumpi\n      dup1\n      0x1f\n      lt\n      tag_91\n      jumpi\n      0x0100\n      dup1\n      dup4\n      sload\n      div\n      mul\n      dup4\n      mstore\n      swap2\n      0x20\n      add\n      swap2\n      jump(tag_90)\n    tag_91:\n      dup3\n      add\n      swap2\n      swap1\n      0x00\n      mstore\n      keccak256(0x00, 0x20)\n      swap1\n    tag_92:\n      dup2\n      sload\n      dup2\n      mstore\n      swap1\n      0x01\n      add\n      swap1\n      0x20\n      add\n      dup1\n      dup4\n      gt\n      tag_92\n      jumpi\n      dup3\n      swap1\n      sub\n      0x1f\n      and\n      dup3\n      add\n      swap2\n    tag_90:\n      pop\n      pop\n      pop\n      pop\n      pop\n      swap4\n      pop\n      dup3\n      dup1\n      sload\n      tag_93\n      swap1\n      tag_82\n      jump\t// in\n    tag_93:\n      dup1\n      0x1f\n      add\n      0x20\n      dup1\n      swap2\n      div\n      mul\n      0x20\n      add\n      mload(0x40)\n      swap1\n      dup2\n      add\n      0x40\n      mstore\n      dup1\n      swap3\n      swap2\n      swap1\n      dup2\n      dup2\n      mstore\n      0x20\n      add\n      dup3\n      dup1\n      sload\n      tag_94\n      swap1\n      tag_82\n      jump\t// in\n    tag_94:\n      dup1\n      iszero\n      tag_95\n      jumpi\n      dup1\n      0x1f\n      lt\n      tag_96\n      jumpi\n      0x0100\n      dup1\n      dup4\n      sload\n      div\n      mul\n      dup4\n      mstore\n      swap2\n      0x20\n      add\n      swap2\n      jump(tag_95)\n    tag_96:\n      dup3\n      add\n      swap2\n      swap1\n      0x00\n      mstore\n      keccak256(0x00, 0x20)\n      swap1\n    tag_97:\n      dup2\n      sload\n      dup2\n      mstore\n      swap1\n      0x01\n      add\n      swap1\n      0x20\n      add\n      dup1\n      dup4\n      gt\n      tag_97\n      jumpi\n      dup3\n      swap1\n      sub\n      0x1f\n      and\n      dup3\n      add\n      swap2\n    tag_95:\n      pop\n      pop\n      pop\n      pop\n      pop\n      swap3\n      pop\n      dup2\n      dup1\n      sload\n      tag_98\n      swap1\n      tag_82\n      jump\t// in\n    tag_98:\n      dup1\n      0x1f\n      add\n      0x20\n      dup1\n      swap2\n      div\n      mul\n      0x20\n      add\n      mload(0x40)\n      swap1\n      dup2\n      add\n      0x40\n      mstore\n      dup1\n      swap3\n      swap2\n      swap1\n      dup2\n      dup2\n      mstore\n      0x20\n      add\n      dup3\n      dup1\n      sload\n      tag_99\n      swap1\n      tag_82\n      jump\t// in\n    tag_99:\n      dup1\n      iszero\n      tag_100\n      jumpi\n      dup1\n      0x1f\n      lt\n      tag_101\n      jumpi\n      0x0100\n      dup1\n      dup4\n      sload\n      div\n      mul\n      dup4\n      mstore\n      swap2\n      0x20\n      add\n      swap2\n      jump(tag_100)\n    tag_101:\n      dup3\n      add\n      swap2\n      swap1\n      0x00\n      mstore\n      keccak256(0x00, 0x20)\n      swap1\n    tag_102:\n      dup2\n      sload\n      dup2\n      mstore\n      swap1\n      0x01\n      add\n      swap1\n      0x20\n      add\n      dup1\n      dup4\n      gt\n      tag_102\n      jumpi\n      dup3\n      swap1\n      sub\n      0x1f\n      and\n      dup3\n      add\n      swap2\n    tag_100:\n      pop\n      pop\n      pop\n      pop\n      pop\n      swap2\n      pop\n      swap10\n      pop\n      swap10\n      pop\n      swap10\n      pop\n      swap10\n      pop\n      swap10\n      pop\n      swap10\n      pop\n      swap10\n      pop\n      swap10\n      pop\n      swap10\n      pop\n      swap10\n      pop\n        /* \"Campaign.sol\":3630:4275  function getSummary()... */\n      swap1\n      swap2\n      swap3\n      swap4\n      swap5\n      swap6\n      swap7\n      swap8\n      swap9\n      swap10\n      jump\t// out\n        /* \"Campaign.sol\":1137:1177  address payable public immutable manager */\n    tag_31:\n      immutable(\"0xa3bcf8af6929b66d6da7ee355c48fd1cf926fd090bc75a4dcbf7bd8e365645e3\")\n      dup2\n      jump\t// out\n        /* \"Campaign.sol\":2130:2480  function contribution() public payable {... */\n    tag_35:\n        /* \"Campaign.sol\":2197:2212  minContribution */\n      sload(0x04)\n        /* \"Campaign.sol\":2184:2193  msg.value */\n      callvalue\n        /* \"Campaign.sol\":2184:2212  msg.value >= minContribution */\n      lt\n        /* \"Campaign.sol\":2180:2362  if (msg.value >= minContribution) {... */\n      tag_104\n      jumpi\n        /* \"Campaign.sol\":2234:2243  approvers */\n      0x06\n        /* \"Campaign.sol\":2234:2255  approvers[msg.sender] */\n      0x00\n        /* \"Campaign.sol\":2244:2254  msg.sender */\n      caller\n        /* \"Campaign.sol\":2234:2255  approvers[msg.sender] */\n      0xffffffffffffffffffffffffffffffffffffffff\n      and\n      0xffffffffffffffffffffffffffffffffffffffff\n      and\n      dup2\n      mstore\n      0x20\n      add\n      swap1\n      dup2\n      mstore\n      0x20\n      add\n      0x00\n      keccak256\n      0x00\n      swap1\n      sload\n      swap1\n      0x0100\n      exp\n      swap1\n      div\n      0xff\n      and\n        /* \"Campaign.sol\":2229:2308  if (!approvers[msg.sender]) {... */\n      tag_105\n      jumpi\n        /* \"Campaign.sol\":2276:2290  approversCount */\n      0x07\n      0x00\n        /* \"Campaign.sol\":2276:2292  approversCount++ */\n      dup2\n      sload\n      dup1\n      swap3\n      swap2\n      swap1\n      tag_106\n      swap1\n      tag_107\n      jump\t// in\n    tag_106:\n      swap2\n      swap1\n      pop\n      sstore\n      pop\n        /* \"Campaign.sol\":2229:2308  if (!approvers[msg.sender]) {... */\n    tag_105:\n        /* \"Campaign.sol\":2346:2350  true */\n      0x01\n        /* \"Campaign.sol\":2322:2331  approvers */\n      0x06\n        /* \"Campaign.sol\":2322:2343  approvers[msg.sender] */\n      0x00\n        /* \"Campaign.sol\":2332:2342  msg.sender */\n      caller\n        /* \"Campaign.sol\":2322:2343  approvers[msg.sender] */\n      0xffffffffffffffffffffffffffffffffffffffff\n      and\n      0xffffffffffffffffffffffffffffffffffffffff\n      and\n      dup2\n      mstore\n      0x20\n      add\n      swap1\n      dup2\n      mstore\n      0x20\n      add\n      0x00\n      keccak256\n      0x00\n        /* \"Campaign.sol\":2322:2350  approvers[msg.sender] = true */\n      0x0100\n      exp\n      dup2\n      sload\n      dup2\n      0xff\n      mul\n      not\n      and\n      swap1\n      dup4\n      iszero\n      iszero\n      mul\n      or\n      swap1\n      sstore\n      pop\n        /* \"Campaign.sol\":2180:2362  if (msg.value >= minContribution) {... */\n    tag_104:\n        /* \"Campaign.sol\":2389:2408  premiumContribution */\n      sload(0x05)\n        /* \"Campaign.sol\":2376:2385  msg.value */\n      callvalue\n        /* \"Campaign.sol\":2376:2408  msg.value >= premiumContribution */\n      lt\n        /* \"Campaign.sol\":2372:2473  if (msg.value >= premiumContribution) {... */\n      tag_108\n      jumpi\n        /* \"Campaign.sol\":2425:2444  premiumContributors */\n      0x08\n        /* \"Campaign.sol\":2450:2460  msg.sender */\n      caller\n        /* \"Campaign.sol\":2425:2461  premiumContributors.push(msg.sender) */\n      swap1\n      dup1\n      0x01\n      dup2\n      sload\n      add\n      dup1\n      dup3\n      sstore\n      dup1\n      swap2\n      pop\n      pop\n      0x01\n      swap1\n      sub\n      swap1\n      0x00\n      mstore\n      keccak256(0x00, 0x20)\n      add\n      0x00\n      swap1\n      swap2\n      swap1\n      swap2\n      swap1\n      swap2\n      0x0100\n      exp\n      dup2\n      sload\n      dup2\n      0xffffffffffffffffffffffffffffffffffffffff\n      mul\n      not\n      and\n      swap1\n      dup4\n      0xffffffffffffffffffffffffffffffffffffffff\n      and\n      mul\n      or\n      swap1\n      sstore\n      pop\n        /* \"Campaign.sol\":2372:2473  if (msg.value >= premiumContribution) {... */\n    tag_108:\n        /* \"Campaign.sol\":2130:2480  function contribution() public payable {... */\n      jump\t// out\n        /* \"Campaign.sol\":1105:1130  Request[] public requests */\n    tag_40:\n      0x00\n      dup2\n      dup2\n      sload\n      dup2\n      lt\n      tag_110\n      jumpi\n      0x00\n      dup1\n      revert\n    tag_110:\n      swap1\n      0x00\n      mstore\n      keccak256(0x00, 0x20)\n      swap1\n      0x05\n      mul\n      add\n      0x00\n      swap2\n      pop\n      swap1\n      pop\n      dup1\n      0x00\n      add\n      dup1\n      sload\n      tag_112\n      swap1\n      tag_82\n      jump\t// in\n    tag_112:\n      dup1\n      0x1f\n      add\n      0x20\n      dup1\n      swap2\n      div\n      mul\n      0x20\n      add\n      mload(0x40)\n      swap1\n      dup2\n      add\n      0x40\n      mstore\n      dup1\n      swap3\n      swap2\n      swap1\n      dup2\n      dup2\n      mstore\n      0x20\n      add\n      dup3\n      dup1\n      sload\n      tag_113\n      swap1\n      tag_82\n      jump\t// in\n    tag_113:\n      dup1\n      iszero\n      tag_114\n      jumpi\n      dup1\n      0x1f\n      lt\n      tag_115\n      jumpi\n      0x0100\n      dup1\n      dup4\n      sload\n      div\n      mul\n      dup4\n      mstore\n      swap2\n      0x20\n      add\n      swap2\n      jump(tag_114)\n    tag_115:\n      dup3\n      add\n      swap2\n      swap1\n      0x00\n      mstore\n      keccak256(0x00, 0x20)\n      swap1\n    tag_116:\n      dup2\n      sload\n      dup2\n      mstore\n      swap1\n      0x01\n      add\n      swap1\n      0x20\n      add\n      dup1\n      dup4\n      gt\n      tag_116\n      jumpi\n      dup3\n      swap1\n      sub\n      0x1f\n      and\n      dup3\n      add\n      swap2\n    tag_114:\n      pop\n      pop\n      pop\n      pop\n      pop\n      swap1\n      dup1\n      0x01\n      add\n      sload\n      swap1\n      dup1\n      0x02\n      add\n      0x00\n      swap1\n      sload\n      swap1\n      0x0100\n      exp\n      swap1\n      div\n      0xffffffffffffffffffffffffffffffffffffffff\n      and\n      swap1\n      dup1\n      0x02\n      add\n      0x14\n      swap1\n      sload\n      swap1\n      0x0100\n      exp\n      swap1\n      div\n      0xff\n      and\n      swap1\n      dup1\n      0x04\n      add\n      sload\n      swap1\n      pop\n      dup6\n      jump\t// out\n        /* \"Campaign.sol\":1403:1429  uint public approversCount */\n    tag_45:\n      sload(0x07)\n      dup2\n      jump\t// out\n        /* \"Campaign.sol\":2488:3019  function createRequest(... */\n    tag_52:\n        /* \"Campaign.sol\":1685:1692  manager */\n      immutable(\"0xa3bcf8af6929b66d6da7ee355c48fd1cf926fd090bc75a4dcbf7bd8e365645e3\")\n        /* \"Campaign.sol\":1671:1692  msg.sender == manager */\n      0xffffffffffffffffffffffffffffffffffffffff\n      and\n        /* \"Campaign.sol\":1671:1681  msg.sender */\n      caller\n        /* \"Campaign.sol\":1671:1692  msg.sender == manager */\n      0xffffffffffffffffffffffffffffffffffffffff\n      and\n      eq\n        /* \"Campaign.sol\":1663:1693  require(msg.sender == manager) */\n      tag_118\n      jumpi\n      0x00\n      dup1\n      revert\n    tag_118:\n        /* \"Campaign.sol\":2629:2655  Request storage newRequest */\n      0x00\n        /* \"Campaign.sol\":2658:2666  requests */\n      dup1\n        /* \"Campaign.sol\":2658:2673  requests.push() */\n      0x01\n      dup2\n      0x01\n      dup2\n      sload\n      add\n      dup1\n      dup3\n      sstore\n      dup1\n      swap2\n      pop\n      pop\n      sub\n      swap1\n      0x00\n      mstore\n      keccak256(0x00, 0x20)\n      swap1\n      0x05\n      mul\n      add\n        /* \"Campaign.sol\":2629:2673  Request storage newRequest = requests.push() */\n      swap1\n      pop\n        /* \"Campaign.sol\":2709:2713  desc */\n      dup4\n        /* \"Campaign.sol\":2684:2694  newRequest */\n      dup2\n        /* \"Campaign.sol\":2684:2706  newRequest.description */\n      0x00\n      add\n        /* \"Campaign.sol\":2684:2713  newRequest.description = desc */\n      swap1\n      dup2\n      tag_121\n      swap2\n      swap1\n      tag_122\n      jump\t// in\n    tag_121:\n      pop\n        /* \"Campaign.sol\":2743:2746  val */\n      dup3\n        /* \"Campaign.sol\":2724:2734  newRequest */\n      dup2\n        /* \"Campaign.sol\":2724:2740  newRequest.value */\n      0x01\n      add\n        /* \"Campaign.sol\":2724:2746  newRequest.value = val */\n      dup2\n      swap1\n      sstore\n      pop\n        /* \"Campaign.sol\":2780:2786  toAddr */\n      dup2\n        /* \"Campaign.sol\":2757:2767  newRequest */\n      dup2\n        /* \"Campaign.sol\":2757:2777  newRequest.recipient */\n      0x02\n      add\n      0x00\n        /* \"Campaign.sol\":2757:2786  newRequest.recipient = toAddr */\n      0x0100\n      exp\n      dup2\n      sload\n      dup2\n      0xffffffffffffffffffffffffffffffffffffffff\n      mul\n      not\n      and\n      swap1\n      dup4\n      0xffffffffffffffffffffffffffffffffffffffff\n      and\n      mul\n      or\n      swap1\n      sstore\n      pop\n        /* \"Campaign.sol\":2820:2825  false */\n      0x00\n        /* \"Campaign.sol\":2797:2807  newRequest */\n      dup2\n        /* \"Campaign.sol\":2797:2817  newRequest.completed */\n      0x02\n      add\n      0x14\n        /* \"Campaign.sol\":2797:2825  newRequest.completed = false */\n      0x0100\n      exp\n      dup2\n      sload\n      dup2\n      0xff\n      mul\n      not\n      and\n      swap1\n      dup4\n      iszero\n      iszero\n      mul\n      or\n      swap1\n      sstore\n      pop\n        /* \"Campaign.sol\":2858:2859  0 */\n      0x00\n        /* \"Campaign.sol\":2836:2846  newRequest */\n      dup2\n        /* \"Campaign.sol\":2836:2855  newRequest.yesVotes */\n      0x04\n      add\n        /* \"Campaign.sol\":2836:2859  newRequest.yesVotes = 0 */\n      dup2\n      swap1\n      sstore\n      pop\n        /* \"Campaign.sol\":2618:3019  {... */\n      pop\n        /* \"Campaign.sol\":2488:3019  function createRequest(... */\n      pop\n      pop\n      pop\n      jump\t// out\n        /* \"Campaign.sol\":1316:1347  uint public premiumContribution */\n    tag_55:\n      sload(0x05)\n      dup2\n      jump\t// out\n        /* \"Campaign.sol\":1282:1309  uint public minContribution */\n    tag_59:\n      sload(0x04)\n      dup2\n      jump\t// out\n        /* \"Campaign.sol\":4283:4373  function getRequest() public view returns (uint) {... */\n    tag_63:\n        /* \"Campaign.sol\":4326:4330  uint */\n      0x00\n        /* \"Campaign.sol\":4350:4358  requests */\n      dup1\n        /* \"Campaign.sol\":4350:4365  requests.length */\n      dup1\n      sload\n      swap1\n      pop\n        /* \"Campaign.sol\":4343:4365  return requests.length */\n      swap1\n      pop\n        /* \"Campaign.sol\":4283:4373  function getRequest() public view returns (uint) {... */\n      swap1\n      jump\t// out\n        /* \"Campaign.sol\":3027:3299  function approveRequest(uint index) public {... */\n    tag_68:\n        /* \"Campaign.sol\":3089:3098  approvers */\n      0x06\n        /* \"Campaign.sol\":3089:3110  approvers[msg.sender] */\n      0x00\n        /* \"Campaign.sol\":3099:3109  msg.sender */\n      caller\n        /* \"Campaign.sol\":3089:3110  approvers[msg.sender] */\n      0xffffffffffffffffffffffffffffffffffffffff\n      and\n      0xffffffffffffffffffffffffffffffffffffffff\n      and\n      dup2\n      mstore\n      0x20\n      add\n      swap1\n      dup2\n      mstore\n      0x20\n      add\n      0x00\n      keccak256\n      0x00\n      swap1\n      sload\n      swap1\n      0x0100\n      exp\n      swap1\n      div\n      0xff\n      and\n        /* \"Campaign.sol\":3081:3111  require(approvers[msg.sender]) */\n      tag_125\n      jumpi\n      0x00\n      dup1\n      revert\n    tag_125:\n        /* \"Campaign.sol\":3124:3147  Request storage request */\n      0x00\n        /* \"Campaign.sol\":3150:3158  requests */\n      dup1\n        /* \"Campaign.sol\":3159:3164  index */\n      dup3\n        /* \"Campaign.sol\":3150:3165  requests[index] */\n      dup2\n      sload\n      dup2\n      lt\n      tag_126\n      jumpi\n      tag_127\n      tag_128\n      jump\t// in\n    tag_127:\n    tag_126:\n      swap1\n      0x00\n      mstore\n      keccak256(0x00, 0x20)\n      swap1\n      0x05\n      mul\n      add\n        /* \"Campaign.sol\":3124:3165  Request storage request = requests[index] */\n      swap1\n      pop\n        /* \"Campaign.sol\":3185:3192  request */\n      dup1\n        /* \"Campaign.sol\":3185:3201  request.hasVoted */\n      0x03\n      add\n        /* \"Campaign.sol\":3185:3213  request.hasVoted[msg.sender] */\n      0x00\n        /* \"Campaign.sol\":3202:3212  msg.sender */\n      caller\n        /* \"Campaign.sol\":3185:3213  request.hasVoted[msg.sender] */\n      0xffffffffffffffffffffffffffffffffffffffff\n      and\n      0xffffffffffffffffffffffffffffffffffffffff\n      and\n      dup2\n      mstore\n      0x20\n      add\n      swap1\n      dup2\n      mstore\n      0x20\n      add\n      0x00\n      keccak256\n      0x00\n      swap1\n      sload\n      swap1\n      0x0100\n      exp\n      swap1\n      div\n      0xff\n      and\n        /* \"Campaign.sol\":3184:3213  !request.hasVoted[msg.sender] */\n      iszero\n        /* \"Campaign.sol\":3176:3214  require(!request.hasVoted[msg.sender]) */\n      tag_130\n      jumpi\n      0x00\n      dup1\n      revert\n    tag_130:\n        /* \"Campaign.sol\":3258:3262  true */\n      0x01\n        /* \"Campaign.sol\":3227:3234  request */\n      dup2\n        /* \"Campaign.sol\":3227:3243  request.hasVoted */\n      0x03\n      add\n        /* \"Campaign.sol\":3227:3255  request.hasVoted[msg.sender] */\n      0x00\n        /* \"Campaign.sol\":3244:3254  msg.sender */\n      caller\n        /* \"Campaign.sol\":3227:3255  request.hasVoted[msg.sender] */\n      0xffffffffffffffffffffffffffffffffffffffff\n      and\n      0xffffffffffffffffffffffffffffffffffffffff\n      and\n      dup2\n      mstore\n      0x20\n      add\n      swap1\n      dup2\n      mstore\n      0x20\n      add\n      0x00\n      keccak256\n      0x00\n        /* \"Campaign.sol\":3227:3262  request.hasVoted[msg.sender] = true */\n      0x0100\n      exp\n      dup2\n      sload\n      dup2\n      0xff\n      mul\n      not\n      and\n      swap1\n      dup4\n      iszero\n      iszero\n      mul\n      or\n      swap1\n      sstore\n      pop\n        /* \"Campaign.sol\":3273:3280  request */\n      dup1\n        /* \"Campaign.sol\":3273:3289  request.yesVotes */\n      0x04\n      add\n      0x00\n        /* \"Campaign.sol\":3273:3291  request.yesVotes++ */\n      dup2\n      sload\n      dup1\n      swap3\n      swap2\n      swap1\n      tag_131\n      swap1\n      tag_107\n      jump\t// in\n    tag_131:\n      swap2\n      swap1\n      pop\n      sstore\n      pop\n        /* \"Campaign.sol\":3070:3299  {... */\n      pop\n        /* \"Campaign.sol\":3027:3299  function approveRequest(uint index) public {... */\n      pop\n      jump\t// out\n        /* \"Campaign.sol\":3307:3622  function finaliseRequest(uint index) public restriction {... */\n    tag_72:\n        /* \"Campaign.sol\":1685:1692  manager */\n      immutable(\"0xa3bcf8af6929b66d6da7ee355c48fd1cf926fd090bc75a4dcbf7bd8e365645e3\")\n        /* \"Campaign.sol\":1671:1692  msg.sender == manager */\n      0xffffffffffffffffffffffffffffffffffffffff\n      and\n        /* \"Campaign.sol\":1671:1681  msg.sender */\n      caller\n        /* \"Campaign.sol\":1671:1692  msg.sender == manager */\n      0xffffffffffffffffffffffffffffffffffffffff\n      and\n      eq\n        /* \"Campaign.sol\":1663:1693  require(msg.sender == manager) */\n      tag_133\n      jumpi\n      0x00\n      dup1\n      revert\n    tag_133:\n        /* \"Campaign.sol\":3374:3397  Request storage request */\n      0x00\n        /* \"Campaign.sol\":3400:3408  requests */\n      dup1\n        /* \"Campaign.sol\":3409:3414  index */\n      dup3\n        /* \"Campaign.sol\":3400:3415  requests[index] */\n      dup2\n      sload\n      dup2\n      lt\n      tag_135\n      jumpi\n      tag_136\n      tag_128\n      jump\t// in\n    tag_136:\n    tag_135:\n      swap1\n      0x00\n      mstore\n      keccak256(0x00, 0x20)\n      swap1\n      0x05\n      mul\n      add\n        /* \"Campaign.sol\":3374:3415  Request storage request = requests[index] */\n      swap1\n      pop\n        /* \"Campaign.sol\":3437:3444  request */\n      dup1\n        /* \"Campaign.sol\":3437:3454  request.completed */\n      0x02\n      add\n      0x14\n      swap1\n      sload\n      swap1\n      0x0100\n      exp\n      swap1\n      div\n      0xff\n      and\n        /* \"Campaign.sol\":3436:3454  !request.completed */\n      iszero\n        /* \"Campaign.sol\":3428:3455  require(!request.completed) */\n      tag_138\n      jumpi\n      0x00\n      dup1\n      revert\n    tag_138:\n        /* \"Campaign.sol\":3511:3512  2 */\n      0x02\n        /* \"Campaign.sol\":3494:3508  approversCount */\n      sload(0x07)\n        /* \"Campaign.sol\":3494:3512  approversCount / 2 */\n      tag_139\n      swap2\n      swap1\n      tag_140\n      jump\t// in\n    tag_139:\n        /* \"Campaign.sol\":3474:3481  request */\n      dup2\n        /* \"Campaign.sol\":3474:3490  request.yesVotes */\n      0x04\n      add\n      sload\n        /* \"Campaign.sol\":3474:3513  request.yesVotes > (approversCount / 2) */\n      gt\n        /* \"Campaign.sol\":3466:3514  require(request.yesVotes > (approversCount / 2)) */\n      tag_141\n      jumpi\n      0x00\n      dup1\n      revert\n    tag_141:\n        /* \"Campaign.sol\":3535:3542  request */\n      dup1\n        /* \"Campaign.sol\":3535:3552  request.recipient */\n      0x02\n      add\n      0x00\n      swap1\n      sload\n      swap1\n      0x0100\n      exp\n      swap1\n      div\n      0xffffffffffffffffffffffffffffffffffffffff\n      and\n        /* \"Campaign.sol\":3527:3562  payable(request.recipient).transfer */\n      0xffffffffffffffffffffffffffffffffffffffff\n      and\n        /* \"Campaign.sol\":3527:3577  payable(request.recipient).transfer(request.value) */\n      0x08fc\n        /* \"Campaign.sol\":3563:3570  request */\n      dup3\n        /* \"Campaign.sol\":3563:3576  request.value */\n      0x01\n      add\n      sload\n        /* \"Campaign.sol\":3527:3577  payable(request.recipient).transfer(request.value) */\n      swap1\n      dup2\n      iszero\n      mul\n      swap1\n      mload(0x40)\n      0x00\n      mload(0x40)\n      dup1\n      dup4\n      sub\n      dup2\n      dup6\n      dup9\n      dup9\n      call\n      swap4\n      pop\n      pop\n      pop\n      pop\n      iszero\n      dup1\n      iszero\n      tag_143\n      jumpi\n      returndatasize\n      0x00\n      dup1\n      returndatacopy\n      revert(0x00, returndatasize)\n    tag_143:\n      pop\n        /* \"Campaign.sol\":3610:3614  true */\n      0x01\n        /* \"Campaign.sol\":3590:3597  request */\n      dup2\n        /* \"Campaign.sol\":3590:3607  request.completed */\n      0x02\n      add\n      0x14\n        /* \"Campaign.sol\":3590:3614  request.completed = true */\n      0x0100\n      exp\n      dup2\n      sload\n      dup2\n      0xff\n      mul\n      not\n      and\n      swap1\n      dup4\n      iszero\n      iszero\n      mul\n      or\n      swap1\n      sstore\n      pop\n        /* \"Campaign.sol\":3363:3622  {... */\n      pop\n        /* \"Campaign.sol\":3307:3622  function finaliseRequest(uint index) public restriction {... */\n      pop\n      jump\t// out\n        /* \"Campaign.sol\":1249:1275  string public campaignDesc */\n    tag_75:\n      0x03\n      dup1\n      sload\n      tag_144\n      swap1\n      tag_82\n      jump\t// in\n    tag_144:\n      dup1\n      0x1f\n      add\n      0x20\n      dup1\n      swap2\n      div\n      mul\n      0x20\n      add\n      mload(0x40)\n      swap1\n      dup2\n      add\n      0x40\n      mstore\n      dup1\n      swap3\n      swap2\n      swap1\n      dup2\n      dup2\n      mstore\n      0x20\n      add\n      dup3\n      dup1\n      sload\n      tag_145\n      swap1\n      tag_82\n      jump\t// in\n    tag_145:\n      dup1\n      iszero\n      tag_146\n      jumpi\n      dup1\n      0x1f\n      lt\n      tag_147\n      jumpi\n      0x0100\n      dup1\n      dup4\n      sload\n      div\n      mul\n      dup4\n      mstore\n      swap2\n      0x20\n      add\n      swap2\n      jump(tag_146)\n    tag_147:\n      dup3\n      add\n      swap2\n      swap1\n      0x00\n      mstore\n      keccak256(0x00, 0x20)\n      swap1\n    tag_148:\n      dup2\n      sload\n      dup2\n      mstore\n      swap1\n      0x01\n      add\n      swap1\n      0x20\n      add\n      dup1\n      dup4\n      gt\n      tag_148\n      jumpi\n      dup3\n      swap1\n      sub\n      0x1f\n      and\n      dup3\n      add\n      swap2\n    tag_146:\n      pop\n      pop\n      pop\n      pop\n      pop\n      dup2\n      jump\t// out\n        /* \"Campaign.sol\":1217:1242  string public managerName */\n    tag_79:\n      0x02\n      dup1\n      sload\n      tag_149\n      swap1\n      tag_82\n      jump\t// in\n    tag_149:\n      dup1\n      0x1f\n      add\n      0x20\n      dup1\n      swap2\n      div\n      mul\n      0x20\n      add\n      mload(0x40)\n      swap1\n      dup2\n      add\n      0x40\n      mstore\n      dup1\n      swap3\n      swap2\n      swap1\n      dup2\n      dup2\n      mstore\n      0x20\n      add\n      dup3\n      dup1\n      sload\n      tag_150\n      swap1\n      tag_82\n      jump\t// in\n    tag_150:\n      dup1\n      iszero\n      tag_151\n      jumpi\n      dup1\n      0x1f\n      lt\n      tag_152\n      jumpi\n      0x0100\n      dup1\n      dup4\n      sload\n      div\n      mul\n      dup4\n      mstore\n      swap2\n      0x20\n      add\n      swap2\n      jump(tag_151)\n    tag_152:\n      dup3\n      add\n      swap2\n      swap1\n      0x00\n      mstore\n      keccak256(0x00, 0x20)\n      swap1\n    tag_153:\n      dup2\n      sload\n      dup2\n      mstore\n      swap1\n      0x01\n      add\n      swap1\n      0x20\n      add\n      dup1\n      dup4\n      gt\n      tag_153\n      jumpi\n      dup3\n      swap1\n      sub\n      0x1f\n      and\n      dup3\n      add\n      swap2\n    tag_151:\n      pop\n      pop\n      pop\n      pop\n      pop\n      dup2\n      jump\t// out\n        /* \"#utility.yul\":7:106   */\n    tag_154:\n        /* \"#utility.yul\":59:65   */\n      0x00\n        /* \"#utility.yul\":93:98   */\n      dup2\n        /* \"#utility.yul\":87:99   */\n      mload\n        /* \"#utility.yul\":77:99   */\n      swap1\n      pop\n        /* \"#utility.yul\":7:106   */\n      swap2\n      swap1\n      pop\n      jump\t// out\n        /* \"#utility.yul\":112:281   */\n    tag_155:\n        /* \"#utility.yul\":196:207   */\n      0x00\n        /* \"#utility.yul\":230:236   */\n      dup3\n        /* \"#utility.yul\":225:228   */\n      dup3\n        /* \"#utility.yul\":218:237   */\n      mstore\n        /* \"#utility.yul\":270:274   */\n      0x20\n        /* \"#utility.yul\":265:268   */\n      dup3\n        /* \"#utility.yul\":261:275   */\n      add\n        /* \"#utility.yul\":246:275   */\n      swap1\n      pop\n        /* \"#utility.yul\":112:281   */\n      swap3\n      swap2\n      pop\n      pop\n      jump\t// out\n        /* \"#utility.yul\":287:533   */\n    tag_156:\n        /* \"#utility.yul\":368:369   */\n      0x00\n        /* \"#utility.yul\":378:491   */\n    tag_206:\n        /* \"#utility.yul\":392:398   */\n      dup4\n        /* \"#utility.yul\":389:390   */\n      dup2\n        /* \"#utility.yul\":386:399   */\n      lt\n        /* \"#utility.yul\":378:491   */\n      iszero\n      tag_208\n      jumpi\n        /* \"#utility.yul\":477:478   */\n      dup1\n        /* \"#utility.yul\":472:475   */\n      dup3\n        /* \"#utility.yul\":468:479   */\n      add\n        /* \"#utility.yul\":462:480   */\n      mload\n        /* \"#utility.yul\":458:459   */\n      dup2\n        /* \"#utility.yul\":453:456   */\n      dup5\n        /* \"#utility.yul\":449:460   */\n      add\n        /* \"#utility.yul\":442:481   */\n      mstore\n        /* \"#utility.yul\":414:416   */\n      0x20\n        /* \"#utility.yul\":411:412   */\n      dup2\n        /* \"#utility.yul\":407:417   */\n      add\n        /* \"#utility.yul\":402:417   */\n      swap1\n      pop\n        /* \"#utility.yul\":378:491   */\n      jump(tag_206)\n    tag_208:\n        /* \"#utility.yul\":525:526   */\n      0x00\n        /* \"#utility.yul\":516:522   */\n      dup5\n        /* \"#utility.yul\":511:514   */\n      dup5\n        /* \"#utility.yul\":507:523   */\n      add\n        /* \"#utility.yul\":500:527   */\n      mstore\n        /* \"#utility.yul\":349:533   */\n      pop\n        /* \"#utility.yul\":287:533   */\n      pop\n      pop\n      pop\n      jump\t// out\n        /* \"#utility.yul\":539:641   */\n    tag_157:\n        /* \"#utility.yul\":580:586   */\n      0x00\n        /* \"#utility.yul\":631:633   */\n      0x1f\n        /* \"#utility.yul\":627:634   */\n      not\n        /* \"#utility.yul\":622:624   */\n      0x1f\n        /* \"#utility.yul\":615:620   */\n      dup4\n        /* \"#utility.yul\":611:625   */\n      add\n        /* \"#utility.yul\":607:635   */\n      and\n        /* \"#utility.yul\":597:635   */\n      swap1\n      pop\n        /* \"#utility.yul\":539:641   */\n      swap2\n      swap1\n      pop\n      jump\t// out\n        /* \"#utility.yul\":647:1024   */\n    tag_158:\n        /* \"#utility.yul\":735:738   */\n      0x00\n        /* \"#utility.yul\":763:802   */\n      tag_211\n        /* \"#utility.yul\":796:801   */\n      dup3\n        /* \"#utility.yul\":763:802   */\n      tag_154\n      jump\t// in\n    tag_211:\n        /* \"#utility.yul\":818:889   */\n      tag_212\n        /* \"#utility.yul\":882:888   */\n      dup2\n        /* \"#utility.yul\":877:880   */\n      dup6\n        /* \"#utility.yul\":818:889   */\n      tag_155\n      jump\t// in\n    tag_212:\n        /* \"#utility.yul\":811:889   */\n      swap4\n      pop\n        /* \"#utility.yul\":898:963   */\n      tag_213\n        /* \"#utility.yul\":956:962   */\n      dup2\n        /* \"#utility.yul\":951:954   */\n      dup6\n        /* \"#utility.yul\":944:948   */\n      0x20\n        /* \"#utility.yul\":937:942   */\n      dup7\n        /* \"#utility.yul\":933:949   */\n      add\n        /* \"#utility.yul\":898:963   */\n      tag_156\n      jump\t// in\n    tag_213:\n        /* \"#utility.yul\":988:1017   */\n      tag_214\n        /* \"#utility.yul\":1010:1016   */\n      dup2\n        /* \"#utility.yul\":988:1017   */\n      tag_157\n      jump\t// in\n    tag_214:\n        /* \"#utility.yul\":983:986   */\n      dup5\n        /* \"#utility.yul\":979:1018   */\n      add\n        /* \"#utility.yul\":972:1018   */\n      swap2\n      pop\n        /* \"#utility.yul\":739:1024   */\n      pop\n        /* \"#utility.yul\":647:1024   */\n      swap3\n      swap2\n      pop\n      pop\n      jump\t// out\n        /* \"#utility.yul\":1030:1343   */\n    tag_23:\n        /* \"#utility.yul\":1143:1147   */\n      0x00\n        /* \"#utility.yul\":1181:1183   */\n      0x20\n        /* \"#utility.yul\":1170:1179   */\n      dup3\n        /* \"#utility.yul\":1166:1184   */\n      add\n        /* \"#utility.yul\":1158:1184   */\n      swap1\n      pop\n        /* \"#utility.yul\":1230:1239   */\n      dup2\n        /* \"#utility.yul\":1224:1228   */\n      dup2\n        /* \"#utility.yul\":1220:1240   */\n      sub\n        /* \"#utility.yul\":1216:1217   */\n      0x00\n        /* \"#utility.yul\":1205:1214   */\n      dup4\n        /* \"#utility.yul\":1201:1218   */\n      add\n        /* \"#utility.yul\":1194:1241   */\n      mstore\n        /* \"#utility.yul\":1258:1336   */\n      tag_216\n        /* \"#utility.yul\":1331:1335   */\n      dup2\n        /* \"#utility.yul\":1322:1328   */\n      dup5\n        /* \"#utility.yul\":1258:1336   */\n      tag_158\n      jump\t// in\n    tag_216:\n        /* \"#utility.yul\":1250:1336   */\n      swap1\n      pop\n        /* \"#utility.yul\":1030:1343   */\n      swap3\n      swap2\n      pop\n      pop\n      jump\t// out\n        /* \"#utility.yul\":1349:1426   */\n    tag_159:\n        /* \"#utility.yul\":1386:1393   */\n      0x00\n        /* \"#utility.yul\":1415:1420   */\n      dup2\n        /* \"#utility.yul\":1404:1420   */\n      swap1\n      pop\n        /* \"#utility.yul\":1349:1426   */\n      swap2\n      swap1\n      pop\n      jump\t// out\n        /* \"#utility.yul\":1432:1550   */\n    tag_160:\n        /* \"#utility.yul\":1519:1543   */\n      tag_219\n        /* \"#utility.yul\":1537:1542   */\n      dup2\n        /* \"#utility.yul\":1519:1543   */\n      tag_159\n      jump\t// in\n    tag_219:\n        /* \"#utility.yul\":1514:1517   */\n      dup3\n        /* \"#utility.yul\":1507:1544   */\n      mstore\n        /* \"#utility.yul\":1432:1550   */\n      pop\n      pop\n      jump\t// out\n        /* \"#utility.yul\":1556:1682   */\n    tag_161:\n        /* \"#utility.yul\":1593:1600   */\n      0x00\n        /* \"#utility.yul\":1633:1675   */\n      0xffffffffffffffffffffffffffffffffffffffff\n        /* \"#utility.yul\":1626:1631   */\n      dup3\n        /* \"#utility.yul\":1622:1676   */\n      and\n        /* \"#utility.yul\":1611:1676   */\n      swap1\n      pop\n        /* \"#utility.yul\":1556:1682   */\n      swap2\n      swap1\n      pop\n      jump\t// out\n        /* \"#utility.yul\":1688:1784   */\n    tag_162:\n        /* \"#utility.yul\":1725:1732   */\n      0x00\n        /* \"#utility.yul\":1754:1778   */\n      tag_222\n        /* \"#utility.yul\":1772:1777   */\n      dup3\n        /* \"#utility.yul\":1754:1778   */\n      tag_161\n      jump\t// in\n    tag_222:\n        /* \"#utility.yul\":1743:1778   */\n      swap1\n      pop\n        /* \"#utility.yul\":1688:1784   */\n      swap2\n      swap1\n      pop\n      jump\t// out\n        /* \"#utility.yul\":1790:1908   */\n    tag_163:\n        /* \"#utility.yul\":1877:1901   */\n      tag_224\n        /* \"#utility.yul\":1895:1900   */\n      dup2\n        /* \"#utility.yul\":1877:1901   */\n      tag_162\n      jump\t// in\n    tag_224:\n        /* \"#utility.yul\":1872:1875   */\n      dup3\n        /* \"#utility.yul\":1865:1902   */\n      mstore\n        /* \"#utility.yul\":1790:1908   */\n      pop\n      pop\n      jump\t// out\n        /* \"#utility.yul\":1914:3406   */\n    tag_28:\n        /* \"#utility.yul\":2319:2323   */\n      0x00\n        /* \"#utility.yul\":2357:2360   */\n      0x0140\n        /* \"#utility.yul\":2346:2355   */\n      dup3\n        /* \"#utility.yul\":2342:2361   */\n      add\n        /* \"#utility.yul\":2334:2361   */\n      swap1\n      pop\n        /* \"#utility.yul\":2371:2442   */\n      tag_226\n        /* \"#utility.yul\":2439:2440   */\n      0x00\n        /* \"#utility.yul\":2428:2437   */\n      dup4\n        /* \"#utility.yul\":2424:2441   */\n      add\n        /* \"#utility.yul\":2415:2421   */\n      dup14\n        /* \"#utility.yul\":2371:2442   */\n      tag_160\n      jump\t// in\n    tag_226:\n        /* \"#utility.yul\":2452:2524   */\n      tag_227\n        /* \"#utility.yul\":2520:2522   */\n      0x20\n        /* \"#utility.yul\":2509:2518   */\n      dup4\n        /* \"#utility.yul\":2505:2523   */\n      add\n        /* \"#utility.yul\":2496:2502   */\n      dup13\n        /* \"#utility.yul\":2452:2524   */\n      tag_160\n      jump\t// in\n    tag_227:\n        /* \"#utility.yul\":2534:2606   */\n      tag_228\n        /* \"#utility.yul\":2602:2604   */\n      0x40\n        /* \"#utility.yul\":2591:2600   */\n      dup4\n        /* \"#utility.yul\":2587:2605   */\n      add\n        /* \"#utility.yul\":2578:2584   */\n      dup12\n        /* \"#utility.yul\":2534:2606   */\n      tag_160\n      jump\t// in\n    tag_228:\n        /* \"#utility.yul\":2616:2688   */\n      tag_229\n        /* \"#utility.yul\":2684:2686   */\n      0x60\n        /* \"#utility.yul\":2673:2682   */\n      dup4\n        /* \"#utility.yul\":2669:2687   */\n      add\n        /* \"#utility.yul\":2660:2666   */\n      dup11\n        /* \"#utility.yul\":2616:2688   */\n      tag_160\n      jump\t// in\n    tag_229:\n        /* \"#utility.yul\":2698:2771   */\n      tag_230\n        /* \"#utility.yul\":2766:2769   */\n      0x80\n        /* \"#utility.yul\":2755:2764   */\n      dup4\n        /* \"#utility.yul\":2751:2770   */\n      add\n        /* \"#utility.yul\":2742:2748   */\n      dup10\n        /* \"#utility.yul\":2698:2771   */\n      tag_160\n      jump\t// in\n    tag_230:\n        /* \"#utility.yul\":2781:2854   */\n      tag_231\n        /* \"#utility.yul\":2849:2852   */\n      0xa0\n        /* \"#utility.yul\":2838:2847   */\n      dup4\n        /* \"#utility.yul\":2834:2853   */\n      add\n        /* \"#utility.yul\":2825:2831   */\n      dup9\n        /* \"#utility.yul\":2781:2854   */\n      tag_163\n      jump\t// in\n    tag_231:\n        /* \"#utility.yul\":2902:2911   */\n      dup2\n        /* \"#utility.yul\":2896:2900   */\n      dup2\n        /* \"#utility.yul\":2892:2912   */\n      sub\n        /* \"#utility.yul\":2886:2889   */\n      0xc0\n        /* \"#utility.yul\":2875:2884   */\n      dup4\n        /* \"#utility.yul\":2871:2890   */\n      add\n        /* \"#utility.yul\":2864:2913   */\n      mstore\n        /* \"#utility.yul\":2930:3008   */\n      tag_232\n        /* \"#utility.yul\":3003:3007   */\n      dup2\n        /* \"#utility.yul\":2994:3000   */\n      dup8\n        /* \"#utility.yul\":2930:3008   */\n      tag_158\n      jump\t// in\n    tag_232:\n        /* \"#utility.yul\":2922:3008   */\n      swap1\n      pop\n        /* \"#utility.yul\":3056:3065   */\n      dup2\n        /* \"#utility.yul\":3050:3054   */\n      dup2\n        /* \"#utility.yul\":3046:3066   */\n      sub\n        /* \"#utility.yul\":3040:3043   */\n      0xe0\n        /* \"#utility.yul\":3029:3038   */\n      dup4\n        /* \"#utility.yul\":3025:3044   */\n      add\n        /* \"#utility.yul\":3018:3067   */\n      mstore\n        /* \"#utility.yul\":3084:3162   */\n      tag_233\n        /* \"#utility.yul\":3157:3161   */\n      dup2\n        /* \"#utility.yul\":3148:3154   */\n      dup7\n        /* \"#utility.yul\":3084:3162   */\n      tag_158\n      jump\t// in\n    tag_233:\n        /* \"#utility.yul\":3076:3162   */\n      swap1\n      pop\n        /* \"#utility.yul\":3210:3219   */\n      dup2\n        /* \"#utility.yul\":3204:3208   */\n      dup2\n        /* \"#utility.yul\":3200:3220   */\n      sub\n        /* \"#utility.yul\":3194:3197   */\n      0x0100\n        /* \"#utility.yul\":3183:3192   */\n      dup4\n        /* \"#utility.yul\":3179:3198   */\n      add\n        /* \"#utility.yul\":3172:3221   */\n      mstore\n        /* \"#utility.yul\":3238:3316   */\n      tag_234\n        /* \"#utility.yul\":3311:3315   */\n      dup2\n        /* \"#utility.yul\":3302:3308   */\n      dup6\n        /* \"#utility.yul\":3238:3316   */\n      tag_158\n      jump\t// in\n    tag_234:\n        /* \"#utility.yul\":3230:3316   */\n      swap1\n      pop\n        /* \"#utility.yul\":3326:3399   */\n      tag_235\n        /* \"#utility.yul\":3394:3397   */\n      0x0120\n        /* \"#utility.yul\":3383:3392   */\n      dup4\n        /* \"#utility.yul\":3379:3398   */\n      add\n        /* \"#utility.yul\":3370:3376   */\n      dup5\n        /* \"#utility.yul\":3326:3399   */\n      tag_160\n      jump\t// in\n    tag_235:\n        /* \"#utility.yul\":1914:3406   */\n      swap12\n      swap11\n      pop\n      pop\n      pop\n      pop\n      pop\n      pop\n      pop\n      pop\n      pop\n      pop\n      pop\n      jump\t// out\n        /* \"#utility.yul\":3412:3516   */\n    tag_164:\n        /* \"#utility.yul\":3457:3464   */\n      0x00\n        /* \"#utility.yul\":3486:3510   */\n      tag_237\n        /* \"#utility.yul\":3504:3509   */\n      dup3\n        /* \"#utility.yul\":3486:3510   */\n      tag_161\n      jump\t// in\n    tag_237:\n        /* \"#utility.yul\":3475:3510   */\n      swap1\n      pop\n        /* \"#utility.yul\":3412:3516   */\n      swap2\n      swap1\n      pop\n      jump\t// out\n        /* \"#utility.yul\":3522:3664   */\n    tag_165:\n        /* \"#utility.yul\":3625:3657   */\n      tag_239\n        /* \"#utility.yul\":3651:3656   */\n      dup2\n        /* \"#utility.yul\":3625:3657   */\n      tag_164\n      jump\t// in\n    tag_239:\n        /* \"#utility.yul\":3620:3623   */\n      dup3\n        /* \"#utility.yul\":3613:3658   */\n      mstore\n        /* \"#utility.yul\":3522:3664   */\n      pop\n      pop\n      jump\t// out\n        /* \"#utility.yul\":3670:3924   */\n    tag_33:\n        /* \"#utility.yul\":3779:3783   */\n      0x00\n        /* \"#utility.yul\":3817:3819   */\n      0x20\n        /* \"#utility.yul\":3806:3815   */\n      dup3\n        /* \"#utility.yul\":3802:3820   */\n      add\n        /* \"#utility.yul\":3794:3820   */\n      swap1\n      pop\n        /* \"#utility.yul\":3830:3917   */\n      tag_241\n        /* \"#utility.yul\":3914:3915   */\n      0x00\n        /* \"#utility.yul\":3903:3912   */\n      dup4\n        /* \"#utility.yul\":3899:3916   */\n      add\n        /* \"#utility.yul\":3890:3896   */\n      dup5\n        /* \"#utility.yul\":3830:3917   */\n      tag_165\n      jump\t// in\n    tag_241:\n        /* \"#utility.yul\":3670:3924   */\n      swap3\n      swap2\n      pop\n      pop\n      jump\t// out\n        /* \"#utility.yul\":3930:4005   */\n    tag_166:\n        /* \"#utility.yul\":3963:3969   */\n      0x00\n        /* \"#utility.yul\":3996:3998   */\n      0x40\n        /* \"#utility.yul\":3990:3999   */\n      mload\n        /* \"#utility.yul\":3980:3999   */\n      swap1\n      pop\n        /* \"#utility.yul\":3930:4005   */\n      swap1\n      jump\t// out\n        /* \"#utility.yul\":4011:4128   */\n    tag_167:\n        /* \"#utility.yul\":4120:4121   */\n      0x00\n        /* \"#utility.yul\":4117:4118   */\n      dup1\n        /* \"#utility.yul\":4110:4122   */\n      revert\n        /* \"#utility.yul\":4134:4251   */\n    tag_168:\n        /* \"#utility.yul\":4243:4244   */\n      0x00\n        /* \"#utility.yul\":4240:4241   */\n      dup1\n        /* \"#utility.yul\":4233:4245   */\n      revert\n        /* \"#utility.yul\":4257:4379   */\n    tag_169:\n        /* \"#utility.yul\":4330:4354   */\n      tag_246\n        /* \"#utility.yul\":4348:4353   */\n      dup2\n        /* \"#utility.yul\":4330:4354   */\n      tag_159\n      jump\t// in\n    tag_246:\n        /* \"#utility.yul\":4323:4328   */\n      dup2\n        /* \"#utility.yul\":4320:4355   */\n      eq\n        /* \"#utility.yul\":4310:4373   */\n      tag_247\n      jumpi\n        /* \"#utility.yul\":4369:4370   */\n      0x00\n        /* \"#utility.yul\":4366:4367   */\n      dup1\n        /* \"#utility.yul\":4359:4371   */\n      revert\n        /* \"#utility.yul\":4310:4373   */\n    tag_247:\n        /* \"#utility.yul\":4257:4379   */\n      pop\n      jump\t// out\n        /* \"#utility.yul\":4385:4524   */\n    tag_170:\n        /* \"#utility.yul\":4431:4436   */\n      0x00\n        /* \"#utility.yul\":4469:4475   */\n      dup2\n        /* \"#utility.yul\":4456:4476   */\n      calldataload\n        /* \"#utility.yul\":4447:4476   */\n      swap1\n      pop\n        /* \"#utility.yul\":4485:4518   */\n      tag_249\n        /* \"#utility.yul\":4512:4517   */\n      dup2\n        /* \"#utility.yul\":4485:4518   */\n      tag_169\n      jump\t// in\n    tag_249:\n        /* \"#utility.yul\":4385:4524   */\n      swap3\n      swap2\n      pop\n      pop\n      jump\t// out\n        /* \"#utility.yul\":4530:4859   */\n    tag_39:\n        /* \"#utility.yul\":4589:4595   */\n      0x00\n        /* \"#utility.yul\":4638:4640   */\n      0x20\n        /* \"#utility.yul\":4626:4635   */\n      dup3\n        /* \"#utility.yul\":4617:4624   */\n      dup5\n        /* \"#utility.yul\":4613:4636   */\n      sub\n        /* \"#utility.yul\":4609:4641   */\n      slt\n        /* \"#utility.yul\":4606:4725   */\n      iszero\n      tag_251\n      jumpi\n        /* \"#utility.yul\":4644:4723   */\n      tag_252\n      tag_167\n      jump\t// in\n    tag_252:\n        /* \"#utility.yul\":4606:4725   */\n    tag_251:\n        /* \"#utility.yul\":4764:4765   */\n      0x00\n        /* \"#utility.yul\":4789:4842   */\n      tag_253\n        /* \"#utility.yul\":4834:4841   */\n      dup5\n        /* \"#utility.yul\":4825:4831   */\n      dup3\n        /* \"#utility.yul\":4814:4823   */\n      dup6\n        /* \"#utility.yul\":4810:4832   */\n      add\n        /* \"#utility.yul\":4789:4842   */\n      tag_170\n      jump\t// in\n    tag_253:\n        /* \"#utility.yul\":4779:4842   */\n      swap2\n      pop\n        /* \"#utility.yul\":4735:4852   */\n      pop\n        /* \"#utility.yul\":4530:4859   */\n      swap3\n      swap2\n      pop\n      pop\n      jump\t// out\n        /* \"#utility.yul\":4865:4955   */\n    tag_171:\n        /* \"#utility.yul\":4899:4906   */\n      0x00\n        /* \"#utility.yul\":4942:4947   */\n      dup2\n        /* \"#utility.yul\":4935:4948   */\n      iszero\n        /* \"#utility.yul\":4928:4949   */\n      iszero\n        /* \"#utility.yul\":4917:4949   */\n      swap1\n      pop\n        /* \"#utility.yul\":4865:4955   */\n      swap2\n      swap1\n      pop\n      jump\t// out\n        /* \"#utility.yul\":4961:5070   */\n    tag_172:\n        /* \"#utility.yul\":5042:5063   */\n      tag_256\n        /* \"#utility.yul\":5057:5062   */\n      dup2\n        /* \"#utility.yul\":5042:5063   */\n      tag_171\n      jump\t// in\n    tag_256:\n        /* \"#utility.yul\":5037:5040   */\n      dup3\n        /* \"#utility.yul\":5030:5064   */\n      mstore\n        /* \"#utility.yul\":4961:5070   */\n      pop\n      pop\n      jump\t// out\n        /* \"#utility.yul\":5076:5851   */\n    tag_42:\n        /* \"#utility.yul\":5311:5315   */\n      0x00\n        /* \"#utility.yul\":5349:5352   */\n      0xa0\n        /* \"#utility.yul\":5338:5347   */\n      dup3\n        /* \"#utility.yul\":5334:5353   */\n      add\n        /* \"#utility.yul\":5326:5353   */\n      swap1\n      pop\n        /* \"#utility.yul\":5399:5408   */\n      dup2\n        /* \"#utility.yul\":5393:5397   */\n      dup2\n        /* \"#utility.yul\":5389:5409   */\n      sub\n        /* \"#utility.yul\":5385:5386   */\n      0x00\n        /* \"#utility.yul\":5374:5383   */\n      dup4\n        /* \"#utility.yul\":5370:5387   */\n      add\n        /* \"#utility.yul\":5363:5410   */\n      mstore\n        /* \"#utility.yul\":5427:5505   */\n      tag_258\n        /* \"#utility.yul\":5500:5504   */\n      dup2\n        /* \"#utility.yul\":5491:5497   */\n      dup9\n        /* \"#utility.yul\":5427:5505   */\n      tag_158\n      jump\t// in\n    tag_258:\n        /* \"#utility.yul\":5419:5505   */\n      swap1\n      pop\n        /* \"#utility.yul\":5515:5587   */\n      tag_259\n        /* \"#utility.yul\":5583:5585   */\n      0x20\n        /* \"#utility.yul\":5572:5581   */\n      dup4\n        /* \"#utility.yul\":5568:5586   */\n      add\n        /* \"#utility.yul\":5559:5565   */\n      dup8\n        /* \"#utility.yul\":5515:5587   */\n      tag_160\n      jump\t// in\n    tag_259:\n        /* \"#utility.yul\":5597:5685   */\n      tag_260\n        /* \"#utility.yul\":5681:5683   */\n      0x40\n        /* \"#utility.yul\":5670:5679   */\n      dup4\n        /* \"#utility.yul\":5666:5684   */\n      add\n        /* \"#utility.yul\":5657:5663   */\n      dup7\n        /* \"#utility.yul\":5597:5685   */\n      tag_165\n      jump\t// in\n    tag_260:\n        /* \"#utility.yul\":5695:5761   */\n      tag_261\n        /* \"#utility.yul\":5757:5759   */\n      0x60\n        /* \"#utility.yul\":5746:5755   */\n      dup4\n        /* \"#utility.yul\":5742:5760   */\n      add\n        /* \"#utility.yul\":5733:5739   */\n      dup6\n        /* \"#utility.yul\":5695:5761   */\n      tag_172\n      jump\t// in\n    tag_261:\n        /* \"#utility.yul\":5771:5844   */\n      tag_262\n        /* \"#utility.yul\":5839:5842   */\n      0x80\n        /* \"#utility.yul\":5828:5837   */\n      dup4\n        /* \"#utility.yul\":5824:5843   */\n      add\n        /* \"#utility.yul\":5815:5821   */\n      dup5\n        /* \"#utility.yul\":5771:5844   */\n      tag_160\n      jump\t// in\n    tag_262:\n        /* \"#utility.yul\":5076:5851   */\n      swap7\n      swap6\n      pop\n      pop\n      pop\n      pop\n      pop\n      pop\n      jump\t// out\n        /* \"#utility.yul\":5857:6079   */\n    tag_47:\n        /* \"#utility.yul\":5950:5954   */\n      0x00\n        /* \"#utility.yul\":5988:5990   */\n      0x20\n        /* \"#utility.yul\":5977:5986   */\n      dup3\n        /* \"#utility.yul\":5973:5991   */\n      add\n        /* \"#utility.yul\":5965:5991   */\n      swap1\n      pop\n        /* \"#utility.yul\":6001:6072   */\n      tag_264\n        /* \"#utility.yul\":6069:6070   */\n      0x00\n        /* \"#utility.yul\":6058:6067   */\n      dup4\n        /* \"#utility.yul\":6054:6071   */\n      add\n        /* \"#utility.yul\":6045:6051   */\n      dup5\n        /* \"#utility.yul\":6001:6072   */\n      tag_160\n      jump\t// in\n    tag_264:\n        /* \"#utility.yul\":5857:6079   */\n      swap3\n      swap2\n      pop\n      pop\n      jump\t// out\n        /* \"#utility.yul\":6085:6202   */\n    tag_173:\n        /* \"#utility.yul\":6194:6195   */\n      0x00\n        /* \"#utility.yul\":6191:6192   */\n      dup1\n        /* \"#utility.yul\":6184:6196   */\n      revert\n        /* \"#utility.yul\":6208:6325   */\n    tag_174:\n        /* \"#utility.yul\":6317:6318   */\n      0x00\n        /* \"#utility.yul\":6314:6315   */\n      dup1\n        /* \"#utility.yul\":6307:6319   */\n      revert\n        /* \"#utility.yul\":6331:6511   */\n    tag_175:\n        /* \"#utility.yul\":6379:6456   */\n      0x4e487b7100000000000000000000000000000000000000000000000000000000\n        /* \"#utility.yul\":6376:6377   */\n      0x00\n        /* \"#utility.yul\":6369:6457   */\n      mstore\n        /* \"#utility.yul\":6476:6480   */\n      0x41\n        /* \"#utility.yul\":6473:6474   */\n      0x04\n        /* \"#utility.yul\":6466:6481   */\n      mstore\n        /* \"#utility.yul\":6500:6504   */\n      0x24\n        /* \"#utility.yul\":6497:6498   */\n      0x00\n        /* \"#utility.yul\":6490:6505   */\n      revert\n        /* \"#utility.yul\":6517:6798   */\n    tag_176:\n        /* \"#utility.yul\":6600:6627   */\n      tag_269\n        /* \"#utility.yul\":6622:6626   */\n      dup3\n        /* \"#utility.yul\":6600:6627   */\n      tag_157\n      jump\t// in\n    tag_269:\n        /* \"#utility.yul\":6592:6598   */\n      dup2\n        /* \"#utility.yul\":6588:6628   */\n      add\n        /* \"#utility.yul\":6730:6736   */\n      dup2\n        /* \"#utility.yul\":6718:6728   */\n      dup2\n        /* \"#utility.yul\":6715:6737   */\n      lt\n        /* \"#utility.yul\":6694:6712   */\n      0xffffffffffffffff\n        /* \"#utility.yul\":6682:6692   */\n      dup3\n        /* \"#utility.yul\":6679:6713   */\n      gt\n        /* \"#utility.yul\":6676:6738   */\n      or\n        /* \"#utility.yul\":6673:6761   */\n      iszero\n      tag_270\n      jumpi\n        /* \"#utility.yul\":6741:6759   */\n      tag_271\n      tag_175\n      jump\t// in\n    tag_271:\n        /* \"#utility.yul\":6673:6761   */\n    tag_270:\n        /* \"#utility.yul\":6781:6791   */\n      dup1\n        /* \"#utility.yul\":6777:6779   */\n      0x40\n        /* \"#utility.yul\":6770:6792   */\n      mstore\n        /* \"#utility.yul\":6560:6798   */\n      pop\n        /* \"#utility.yul\":6517:6798   */\n      pop\n      pop\n      jump\t// out\n        /* \"#utility.yul\":6804:6933   */\n    tag_177:\n        /* \"#utility.yul\":6838:6844   */\n      0x00\n        /* \"#utility.yul\":6865:6885   */\n      tag_273\n      tag_166\n      jump\t// in\n    tag_273:\n        /* \"#utility.yul\":6855:6885   */\n      swap1\n      pop\n        /* \"#utility.yul\":6894:6927   */\n      tag_274\n        /* \"#utility.yul\":6922:6926   */\n      dup3\n        /* \"#utility.yul\":6914:6920   */\n      dup3\n        /* \"#utility.yul\":6894:6927   */\n      tag_176\n      jump\t// in\n    tag_274:\n        /* \"#utility.yul\":6804:6933   */\n      swap2\n      swap1\n      pop\n      jump\t// out\n        /* \"#utility.yul\":6939:7247   */\n    tag_178:\n        /* \"#utility.yul\":7001:7005   */\n      0x00\n        /* \"#utility.yul\":7091:7109   */\n      0xffffffffffffffff\n        /* \"#utility.yul\":7083:7089   */\n      dup3\n        /* \"#utility.yul\":7080:7110   */\n      gt\n        /* \"#utility.yul\":7077:7133   */\n      iszero\n      tag_276\n      jumpi\n        /* \"#utility.yul\":7113:7131   */\n      tag_277\n      tag_175\n      jump\t// in\n    tag_277:\n        /* \"#utility.yul\":7077:7133   */\n    tag_276:\n        /* \"#utility.yul\":7151:7180   */\n      tag_278\n        /* \"#utility.yul\":7173:7179   */\n      dup3\n        /* \"#utility.yul\":7151:7180   */\n      tag_157\n      jump\t// in\n    tag_278:\n        /* \"#utility.yul\":7143:7180   */\n      swap1\n      pop\n        /* \"#utility.yul\":7235:7239   */\n      0x20\n        /* \"#utility.yul\":7229:7233   */\n      dup2\n        /* \"#utility.yul\":7225:7240   */\n      add\n        /* \"#utility.yul\":7217:7240   */\n      swap1\n      pop\n        /* \"#utility.yul\":6939:7247   */\n      swap2\n      swap1\n      pop\n      jump\t// out\n        /* \"#utility.yul\":7253:7399   */\n    tag_179:\n        /* \"#utility.yul\":7350:7356   */\n      dup3\n        /* \"#utility.yul\":7345:7348   */\n      dup2\n        /* \"#utility.yul\":7340:7343   */\n      dup4\n        /* \"#utility.yul\":7327:7357   */\n      calldatacopy\n        /* \"#utility.yul\":7391:7392   */\n      0x00\n        /* \"#utility.yul\":7382:7388   */\n      dup4\n        /* \"#utility.yul\":7377:7380   */\n      dup4\n        /* \"#utility.yul\":7373:7389   */\n      add\n        /* \"#utility.yul\":7366:7393   */\n      mstore\n        /* \"#utility.yul\":7253:7399   */\n      pop\n      pop\n      pop\n      jump\t// out\n        /* \"#utility.yul\":7405:7830   */\n    tag_180:\n        /* \"#utility.yul\":7483:7488   */\n      0x00\n        /* \"#utility.yul\":7508:7574   */\n      tag_281\n        /* \"#utility.yul\":7524:7573   */\n      tag_282\n        /* \"#utility.yul\":7566:7572   */\n      dup5\n        /* \"#utility.yul\":7524:7573   */\n      tag_178\n      jump\t// in\n    tag_282:\n        /* \"#utility.yul\":7508:7574   */\n      tag_177\n      jump\t// in\n    tag_281:\n        /* \"#utility.yul\":7499:7574   */\n      swap1\n      pop\n        /* \"#utility.yul\":7597:7603   */\n      dup3\n        /* \"#utility.yul\":7590:7595   */\n      dup2\n        /* \"#utility.yul\":7583:7604   */\n      mstore\n        /* \"#utility.yul\":7635:7639   */\n      0x20\n        /* \"#utility.yul\":7628:7633   */\n      dup2\n        /* \"#utility.yul\":7624:7640   */\n      add\n        /* \"#utility.yul\":7673:7676   */\n      dup5\n        /* \"#utility.yul\":7664:7670   */\n      dup5\n        /* \"#utility.yul\":7659:7662   */\n      dup5\n        /* \"#utility.yul\":7655:7671   */\n      add\n        /* \"#utility.yul\":7652:7677   */\n      gt\n        /* \"#utility.yul\":7649:7761   */\n      iszero\n      tag_283\n      jumpi\n        /* \"#utility.yul\":7680:7759   */\n      tag_284\n      tag_174\n      jump\t// in\n    tag_284:\n        /* \"#utility.yul\":7649:7761   */\n    tag_283:\n        /* \"#utility.yul\":7770:7824   */\n      tag_285\n        /* \"#utility.yul\":7817:7823   */\n      dup5\n        /* \"#utility.yul\":7812:7815   */\n      dup3\n        /* \"#utility.yul\":7807:7810   */\n      dup6\n        /* \"#utility.yul\":7770:7824   */\n      tag_179\n      jump\t// in\n    tag_285:\n        /* \"#utility.yul\":7489:7830   */\n      pop\n        /* \"#utility.yul\":7405:7830   */\n      swap4\n      swap3\n      pop\n      pop\n      pop\n      jump\t// out\n        /* \"#utility.yul\":7850:8190   */\n    tag_181:\n        /* \"#utility.yul\":7906:7911   */\n      0x00\n        /* \"#utility.yul\":7955:7958   */\n      dup3\n        /* \"#utility.yul\":7948:7952   */\n      0x1f\n        /* \"#utility.yul\":7940:7946   */\n      dup4\n        /* \"#utility.yul\":7936:7953   */\n      add\n        /* \"#utility.yul\":7932:7959   */\n      slt\n        /* \"#utility.yul\":7922:8044   */\n      tag_287\n      jumpi\n        /* \"#utility.yul\":7963:8042   */\n      tag_288\n      tag_173\n      jump\t// in\n    tag_288:\n        /* \"#utility.yul\":7922:8044   */\n    tag_287:\n        /* \"#utility.yul\":8080:8086   */\n      dup2\n        /* \"#utility.yul\":8067:8087   */\n      calldataload\n        /* \"#utility.yul\":8105:8184   */\n      tag_289\n        /* \"#utility.yul\":8180:8183   */\n      dup5\n        /* \"#utility.yul\":8172:8178   */\n      dup3\n        /* \"#utility.yul\":8165:8169   */\n      0x20\n        /* \"#utility.yul\":8157:8163   */\n      dup7\n        /* \"#utility.yul\":8153:8170   */\n      add\n        /* \"#utility.yul\":8105:8184   */\n      tag_180\n      jump\t// in\n    tag_289:\n        /* \"#utility.yul\":8096:8184   */\n      swap2\n      pop\n        /* \"#utility.yul\":7912:8190   */\n      pop\n        /* \"#utility.yul\":7850:8190   */\n      swap3\n      swap2\n      pop\n      pop\n      jump\t// out\n        /* \"#utility.yul\":8196:8334   */\n    tag_182:\n        /* \"#utility.yul\":8277:8309   */\n      tag_291\n        /* \"#utility.yul\":8303:8308   */\n      dup2\n        /* \"#utility.yul\":8277:8309   */\n      tag_164\n      jump\t// in\n    tag_291:\n        /* \"#utility.yul\":8270:8275   */\n      dup2\n        /* \"#utility.yul\":8267:8310   */\n      eq\n        /* \"#utility.yul\":8257:8328   */\n      tag_292\n      jumpi\n        /* \"#utility.yul\":8324:8325   */\n      0x00\n        /* \"#utility.yul\":8321:8322   */\n      dup1\n        /* \"#utility.yul\":8314:8326   */\n      revert\n        /* \"#utility.yul\":8257:8328   */\n    tag_292:\n        /* \"#utility.yul\":8196:8334   */\n      pop\n      jump\t// out\n        /* \"#utility.yul\":8340:8495   */\n    tag_183:\n        /* \"#utility.yul\":8394:8399   */\n      0x00\n        /* \"#utility.yul\":8432:8438   */\n      dup2\n        /* \"#utility.yul\":8419:8439   */\n      calldataload\n        /* \"#utility.yul\":8410:8439   */\n      swap1\n      pop\n        /* \"#utility.yul\":8448:8489   */\n      tag_294\n        /* \"#utility.yul\":8483:8488   */\n      dup2\n        /* \"#utility.yul\":8448:8489   */\n      tag_182\n      jump\t// in\n    tag_294:\n        /* \"#utility.yul\":8340:8495   */\n      swap3\n      swap2\n      pop\n      pop\n      jump\t// out\n        /* \"#utility.yul\":8501:9316   */\n    tag_51:\n        /* \"#utility.yul\":8596:8602   */\n      0x00\n        /* \"#utility.yul\":8604:8610   */\n      dup1\n        /* \"#utility.yul\":8612:8618   */\n      0x00\n        /* \"#utility.yul\":8661:8663   */\n      0x60\n        /* \"#utility.yul\":8649:8658   */\n      dup5\n        /* \"#utility.yul\":8640:8647   */\n      dup7\n        /* \"#utility.yul\":8636:8659   */\n      sub\n        /* \"#utility.yul\":8632:8664   */\n      slt\n        /* \"#utility.yul\":8629:8748   */\n      iszero\n      tag_296\n      jumpi\n        /* \"#utility.yul\":8667:8746   */\n      tag_297\n      tag_167\n      jump\t// in\n    tag_297:\n        /* \"#utility.yul\":8629:8748   */\n    tag_296:\n        /* \"#utility.yul\":8815:8816   */\n      0x00\n        /* \"#utility.yul\":8804:8813   */\n      dup5\n        /* \"#utility.yul\":8800:8817   */\n      add\n        /* \"#utility.yul\":8787:8818   */\n      calldataload\n        /* \"#utility.yul\":8845:8863   */\n      0xffffffffffffffff\n        /* \"#utility.yul\":8837:8843   */\n      dup2\n        /* \"#utility.yul\":8834:8864   */\n      gt\n        /* \"#utility.yul\":8831:8948   */\n      iszero\n      tag_298\n      jumpi\n        /* \"#utility.yul\":8867:8946   */\n      tag_299\n      tag_168\n      jump\t// in\n    tag_299:\n        /* \"#utility.yul\":8831:8948   */\n    tag_298:\n        /* \"#utility.yul\":8972:9035   */\n      tag_300\n        /* \"#utility.yul\":9027:9034   */\n      dup7\n        /* \"#utility.yul\":9018:9024   */\n      dup3\n        /* \"#utility.yul\":9007:9016   */\n      dup8\n        /* \"#utility.yul\":9003:9025   */\n      add\n        /* \"#utility.yul\":8972:9035   */\n      tag_181\n      jump\t// in\n    tag_300:\n        /* \"#utility.yul\":8962:9035   */\n      swap4\n      pop\n        /* \"#utility.yul\":8758:9045   */\n      pop\n        /* \"#utility.yul\":9084:9086   */\n      0x20\n        /* \"#utility.yul\":9110:9163   */\n      tag_301\n        /* \"#utility.yul\":9155:9162   */\n      dup7\n        /* \"#utility.yul\":9146:9152   */\n      dup3\n        /* \"#utility.yul\":9135:9144   */\n      dup8\n        /* \"#utility.yul\":9131:9153   */\n      add\n        /* \"#utility.yul\":9110:9163   */\n      tag_170\n      jump\t// in\n    tag_301:\n        /* \"#utility.yul\":9100:9163   */\n      swap3\n      pop\n        /* \"#utility.yul\":9055:9173   */\n      pop\n        /* \"#utility.yul\":9212:9214   */\n      0x40\n        /* \"#utility.yul\":9238:9299   */\n      tag_302\n        /* \"#utility.yul\":9291:9298   */\n      dup7\n        /* \"#utility.yul\":9282:9288   */\n      dup3\n        /* \"#utility.yul\":9271:9280   */\n      dup8\n        /* \"#utility.yul\":9267:9289   */\n      add\n        /* \"#utility.yul\":9238:9299   */\n      tag_183\n      jump\t// in\n    tag_302:\n        /* \"#utility.yul\":9228:9299   */\n      swap2\n      pop\n        /* \"#utility.yul\":9183:9309   */\n      pop\n        /* \"#utility.yul\":8501:9316   */\n      swap3\n      pop\n      swap3\n      pop\n      swap3\n      jump\t// out\n        /* \"#utility.yul\":9322:9502   */\n    tag_184:\n        /* \"#utility.yul\":9370:9447   */\n      0x4e487b7100000000000000000000000000000000000000000000000000000000\n        /* \"#utility.yul\":9367:9368   */\n      0x00\n        /* \"#utility.yul\":9360:9448   */\n      mstore\n        /* \"#utility.yul\":9467:9471   */\n      0x22\n        /* \"#utility.yul\":9464:9465   */\n      0x04\n        /* \"#utility.yul\":9457:9472   */\n      mstore\n        /* \"#utility.yul\":9491:9495   */\n      0x24\n        /* \"#utility.yul\":9488:9489   */\n      0x00\n        /* \"#utility.yul\":9481:9496   */\n      revert\n        /* \"#utility.yul\":9508:9828   */\n    tag_82:\n        /* \"#utility.yul\":9552:9558   */\n      0x00\n        /* \"#utility.yul\":9589:9590   */\n      0x02\n        /* \"#utility.yul\":9583:9587   */\n      dup3\n        /* \"#utility.yul\":9579:9591   */\n      div\n        /* \"#utility.yul\":9569:9591   */\n      swap1\n      pop\n        /* \"#utility.yul\":9636:9637   */\n      0x01\n        /* \"#utility.yul\":9630:9634   */\n      dup3\n        /* \"#utility.yul\":9626:9638   */\n      and\n        /* \"#utility.yul\":9657:9675   */\n      dup1\n        /* \"#utility.yul\":9647:9728   */\n      tag_305\n      jumpi\n        /* \"#utility.yul\":9713:9717   */\n      0x7f\n        /* \"#utility.yul\":9705:9711   */\n      dup3\n        /* \"#utility.yul\":9701:9718   */\n      and\n        /* \"#utility.yul\":9691:9718   */\n      swap2\n      pop\n        /* \"#utility.yul\":9647:9728   */\n    tag_305:\n        /* \"#utility.yul\":9775:9777   */\n      0x20\n        /* \"#utility.yul\":9767:9773   */\n      dup3\n        /* \"#utility.yul\":9764:9778   */\n      lt\n        /* \"#utility.yul\":9744:9762   */\n      dup2\n        /* \"#utility.yul\":9741:9779   */\n      sub\n        /* \"#utility.yul\":9738:9822   */\n      tag_306\n      jumpi\n        /* \"#utility.yul\":9794:9812   */\n      tag_307\n      tag_184\n      jump\t// in\n    tag_307:\n        /* \"#utility.yul\":9738:9822   */\n    tag_306:\n        /* \"#utility.yul\":9559:9828   */\n      pop\n        /* \"#utility.yul\":9508:9828   */\n      swap2\n      swap1\n      pop\n      jump\t// out\n        /* \"#utility.yul\":9834:10014   */\n    tag_185:\n        /* \"#utility.yul\":9882:9959   */\n      0x4e487b7100000000000000000000000000000000000000000000000000000000\n        /* \"#utility.yul\":9879:9880   */\n      0x00\n        /* \"#utility.yul\":9872:9960   */\n      mstore\n        /* \"#utility.yul\":9979:9983   */\n      0x11\n        /* \"#utility.yul\":9976:9977   */\n      0x04\n        /* \"#utility.yul\":9969:9984   */\n      mstore\n        /* \"#utility.yul\":10003:10007   */\n      0x24\n        /* \"#utility.yul\":10000:10001   */\n      0x00\n        /* \"#utility.yul\":9993:10008   */\n      revert\n        /* \"#utility.yul\":10020:10253   */\n    tag_107:\n        /* \"#utility.yul\":10059:10062   */\n      0x00\n        /* \"#utility.yul\":10082:10106   */\n      tag_310\n        /* \"#utility.yul\":10100:10105   */\n      dup3\n        /* \"#utility.yul\":10082:10106   */\n      tag_159\n      jump\t// in\n    tag_310:\n        /* \"#utility.yul\":10073:10106   */\n      swap2\n      pop\n        /* \"#utility.yul\":10128:10194   */\n      0xffffffffffffffffffffffffffffffffffffffffffffffffffffffffffffffff\n        /* \"#utility.yul\":10121:10126   */\n      dup3\n        /* \"#utility.yul\":10118:10195   */\n      sub\n        /* \"#utility.yul\":10115:10218   */\n      tag_311\n      jumpi\n        /* \"#utility.yul\":10198:10216   */\n      tag_312\n      tag_185\n      jump\t// in\n    tag_312:\n        /* \"#utility.yul\":10115:10218   */\n    tag_311:\n        /* \"#utility.yul\":10245:10246   */\n      0x01\n        /* \"#utility.yul\":10238:10243   */\n      dup3\n        /* \"#utility.yul\":10234:10247   */\n      add\n        /* \"#utility.yul\":10227:10247   */\n      swap1\n      pop\n        /* \"#utility.yul\":10020:10253   */\n      swap2\n      swap1\n      pop\n      jump\t// out\n        /* \"#utility.yul\":10259:10400   */\n    tag_186:\n        /* \"#utility.yul\":10308:10312   */\n      0x00\n        /* \"#utility.yul\":10331:10334   */\n      dup2\n        /* \"#utility.yul\":10323:10334   */\n      swap1\n      pop\n        /* \"#utility.yul\":10354:10357   */\n      dup2\n        /* \"#utility.yul\":10351:10352   */\n      0x00\n        /* \"#utility.yul\":10344:10358   */\n      mstore\n        /* \"#utility.yul\":10388:10392   */\n      0x20\n        /* \"#utility.yul\":10385:10386   */\n      0x00\n        /* \"#utility.yul\":10375:10393   */\n      keccak256\n        /* \"#utility.yul\":10367:10393   */\n      swap1\n      pop\n        /* \"#utility.yul\":10259:10400   */\n      swap2\n      swap1\n      pop\n      jump\t// out\n        /* \"#utility.yul\":10406:10499   */\n    tag_187:\n        /* \"#utility.yul\":10443:10449   */\n      0x00\n        /* \"#utility.yul\":10490:10492   */\n      0x20\n        /* \"#utility.yul\":10485:10487   */\n      0x1f\n        /* \"#utility.yul\":10478:10483   */\n      dup4\n        /* \"#utility.yul\":10474:10488   */\n      add\n        /* \"#utility.yul\":10470:10493   */\n      div\n        /* \"#utility.yul\":10460:10493   */\n      swap1\n      pop\n        /* \"#utility.yul\":10406:10499   */\n      swap2\n      swap1\n      pop\n      jump\t// out\n        /* \"#utility.yul\":10505:10612   */\n    tag_188:\n        /* \"#utility.yul\":10549:10557   */\n      0x00\n        /* \"#utility.yul\":10599:10604   */\n      dup3\n        /* \"#utility.yul\":10593:10597   */\n      dup3\n        /* \"#utility.yul\":10589:10605   */\n      shl\n        /* \"#utility.yul\":10568:10605   */\n      swap1\n      pop\n        /* \"#utility.yul\":10505:10612   */\n      swap3\n      swap2\n      pop\n      pop\n      jump\t// out\n        /* \"#utility.yul\":10618:11011   */\n    tag_189:\n        /* \"#utility.yul\":10687:10693   */\n      0x00\n        /* \"#utility.yul\":10737:10738   */\n      0x08\n        /* \"#utility.yul\":10725:10735   */\n      dup4\n        /* \"#utility.yul\":10721:10739   */\n      mul\n        /* \"#utility.yul\":10760:10857   */\n      tag_317\n        /* \"#utility.yul\":10790:10856   */\n      0xffffffffffffffffffffffffffffffffffffffffffffffffffffffffffffffff\n        /* \"#utility.yul\":10779:10788   */\n      dup3\n        /* \"#utility.yul\":10760:10857   */\n      tag_188\n      jump\t// in\n    tag_317:\n        /* \"#utility.yul\":10878:10917   */\n      tag_318\n        /* \"#utility.yul\":10908:10916   */\n      dup7\n        /* \"#utility.yul\":10897:10906   */\n      dup4\n        /* \"#utility.yul\":10878:10917   */\n      tag_188\n      jump\t// in\n    tag_318:\n        /* \"#utility.yul\":10866:10917   */\n      swap6\n      pop\n        /* \"#utility.yul\":10950:10954   */\n      dup1\n        /* \"#utility.yul\":10946:10955   */\n      not\n        /* \"#utility.yul\":10939:10944   */\n      dup5\n        /* \"#utility.yul\":10935:10956   */\n      and\n        /* \"#utility.yul\":10926:10956   */\n      swap4\n      pop\n        /* \"#utility.yul\":10999:11003   */\n      dup1\n        /* \"#utility.yul\":10989:10997   */\n      dup7\n        /* \"#utility.yul\":10985:11004   */\n      and\n        /* \"#utility.yul\":10978:10983   */\n      dup5\n        /* \"#utility.yul\":10975:11005   */\n      or\n        /* \"#utility.yul\":10965:11005   */\n      swap3\n      pop\n        /* \"#utility.yul\":10694:11011   */\n      pop\n      pop\n        /* \"#utility.yul\":10618:11011   */\n      swap4\n      swap3\n      pop\n      pop\n      pop\n      jump\t// out\n        /* \"#utility.yul\":11017:11077   */\n    tag_190:\n        /* \"#utility.yul\":11045:11048   */\n      0x00\n        /* \"#utility.yul\":11066:11071   */\n      dup2\n        /* \"#utility.yul\":11059:11071   */\n      swap1\n      pop\n        /* \"#utility.yul\":11017:11077   */\n      swap2\n      swap1\n      pop\n      jump\t// out\n        /* \"#utility.yul\":11083:11225   */\n    tag_191:\n        /* \"#utility.yul\":11133:11142   */\n      0x00\n        /* \"#utility.yul\":11166:11219   */\n      tag_321\n        /* \"#utility.yul\":11184:11218   */\n      tag_322\n        /* \"#utility.yul\":11193:11217   */\n      tag_323\n        /* \"#utility.yul\":11211:11216   */\n      dup5\n        /* \"#utility.yul\":11193:11217   */\n      tag_159\n      jump\t// in\n    tag_323:\n        /* \"#utility.yul\":11184:11218   */\n      tag_190\n      jump\t// in\n    tag_322:\n        /* \"#utility.yul\":11166:11219   */\n      tag_159\n      jump\t// in\n    tag_321:\n        /* \"#utility.yul\":11153:11219   */\n      swap1\n      pop\n        /* \"#utility.yul\":11083:11225   */\n      swap2\n      swap1\n      pop\n      jump\t// out\n        /* \"#utility.yul\":11231:11306   */\n    tag_192:\n        /* \"#utility.yul\":11274:11277   */\n      0x00\n        /* \"#utility.yul\":11295:11300   */\n      dup2\n        /* \"#utility.yul\":11288:11300   */\n      swap1\n      pop\n        /* \"#utility.yul\":11231:11306   */\n      swap2\n      swap1\n      pop\n      jump\t// out\n        /* \"#utility.yul\":11312:11581   */\n    tag_193:\n        /* \"#utility.yul\":11422:11461   */\n      tag_326\n        /* \"#utility.yul\":11453:11460   */\n      dup4\n        /* \"#utility.yul\":11422:11461   */\n      tag_191\n      jump\t// in\n    tag_326:\n        /* \"#utility.yul\":11483:11574   */\n      tag_327\n        /* \"#utility.yul\":11532:11573   */\n      tag_328\n        /* \"#utility.yul\":11556:11572   */\n      dup3\n        /* \"#utility.yul\":11532:11573   */\n      tag_192\n      jump\t// in\n    tag_328:\n        /* \"#utility.yul\":11524:11530   */\n      dup5\n        /* \"#utility.yul\":11517:11521   */\n      dup5\n        /* \"#utility.yul\":11511:11522   */\n      sload\n        /* \"#utility.yul\":11483:11574   */\n      tag_189\n      jump\t// in\n    tag_327:\n        /* \"#utility.yul\":11477:11481   */\n      dup3\n        /* \"#utility.yul\":11470:11575   */\n      sstore\n        /* \"#utility.yul\":11388:11581   */\n      pop\n        /* \"#utility.yul\":11312:11581   */\n      pop\n      pop\n      pop\n      jump\t// out\n        /* \"#utility.yul\":11587:11660   */\n    tag_194:\n        /* \"#utility.yul\":11632:11635   */\n      0x00\n        /* \"#utility.yul\":11587:11660   */\n      swap1\n      jump\t// out\n        /* \"#utility.yul\":11666:11855   */\n    tag_195:\n        /* \"#utility.yul\":11743:11775   */\n      tag_331\n      tag_194\n      jump\t// in\n    tag_331:\n        /* \"#utility.yul\":11784:11849   */\n      tag_332\n        /* \"#utility.yul\":11842:11848   */\n      dup2\n        /* \"#utility.yul\":11834:11840   */\n      dup5\n        /* \"#utility.yul\":11828:11832   */\n      dup5\n        /* \"#utility.yul\":11784:11849   */\n      tag_193\n      jump\t// in\n    tag_332:\n        /* \"#utility.yul\":11719:11855   */\n      pop\n        /* \"#utility.yul\":11666:11855   */\n      pop\n      pop\n      jump\t// out\n        /* \"#utility.yul\":11861:12047   */\n    tag_196:\n        /* \"#utility.yul\":11921:12041   */\n    tag_334:\n        /* \"#utility.yul\":11938:11941   */\n      dup2\n        /* \"#utility.yul\":11931:11936   */\n      dup2\n        /* \"#utility.yul\":11928:11942   */\n      lt\n        /* \"#utility.yul\":11921:12041   */\n      iszero\n      tag_336\n      jumpi\n        /* \"#utility.yul\":11992:12031   */\n      tag_337\n        /* \"#utility.yul\":12029:12030   */\n      0x00\n        /* \"#utility.yul\":12022:12027   */\n      dup3\n        /* \"#utility.yul\":11992:12031   */\n      tag_195\n      jump\t// in\n    tag_337:\n        /* \"#utility.yul\":11965:11966   */\n      0x01\n        /* \"#utility.yul\":11958:11963   */\n      dup2\n        /* \"#utility.yul\":11954:11967   */\n      add\n        /* \"#utility.yul\":11945:11967   */\n      swap1\n      pop\n        /* \"#utility.yul\":11921:12041   */\n      jump(tag_334)\n    tag_336:\n        /* \"#utility.yul\":11861:12047   */\n      pop\n      pop\n      jump\t// out\n        /* \"#utility.yul\":12053:12596   */\n    tag_197:\n        /* \"#utility.yul\":12154:12156   */\n      0x1f\n        /* \"#utility.yul\":12149:12152   */\n      dup3\n        /* \"#utility.yul\":12146:12157   */\n      gt\n        /* \"#utility.yul\":12143:12589   */\n      iszero\n      tag_339\n      jumpi\n        /* \"#utility.yul\":12188:12226   */\n      tag_340\n        /* \"#utility.yul\":12220:12225   */\n      dup2\n        /* \"#utility.yul\":12188:12226   */\n      tag_186\n      jump\t// in\n    tag_340:\n        /* \"#utility.yul\":12272:12301   */\n      tag_341\n        /* \"#utility.yul\":12290:12300   */\n      dup5\n        /* \"#utility.yul\":12272:12301   */\n      tag_187\n      jump\t// in\n    tag_341:\n        /* \"#utility.yul\":12262:12270   */\n      dup2\n        /* \"#utility.yul\":12258:12302   */\n      add\n        /* \"#utility.yul\":12455:12457   */\n      0x20\n        /* \"#utility.yul\":12443:12453   */\n      dup6\n        /* \"#utility.yul\":12440:12458   */\n      lt\n        /* \"#utility.yul\":12437:12486   */\n      iszero\n      tag_342\n      jumpi\n        /* \"#utility.yul\":12476:12484   */\n      dup2\n        /* \"#utility.yul\":12461:12484   */\n      swap1\n      pop\n        /* \"#utility.yul\":12437:12486   */\n    tag_342:\n        /* \"#utility.yul\":12499:12579   */\n      tag_343\n        /* \"#utility.yul\":12555:12577   */\n      tag_344\n        /* \"#utility.yul\":12573:12576   */\n      dup6\n        /* \"#utility.yul\":12555:12577   */\n      tag_187\n      jump\t// in\n    tag_344:\n        /* \"#utility.yul\":12545:12553   */\n      dup4\n        /* \"#utility.yul\":12541:12578   */\n      add\n        /* \"#utility.yul\":12528:12539   */\n      dup3\n        /* \"#utility.yul\":12499:12579   */\n      tag_196\n      jump\t// in\n    tag_343:\n        /* \"#utility.yul\":12158:12589   */\n      pop\n      pop\n        /* \"#utility.yul\":12143:12589   */\n    tag_339:\n        /* \"#utility.yul\":12053:12596   */\n      pop\n      pop\n      pop\n      jump\t// out\n        /* \"#utility.yul\":12602:12719   */\n    tag_198:\n        /* \"#utility.yul\":12656:12664   */\n      0x00\n        /* \"#utility.yul\":12706:12711   */\n      dup3\n        /* \"#utility.yul\":12700:12704   */\n      dup3\n        /* \"#utility.yul\":12696:12712   */\n      shr\n        /* \"#utility.yul\":12675:12712   */\n      swap1\n      pop\n        /* \"#utility.yul\":12602:12719   */\n      swap3\n      swap2\n      pop\n      pop\n      jump\t// out\n        /* \"#utility.yul\":12725:12894   */\n    tag_199:\n        /* \"#utility.yul\":12769:12775   */\n      0x00\n        /* \"#utility.yul\":12802:12853   */\n      tag_347\n        /* \"#utility.yul\":12850:12851   */\n      0x00\n        /* \"#utility.yul\":12846:12852   */\n      not\n        /* \"#utility.yul\":12838:12843   */\n      dup5\n        /* \"#utility.yul\":12835:12836   */\n      0x08\n        /* \"#utility.yul\":12831:12844   */\n      mul\n        /* \"#utility.yul\":12802:12853   */\n      tag_198\n      jump\t// in\n    tag_347:\n        /* \"#utility.yul\":12798:12854   */\n      not\n        /* \"#utility.yul\":12883:12887   */\n      dup1\n        /* \"#utility.yul\":12877:12881   */\n      dup4\n        /* \"#utility.yul\":12873:12888   */\n      and\n        /* \"#utility.yul\":12863:12888   */\n      swap2\n      pop\n        /* \"#utility.yul\":12776:12894   */\n      pop\n        /* \"#utility.yul\":12725:12894   */\n      swap3\n      swap2\n      pop\n      pop\n      jump\t// out\n        /* \"#utility.yul\":12899:13194   */\n    tag_200:\n        /* \"#utility.yul\":12975:12979   */\n      0x00\n        /* \"#utility.yul\":13121:13150   */\n      tag_349\n        /* \"#utility.yul\":13146:13149   */\n      dup4\n        /* \"#utility.yul\":13140:13144   */\n      dup4\n        /* \"#utility.yul\":13121:13150   */\n      tag_199\n      jump\t// in\n    tag_349:\n        /* \"#utility.yul\":13113:13150   */\n      swap2\n      pop\n        /* \"#utility.yul\":13183:13186   */\n      dup3\n        /* \"#utility.yul\":13180:13181   */\n      0x02\n        /* \"#utility.yul\":13176:13187   */\n      mul\n        /* \"#utility.yul\":13170:13174   */\n      dup3\n        /* \"#utility.yul\":13167:13188   */\n      or\n        /* \"#utility.yul\":13159:13188   */\n      swap1\n      pop\n        /* \"#utility.yul\":12899:13194   */\n      swap3\n      swap2\n      pop\n      pop\n      jump\t// out\n        /* \"#utility.yul\":13199:14594   */\n    tag_122:\n        /* \"#utility.yul\":13316:13353   */\n      tag_351\n        /* \"#utility.yul\":13349:13352   */\n      dup3\n        /* \"#utility.yul\":13316:13353   */\n      tag_154\n      jump\t// in\n    tag_351:\n        /* \"#utility.yul\":13418:13436   */\n      0xffffffffffffffff\n        /* \"#utility.yul\":13410:13416   */\n      dup2\n        /* \"#utility.yul\":13407:13437   */\n      gt\n        /* \"#utility.yul\":13404:13460   */\n      iszero\n      tag_352\n      jumpi\n        /* \"#utility.yul\":13440:13458   */\n      tag_353\n      tag_175\n      jump\t// in\n    tag_353:\n        /* \"#utility.yul\":13404:13460   */\n    tag_352:\n        /* \"#utility.yul\":13484:13522   */\n      tag_354\n        /* \"#utility.yul\":13516:13520   */\n      dup3\n        /* \"#utility.yul\":13510:13521   */\n      sload\n        /* \"#utility.yul\":13484:13522   */\n      tag_82\n      jump\t// in\n    tag_354:\n        /* \"#utility.yul\":13569:13636   */\n      tag_355\n        /* \"#utility.yul\":13629:13635   */\n      dup3\n        /* \"#utility.yul\":13621:13627   */\n      dup3\n        /* \"#utility.yul\":13615:13619   */\n      dup6\n        /* \"#utility.yul\":13569:13636   */\n      tag_197\n      jump\t// in\n    tag_355:\n        /* \"#utility.yul\":13663:13664   */\n      0x00\n        /* \"#utility.yul\":13687:13691   */\n      0x20\n        /* \"#utility.yul\":13674:13691   */\n      swap1\n      pop\n        /* \"#utility.yul\":13719:13721   */\n      0x1f\n        /* \"#utility.yul\":13711:13717   */\n      dup4\n        /* \"#utility.yul\":13708:13722   */\n      gt\n        /* \"#utility.yul\":13736:13737   */\n      0x01\n        /* \"#utility.yul\":13731:14349   */\n      dup2\n      eq\n      tag_357\n      jumpi\n        /* \"#utility.yul\":14393:14394   */\n      0x00\n        /* \"#utility.yul\":14410:14416   */\n      dup5\n        /* \"#utility.yul\":14407:14484   */\n      iszero\n      tag_358\n      jumpi\n        /* \"#utility.yul\":14459:14468   */\n      dup3\n        /* \"#utility.yul\":14454:14457   */\n      dup8\n        /* \"#utility.yul\":14450:14469   */\n      add\n        /* \"#utility.yul\":14444:14470   */\n      mload\n        /* \"#utility.yul\":14435:14470   */\n      swap1\n      pop\n        /* \"#utility.yul\":14407:14484   */\n    tag_358:\n        /* \"#utility.yul\":14510:14577   */\n      tag_359\n        /* \"#utility.yul\":14570:14576   */\n      dup6\n        /* \"#utility.yul\":14563:14568   */\n      dup3\n        /* \"#utility.yul\":14510:14577   */\n      tag_200\n      jump\t// in\n    tag_359:\n        /* \"#utility.yul\":14504:14508   */\n      dup7\n        /* \"#utility.yul\":14497:14578   */\n      sstore\n        /* \"#utility.yul\":14366:14588   */\n      pop\n        /* \"#utility.yul\":13701:14588   */\n      jump(tag_356)\n        /* \"#utility.yul\":13731:14349   */\n    tag_357:\n        /* \"#utility.yul\":13783:13787   */\n      0x1f\n        /* \"#utility.yul\":13779:13788   */\n      not\n        /* \"#utility.yul\":13771:13777   */\n      dup5\n        /* \"#utility.yul\":13767:13789   */\n      and\n        /* \"#utility.yul\":13817:13854   */\n      tag_360\n        /* \"#utility.yul\":13849:13853   */\n      dup7\n        /* \"#utility.yul\":13817:13854   */\n      tag_186\n      jump\t// in\n    tag_360:\n        /* \"#utility.yul\":13876:13877   */\n      0x00\n        /* \"#utility.yul\":13890:14098   */\n    tag_361:\n        /* \"#utility.yul\":13904:13911   */\n      dup3\n        /* \"#utility.yul\":13901:13902   */\n      dup2\n        /* \"#utility.yul\":13898:13912   */\n      lt\n        /* \"#utility.yul\":13890:14098   */\n      iszero\n      tag_363\n      jumpi\n        /* \"#utility.yul\":13983:13992   */\n      dup5\n        /* \"#utility.yul\":13978:13981   */\n      dup10\n        /* \"#utility.yul\":13974:13993   */\n      add\n        /* \"#utility.yul\":13968:13994   */\n      mload\n        /* \"#utility.yul\":13960:13966   */\n      dup3\n        /* \"#utility.yul\":13953:13995   */\n      sstore\n        /* \"#utility.yul\":14034:14035   */\n      0x01\n        /* \"#utility.yul\":14026:14032   */\n      dup3\n        /* \"#utility.yul\":14022:14036   */\n      add\n        /* \"#utility.yul\":14012:14036   */\n      swap2\n      pop\n        /* \"#utility.yul\":14081:14083   */\n      0x20\n        /* \"#utility.yul\":14070:14079   */\n      dup6\n        /* \"#utility.yul\":14066:14084   */\n      add\n        /* \"#utility.yul\":14053:14084   */\n      swap5\n      pop\n        /* \"#utility.yul\":13927:13931   */\n      0x20\n        /* \"#utility.yul\":13924:13925   */\n      dup2\n        /* \"#utility.yul\":13920:13932   */\n      add\n        /* \"#utility.yul\":13915:13932   */\n      swap1\n      pop\n        /* \"#utility.yul\":13890:14098   */\n      jump(tag_361)\n    tag_363:\n        /* \"#utility.yul\":14126:14132   */\n      dup7\n        /* \"#utility.yul\":14117:14124   */\n      dup4\n        /* \"#utility.yul\":14114:14133   */\n      lt\n        /* \"#utility.yul\":14111:14290   */\n      iszero\n      tag_364\n      jumpi\n        /* \"#utility.yul\":14184:14193   */\n      dup5\n        /* \"#utility.yul\":14179:14182   */\n      dup10\n        /* \"#utility.yul\":14175:14194   */\n      add\n        /* \"#utility.yul\":14169:14195   */\n      mload\n        /* \"#utility.yul\":14227:14275   */\n      tag_365\n        /* \"#utility.yul\":14269:14273   */\n      0x1f\n        /* \"#utility.yul\":14261:14267   */\n      dup10\n        /* \"#utility.yul\":14257:14274   */\n      and\n        /* \"#utility.yul\":14246:14255   */\n      dup3\n        /* \"#utility.yul\":14227:14275   */\n      tag_199\n      jump\t// in\n    tag_365:\n        /* \"#utility.yul\":14219:14225   */\n      dup4\n        /* \"#utility.yul\":14212:14276   */\n      sstore\n        /* \"#utility.yul\":14134:14290   */\n      pop\n        /* \"#utility.yul\":14111:14290   */\n    tag_364:\n        /* \"#utility.yul\":14336:14337   */\n      0x01\n        /* \"#utility.yul\":14332:14333   */\n      0x02\n        /* \"#utility.yul\":14324:14330   */\n      dup9\n        /* \"#utility.yul\":14320:14334   */\n      mul\n        /* \"#utility.yul\":14316:14338   */\n      add\n        /* \"#utility.yul\":14310:14314   */\n      dup9\n        /* \"#utility.yul\":14303:14339   */\n      sstore\n        /* \"#utility.yul\":13738:14349   */\n      pop\n      pop\n      pop\n        /* \"#utility.yul\":13701:14588   */\n    tag_356:\n      pop\n        /* \"#utility.yul\":13291:14594   */\n      pop\n      pop\n      pop\n        /* \"#utility.yul\":13199:14594   */\n      pop\n      pop\n      jump\t// out\n        /* \"#utility.yul\":14600:14780   */\n    tag_128:\n        /* \"#utility.yul\":14648:14725   */\n      0x4e487b7100000000000000000000000000000000000000000000000000000000\n        /* \"#utility.yul\":14645:14646   */\n      0x00\n        /* \"#utility.yul\":14638:14726   */\n      mstore\n        /* \"#utility.yul\":14745:14749   */\n      0x32\n        /* \"#utility.yul\":14742:14743   */\n      0x04\n        /* \"#utility.yul\":14735:14750   */\n      mstore\n        /* \"#utility.yul\":14769:14773   */\n      0x24\n        /* \"#utility.yul\":14766:14767   */\n      0x00\n        /* \"#utility.yul\":14759:14774   */\n      revert\n        /* \"#utility.yul\":14786:14966   */\n    tag_201:\n        /* \"#utility.yul\":14834:14911   */\n      0x4e487b7100000000000000000000000000000000000000000000000000000000\n        /* \"#utility.yul\":14831:14832   */\n      0x00\n        /* \"#utility.yul\":14824:14912   */\n      mstore\n        /* \"#utility.yul\":14931:14935   */\n      0x12\n        /* \"#utility.yul\":14928:14929   */\n      0x04\n        /* \"#utility.yul\":14921:14936   */\n      mstore\n        /* \"#utility.yul\":14955:14959   */\n      0x24\n        /* \"#utility.yul\":14952:14953   */\n      0x00\n        /* \"#utility.yul\":14945:14960   */\n      revert\n        /* \"#utility.yul\":14972:15157   */\n    tag_140:\n        /* \"#utility.yul\":15012:15013   */\n      0x00\n        /* \"#utility.yul\":15029:15049   */\n      tag_369\n        /* \"#utility.yul\":15047:15048   */\n      dup3\n        /* \"#utility.yul\":15029:15049   */\n      tag_159\n      jump\t// in\n    tag_369:\n        /* \"#utility.yul\":15024:15049   */\n      swap2\n      pop\n        /* \"#utility.yul\":15063:15083   */\n      tag_370\n        /* \"#utility.yul\":15081:15082   */\n      dup4\n        /* \"#utility.yul\":15063:15083   */\n      tag_159\n      jump\t// in\n    tag_370:\n        /* \"#utility.yul\":15058:15083   */\n      swap3\n      pop\n        /* \"#utility.yul\":15102:15103   */\n      dup3\n        /* \"#utility.yul\":15092:15127   */\n      tag_371\n      jumpi\n        /* \"#utility.yul\":15107:15125   */\n      tag_372\n      tag_201\n      jump\t// in\n    tag_372:\n        /* \"#utility.yul\":15092:15127   */\n    tag_371:\n        /* \"#utility.yul\":15149:15150   */\n      dup3\n        /* \"#utility.yul\":15146:15147   */\n      dup3\n        /* \"#utility.yul\":15142:15151   */\n      div\n        /* \"#utility.yul\":15137:15151   */\n      swap1\n      pop\n        /* \"#utility.yul\":14972:15157   */\n      swap3\n      swap2\n      pop\n      pop\n      jump\t// out\n\n    auxdata: 0xa2646970667358221220ec742ce2942bcb01254e37613c608ed6a6c2b20378d0ff652ee1bd1414586ee164736f6c63430008100033\n}\n","bytecode":{"linkReferences":{},"object":"60a06040523480156200001157600080fd5b5060405162001d2038038062001d208339818101604052810190620000379190620002ee565b8573ffffffffffffffffffffffffffffffffffffffff1660808173ffffffffffffffffffffffffffffffffffffffff168152505084600290816200007c919062000628565b5083600390816200008e919062000628565b508260019081620000a0919062000628565b5081600481905550806005819055505050505050506200070f565b6000604051905090565b600080fd5b600080fd5b600073ffffffffffffffffffffffffffffffffffffffff82169050919050565b6000620000fc82620000cf565b9050919050565b6200010e81620000ef565b81146200011a57600080fd5b50565b6000815190506200012e8162000103565b92915050565b600080fd5b600080fd5b6000601f19601f8301169050919050565b7f4e487b7100000000000000000000000000000000000000000000000000000000600052604160045260246000fd5b62000189826200013e565b810181811067ffffffffffffffff82111715620001ab57620001aa6200014f565b5b80604052505050565b6000620001c0620000bb565b9050620001ce82826200017e565b919050565b600067ffffffffffffffff821115620001f157620001f06200014f565b5b620001fc826200013e565b9050602081019050919050565b60005b83811015620002295780820151818401526020810190506200020c565b60008484015250505050565b60006200024c6200024684620001d3565b620001b4565b9050828152602081018484840111156200026b576200026a62000139565b5b6200027884828562000209565b509392505050565b600082601f83011262000298576200029762000134565b5b8151620002aa84826020860162000235565b91505092915050565b6000819050919050565b620002c881620002b3565b8114620002d457600080fd5b50565b600081519050620002e881620002bd565b92915050565b60008060008060008060c087890312156200030e576200030d620000c5565b5b60006200031e89828a016200011d565b965050602087015167ffffffffffffffff811115620003425762000341620000ca565b5b6200035089828a0162000280565b955050604087015167ffffffffffffffff811115620003745762000373620000ca565b5b6200038289828a0162000280565b945050606087015167ffffffffffffffff811115620003a657620003a5620000ca565b5b620003b489828a0162000280565b9350506080620003c789828a01620002d7565b92505060a0620003da89828a01620002d7565b9150509295509295509295565b600081519050919050565b7f4e487b7100000000000000000000000000000000000000000000000000000000600052602260045260246000fd5b600060028204905060018216806200043a57607f821691505b60208210810362000450576200044f620003f2565b5b50919050565b60008190508160005260206000209050919050565b60006020601f8301049050919050565b600082821b905092915050565b600060088302620004ba7fffffffffffffffffffffffffffffffffffffffffffffffffffffffffffffffff826200047b565b620004c686836200047b565b95508019841693508086168417925050509392505050565b6000819050919050565b60006200050962000503620004fd84620002b3565b620004de565b620002b3565b9050919050565b6000819050919050565b6200052583620004e8565b6200053d620005348262000510565b84845462000488565b825550505050565b600090565b6200055462000545565b620005618184846200051a565b505050565b5b8181101562000589576200057d6000826200054a565b60018101905062000567565b5050565b601f821115620005d857620005a28162000456565b620005ad846200046b565b81016020851015620005bd578190505b620005d5620005cc856200046b565b83018262000566565b50505b505050565b600082821c905092915050565b6000620005fd60001984600802620005dd565b1980831691505092915050565b6000620006188383620005ea565b9150826002028217905092915050565b6200063382620003e7565b67ffffffffffffffff8111156200064f576200064e6200014f565b5b6200065b825462000421565b620006688282856200058d565b600060209050601f831160018114620006a057600084156200068b578287015190505b6200069785826200060a565b86555062000707565b601f198416620006b08662000456565b60005b82811015620006da57848901518255600182019150602085019450602081019050620006b3565b86831015620006fa5784890151620006f6601f891682620005ea565b8355505b6001600288020188555050505b505050505050565b6080516115e062000740600039600081816103e4015281816105d5015281816108350152610a9f01526115e06000f3fe6080604052600436106100dd5760003560e01c806395bc3cb71161007f578063d7d1bbdb11610059578063d7d1bbdb1461028c578063e7b668b4146102b5578063ebd94e21146102de578063fed4416a14610309576100dd565b806395bc3cb71461020b578063aaffadf314610236578063c2bb515f14610261576100dd565b806350520b1f116100bb57806350520b1f1461016c57806381d12c581461017657806382fde093146101b75780638a9cfd55146101e2576100dd565b80630724fda9146100e25780634051ddac1461010d578063481c6a7514610141575b600080fd5b3480156100ee57600080fd5b506100f7610334565b6040516101049190610d90565b60405180910390f35b34801561011957600080fd5b506101226103c2565b6040516101389a99989796959493929190610e0c565b60405180910390f35b34801561014d57600080fd5b506101566105d3565b6040516101639190610ede565b60405180910390f35b6101746105f7565b005b34801561018257600080fd5b5061019d60048036038101906101989190610f39565b610732565b6040516101ae959493929190610f81565b60405180910390f35b3480156101c357600080fd5b506101cc61082d565b6040516101d99190610fdb565b60405180910390f35b3480156101ee57600080fd5b5061020960048036038101906102049190611157565b610833565b005b34801561021757600080fd5b50610220610939565b60405161022d9190610fdb565b60405180910390f35b34801561024257600080fd5b5061024b61093f565b6040516102589190610fdb565b60405180910390f35b34801561026d57600080fd5b50610276610945565b6040516102839190610fdb565b60405180910390f35b34801561029857600080fd5b506102b360048036038101906102ae9190610f39565b610951565b005b3480156102c157600080fd5b506102dc60048036038101906102d79190610f39565b610a9d565b005b3480156102ea57600080fd5b506102f3610be4565b6040516103009190610d90565b60405180910390f35b34801561031557600080fd5b5061031e610c72565b60405161032b9190610d90565b60405180910390f35b60018054610341906111f5565b80601f016020809104026020016040519081016040528092919081815260200182805461036d906111f5565b80156103ba5780601f1061038f576101008083540402835291602001916103ba565b820191906000526020600020905b81548152906001019060200180831161039d57829003601f168201915b505050505081565b60008060008060008060608060606000600454600554476000805490506007547f000000000000000000000000000000000000000000000000000000000000000060016003600260088054905083805461041b906111f5565b80601f0160208091040260200160405190810160405280929190818152602001828054610447906111f5565b80156104945780601f1061046957610100808354040283529160200191610494565b820191906000526020600020905b81548152906001019060200180831161047757829003601f168201915b505050505093508280546104a7906111f5565b80601f01602080910402602001604051908101604052809291908181526020018280546104d3906111f5565b80156105205780601f106104f557610100808354040283529160200191610520565b820191906000526020600020905b81548152906001019060200180831161050357829003601f168201915b50505050509250818054610533906111f5565b80601f016020809104026020016040519081016040528092919081815260200182805461055f906111f5565b80156105ac5780601f10610581576101008083540402835291602001916105ac565b820191906000526020600020905b81548152906001019060200180831161058f57829003601f168201915b50505050509150995099509950995099509950995099509950995090919293949596979899565b7f000000000000000000000000000000000000000000000000000000000000000081565b60045434106106c357600660003373ffffffffffffffffffffffffffffffffffffffff1673ffffffffffffffffffffffffffffffffffffffff16815260200190815260200160002060009054906101000a900460ff1661066a576007600081548092919061066490611255565b91905055505b6001600660003373ffffffffffffffffffffffffffffffffffffffff1673ffffffffffffffffffffffffffffffffffffffff16815260200190815260200160002060006101000a81548160ff0219169083151502179055505b6005543410610730576008339080600181540180825580915050600190039060005260206000200160009091909190916101000a81548173ffffffffffffffffffffffffffffffffffffffff021916908373ffffffffffffffffffffffffffffffffffffffff1602179055505b565b6000818154811061074257600080fd5b9060005260206000209060050201600091509050806000018054610765906111f5565b80601f0160208091040260200160405190810160405280929190818152602001828054610791906111f5565b80156107de5780601f106107b3576101008083540402835291602001916107de565b820191906000526020600020905b8154815290600101906020018083116107c157829003601f168201915b5050505050908060010154908060020160009054906101000a900473ffffffffffffffffffffffffffffffffffffffff16908060020160149054906101000a900460ff16908060040154905085565b60075481565b7f000000000000000000000000000000000000000000000000000000000000000073ffffffffffffffffffffffffffffffffffffffff163373ffffffffffffffffffffffffffffffffffffffff161461088b57600080fd5b6000806001816001815401808255809150500390600052602060002090600502019050838160000190816108bf9190611449565b50828160010181905550818160020160006101000a81548173ffffffffffffffffffffffffffffffffffffffff021916908373ffffffffffffffffffffffffffffffffffffffff16021790555060008160020160146101000a81548160ff0219169083151502179055506000816004018190555050505050565b60055481565b60045481565b60008080549050905090565b600660003373ffffffffffffffffffffffffffffffffffffffff1673ffffffffffffffffffffffffffffffffffffffff16815260200190815260200160002060009054906101000a900460ff166109a757600080fd5b60008082815481106109bc576109bb61151b565b5b906000526020600020906005020190508060030160003373ffffffffffffffffffffffffffffffffffffffff1673ffffffffffffffffffffffffffffffffffffffff16815260200190815260200160002060009054906101000a900460ff1615610a2557600080fd5b60018160030160003373ffffffffffffffffffffffffffffffffffffffff1673ffffffffffffffffffffffffffffffffffffffff16815260200190815260200160002060006101000a81548160ff021916908315150217905550806004016000815480929190610a9490611255565b91905055505050565b7f000000000000000000000000000000000000000000000000000000000000000073ffffffffffffffffffffffffffffffffffffffff163373ffffffffffffffffffffffffffffffffffffffff1614610af557600080fd5b6000808281548110610b0a57610b0961151b565b5b906000526020600020906005020190508060020160149054906101000a900460ff1615610b3657600080fd5b6002600754610b459190611579565b816004015411610b5457600080fd5b8060020160009054906101000a900473ffffffffffffffffffffffffffffffffffffffff1673ffffffffffffffffffffffffffffffffffffffff166108fc82600101549081150290604051600060405180830381858888f19350505050158015610bc2573d6000803e3d6000fd5b5060018160020160146101000a81548160ff0219169083151502179055505050565b60038054610bf1906111f5565b80601f0160208091040260200160405190810160405280929190818152602001828054610c1d906111f5565b8015610c6a5780601f10610c3f57610100808354040283529160200191610c6a565b820191906000526020600020905b815481529060010190602001808311610c4d57829003601f168201915b505050505081565b60028054610c7f906111f5565b80601f0160208091040260200160405190810160405280929190818152602001828054610cab906111f5565b8015610cf85780601f10610ccd57610100808354040283529160200191610cf8565b820191906000526020600020905b815481529060010190602001808311610cdb57829003601f168201915b505050505081565b600081519050919050565b600082825260208201905092915050565b60005b83811015610d3a578082015181840152602081019050610d1f565b60008484015250505050565b6000601f19601f8301169050919050565b6000610d6282610d00565b610d6c8185610d0b565b9350610d7c818560208601610d1c565b610d8581610d46565b840191505092915050565b60006020820190508181036000830152610daa8184610d57565b905092915050565b6000819050919050565b610dc581610db2565b82525050565b600073ffffffffffffffffffffffffffffffffffffffff82169050919050565b6000610df682610dcb565b9050919050565b610e0681610deb565b82525050565b600061014082019050610e22600083018d610dbc565b610e2f602083018c610dbc565b610e3c604083018b610dbc565b610e49606083018a610dbc565b610e566080830189610dbc565b610e6360a0830188610dfd565b81810360c0830152610e758187610d57565b905081810360e0830152610e898186610d57565b9050818103610100830152610e9e8185610d57565b9050610eae610120830184610dbc565b9b9a5050505050505050505050565b6000610ec882610dcb565b9050919050565b610ed881610ebd565b82525050565b6000602082019050610ef36000830184610ecf565b92915050565b6000604051905090565b600080fd5b600080fd5b610f1681610db2565b8114610f2157600080fd5b50565b600081359050610f3381610f0d565b92915050565b600060208284031215610f4f57610f4e610f03565b5b6000610f5d84828501610f24565b91505092915050565b60008115159050919050565b610f7b81610f66565b82525050565b600060a0820190508181036000830152610f9b8188610d57565b9050610faa6020830187610dbc565b610fb76040830186610ecf565b610fc46060830185610f72565b610fd16080830184610dbc565b9695505050505050565b6000602082019050610ff06000830184610dbc565b92915050565b600080fd5b600080fd5b7f4e487b7100000000000000000000000000000000000000000000000000000000600052604160045260246000fd5b61103882610d46565b810181811067ffffffffffffffff8211171561105757611056611000565b5b80604052505050565b600061106a610ef9565b9050611076828261102f565b919050565b600067ffffffffffffffff82111561109657611095611000565b5b61109f82610d46565b9050602081019050919050565b82818337600083830152505050565b60006110ce6110c98461107b565b611060565b9050828152602081018484840111156110ea576110e9610ffb565b5b6110f58482856110ac565b509392505050565b600082601f83011261111257611111610ff6565b5b81356111228482602086016110bb565b91505092915050565b61113481610ebd565b811461113f57600080fd5b50565b6000813590506111518161112b565b92915050565b6000806000606084860312156111705761116f610f03565b5b600084013567ffffffffffffffff81111561118e5761118d610f08565b5b61119a868287016110fd565b93505060206111ab86828701610f24565b92505060406111bc86828701611142565b9150509250925092565b7f4e487b7100000000000000000000000000000000000000000000000000000000600052602260045260246000fd5b6000600282049050600182168061120d57607f821691505b6020821081036112205761121f6111c6565b5b50919050565b7f4e487b7100000000000000000000000000000000000000000000000000000000600052601160045260246000fd5b600061126082610db2565b91507fffffffffffffffffffffffffffffffffffffffffffffffffffffffffffffffff820361129257611291611226565b5b600182019050919050565b60008190508160005260206000209050919050565b60006020601f8301049050919050565b600082821b905092915050565b6000600883026112ff7fffffffffffffffffffffffffffffffffffffffffffffffffffffffffffffffff826112c2565b61130986836112c2565b95508019841693508086168417925050509392505050565b6000819050919050565b600061134661134161133c84610db2565b611321565b610db2565b9050919050565b6000819050919050565b6113608361132b565b61137461136c8261134d565b8484546112cf565b825550505050565b600090565b61138961137c565b611394818484611357565b505050565b5b818110156113b8576113ad600082611381565b60018101905061139a565b5050565b601f8211156113fd576113ce8161129d565b6113d7846112b2565b810160208510156113e6578190505b6113fa6113f2856112b2565b830182611399565b50505b505050565b600082821c905092915050565b600061142060001984600802611402565b1980831691505092915050565b6000611439838361140f565b9150826002028217905092915050565b61145282610d00565b67ffffffffffffffff81111561146b5761146a611000565b5b61147582546111f5565b6114808282856113bc565b600060209050601f8311600181146114b357600084156114a1578287015190505b6114ab858261142d565b865550611513565b601f1984166114c18661129d565b60005b828110156114e9578489015182556001820191506020850194506020810190506114c4565b868310156115065784890151611502601f89168261140f565b8355505b6001600288020188555050505b505050505050565b7f4e487b7100000000000000000000000000000000000000000000000000000000600052603260045260246000fd5b7f4e487b7100000000000000000000000000000000000000000000000000000000600052601260045260246000fd5b600061158482610db2565b915061158f83610db2565b92508261159f5761159e61154a565b5b82820490509291505056fea2646970667358221220ec742ce2942bcb01254e37613c608ed6a6c2b20378d0ff652ee1bd1414586ee164736f6c63430008100033","opcodes":"PUSH1 0xA0 PUSH1 0x40 MSTORE CALLVALUE DUP1 ISZERO PUSH3 0x11 JUMPI PUSH1 0x0 DUP1 REVERT JUMPDEST POP PUSH1 0x40 MLOAD PUSH3 0x1D20 CODESIZE SUB DUP1 PUSH3 0x1D20 DUP4 CODECOPY DUP2 DUP2 ADD PUSH1 0x40 MSTORE DUP2 ADD SWAP1 PUSH3 0x37 SWAP2 SWAP1 PUSH3 0x2EE JUMP JUMPDEST DUP6 PUSH20 0xFFFFFFFFFFFFFFFFFFFFFFFFFFFFFFFFFFFFFFFF AND PUSH1 0x80 DUP2 PUSH20 0xFFFFFFFFFFFFFFFFFFFFFFFFFFFFFFFFFFFFFFFF AND DUP2 MSTORE POP POP DUP5 PUSH1 0x2 SWAP1 DUP2 PUSH3 0x7C SWAP2 SWAP1 PUSH3 0x628 JUMP JUMPDEST POP DUP4 PUSH1 0x3 SWAP1 DUP2 PUSH3 0x8E SWAP2 SWAP1 PUSH3 0x628 JUMP JUMPDEST POP DUP3 PUSH1 0x1 SWAP1 DUP2 PUSH3 0xA0 SWAP2 SWAP1 PUSH3 0x628 JUMP JUMPDEST POP DUP2 PUSH1 0x4 DUP2 SWAP1 SSTORE POP DUP1 PUSH1 0x5 DUP2 SWAP1 SSTORE POP POP POP POP POP POP POP PUSH3 0x70F JUMP JUMPDEST PUSH1 0x0 PUSH1 0x40 MLOAD SWAP1 POP SWAP1 JUMP JUMPDEST PUSH1 0x0 DUP1 REVERT JUMPDEST PUSH1 0x0 DUP1 REVERT JUMPDEST PUSH1 0x0 PUSH20 0xFFFFFFFFFFFFFFFFFFFFFFFFFFFFFFFFFFFFFFFF DUP3 AND SWAP1 POP SWAP2 SWAP1 POP JUMP JUMPDEST PUSH1 0x0 PUSH3 0xFC DUP3 PUSH3 0xCF JUMP JUMPDEST SWAP1 POP SWAP2 SWAP1 POP JUMP JUMPDEST PUSH3 0x10E DUP2 PUSH3 0xEF JUMP JUMPDEST DUP2 EQ PUSH3 0x11A JUMPI PUSH1 0x0 DUP1 REVERT JUMPDEST POP JUMP JUMPDEST PUSH1 0x0 DUP2 MLOAD SWAP1 POP PUSH3 0x12E DUP2 PUSH3 0x103 JUMP JUMPDEST SWAP3 SWAP2 POP POP JUMP JUMPDEST PUSH1 0x0 DUP1 REVERT JUMPDEST PUSH1 0x0 DUP1 REVERT JUMPDEST PUSH1 0x0 PUSH1 0x1F NOT PUSH1 0x1F DUP4 ADD AND SWAP1 POP SWAP2 SWAP1 POP JUMP JUMPDEST PUSH32 0x4E487B7100000000000000000000000000000000000000000000000000000000 PUSH1 0x0 MSTORE PUSH1 0x41 PUSH1 0x4 MSTORE PUSH1 0x24 PUSH1 0x0 REVERT JUMPDEST PUSH3 0x189 DUP3 PUSH3 0x13E JUMP JUMPDEST DUP2 ADD DUP2 DUP2 LT PUSH8 0xFFFFFFFFFFFFFFFF DUP3 GT OR ISZERO PUSH3 0x1AB JUMPI PUSH3 0x1AA PUSH3 0x14F JUMP JUMPDEST JUMPDEST DUP1 PUSH1 0x40 MSTORE POP POP POP JUMP JUMPDEST PUSH1 0x0 PUSH3 0x1C0 PUSH3 0xBB JUMP JUMPDEST SWAP1 POP PUSH3 0x1CE DUP3 DUP3 PUSH3 0x17E JUMP JUMPDEST SWAP2 SWAP1 POP JUMP JUMPDEST PUSH1 0x0 PUSH8 0xFFFFFFFFFFFFFFFF DUP3 GT ISZERO PUSH3 0x1F1 JUMPI PUSH3 0x1F0 PUSH3 0x14F JUMP JUMPDEST JUMPDEST PUSH3 0x1FC DUP3 PUSH3 0x13E JUMP JUMPDEST SWAP1 POP PUSH1 0x20 DUP2 ADD SWAP1 POP SWAP2 SWAP1 POP JUMP JUMPDEST PUSH1 0x0 JUMPDEST DUP4 DUP2 LT ISZERO PUSH3 0x229 JUMPI DUP1 DUP3 ADD MLOAD DUP2 DUP5 ADD MSTORE PUSH1 0x20 DUP2 ADD SWAP1 POP PUSH3 0x20C JUMP JUMPDEST PUSH1 0x0 DUP5 DUP5 ADD MSTORE POP POP POP POP JUMP JUMPDEST PUSH1 0x0 PUSH3 0x24C PUSH3 0x246 DUP5 PUSH3 0x1D3 JUMP JUMPDEST PUSH3 0x1B4 JUMP JUMPDEST SWAP1 POP DUP3 DUP2 MSTORE PUSH1 0x20 DUP2 ADD DUP5 DUP5 DUP5 ADD GT ISZERO PUSH3 0x26B JUMPI PUSH3 0x26A PUSH3 0x139 JUMP JUMPDEST JUMPDEST PUSH3 0x278 DUP5 DUP3 DUP6 PUSH3 0x209 JUMP JUMPDEST POP SWAP4 SWAP3 POP POP POP JUMP JUMPDEST PUSH1 0x0 DUP3 PUSH1 0x1F DUP4 ADD SLT PUSH3 0x298 JUMPI PUSH3 0x297 PUSH3 0x134 JUMP JUMPDEST JUMPDEST DUP2 MLOAD PUSH3 0x2AA DUP5 DUP3 PUSH1 0x20 DUP7 ADD PUSH3 0x235 JUMP JUMPDEST SWAP2 POP POP SWAP3 SWAP2 POP POP JUMP JUMPDEST PUSH1 0x0 DUP2 SWAP1 POP SWAP2 SWAP1 POP JUMP JUMPDEST PUSH3 0x2C8 DUP2 PUSH3 0x2B3 JUMP JUMPDEST DUP2 EQ PUSH3 0x2D4 JUMPI PUSH1 0x0 DUP1 REVERT JUMPDEST POP JUMP JUMPDEST PUSH1 0x0 DUP2 MLOAD SWAP1 POP PUSH3 0x2E8 DUP2 PUSH3 0x2BD JUMP JUMPDEST SWAP3 SWAP2 POP POP JUMP JUMPDEST PUSH1 0x0 DUP1 PUSH1 0x0 DUP1 PUSH1 0x0 DUP1 PUSH1 0xC0 DUP8 DUP10 SUB SLT ISZERO PUSH3 0x30E JUMPI PUSH3 0x30D PUSH3 0xC5 JUMP JUMPDEST JUMPDEST PUSH1 0x0 PUSH3 0x31E DUP10 DUP3 DUP11 ADD PUSH3 0x11D JUMP JUMPDEST SWAP7 POP POP PUSH1 0x20 DUP8 ADD MLOAD PUSH8 0xFFFFFFFFFFFFFFFF DUP2 GT ISZERO PUSH3 0x342 JUMPI PUSH3 0x341 PUSH3 0xCA JUMP JUMPDEST JUMPDEST PUSH3 0x350 DUP10 DUP3 DUP11 ADD PUSH3 0x280 JUMP JUMPDEST SWAP6 POP POP PUSH1 0x40 DUP8 ADD MLOAD PUSH8 0xFFFFFFFFFFFFFFFF DUP2 GT ISZERO PUSH3 0x374 JUMPI PUSH3 0x373 PUSH3 0xCA JUMP JUMPDEST JUMPDEST PUSH3 0x382 DUP10 DUP3 DUP11 ADD PUSH3 0x280 JUMP JUMPDEST SWAP5 POP POP PUSH1 0x60 DUP8 ADD MLOAD PUSH8 0xFFFFFFFFFFFFFFFF DUP2 GT ISZERO PUSH3 0x3A6 JUMPI PUSH3 0x3A5 PUSH3 0xCA JUMP JUMPDEST JUMPDEST PUSH3 0x3B4 DUP10 DUP3 DUP11 ADD PUSH3 0x280 JUMP JUMPDEST SWAP4 POP POP PUSH1 0x80 PUSH3 0x3C7 DUP10 DUP3 DUP11 ADD PUSH3 0x2D7 JUMP JUMPDEST SWAP3 POP POP PUSH1 0xA0 PUSH3 0x3DA DUP10 DUP3 DUP11 ADD PUSH3 0x2D7 JUMP JUMPDEST SWAP2 POP POP SWAP3 SWAP6 POP SWAP3 SWAP6 POP SWAP3 SWAP6 JUMP JUMPDEST PUSH1 0x0 DUP2 MLOAD SWAP1 POP SWAP2 SWAP1 POP JUMP JUMPDEST PUSH32 0x4E487B7100000000000000000000000000000000000000000000000000000000 PUSH1 0x0 MSTORE PUSH1 0x22 PUSH1 0x4 MSTORE PUSH1 0x24 PUSH1 0x0 REVERT JUMPDEST PUSH1 0x0 PUSH1 0x2 DUP3 DIV SWAP1 POP PUSH1 0x1 DUP3 AND DUP1 PUSH3 0x43A JUMPI PUSH1 0x7F DUP3 AND SWAP2 POP JUMPDEST PUSH1 0x20 DUP3 LT DUP2 SUB PUSH3 0x450 JUMPI PUSH3 0x44F PUSH3 0x3F2 JUMP JUMPDEST JUMPDEST POP SWAP2 SWAP1 POP JUMP JUMPDEST PUSH1 0x0 DUP2 SWAP1 POP DUP2 PUSH1 0x0 MSTORE PUSH1 0x20 PUSH1 0x0 KECCAK256 SWAP1 POP SWAP2 SWAP1 POP JUMP JUMPDEST PUSH1 0x0 PUSH1 0x20 PUSH1 0x1F DUP4 ADD DIV SWAP1 POP SWAP2 SWAP1 POP JUMP JUMPDEST PUSH1 0x0 DUP3 DUP3 SHL SWAP1 POP SWAP3 SWAP2 POP POP JUMP JUMPDEST PUSH1 0x0 PUSH1 0x8 DUP4 MUL PUSH3 0x4BA PUSH32 0xFFFFFFFFFFFFFFFFFFFFFFFFFFFFFFFFFFFFFFFFFFFFFFFFFFFFFFFFFFFFFFFF DUP3 PUSH3 0x47B JUMP JUMPDEST PUSH3 0x4C6 DUP7 DUP4 PUSH3 0x47B JUMP JUMPDEST SWAP6 POP DUP1 NOT DUP5 AND SWAP4 POP DUP1 DUP7 AND DUP5 OR SWAP3 POP POP POP SWAP4 SWAP3 POP POP POP JUMP JUMPDEST PUSH1 0x0 DUP2 SWAP1 POP SWAP2 SWAP1 POP JUMP JUMPDEST PUSH1 0x0 PUSH3 0x509 PUSH3 0x503 PUSH3 0x4FD DUP5 PUSH3 0x2B3 JUMP JUMPDEST PUSH3 0x4DE JUMP JUMPDEST PUSH3 0x2B3 JUMP JUMPDEST SWAP1 POP SWAP2 SWAP1 POP JUMP JUMPDEST PUSH1 0x0 DUP2 SWAP1 POP SWAP2 SWAP1 POP JUMP JUMPDEST PUSH3 0x525 DUP4 PUSH3 0x4E8 JUMP JUMPDEST PUSH3 0x53D PUSH3 0x534 DUP3 PUSH3 0x510 JUMP JUMPDEST DUP5 DUP5 SLOAD PUSH3 0x488 JUMP JUMPDEST DUP3 SSTORE POP POP POP POP JUMP JUMPDEST PUSH1 0x0 SWAP1 JUMP JUMPDEST PUSH3 0x554 PUSH3 0x545 JUMP JUMPDEST PUSH3 0x561 DUP2 DUP5 DUP5 PUSH3 0x51A JUMP JUMPDEST POP POP POP JUMP JUMPDEST JUMPDEST DUP2 DUP2 LT ISZERO PUSH3 0x589 JUMPI PUSH3 0x57D PUSH1 0x0 DUP3 PUSH3 0x54A JUMP JUMPDEST PUSH1 0x1 DUP2 ADD SWAP1 POP PUSH3 0x567 JUMP JUMPDEST POP POP JUMP JUMPDEST PUSH1 0x1F DUP3 GT ISZERO PUSH3 0x5D8 JUMPI PUSH3 0x5A2 DUP2 PUSH3 0x456 JUMP JUMPDEST PUSH3 0x5AD DUP5 PUSH3 0x46B JUMP JUMPDEST DUP2 ADD PUSH1 0x20 DUP6 LT ISZERO PUSH3 0x5BD JUMPI DUP2 SWAP1 POP JUMPDEST PUSH3 0x5D5 PUSH3 0x5CC DUP6 PUSH3 0x46B JUMP JUMPDEST DUP4 ADD DUP3 PUSH3 0x566 JUMP JUMPDEST POP POP JUMPDEST POP POP POP JUMP JUMPDEST PUSH1 0x0 DUP3 DUP3 SHR SWAP1 POP SWAP3 SWAP2 POP POP JUMP JUMPDEST PUSH1 0x0 PUSH3 0x5FD PUSH1 0x0 NOT DUP5 PUSH1 0x8 MUL PUSH3 0x5DD JUMP JUMPDEST NOT DUP1 DUP4 AND SWAP2 POP POP SWAP3 SWAP2 POP POP JUMP JUMPDEST PUSH1 0x0 PUSH3 0x618 DUP4 DUP4 PUSH3 0x5EA JUMP JUMPDEST SWAP2 POP DUP3 PUSH1 0x2 MUL DUP3 OR SWAP1 POP SWAP3 SWAP2 POP POP JUMP JUMPDEST PUSH3 0x633 DUP3 PUSH3 0x3E7 JUMP JUMPDEST PUSH8 0xFFFFFFFFFFFFFFFF DUP2 GT ISZERO PUSH3 0x64F JUMPI PUSH3 0x64E PUSH3 0x14F JUMP JUMPDEST JUMPDEST PUSH3 0x65B DUP3 SLOAD PUSH3 0x421 JUMP JUMPDEST PUSH3 0x668 DUP3 DUP3 DUP6 PUSH3 0x58D JUMP JUMPDEST PUSH1 0x0 PUSH1 0x20 SWAP1 POP PUSH1 0x1F DUP4 GT PUSH1 0x1 DUP2 EQ PUSH3 0x6A0 JUMPI PUSH1 0x0 DUP5 ISZERO PUSH3 0x68B JUMPI DUP3 DUP8 ADD MLOAD SWAP1 POP JUMPDEST PUSH3 0x697 DUP6 DUP3 PUSH3 0x60A JUMP JUMPDEST DUP7 SSTORE POP PUSH3 0x707 JUMP JUMPDEST PUSH1 0x1F NOT DUP5 AND PUSH3 0x6B0 DUP7 PUSH3 0x456 JUMP JUMPDEST PUSH1 0x0 JUMPDEST DUP3 DUP2 LT ISZERO PUSH3 0x6DA JUMPI DUP5 DUP10 ADD MLOAD DUP3 SSTORE PUSH1 0x1 DUP3 ADD SWAP2 POP PUSH1 0x20 DUP6 ADD SWAP5 POP PUSH1 0x20 DUP2 ADD SWAP1 POP PUSH3 0x6B3 JUMP JUMPDEST DUP7 DUP4 LT ISZERO PUSH3 0x6FA JUMPI DUP5 DUP10 ADD MLOAD PUSH3 0x6F6 PUSH1 0x1F DUP10 AND DUP3 PUSH3 0x5EA JUMP JUMPDEST DUP4 SSTORE POP JUMPDEST PUSH1 0x1 PUSH1 0x2 DUP9 MUL ADD DUP9 SSTORE POP POP POP JUMPDEST POP POP POP POP POP POP JUMP JUMPDEST PUSH1 0x80 MLOAD PUSH2 0x15E0 PUSH3 0x740 PUSH1 0x0 CODECOPY PUSH1 0x0 DUP2 DUP2 PUSH2 0x3E4 ADD MSTORE DUP2 DUP2 PUSH2 0x5D5 ADD MSTORE DUP2 DUP2 PUSH2 0x835 ADD MSTORE PUSH2 0xA9F ADD MSTORE PUSH2 0x15E0 PUSH1 0x0 RETURN INVALID PUSH1 0x80 PUSH1 0x40 MSTORE PUSH1 0x4 CALLDATASIZE LT PUSH2 0xDD JUMPI PUSH1 0x0 CALLDATALOAD PUSH1 0xE0 SHR DUP1 PUSH4 0x95BC3CB7 GT PUSH2 0x7F JUMPI DUP1 PUSH4 0xD7D1BBDB GT PUSH2 0x59 JUMPI DUP1 PUSH4 0xD7D1BBDB EQ PUSH2 0x28C JUMPI DUP1 PUSH4 0xE7B668B4 EQ PUSH2 0x2B5 JUMPI DUP1 PUSH4 0xEBD94E21 EQ PUSH2 0x2DE JUMPI DUP1 PUSH4 0xFED4416A EQ PUSH2 0x309 JUMPI PUSH2 0xDD JUMP JUMPDEST DUP1 PUSH4 0x95BC3CB7 EQ PUSH2 0x20B JUMPI DUP1 PUSH4 0xAAFFADF3 EQ PUSH2 0x236 JUMPI DUP1 PUSH4 0xC2BB515F EQ PUSH2 0x261 JUMPI PUSH2 0xDD JUMP JUMPDEST DUP1 PUSH4 0x50520B1F GT PUSH2 0xBB JUMPI DUP1 PUSH4 0x50520B1F EQ PUSH2 0x16C JUMPI DUP1 PUSH4 0x81D12C58 EQ PUSH2 0x176 JUMPI DUP1 PUSH4 0x82FDE093 EQ PUSH2 0x1B7 JUMPI DUP1 PUSH4 0x8A9CFD55 EQ PUSH2 0x1E2 JUMPI PUSH2 0xDD JUMP JUMPDEST DUP1 PUSH4 0x724FDA9 EQ PUSH2 0xE2 JUMPI DUP1 PUSH4 0x4051DDAC EQ PUSH2 0x10D JUMPI DUP1 PUSH4 0x481C6A75 EQ PUSH2 0x141 JUMPI JUMPDEST PUSH1 0x0 DUP1 REVERT JUMPDEST CALLVALUE DUP1 ISZERO PUSH2 0xEE JUMPI PUSH1 0x0 DUP1 REVERT JUMPDEST POP PUSH2 0xF7 PUSH2 0x334 JUMP JUMPDEST PUSH1 0x40 MLOAD PUSH2 0x104 SWAP2 SWAP1 PUSH2 0xD90 JUMP JUMPDEST PUSH1 0x40 MLOAD DUP1 SWAP2 SUB SWAP1 RETURN JUMPDEST CALLVALUE DUP1 ISZERO PUSH2 0x119 JUMPI PUSH1 0x0 DUP1 REVERT JUMPDEST POP PUSH2 0x122 PUSH2 0x3C2 JUMP JUMPDEST PUSH1 0x40 MLOAD PUSH2 0x138 SWAP11 SWAP10 SWAP9 SWAP8 SWAP7 SWAP6 SWAP5 SWAP4 SWAP3 SWAP2 SWAP1 PUSH2 0xE0C JUMP JUMPDEST PUSH1 0x40 MLOAD DUP1 SWAP2 SUB SWAP1 RETURN JUMPDEST CALLVALUE DUP1 ISZERO PUSH2 0x14D JUMPI PUSH1 0x0 DUP1 REVERT JUMPDEST POP PUSH2 0x156 PUSH2 0x5D3 JUMP JUMPDEST PUSH1 0x40 MLOAD PUSH2 0x163 SWAP2 SWAP1 PUSH2 0xEDE JUMP JUMPDEST PUSH1 0x40 MLOAD DUP1 SWAP2 SUB SWAP1 RETURN JUMPDEST PUSH2 0x174 PUSH2 0x5F7 JUMP JUMPDEST STOP JUMPDEST CALLVALUE DUP1 ISZERO PUSH2 0x182 JUMPI PUSH1 0x0 DUP1 REVERT JUMPDEST POP PUSH2 0x19D PUSH1 0x4 DUP1 CALLDATASIZE SUB DUP2 ADD SWAP1 PUSH2 0x198 SWAP2 SWAP1 PUSH2 0xF39 JUMP JUMPDEST PUSH2 0x732 JUMP JUMPDEST PUSH1 0x40 MLOAD PUSH2 0x1AE SWAP6 SWAP5 SWAP4 SWAP3 SWAP2 SWAP1 PUSH2 0xF81 JUMP JUMPDEST PUSH1 0x40 MLOAD DUP1 SWAP2 SUB SWAP1 RETURN JUMPDEST CALLVALUE DUP1 ISZERO PUSH2 0x1C3 JUMPI PUSH1 0x0 DUP1 REVERT JUMPDEST POP PUSH2 0x1CC PUSH2 0x82D JUMP JUMPDEST PUSH1 0x40 MLOAD PUSH2 0x1D9 SWAP2 SWAP1 PUSH2 0xFDB JUMP JUMPDEST PUSH1 0x40 MLOAD DUP1 SWAP2 SUB SWAP1 RETURN JUMPDEST CALLVALUE DUP1 ISZERO PUSH2 0x1EE JUMPI PUSH1 0x0 DUP1 REVERT JUMPDEST POP PUSH2 0x209 PUSH1 0x4 DUP1 CALLDATASIZE SUB DUP2 ADD SWAP1 PUSH2 0x204 SWAP2 SWAP1 PUSH2 0x1157 JUMP JUMPDEST PUSH2 0x833 JUMP JUMPDEST STOP JUMPDEST CALLVALUE DUP1 ISZERO PUSH2 0x217 JUMPI PUSH1 0x0 DUP1 REVERT JUMPDEST POP PUSH2 0x220 PUSH2 0x939 JUMP JUMPDEST PUSH1 0x40 MLOAD PUSH2 0x22D SWAP2 SWAP1 PUSH2 0xFDB JUMP JUMPDEST PUSH1 0x40 MLOAD DUP1 SWAP2 SUB SWAP1 RETURN JUMPDEST CALLVALUE DUP1 ISZERO PUSH2 0x242 JUMPI PUSH1 0x0 DUP1 REVERT JUMPDEST POP PUSH2 0x24B PUSH2 0x93F JUMP JUMPDEST PUSH1 0x40 MLOAD PUSH2 0x258 SWAP2 SWAP1 PUSH2 0xFDB JUMP JUMPDEST PUSH1 0x40 MLOAD DUP1 SWAP2 SUB SWAP1 RETURN JUMPDEST CALLVALUE DUP1 ISZERO PUSH2 0x26D JUMPI PUSH1 0x0 DUP1 REVERT JUMPDEST POP PUSH2 0x276 PUSH2 0x945 JUMP JUMPDEST PUSH1 0x40 MLOAD PUSH2 0x283 SWAP2 SWAP1 PUSH2 0xFDB JUMP JUMPDEST PUSH1 0x40 MLOAD DUP1 SWAP2 SUB SWAP1 RETURN JUMPDEST CALLVALUE DUP1 ISZERO PUSH2 0x298 JUMPI PUSH1 0x0 DUP1 REVERT JUMPDEST POP PUSH2 0x2B3 PUSH1 0x4 DUP1 CALLDATASIZE SUB DUP2 ADD SWAP1 PUSH2 0x2AE SWAP2 SWAP1 PUSH2 0xF39 JUMP JUMPDEST PUSH2 0x951 JUMP JUMPDEST STOP JUMPDEST CALLVALUE DUP1 ISZERO PUSH2 0x2C1 JUMPI PUSH1 0x0 DUP1 REVERT JUMPDEST POP PUSH2 0x2DC PUSH1 0x4 DUP1 CALLDATASIZE SUB DUP2 ADD SWAP1 PUSH2 0x2D7 SWAP2 SWAP1 PUSH2 0xF39 JUMP JUMPDEST PUSH2 0xA9D JUMP JUMPDEST STOP JUMPDEST CALLVALUE DUP1 ISZERO PUSH2 0x2EA JUMPI PUSH1 0x0 DUP1 REVERT JUMPDEST POP PUSH2 0x2F3 PUSH2 0xBE4 JUMP JUMPDEST PUSH1 0x40 MLOAD PUSH2 0x300 SWAP2 SWAP1 PUSH2 0xD90 JUMP JUMPDEST PUSH1 0x40 MLOAD DUP1 SWAP2 SUB SWAP1 RETURN JUMPDEST CALLVALUE DUP1 ISZERO PUSH2 0x315 JUMPI PUSH1 0x0 DUP1 REVERT JUMPDEST POP PUSH2 0x31E PUSH2 0xC72 JUMP JUMPDEST PUSH1 0x40 MLOAD PUSH2 0x32B SWAP2 SWAP1 PUSH2 0xD90 JUMP JUMPDEST PUSH1 0x40 MLOAD DUP1 SWAP2 SUB SWAP1 RETURN JUMPDEST PUSH1 0x1 DUP1 SLOAD PUSH2 0x341 SWAP1 PUSH2 0x11F5 JUMP JUMPDEST DUP1 PUSH1 0x1F ADD PUSH1 0x20 DUP1 SWAP2 DIV MUL PUSH1 0x20 ADD PUSH1 0x40 MLOAD SWAP1 DUP2 ADD PUSH1 0x40 MSTORE DUP1 SWAP3 SWAP2 SWAP1 DUP2 DUP2 MSTORE PUSH1 0x20 ADD DUP3 DUP1 SLOAD PUSH2 0x36D SWAP1 PUSH2 0x11F5 JUMP JUMPDEST DUP1 ISZERO PUSH2 0x3BA JUMPI DUP1 PUSH1 0x1F LT PUSH2 0x38F JUMPI PUSH2 0x100 DUP1 DUP4 SLOAD DIV MUL DUP4 MSTORE SWAP2 PUSH1 0x20 ADD SWAP2 PUSH2 0x3BA JUMP JUMPDEST DUP3 ADD SWAP2 SWAP1 PUSH1 0x0 MSTORE PUSH1 0x20 PUSH1 0x0 KECCAK256 SWAP1 JUMPDEST DUP2 SLOAD DUP2 MSTORE SWAP1 PUSH1 0x1 ADD SWAP1 PUSH1 0x20 ADD DUP1 DUP4 GT PUSH2 0x39D JUMPI DUP3 SWAP1 SUB PUSH1 0x1F AND DUP3 ADD SWAP2 JUMPDEST POP POP POP POP POP DUP2 JUMP JUMPDEST PUSH1 0x0 DUP1 PUSH1 0x0 DUP1 PUSH1 0x0 DUP1 PUSH1 0x60 DUP1 PUSH1 0x60 PUSH1 0x0 PUSH1 0x4 SLOAD PUSH1 0x5 SLOAD SELFBALANCE PUSH1 0x0 DUP1 SLOAD SWAP1 POP PUSH1 0x7 SLOAD PUSH32 0x0 PUSH1 0x1 PUSH1 0x3 PUSH1 0x2 PUSH1 0x8 DUP1 SLOAD SWAP1 POP DUP4 DUP1 SLOAD PUSH2 0x41B SWAP1 PUSH2 0x11F5 JUMP JUMPDEST DUP1 PUSH1 0x1F ADD PUSH1 0x20 DUP1 SWAP2 DIV MUL PUSH1 0x20 ADD PUSH1 0x40 MLOAD SWAP1 DUP2 ADD PUSH1 0x40 MSTORE DUP1 SWAP3 SWAP2 SWAP1 DUP2 DUP2 MSTORE PUSH1 0x20 ADD DUP3 DUP1 SLOAD PUSH2 0x447 SWAP1 PUSH2 0x11F5 JUMP JUMPDEST DUP1 ISZERO PUSH2 0x494 JUMPI DUP1 PUSH1 0x1F LT PUSH2 0x469 JUMPI PUSH2 0x100 DUP1 DUP4 SLOAD DIV MUL DUP4 MSTORE SWAP2 PUSH1 0x20 ADD SWAP2 PUSH2 0x494 JUMP JUMPDEST DUP3 ADD SWAP2 SWAP1 PUSH1 0x0 MSTORE PUSH1 0x20 PUSH1 0x0 KECCAK256 SWAP1 JUMPDEST DUP2 SLOAD DUP2 MSTORE SWAP1 PUSH1 0x1 ADD SWAP1 PUSH1 0x20 ADD DUP1 DUP4 GT PUSH2 0x477 JUMPI DUP3 SWAP1 SUB PUSH1 0x1F AND DUP3 ADD SWAP2 JUMPDEST POP POP POP POP POP SWAP4 POP DUP3 DUP1 SLOAD PUSH2 0x4A7 SWAP1 PUSH2 0x11F5 JUMP JUMPDEST DUP1 PUSH1 0x1F ADD PUSH1 0x20 DUP1 SWAP2 DIV MUL PUSH1 0x20 ADD PUSH1 0x40 MLOAD SWAP1 DUP2 ADD PUSH1 0x40 MSTORE DUP1 SWAP3 SWAP2 SWAP1 DUP2 DUP2 MSTORE PUSH1 0x20 ADD DUP3 DUP1 SLOAD PUSH2 0x4D3 SWAP1 PUSH2 0x11F5 JUMP JUMPDEST DUP1 ISZERO PUSH2 0x520 JUMPI DUP1 PUSH1 0x1F LT PUSH2 0x4F5 JUMPI PUSH2 0x100 DUP1 DUP4 SLOAD DIV MUL DUP4 MSTORE SWAP2 PUSH1 0x20 ADD SWAP2 PUSH2 0x520 JUMP JUMPDEST DUP3 ADD SWAP2 SWAP1 PUSH1 0x0 MSTORE PUSH1 0x20 PUSH1 0x0 KECCAK256 SWAP1 JUMPDEST DUP2 SLOAD DUP2 MSTORE SWAP1 PUSH1 0x1 ADD SWAP1 PUSH1 0x20 ADD DUP1 DUP4 GT PUSH2 0x503 JUMPI DUP3 SWAP1 SUB PUSH1 0x1F AND DUP3 ADD SWAP2 JUMPDEST POP POP POP POP POP SWAP3 POP DUP2 DUP1 SLOAD PUSH2 0x533 SWAP1 PUSH2 0x11F5 JUMP JUMPDEST DUP1 PUSH1 0x1F ADD PUSH1 0x20 DUP1 SWAP2 DIV MUL PUSH1 0x20 ADD PUSH1 0x40 MLOAD SWAP1 DUP2 ADD PUSH1 0x40 MSTORE DUP1 SWAP3 SWAP2 SWAP1 DUP2 DUP2 MSTORE PUSH1 0x20 ADD DUP3 DUP1 SLOAD PUSH2 0x55F SWAP1 PUSH2 0x11F5 JUMP JUMPDEST DUP1 ISZERO PUSH2 0x5AC JUMPI DUP1 PUSH1 0x1F LT PUSH2 0x581 JUMPI PUSH2 0x100 DUP1 DUP4 SLOAD DIV MUL DUP4 MSTORE SWAP2 PUSH1 0x20 ADD SWAP2 PUSH2 0x5AC JUMP JUMPDEST DUP3 ADD SWAP2 SWAP1 PUSH1 0x0 MSTORE PUSH1 0x20 PUSH1 0x0 KECCAK256 SWAP1 JUMPDEST DUP2 SLOAD DUP2 MSTORE SWAP1 PUSH1 0x1 ADD SWAP1 PUSH1 0x20 ADD DUP1 DUP4 GT PUSH2 0x58F JUMPI DUP3 SWAP1 SUB PUSH1 0x1F AND DUP3 ADD SWAP2 JUMPDEST POP POP POP POP POP SWAP2 POP SWAP10 POP SWAP10 POP SWAP10 POP SWAP10 POP SWAP10 POP SWAP10 POP SWAP10 POP SWAP10 POP SWAP10 POP SWAP10 POP SWAP1 SWAP2 SWAP3 SWAP4 SWAP5 SWAP6 SWAP7 SWAP8 SWAP9 SWAP10 JUMP JUMPDEST PUSH32 0x0 DUP2 JUMP JUMPDEST PUSH1 0x4 SLOAD CALLVALUE LT PUSH2 0x6C3 JUMPI PUSH1 0x6 PUSH1 0x0 CALLER PUSH20 0xFFFFFFFFFFFFFFFFFFFFFFFFFFFFFFFFFFFFFFFF AND PUSH20 0xFFFFFFFFFFFFFFFFFFFFFFFFFFFFFFFFFFFFFFFF AND DUP2 MSTORE PUSH1 0x20 ADD SWAP1 DUP2 MSTORE PUSH1 0x20 ADD PUSH1 0x0 KECCAK256 PUSH1 0x0 SWAP1 SLOAD SWAP1 PUSH2 0x100 EXP SWAP1 DIV PUSH1 0xFF AND PUSH2 0x66A JUMPI PUSH1 0x7 PUSH1 0x0 DUP2 SLOAD DUP1 SWAP3 SWAP2 SWAP1 PUSH2 0x664 SWAP1 PUSH2 0x1255 JUMP JUMPDEST SWAP2 SWAP1 POP SSTORE POP JUMPDEST PUSH1 0x1 PUSH1 0x6 PUSH1 0x0 CALLER PUSH20 0xFFFFFFFFFFFFFFFFFFFFFFFFFFFFFFFFFFFFFFFF AND PUSH20 0xFFFFFFFFFFFFFFFFFFFFFFFFFFFFFFFFFFFFFFFF AND DUP2 MSTORE PUSH1 0x20 ADD SWAP1 DUP2 MSTORE PUSH1 0x20 ADD PUSH1 0x0 KECCAK256 PUSH1 0x0 PUSH2 0x100 EXP DUP2 SLOAD DUP2 PUSH1 0xFF MUL NOT AND SWAP1 DUP4 ISZERO ISZERO MUL OR SWAP1 SSTORE POP JUMPDEST PUSH1 0x5 SLOAD CALLVALUE LT PUSH2 0x730 JUMPI PUSH1 0x8 CALLER SWAP1 DUP1 PUSH1 0x1 DUP2 SLOAD ADD DUP1 DUP3 SSTORE DUP1 SWAP2 POP POP PUSH1 0x1 SWAP1 SUB SWAP1 PUSH1 0x0 MSTORE PUSH1 0x20 PUSH1 0x0 KECCAK256 ADD PUSH1 0x0 SWAP1 SWAP2 SWAP1 SWAP2 SWAP1 SWAP2 PUSH2 0x100 EXP DUP2 SLOAD DUP2 PUSH20 0xFFFFFFFFFFFFFFFFFFFFFFFFFFFFFFFFFFFFFFFF MUL NOT AND SWAP1 DUP4 PUSH20 0xFFFFFFFFFFFFFFFFFFFFFFFFFFFFFFFFFFFFFFFF AND MUL OR SWAP1 SSTORE POP JUMPDEST JUMP JUMPDEST PUSH1 0x0 DUP2 DUP2 SLOAD DUP2 LT PUSH2 0x742 JUMPI PUSH1 0x0 DUP1 REVERT JUMPDEST SWAP1 PUSH1 0x0 MSTORE PUSH1 0x20 PUSH1 0x0 KECCAK256 SWAP1 PUSH1 0x5 MUL ADD PUSH1 0x0 SWAP2 POP SWAP1 POP DUP1 PUSH1 0x0 ADD DUP1 SLOAD PUSH2 0x765 SWAP1 PUSH2 0x11F5 JUMP JUMPDEST DUP1 PUSH1 0x1F ADD PUSH1 0x20 DUP1 SWAP2 DIV MUL PUSH1 0x20 ADD PUSH1 0x40 MLOAD SWAP1 DUP2 ADD PUSH1 0x40 MSTORE DUP1 SWAP3 SWAP2 SWAP1 DUP2 DUP2 MSTORE PUSH1 0x20 ADD DUP3 DUP1 SLOAD PUSH2 0x791 SWAP1 PUSH2 0x11F5 JUMP JUMPDEST DUP1 ISZERO PUSH2 0x7DE JUMPI DUP1 PUSH1 0x1F LT PUSH2 0x7B3 JUMPI PUSH2 0x100 DUP1 DUP4 SLOAD DIV MUL DUP4 MSTORE SWAP2 PUSH1 0x20 ADD SWAP2 PUSH2 0x7DE JUMP JUMPDEST DUP3 ADD SWAP2 SWAP1 PUSH1 0x0 MSTORE PUSH1 0x20 PUSH1 0x0 KECCAK256 SWAP1 JUMPDEST DUP2 SLOAD DUP2 MSTORE SWAP1 PUSH1 0x1 ADD SWAP1 PUSH1 0x20 ADD DUP1 DUP4 GT PUSH2 0x7C1 JUMPI DUP3 SWAP1 SUB PUSH1 0x1F AND DUP3 ADD SWAP2 JUMPDEST POP POP POP POP POP SWAP1 DUP1 PUSH1 0x1 ADD SLOAD SWAP1 DUP1 PUSH1 0x2 ADD PUSH1 0x0 SWAP1 SLOAD SWAP1 PUSH2 0x100 EXP SWAP1 DIV PUSH20 0xFFFFFFFFFFFFFFFFFFFFFFFFFFFFFFFFFFFFFFFF AND SWAP1 DUP1 PUSH1 0x2 ADD PUSH1 0x14 SWAP1 SLOAD SWAP1 PUSH2 0x100 EXP SWAP1 DIV PUSH1 0xFF AND SWAP1 DUP1 PUSH1 0x4 ADD SLOAD SWAP1 POP DUP6 JUMP JUMPDEST PUSH1 0x7 SLOAD DUP2 JUMP JUMPDEST PUSH32 0x0 PUSH20 0xFFFFFFFFFFFFFFFFFFFFFFFFFFFFFFFFFFFFFFFF AND CALLER PUSH20 0xFFFFFFFFFFFFFFFFFFFFFFFFFFFFFFFFFFFFFFFF AND EQ PUSH2 0x88B JUMPI PUSH1 0x0 DUP1 REVERT JUMPDEST PUSH1 0x0 DUP1 PUSH1 0x1 DUP2 PUSH1 0x1 DUP2 SLOAD ADD DUP1 DUP3 SSTORE DUP1 SWAP2 POP POP SUB SWAP1 PUSH1 0x0 MSTORE PUSH1 0x20 PUSH1 0x0 KECCAK256 SWAP1 PUSH1 0x5 MUL ADD SWAP1 POP DUP4 DUP2 PUSH1 0x0 ADD SWAP1 DUP2 PUSH2 0x8BF SWAP2 SWAP1 PUSH2 0x1449 JUMP JUMPDEST POP DUP3 DUP2 PUSH1 0x1 ADD DUP2 SWAP1 SSTORE POP DUP2 DUP2 PUSH1 0x2 ADD PUSH1 0x0 PUSH2 0x100 EXP DUP2 SLOAD DUP2 PUSH20 0xFFFFFFFFFFFFFFFFFFFFFFFFFFFFFFFFFFFFFFFF MUL NOT AND SWAP1 DUP4 PUSH20 0xFFFFFFFFFFFFFFFFFFFFFFFFFFFFFFFFFFFFFFFF AND MUL OR SWAP1 SSTORE POP PUSH1 0x0 DUP2 PUSH1 0x2 ADD PUSH1 0x14 PUSH2 0x100 EXP DUP2 SLOAD DUP2 PUSH1 0xFF MUL NOT AND SWAP1 DUP4 ISZERO ISZERO MUL OR SWAP1 SSTORE POP PUSH1 0x0 DUP2 PUSH1 0x4 ADD DUP2 SWAP1 SSTORE POP POP POP POP POP JUMP JUMPDEST PUSH1 0x5 SLOAD DUP2 JUMP JUMPDEST PUSH1 0x4 SLOAD DUP2 JUMP JUMPDEST PUSH1 0x0 DUP1 DUP1 SLOAD SWAP1 POP SWAP1 POP SWAP1 JUMP JUMPDEST PUSH1 0x6 PUSH1 0x0 CALLER PUSH20 0xFFFFFFFFFFFFFFFFFFFFFFFFFFFFFFFFFFFFFFFF AND PUSH20 0xFFFFFFFFFFFFFFFFFFFFFFFFFFFFFFFFFFFFFFFF AND DUP2 MSTORE PUSH1 0x20 ADD SWAP1 DUP2 MSTORE PUSH1 0x20 ADD PUSH1 0x0 KECCAK256 PUSH1 0x0 SWAP1 SLOAD SWAP1 PUSH2 0x100 EXP SWAP1 DIV PUSH1 0xFF AND PUSH2 0x9A7 JUMPI PUSH1 0x0 DUP1 REVERT JUMPDEST PUSH1 0x0 DUP1 DUP3 DUP2 SLOAD DUP2 LT PUSH2 0x9BC JUMPI PUSH2 0x9BB PUSH2 0x151B JUMP JUMPDEST JUMPDEST SWAP1 PUSH1 0x0 MSTORE PUSH1 0x20 PUSH1 0x0 KECCAK256 SWAP1 PUSH1 0x5 MUL ADD SWAP1 POP DUP1 PUSH1 0x3 ADD PUSH1 0x0 CALLER PUSH20 0xFFFFFFFFFFFFFFFFFFFFFFFFFFFFFFFFFFFFFFFF AND PUSH20 0xFFFFFFFFFFFFFFFFFFFFFFFFFFFFFFFFFFFFFFFF AND DUP2 MSTORE PUSH1 0x20 ADD SWAP1 DUP2 MSTORE PUSH1 0x20 ADD PUSH1 0x0 KECCAK256 PUSH1 0x0 SWAP1 SLOAD SWAP1 PUSH2 0x100 EXP SWAP1 DIV PUSH1 0xFF AND ISZERO PUSH2 0xA25 JUMPI PUSH1 0x0 DUP1 REVERT JUMPDEST PUSH1 0x1 DUP2 PUSH1 0x3 ADD PUSH1 0x0 CALLER PUSH20 0xFFFFFFFFFFFFFFFFFFFFFFFFFFFFFFFFFFFFFFFF AND PUSH20 0xFFFFFFFFFFFFFFFFFFFFFFFFFFFFFFFFFFFFFFFF AND DUP2 MSTORE PUSH1 0x20 ADD SWAP1 DUP2 MSTORE PUSH1 0x20 ADD PUSH1 0x0 KECCAK256 PUSH1 0x0 PUSH2 0x100 EXP DUP2 SLOAD DUP2 PUSH1 0xFF MUL NOT AND SWAP1 DUP4 ISZERO ISZERO MUL OR SWAP1 SSTORE POP DUP1 PUSH1 0x4 ADD PUSH1 0x0 DUP2 SLOAD DUP1 SWAP3 SWAP2 SWAP1 PUSH2 0xA94 SWAP1 PUSH2 0x1255 JUMP JUMPDEST SWAP2 SWAP1 POP SSTORE POP POP POP JUMP JUMPDEST PUSH32 0x0 PUSH20 0xFFFFFFFFFFFFFFFFFFFFFFFFFFFFFFFFFFFFFFFF AND CALLER PUSH20 0xFFFFFFFFFFFFFFFFFFFFFFFFFFFFFFFFFFFFFFFF AND EQ PUSH2 0xAF5 JUMPI PUSH1 0x0 DUP1 REVERT JUMPDEST PUSH1 0x0 DUP1 DUP3 DUP2 SLOAD DUP2 LT PUSH2 0xB0A JUMPI PUSH2 0xB09 PUSH2 0x151B JUMP JUMPDEST JUMPDEST SWAP1 PUSH1 0x0 MSTORE PUSH1 0x20 PUSH1 0x0 KECCAK256 SWAP1 PUSH1 0x5 MUL ADD SWAP1 POP DUP1 PUSH1 0x2 ADD PUSH1 0x14 SWAP1 SLOAD SWAP1 PUSH2 0x100 EXP SWAP1 DIV PUSH1 0xFF AND ISZERO PUSH2 0xB36 JUMPI PUSH1 0x0 DUP1 REVERT JUMPDEST PUSH1 0x2 PUSH1 0x7 SLOAD PUSH2 0xB45 SWAP2 SWAP1 PUSH2 0x1579 JUMP JUMPDEST DUP2 PUSH1 0x4 ADD SLOAD GT PUSH2 0xB54 JUMPI PUSH1 0x0 DUP1 REVERT JUMPDEST DUP1 PUSH1 0x2 ADD PUSH1 0x0 SWAP1 SLOAD SWAP1 PUSH2 0x100 EXP SWAP1 DIV PUSH20 0xFFFFFFFFFFFFFFFFFFFFFFFFFFFFFFFFFFFFFFFF AND PUSH20 0xFFFFFFFFFFFFFFFFFFFFFFFFFFFFFFFFFFFFFFFF AND PUSH2 0x8FC DUP3 PUSH1 0x1 ADD SLOAD SWAP1 DUP2 ISZERO MUL SWAP1 PUSH1 0x40 MLOAD PUSH1 0x0 PUSH1 0x40 MLOAD DUP1 DUP4 SUB DUP2 DUP6 DUP9 DUP9 CALL SWAP4 POP POP POP POP ISZERO DUP1 ISZERO PUSH2 0xBC2 JUMPI RETURNDATASIZE PUSH1 0x0 DUP1 RETURNDATACOPY RETURNDATASIZE PUSH1 0x0 REVERT JUMPDEST POP PUSH1 0x1 DUP2 PUSH1 0x2 ADD PUSH1 0x14 PUSH2 0x100 EXP DUP2 SLOAD DUP2 PUSH1 0xFF MUL NOT AND SWAP1 DUP4 ISZERO ISZERO MUL OR SWAP1 SSTORE POP POP POP JUMP JUMPDEST PUSH1 0x3 DUP1 SLOAD PUSH2 0xBF1 SWAP1 PUSH2 0x11F5 JUMP JUMPDEST DUP1 PUSH1 0x1F ADD PUSH1 0x20 DUP1 SWAP2 DIV MUL PUSH1 0x20 ADD PUSH1 0x40 MLOAD SWAP1 DUP2 ADD PUSH1 0x40 MSTORE DUP1 SWAP3 SWAP2 SWAP1 DUP2 DUP2 MSTORE PUSH1 0x20 ADD DUP3 DUP1 SLOAD PUSH2 0xC1D SWAP1 PUSH2 0x11F5 JUMP JUMPDEST DUP1 ISZERO PUSH2 0xC6A JUMPI DUP1 PUSH1 0x1F LT PUSH2 0xC3F JUMPI PUSH2 0x100 DUP1 DUP4 SLOAD DIV MUL DUP4 MSTORE SWAP2 PUSH1 0x20 ADD SWAP2 PUSH2 0xC6A JUMP JUMPDEST DUP3 ADD SWAP2 SWAP1 PUSH1 0x0 MSTORE PUSH1 0x20 PUSH1 0x0 KECCAK256 SWAP1 JUMPDEST DUP2 SLOAD DUP2 MSTORE SWAP1 PUSH1 0x1 ADD SWAP1 PUSH1 0x20 ADD DUP1 DUP4 GT PUSH2 0xC4D JUMPI DUP3 SWAP1 SUB PUSH1 0x1F AND DUP3 ADD SWAP2 JUMPDEST POP POP POP POP POP DUP2 JUMP JUMPDEST PUSH1 0x2 DUP1 SLOAD PUSH2 0xC7F SWAP1 PUSH2 0x11F5 JUMP JUMPDEST DUP1 PUSH1 0x1F ADD PUSH1 0x20 DUP1 SWAP2 DIV MUL PUSH1 0x20 ADD PUSH1 0x40 MLOAD SWAP1 DUP2 ADD PUSH1 0x40 MSTORE DUP1 SWAP3 SWAP2 SWAP1 DUP2 DUP2 MSTORE PUSH1 0x20 ADD DUP3 DUP1 SLOAD PUSH2 0xCAB SWAP1 PUSH2 0x11F5 JUMP JUMPDEST DUP1 ISZERO PUSH2 0xCF8 JUMPI DUP1 PUSH1 0x1F LT PUSH2 0xCCD JUMPI PUSH2 0x100 DUP1 DUP4 SLOAD DIV MUL DUP4 MSTORE SWAP2 PUSH1 0x20 ADD SWAP2 PUSH2 0xCF8 JUMP JUMPDEST DUP3 ADD SWAP2 SWAP1 PUSH1 0x0 MSTORE PUSH1 0x20 PUSH1 0x0 KECCAK256 SWAP1 JUMPDEST DUP2 SLOAD DUP2 MSTORE SWAP1 PUSH1 0x1 ADD SWAP1 PUSH1 0x20 ADD DUP1 DUP4 GT PUSH2 0xCDB JUMPI DUP3 SWAP1 SUB PUSH1 0x1F AND DUP3 ADD SWAP2 JUMPDEST POP POP POP POP POP DUP2 JUMP JUMPDEST PUSH1 0x0 DUP2 MLOAD SWAP1 POP SWAP2 SWAP1 POP JUMP JUMPDEST PUSH1 0x0 DUP3 DUP3 MSTORE PUSH1 0x20 DUP3 ADD SWAP1 POP SWAP3 SWAP2 POP POP JUMP JUMPDEST PUSH1 0x0 JUMPDEST DUP4 DUP2 LT ISZERO PUSH2 0xD3A JUMPI DUP1 DUP3 ADD MLOAD DUP2 DUP5 ADD MSTORE PUSH1 0x20 DUP2 ADD SWAP1 POP PUSH2 0xD1F JUMP JUMPDEST PUSH1 0x0 DUP5 DUP5 ADD MSTORE POP POP POP POP JUMP JUMPDEST PUSH1 0x0 PUSH1 0x1F NOT PUSH1 0x1F DUP4 ADD AND SWAP1 POP SWAP2 SWAP1 POP JUMP JUMPDEST PUSH1 0x0 PUSH2 0xD62 DUP3 PUSH2 0xD00 JUMP JUMPDEST PUSH2 0xD6C DUP2 DUP6 PUSH2 0xD0B JUMP JUMPDEST SWAP4 POP PUSH2 0xD7C DUP2 DUP6 PUSH1 0x20 DUP7 ADD PUSH2 0xD1C JUMP JUMPDEST PUSH2 0xD85 DUP2 PUSH2 0xD46 JUMP JUMPDEST DUP5 ADD SWAP2 POP POP SWAP3 SWAP2 POP POP JUMP JUMPDEST PUSH1 0x0 PUSH1 0x20 DUP3 ADD SWAP1 POP DUP2 DUP2 SUB PUSH1 0x0 DUP4 ADD MSTORE PUSH2 0xDAA DUP2 DUP5 PUSH2 0xD57 JUMP JUMPDEST SWAP1 POP SWAP3 SWAP2 POP POP JUMP JUMPDEST PUSH1 0x0 DUP2 SWAP1 POP SWAP2 SWAP1 POP JUMP JUMPDEST PUSH2 0xDC5 DUP2 PUSH2 0xDB2 JUMP JUMPDEST DUP3 MSTORE POP POP JUMP JUMPDEST PUSH1 0x0 PUSH20 0xFFFFFFFFFFFFFFFFFFFFFFFFFFFFFFFFFFFFFFFF DUP3 AND SWAP1 POP SWAP2 SWAP1 POP JUMP JUMPDEST PUSH1 0x0 PUSH2 0xDF6 DUP3 PUSH2 0xDCB JUMP JUMPDEST SWAP1 POP SWAP2 SWAP1 POP JUMP JUMPDEST PUSH2 0xE06 DUP2 PUSH2 0xDEB JUMP JUMPDEST DUP3 MSTORE POP POP JUMP JUMPDEST PUSH1 0x0 PUSH2 0x140 DUP3 ADD SWAP1 POP PUSH2 0xE22 PUSH1 0x0 DUP4 ADD DUP14 PUSH2 0xDBC JUMP JUMPDEST PUSH2 0xE2F PUSH1 0x20 DUP4 ADD DUP13 PUSH2 0xDBC JUMP JUMPDEST PUSH2 0xE3C PUSH1 0x40 DUP4 ADD DUP12 PUSH2 0xDBC JUMP JUMPDEST PUSH2 0xE49 PUSH1 0x60 DUP4 ADD DUP11 PUSH2 0xDBC JUMP JUMPDEST PUSH2 0xE56 PUSH1 0x80 DUP4 ADD DUP10 PUSH2 0xDBC JUMP JUMPDEST PUSH2 0xE63 PUSH1 0xA0 DUP4 ADD DUP9 PUSH2 0xDFD JUMP JUMPDEST DUP2 DUP2 SUB PUSH1 0xC0 DUP4 ADD MSTORE PUSH2 0xE75 DUP2 DUP8 PUSH2 0xD57 JUMP JUMPDEST SWAP1 POP DUP2 DUP2 SUB PUSH1 0xE0 DUP4 ADD MSTORE PUSH2 0xE89 DUP2 DUP7 PUSH2 0xD57 JUMP JUMPDEST SWAP1 POP DUP2 DUP2 SUB PUSH2 0x100 DUP4 ADD MSTORE PUSH2 0xE9E DUP2 DUP6 PUSH2 0xD57 JUMP JUMPDEST SWAP1 POP PUSH2 0xEAE PUSH2 0x120 DUP4 ADD DUP5 PUSH2 0xDBC JUMP JUMPDEST SWAP12 SWAP11 POP POP POP POP POP POP POP POP POP POP POP JUMP JUMPDEST PUSH1 0x0 PUSH2 0xEC8 DUP3 PUSH2 0xDCB JUMP JUMPDEST SWAP1 POP SWAP2 SWAP1 POP JUMP JUMPDEST PUSH2 0xED8 DUP2 PUSH2 0xEBD JUMP JUMPDEST DUP3 MSTORE POP POP JUMP JUMPDEST PUSH1 0x0 PUSH1 0x20 DUP3 ADD SWAP1 POP PUSH2 0xEF3 PUSH1 0x0 DUP4 ADD DUP5 PUSH2 0xECF JUMP JUMPDEST SWAP3 SWAP2 POP POP JUMP JUMPDEST PUSH1 0x0 PUSH1 0x40 MLOAD SWAP1 POP SWAP1 JUMP JUMPDEST PUSH1 0x0 DUP1 REVERT JUMPDEST PUSH1 0x0 DUP1 REVERT JUMPDEST PUSH2 0xF16 DUP2 PUSH2 0xDB2 JUMP JUMPDEST DUP2 EQ PUSH2 0xF21 JUMPI PUSH1 0x0 DUP1 REVERT JUMPDEST POP JUMP JUMPDEST PUSH1 0x0 DUP2 CALLDATALOAD SWAP1 POP PUSH2 0xF33 DUP2 PUSH2 0xF0D JUMP JUMPDEST SWAP3 SWAP2 POP POP JUMP JUMPDEST PUSH1 0x0 PUSH1 0x20 DUP3 DUP5 SUB SLT ISZERO PUSH2 0xF4F JUMPI PUSH2 0xF4E PUSH2 0xF03 JUMP JUMPDEST JUMPDEST PUSH1 0x0 PUSH2 0xF5D DUP5 DUP3 DUP6 ADD PUSH2 0xF24 JUMP JUMPDEST SWAP2 POP POP SWAP3 SWAP2 POP POP JUMP JUMPDEST PUSH1 0x0 DUP2 ISZERO ISZERO SWAP1 POP SWAP2 SWAP1 POP JUMP JUMPDEST PUSH2 0xF7B DUP2 PUSH2 0xF66 JUMP JUMPDEST DUP3 MSTORE POP POP JUMP JUMPDEST PUSH1 0x0 PUSH1 0xA0 DUP3 ADD SWAP1 POP DUP2 DUP2 SUB PUSH1 0x0 DUP4 ADD MSTORE PUSH2 0xF9B DUP2 DUP9 PUSH2 0xD57 JUMP JUMPDEST SWAP1 POP PUSH2 0xFAA PUSH1 0x20 DUP4 ADD DUP8 PUSH2 0xDBC JUMP JUMPDEST PUSH2 0xFB7 PUSH1 0x40 DUP4 ADD DUP7 PUSH2 0xECF JUMP JUMPDEST PUSH2 0xFC4 PUSH1 0x60 DUP4 ADD DUP6 PUSH2 0xF72 JUMP JUMPDEST PUSH2 0xFD1 PUSH1 0x80 DUP4 ADD DUP5 PUSH2 0xDBC JUMP JUMPDEST SWAP7 SWAP6 POP POP POP POP POP POP JUMP JUMPDEST PUSH1 0x0 PUSH1 0x20 DUP3 ADD SWAP1 POP PUSH2 0xFF0 PUSH1 0x0 DUP4 ADD DUP5 PUSH2 0xDBC JUMP JUMPDEST SWAP3 SWAP2 POP POP JUMP JUMPDEST PUSH1 0x0 DUP1 REVERT JUMPDEST PUSH1 0x0 DUP1 REVERT JUMPDEST PUSH32 0x4E487B7100000000000000000000000000000000000000000000000000000000 PUSH1 0x0 MSTORE PUSH1 0x41 PUSH1 0x4 MSTORE PUSH1 0x24 PUSH1 0x0 REVERT JUMPDEST PUSH2 0x1038 DUP3 PUSH2 0xD46 JUMP JUMPDEST DUP2 ADD DUP2 DUP2 LT PUSH8 0xFFFFFFFFFFFFFFFF DUP3 GT OR ISZERO PUSH2 0x1057 JUMPI PUSH2 0x1056 PUSH2 0x1000 JUMP JUMPDEST JUMPDEST DUP1 PUSH1 0x40 MSTORE POP POP POP JUMP JUMPDEST PUSH1 0x0 PUSH2 0x106A PUSH2 0xEF9 JUMP JUMPDEST SWAP1 POP PUSH2 0x1076 DUP3 DUP3 PUSH2 0x102F JUMP JUMPDEST SWAP2 SWAP1 POP JUMP JUMPDEST PUSH1 0x0 PUSH8 0xFFFFFFFFFFFFFFFF DUP3 GT ISZERO PUSH2 0x1096 JUMPI PUSH2 0x1095 PUSH2 0x1000 JUMP JUMPDEST JUMPDEST PUSH2 0x109F DUP3 PUSH2 0xD46 JUMP JUMPDEST SWAP1 POP PUSH1 0x20 DUP2 ADD SWAP1 POP SWAP2 SWAP1 POP JUMP JUMPDEST DUP3 DUP2 DUP4 CALLDATACOPY PUSH1 0x0 DUP4 DUP4 ADD MSTORE POP POP POP JUMP JUMPDEST PUSH1 0x0 PUSH2 0x10CE PUSH2 0x10C9 DUP5 PUSH2 0x107B JUMP JUMPDEST PUSH2 0x1060 JUMP JUMPDEST SWAP1 POP DUP3 DUP2 MSTORE PUSH1 0x20 DUP2 ADD DUP5 DUP5 DUP5 ADD GT ISZERO PUSH2 0x10EA JUMPI PUSH2 0x10E9 PUSH2 0xFFB JUMP JUMPDEST JUMPDEST PUSH2 0x10F5 DUP5 DUP3 DUP6 PUSH2 0x10AC JUMP JUMPDEST POP SWAP4 SWAP3 POP POP POP JUMP JUMPDEST PUSH1 0x0 DUP3 PUSH1 0x1F DUP4 ADD SLT PUSH2 0x1112 JUMPI PUSH2 0x1111 PUSH2 0xFF6 JUMP JUMPDEST JUMPDEST DUP2 CALLDATALOAD PUSH2 0x1122 DUP5 DUP3 PUSH1 0x20 DUP7 ADD PUSH2 0x10BB JUMP JUMPDEST SWAP2 POP POP SWAP3 SWAP2 POP POP JUMP JUMPDEST PUSH2 0x1134 DUP2 PUSH2 0xEBD JUMP JUMPDEST DUP2 EQ PUSH2 0x113F JUMPI PUSH1 0x0 DUP1 REVERT JUMPDEST POP JUMP JUMPDEST PUSH1 0x0 DUP2 CALLDATALOAD SWAP1 POP PUSH2 0x1151 DUP2 PUSH2 0x112B JUMP JUMPDEST SWAP3 SWAP2 POP POP JUMP JUMPDEST PUSH1 0x0 DUP1 PUSH1 0x0 PUSH1 0x60 DUP5 DUP7 SUB SLT ISZERO PUSH2 0x1170 JUMPI PUSH2 0x116F PUSH2 0xF03 JUMP JUMPDEST JUMPDEST PUSH1 0x0 DUP5 ADD CALLDATALOAD PUSH8 0xFFFFFFFFFFFFFFFF DUP2 GT ISZERO PUSH2 0x118E JUMPI PUSH2 0x118D PUSH2 0xF08 JUMP JUMPDEST JUMPDEST PUSH2 0x119A DUP7 DUP3 DUP8 ADD PUSH2 0x10FD JUMP JUMPDEST SWAP4 POP POP PUSH1 0x20 PUSH2 0x11AB DUP7 DUP3 DUP8 ADD PUSH2 0xF24 JUMP JUMPDEST SWAP3 POP POP PUSH1 0x40 PUSH2 0x11BC DUP7 DUP3 DUP8 ADD PUSH2 0x1142 JUMP JUMPDEST SWAP2 POP POP SWAP3 POP SWAP3 POP SWAP3 JUMP JUMPDEST PUSH32 0x4E487B7100000000000000000000000000000000000000000000000000000000 PUSH1 0x0 MSTORE PUSH1 0x22 PUSH1 0x4 MSTORE PUSH1 0x24 PUSH1 0x0 REVERT JUMPDEST PUSH1 0x0 PUSH1 0x2 DUP3 DIV SWAP1 POP PUSH1 0x1 DUP3 AND DUP1 PUSH2 0x120D JUMPI PUSH1 0x7F DUP3 AND SWAP2 POP JUMPDEST PUSH1 0x20 DUP3 LT DUP2 SUB PUSH2 0x1220 JUMPI PUSH2 0x121F PUSH2 0x11C6 JUMP JUMPDEST JUMPDEST POP SWAP2 SWAP1 POP JUMP JUMPDEST PUSH32 0x4E487B7100000000000000000000000000000000000000000000000000000000 PUSH1 0x0 MSTORE PUSH1 0x11 PUSH1 0x4 MSTORE PUSH1 0x24 PUSH1 0x0 REVERT JUMPDEST PUSH1 0x0 PUSH2 0x1260 DUP3 PUSH2 0xDB2 JUMP JUMPDEST SWAP2 POP PUSH32 0xFFFFFFFFFFFFFFFFFFFFFFFFFFFFFFFFFFFFFFFFFFFFFFFFFFFFFFFFFFFFFFFF DUP3 SUB PUSH2 0x1292 JUMPI PUSH2 0x1291 PUSH2 0x1226 JUMP JUMPDEST JUMPDEST PUSH1 0x1 DUP3 ADD SWAP1 POP SWAP2 SWAP1 POP JUMP JUMPDEST PUSH1 0x0 DUP2 SWAP1 POP DUP2 PUSH1 0x0 MSTORE PUSH1 0x20 PUSH1 0x0 KECCAK256 SWAP1 POP SWAP2 SWAP1 POP JUMP JUMPDEST PUSH1 0x0 PUSH1 0x20 PUSH1 0x1F DUP4 ADD DIV SWAP1 POP SWAP2 SWAP1 POP JUMP JUMPDEST PUSH1 0x0 DUP3 DUP3 SHL SWAP1 POP SWAP3 SWAP2 POP POP JUMP JUMPDEST PUSH1 0x0 PUSH1 0x8 DUP4 MUL PUSH2 0x12FF PUSH32 0xFFFFFFFFFFFFFFFFFFFFFFFFFFFFFFFFFFFFFFFFFFFFFFFFFFFFFFFFFFFFFFFF DUP3 PUSH2 0x12C2 JUMP JUMPDEST PUSH2 0x1309 DUP7 DUP4 PUSH2 0x12C2 JUMP JUMPDEST SWAP6 POP DUP1 NOT DUP5 AND SWAP4 POP DUP1 DUP7 AND DUP5 OR SWAP3 POP POP POP SWAP4 SWAP3 POP POP POP JUMP JUMPDEST PUSH1 0x0 DUP2 SWAP1 POP SWAP2 SWAP1 POP JUMP JUMPDEST PUSH1 0x0 PUSH2 0x1346 PUSH2 0x1341 PUSH2 0x133C DUP5 PUSH2 0xDB2 JUMP JUMPDEST PUSH2 0x1321 JUMP JUMPDEST PUSH2 0xDB2 JUMP JUMPDEST SWAP1 POP SWAP2 SWAP1 POP JUMP JUMPDEST PUSH1 0x0 DUP2 SWAP1 POP SWAP2 SWAP1 POP JUMP JUMPDEST PUSH2 0x1360 DUP4 PUSH2 0x132B JUMP JUMPDEST PUSH2 0x1374 PUSH2 0x136C DUP3 PUSH2 0x134D JUMP JUMPDEST DUP5 DUP5 SLOAD PUSH2 0x12CF JUMP JUMPDEST DUP3 SSTORE POP POP POP POP JUMP JUMPDEST PUSH1 0x0 SWAP1 JUMP JUMPDEST PUSH2 0x1389 PUSH2 0x137C JUMP JUMPDEST PUSH2 0x1394 DUP2 DUP5 DUP5 PUSH2 0x1357 JUMP JUMPDEST POP POP POP JUMP JUMPDEST JUMPDEST DUP2 DUP2 LT ISZERO PUSH2 0x13B8 JUMPI PUSH2 0x13AD PUSH1 0x0 DUP3 PUSH2 0x1381 JUMP JUMPDEST PUSH1 0x1 DUP2 ADD SWAP1 POP PUSH2 0x139A JUMP JUMPDEST POP POP JUMP JUMPDEST PUSH1 0x1F DUP3 GT ISZERO PUSH2 0x13FD JUMPI PUSH2 0x13CE DUP2 PUSH2 0x129D JUMP JUMPDEST PUSH2 0x13D7 DUP5 PUSH2 0x12B2 JUMP JUMPDEST DUP2 ADD PUSH1 0x20 DUP6 LT ISZERO PUSH2 0x13E6 JUMPI DUP2 SWAP1 POP JUMPDEST PUSH2 0x13FA PUSH2 0x13F2 DUP6 PUSH2 0x12B2 JUMP JUMPDEST DUP4 ADD DUP3 PUSH2 0x1399 JUMP JUMPDEST POP POP JUMPDEST POP POP POP JUMP JUMPDEST PUSH1 0x0 DUP3 DUP3 SHR SWAP1 POP SWAP3 SWAP2 POP POP JUMP JUMPDEST PUSH1 0x0 PUSH2 0x1420 PUSH1 0x0 NOT DUP5 PUSH1 0x8 MUL PUSH2 0x1402 JUMP JUMPDEST NOT DUP1 DUP4 AND SWAP2 POP POP SWAP3 SWAP2 POP POP JUMP JUMPDEST PUSH1 0x0 PUSH2 0x1439 DUP4 DUP4 PUSH2 0x140F JUMP JUMPDEST SWAP2 POP DUP3 PUSH1 0x2 MUL DUP3 OR SWAP1 POP SWAP3 SWAP2 POP POP JUMP JUMPDEST PUSH2 0x1452 DUP3 PUSH2 0xD00 JUMP JUMPDEST PUSH8 0xFFFFFFFFFFFFFFFF DUP2 GT ISZERO PUSH2 0x146B JUMPI PUSH2 0x146A PUSH2 0x1000 JUMP JUMPDEST JUMPDEST PUSH2 0x1475 DUP3 SLOAD PUSH2 0x11F5 JUMP JUMPDEST PUSH2 0x1480 DUP3 DUP3 DUP6 PUSH2 0x13BC JUMP JUMPDEST PUSH1 0x0 PUSH1 0x20 SWAP1 POP PUSH1 0x1F DUP4 GT PUSH1 0x1 DUP2 EQ PUSH2 0x14B3 JUMPI PUSH1 0x0 DUP5 ISZERO PUSH2 0x14A1 JUMPI DUP3 DUP8 ADD MLOAD SWAP1 POP JUMPDEST PUSH2 0x14AB DUP6 DUP3 PUSH2 0x142D JUMP JUMPDEST DUP7 SSTORE POP PUSH2 0x1513 JUMP JUMPDEST PUSH1 0x1F NOT DUP5 AND PUSH2 0x14C1 DUP7 PUSH2 0x129D JUMP JUMPDEST PUSH1 0x0 JUMPDEST DUP3 DUP2 LT ISZERO PUSH2 0x14E9 JUMPI DUP5 DUP10 ADD MLOAD DUP3 SSTORE PUSH1 0x1 DUP3 ADD SWAP2 POP PUSH1 0x20 DUP6 ADD SWAP5 POP PUSH1 0x20 DUP2 ADD SWAP1 POP PUSH2 0x14C4 JUMP JUMPDEST DUP7 DUP4 LT ISZERO PUSH2 0x1506 JUMPI DUP5 DUP10 ADD MLOAD PUSH2 0x1502 PUSH1 0x1F DUP10 AND DUP3 PUSH2 0x140F JUMP JUMPDEST DUP4 SSTORE POP JUMPDEST PUSH1 0x1 PUSH1 0x2 DUP9 MUL ADD DUP9 SSTORE POP POP POP JUMPDEST POP POP POP POP POP POP JUMP JUMPDEST PUSH32 0x4E487B7100000000000000000000000000000000000000000000000000000000 PUSH1 0x0 MSTORE PUSH1 0x32 PUSH1 0x4 MSTORE PUSH1 0x24 PUSH1 0x0 REVERT JUMPDEST PUSH32 0x4E487B7100000000000000000000000000000000000000000000000000000000 PUSH1 0x0 MSTORE PUSH1 0x12 PUSH1 0x4 MSTORE PUSH1 0x24 PUSH1 0x0 REVERT JUMPDEST PUSH1 0x0 PUSH2 0x1584 DUP3 PUSH2 0xDB2 JUMP JUMPDEST SWAP2 POP PUSH2 0x158F DUP4 PUSH2 0xDB2 JUMP JUMPDEST SWAP3 POP DUP3 PUSH2 0x159F JUMPI PUSH2 0x159E PUSH2 0x154A JUMP JUMPDEST JUMPDEST DUP3 DUP3 DIV SWAP1 POP SWAP3 SWAP2 POP POP JUMP INVALID LOG2 PUSH5 0x6970667358 0x22 SLT KECCAK256 0xEC PUSH21 0x2CE2942BCB01254E37613C608ED6A6C2B20378D0FF PUSH6 0x2EE1BD141458 PUSH15 0xE164736F6C63430008100033000000 "},"gasEstimates":{"creation":{"codeDepositCost":"1120000","executionCost":"infinite","totalCost":"infinite"},"external":{"approveRequest(uint256)":"infinite","approversCount()":"2496","campaignDesc()":"infinite","campaignName()":"infinite","contribution()":"103920","createRequest(string,uint256,address)":"infinite","finaliseRequest(uint256)":"infinite","getRequest()":"2512","getSummary()":"infinite","manager()":"infinite","managerName()":"infinite","minContribution()":"2474","premiumContribution()":"2452","requests(uint256)":"infinite"}},"methodIdentifiers":{"approveRequest(uint256)":"d7d1bbdb","approversCount()":"82fde093","campaignDesc()":"ebd94e21","campaignName()":"0724fda9","contribution()":"50520b1f","createRequest(string,uint256,address)":"8a9cfd55","finaliseRequest(uint256)":"e7b668b4","getRequest()":"c2bb515f","getSummary()":"4051ddac","manager()":"481c6a75","managerName()":"fed4416a","minContribution()":"aaffadf3","premiumContribution()":"95bc3cb7","requests(uint256)":"81d12c58"}},"storageLayout":{"storage":[{"astId":86,"contract":"Campaign.sol:Campaign","label":"requests","offset":0,"slot":"0","type":"t_array(t_struct(Request)82_storage)dyn_storage"},{"astId":90,"contract":"Campaign.sol:Campaign","label":"campaignName","offset":0,"slot":"1","type":"t_string_storage"},{"astId":92,"contract":"Campaign.sol:Campaign","label":"managerName","offset":0,"slot":"2","type":"t_string_storage"},{"astId":94,"contract":"Campaign.sol:Campaign","label":"campaignDesc","offset":0,"slot":"3","type":"t_string_storage"},{"astId":96,"contract":"Campaign.sol:Campaign","label":"minContribution","offset":0,"slot":"4","type":"t_uint256"},{"astId":98,"contract":"Campaign.sol:Campaign","label":"premiumContribution","offset":0,"slot":"5","type":"t_uint256"},{"astId":102,"contract":"Campaign.sol:Campaign","label":"approvers","offset":0,"slot":"6","type":"t_mapping(t_address,t_bool)"},{"astId":104,"contract":"Campaign.sol:Campaign","label":"approversCount","offset":0,"slot":"7","type":"t_uint256"},{"astId":107,"contract":"Campaign.sol:Campaign","label":"premiumContributors","offset":0,"slot":"8","type":"t_array(t_address)dyn_storage"}],"types":{"t_address":{"encoding":"inplace","label":"address","numberOfBytes":"20"},"t_address_payable":{"encoding":"inplace","label":"address payable","numberOfBytes":"20"},"t_array(t_address)dyn_storage":{"base":"t_address","encoding":"dynamic_array","label":"address[]","numberOfBytes":"32"},"t_array(t_struct(Request)82_storage)dyn_storage":{"base":"t_struct(Request)82_storage","encoding":"dynamic_array","label":"struct Campaign.Request[]","numberOfBytes":"32"},"t_bool":{"encoding":"inplace","label":"bool","numberOfBytes":"1"},"t_mapping(t_address,t_bool)":{"encoding":"mapping","key":"t_address","label":"mapping(address => bool)","numberOfBytes":"32","value":"t_bool"},"t_string_storage":{"encoding":"bytes","label":"string","numberOfBytes":"32"},"t_struct(Request)82_storage":{"encoding":"inplace","label":"struct Campaign.Request","members":[{"astId":69,"contract":"Campaign.sol:Campaign","label":"description","offset":0,"slot":"0","type":"t_string_storage"},{"astId":71,"contract":"Campaign.sol:Campaign","label":"value","offset":0,"slot":"1","type":"t_uint256"},{"astId":73,"contract":"Campaign.sol:Campaign","label":"recipient","offset":0,"slot":"2","type":"t_address_payable"},{"astId":75,"contract":"Campaign.sol:Campaign","label":"completed","offset":20,"slot":"2","type":"t_bool"},{"astId":79,"contract":"Campaign.sol:Campaign","label":"hasVoted","offset":0,"slot":"3","type":"t_mapping(t_address,t_bool)"},{"astId":81,"contract":"Campaign.sol:Campaign","label":"yesVotes","offset":0,"slot":"4","type":"t_uint256"}],"numberOfBytes":"160"},"t_uint256":{"encoding":"inplace","label":"uint256","numberOfBytes":"32"}}},"userdoc":{"kind":"user","methods":{},"version":1}}