{"abi":[{"inputs":[],"name":"createWallet","outputs":[{"internalType":"address payable","name":"","type":"address"}],"stateMutability":"nonpayable","type":"function"},{"inputs":[],"name":"getCampaignAddr","outputs":[{"internalType":"address payable","name":"","type":"address"}],"stateMutability":"view","type":"function"}],"devdoc":{"kind":"dev","methods":{},"version":1},"evm":{"assembly":"    /* \"Campaign.sol\":4380:5083  contract WalletFactory {... */\n  mstore(0x40, 0x80)\n  callvalue\n  dup1\n  iszero\n  tag_1\n  jumpi\n  0x00\n  dup1\n  revert\ntag_1:\n  pop\n  dataSize(sub_0)\n  dup1\n  dataOffset(sub_0)\n  0x00\n  codecopy\n  0x00\n  return\nstop\n\nsub_0: assembly {\n        /* \"Campaign.sol\":4380:5083  contract WalletFactory {... */\n      mstore(0x40, 0x80)\n      callvalue\n      dup1\n      iszero\n      tag_1\n      jumpi\n      0x00\n      dup1\n      revert\n    tag_1:\n      pop\n      jumpi(tag_2, lt(calldatasize, 0x04))\n      shr(0xe0, calldataload(0x00))\n      dup1\n      0x11ebbf24\n      eq\n      tag_3\n      jumpi\n      dup1\n      0xd689b0d8\n      eq\n      tag_4\n      jumpi\n    tag_2:\n      0x00\n      dup1\n      revert\n        /* \"Campaign.sol\":4476:4826  function createWallet() public returns (address payable) {... */\n    tag_3:\n      tag_5\n      tag_6\n      jump\t// in\n    tag_5:\n      mload(0x40)\n      tag_7\n      swap2\n      swap1\n      tag_8\n      jump\t// in\n    tag_7:\n      mload(0x40)\n      dup1\n      swap2\n      sub\n      swap1\n      return\n        /* \"Campaign.sol\":4834:5080  function getCampaignAddr() public view returns (address payable) {... */\n    tag_4:\n      tag_9\n      tag_10\n      jump\t// in\n    tag_9:\n      mload(0x40)\n      tag_11\n      swap2\n      swap1\n      tag_8\n      jump\t// in\n    tag_11:\n      mload(0x40)\n      dup1\n      swap2\n      sub\n      swap1\n      return\n        /* \"Campaign.sol\":4476:4826  function createWallet() public returns (address payable) {... */\n    tag_6:\n        /* \"Campaign.sol\":4516:4531  address payable */\n      0x00\n        /* \"Campaign.sol\":4603:4604  0 */\n      dup1\n        /* \"Campaign.sol\":4566:4605  walletAddress[msg.sender] == address(0) */\n      0xffffffffffffffffffffffffffffffffffffffff\n      and\n        /* \"Campaign.sol\":4566:4579  walletAddress */\n      0x00\n        /* \"Campaign.sol\":4566:4591  walletAddress[msg.sender] */\n      dup1\n        /* \"Campaign.sol\":4580:4590  msg.sender */\n      caller\n        /* \"Campaign.sol\":4566:4591  walletAddress[msg.sender] */\n      0xffffffffffffffffffffffffffffffffffffffff\n      and\n      0xffffffffffffffffffffffffffffffffffffffff\n      and\n      dup2\n      mstore\n      0x20\n      add\n      swap1\n      dup2\n      mstore\n      0x20\n      add\n      0x00\n      keccak256\n      0x00\n      swap1\n      sload\n      swap1\n      0x0100\n      exp\n      swap1\n      div\n      0xffffffffffffffffffffffffffffffffffffffff\n      and\n        /* \"Campaign.sol\":4566:4605  walletAddress[msg.sender] == address(0) */\n      0xffffffffffffffffffffffffffffffffffffffff\n      and\n      eq\n        /* \"Campaign.sol\":4544:4663  require(... */\n      tag_13\n      jumpi\n      mload(0x40)\n      0x08c379a000000000000000000000000000000000000000000000000000000000\n      dup2\n      mstore\n      0x04\n      add\n      tag_14\n      swap1\n      tag_15\n      jump\t// in\n    tag_14:\n      mload(0x40)\n      dup1\n      swap2\n      sub\n      swap1\n      revert\n    tag_13:\n        /* \"Campaign.sol\":4751:4761  msg.sender */\n      caller\n        /* \"Campaign.sol\":4732:4763  new Wallet(payable(msg.sender)) */\n      mload(0x40)\n      tag_16\n      swap1\n      tag_17\n      jump\t// in\n    tag_16:\n      tag_18\n      swap2\n      swap1\n      tag_8\n      jump\t// in\n    tag_18:\n      mload(0x40)\n      dup1\n      swap2\n      sub\n      swap1\n      0x00\n      create\n      dup1\n      iszero\n      dup1\n      iszero\n      tag_19\n      jumpi\n      returndatasize\n      0x00\n      dup1\n      returndatacopy\n      revert(0x00, returndatasize)\n    tag_19:\n      pop\n        /* \"Campaign.sol\":4674:4687  walletAddress */\n      0x00\n        /* \"Campaign.sol\":4674:4699  walletAddress[msg.sender] */\n      dup1\n        /* \"Campaign.sol\":4688:4698  msg.sender */\n      caller\n        /* \"Campaign.sol\":4674:4699  walletAddress[msg.sender] */\n      0xffffffffffffffffffffffffffffffffffffffff\n      and\n      0xffffffffffffffffffffffffffffffffffffffff\n      and\n      dup2\n      mstore\n      0x20\n      add\n      swap1\n      dup2\n      mstore\n      0x20\n      add\n      0x00\n      keccak256\n      0x00\n        /* \"Campaign.sol\":4674:4775  walletAddress[msg.sender] = payable(... */\n      0x0100\n      exp\n      dup2\n      sload\n      dup2\n      0xffffffffffffffffffffffffffffffffffffffff\n      mul\n      not\n      and\n      swap1\n      dup4\n      0xffffffffffffffffffffffffffffffffffffffff\n      and\n      mul\n      or\n      swap1\n      sstore\n      pop\n        /* \"Campaign.sol\":4793:4806  walletAddress */\n      0x00\n        /* \"Campaign.sol\":4793:4818  walletAddress[msg.sender] */\n      dup1\n        /* \"Campaign.sol\":4807:4817  msg.sender */\n      caller\n        /* \"Campaign.sol\":4793:4818  walletAddress[msg.sender] */\n      0xffffffffffffffffffffffffffffffffffffffff\n      and\n      0xffffffffffffffffffffffffffffffffffffffff\n      and\n      dup2\n      mstore\n      0x20\n      add\n      swap1\n      dup2\n      mstore\n      0x20\n      add\n      0x00\n      keccak256\n      0x00\n      swap1\n      sload\n      swap1\n      0x0100\n      exp\n      swap1\n      div\n      0xffffffffffffffffffffffffffffffffffffffff\n      and\n        /* \"Campaign.sol\":4786:4818  return walletAddress[msg.sender] */\n      swap1\n      pop\n        /* \"Campaign.sol\":4476:4826  function createWallet() public returns (address payable) {... */\n      swap1\n      jump\t// out\n        /* \"Campaign.sol\":4834:5080  function getCampaignAddr() public view returns (address payable) {... */\n    tag_10:\n        /* \"Campaign.sol\":4882:4897  address payable */\n      0x00\n        /* \"Campaign.sol\":4951:4952  0 */\n      dup1\n        /* \"Campaign.sol\":4914:4953  walletAddress[msg.sender] != address(0) */\n      0xffffffffffffffffffffffffffffffffffffffff\n      and\n        /* \"Campaign.sol\":4914:4927  walletAddress */\n      0x00\n        /* \"Campaign.sol\":4914:4939  walletAddress[msg.sender] */\n      dup1\n        /* \"Campaign.sol\":4928:4938  msg.sender */\n      caller\n        /* \"Campaign.sol\":4914:4939  walletAddress[msg.sender] */\n      0xffffffffffffffffffffffffffffffffffffffff\n      and\n      0xffffffffffffffffffffffffffffffffffffffff\n      and\n      dup2\n      mstore\n      0x20\n      add\n      swap1\n      dup2\n      mstore\n      0x20\n      add\n      0x00\n      keccak256\n      0x00\n      swap1\n      sload\n      swap1\n      0x0100\n      exp\n      swap1\n      div\n      0xffffffffffffffffffffffffffffffffffffffff\n      and\n        /* \"Campaign.sol\":4914:4953  walletAddress[msg.sender] != address(0) */\n      0xffffffffffffffffffffffffffffffffffffffff\n      and\n      eq\n        /* \"Campaign.sol\":4910:5073  if (walletAddress[msg.sender] != address(0)) {... */\n      tag_21\n      jumpi\n        /* \"Campaign.sol\":4977:4990  walletAddress */\n      0x00\n        /* \"Campaign.sol\":4977:5002  walletAddress[msg.sender] */\n      dup1\n        /* \"Campaign.sol\":4991:5001  msg.sender */\n      caller\n        /* \"Campaign.sol\":4977:5002  walletAddress[msg.sender] */\n      0xffffffffffffffffffffffffffffffffffffffff\n      and\n      0xffffffffffffffffffffffffffffffffffffffff\n      and\n      dup2\n      mstore\n      0x20\n      add\n      swap1\n      dup2\n      mstore\n      0x20\n      add\n      0x00\n      keccak256\n      0x00\n      swap1\n      sload\n      swap1\n      0x0100\n      exp\n      swap1\n      div\n      0xffffffffffffffffffffffffffffffffffffffff\n      and\n        /* \"Campaign.sol\":4970:5002  return walletAddress[msg.sender] */\n      swap1\n      pop\n      jump(tag_20)\n        /* \"Campaign.sol\":4910:5073  if (walletAddress[msg.sender] != address(0)) {... */\n    tag_21:\n        /* \"Campaign.sol\":5058:5059  0 */\n      0x00\n        /* \"Campaign.sol\":5035:5061  return payable(address(0)) */\n      swap1\n      pop\n        /* \"Campaign.sol\":4834:5080  function getCampaignAddr() public view returns (address payable) {... */\n    tag_20:\n      swap1\n      jump\t// out\n    tag_17:\n      dataSize(sub_0)\n      dup1\n      dataOffset(sub_0)\n      dup4\n      codecopy\n      add\n      swap1\n      jump\t// out\n        /* \"#utility.yul\":7:133   */\n    tag_23:\n        /* \"#utility.yul\":44:51   */\n      0x00\n        /* \"#utility.yul\":84:126   */\n      0xffffffffffffffffffffffffffffffffffffffff\n        /* \"#utility.yul\":77:82   */\n      dup3\n        /* \"#utility.yul\":73:127   */\n      and\n        /* \"#utility.yul\":62:127   */\n      swap1\n      pop\n        /* \"#utility.yul\":7:133   */\n      swap2\n      swap1\n      pop\n      jump\t// out\n        /* \"#utility.yul\":139:243   */\n    tag_24:\n        /* \"#utility.yul\":184:191   */\n      0x00\n        /* \"#utility.yul\":213:237   */\n      tag_32\n        /* \"#utility.yul\":231:236   */\n      dup3\n        /* \"#utility.yul\":213:237   */\n      tag_23\n      jump\t// in\n    tag_32:\n        /* \"#utility.yul\":202:237   */\n      swap1\n      pop\n        /* \"#utility.yul\":139:243   */\n      swap2\n      swap1\n      pop\n      jump\t// out\n        /* \"#utility.yul\":249:391   */\n    tag_25:\n        /* \"#utility.yul\":352:384   */\n      tag_34\n        /* \"#utility.yul\":378:383   */\n      dup2\n        /* \"#utility.yul\":352:384   */\n      tag_24\n      jump\t// in\n    tag_34:\n        /* \"#utility.yul\":347:350   */\n      dup3\n        /* \"#utility.yul\":340:385   */\n      mstore\n        /* \"#utility.yul\":249:391   */\n      pop\n      pop\n      jump\t// out\n        /* \"#utility.yul\":397:651   */\n    tag_8:\n        /* \"#utility.yul\":506:510   */\n      0x00\n        /* \"#utility.yul\":544:546   */\n      0x20\n        /* \"#utility.yul\":533:542   */\n      dup3\n        /* \"#utility.yul\":529:547   */\n      add\n        /* \"#utility.yul\":521:547   */\n      swap1\n      pop\n        /* \"#utility.yul\":557:644   */\n      tag_36\n        /* \"#utility.yul\":641:642   */\n      0x00\n        /* \"#utility.yul\":630:639   */\n      dup4\n        /* \"#utility.yul\":626:643   */\n      add\n        /* \"#utility.yul\":617:623   */\n      dup5\n        /* \"#utility.yul\":557:644   */\n      tag_25\n      jump\t// in\n    tag_36:\n        /* \"#utility.yul\":397:651   */\n      swap3\n      swap2\n      pop\n      pop\n      jump\t// out\n        /* \"#utility.yul\":657:826   */\n    tag_26:\n        /* \"#utility.yul\":741:752   */\n      0x00\n        /* \"#utility.yul\":775:781   */\n      dup3\n        /* \"#utility.yul\":770:773   */\n      dup3\n        /* \"#utility.yul\":763:782   */\n      mstore\n        /* \"#utility.yul\":815:819   */\n      0x20\n        /* \"#utility.yul\":810:813   */\n      dup3\n        /* \"#utility.yul\":806:820   */\n      add\n        /* \"#utility.yul\":791:820   */\n      swap1\n      pop\n        /* \"#utility.yul\":657:826   */\n      swap3\n      swap2\n      pop\n      pop\n      jump\t// out\n        /* \"#utility.yul\":832:1012   */\n    tag_27:\n        /* \"#utility.yul\":972:1004   */\n      0x53656e64657220616c72656164792068617320612077616c6c65742e2e2e0000\n        /* \"#utility.yul\":968:969   */\n      0x00\n        /* \"#utility.yul\":960:966   */\n      dup3\n        /* \"#utility.yul\":956:970   */\n      add\n        /* \"#utility.yul\":949:1005   */\n      mstore\n        /* \"#utility.yul\":832:1012   */\n      pop\n      jump\t// out\n        /* \"#utility.yul\":1018:1384   */\n    tag_28:\n        /* \"#utility.yul\":1160:1163   */\n      0x00\n        /* \"#utility.yul\":1181:1248   */\n      tag_40\n        /* \"#utility.yul\":1245:1247   */\n      0x1e\n        /* \"#utility.yul\":1240:1243   */\n      dup4\n        /* \"#utility.yul\":1181:1248   */\n      tag_26\n      jump\t// in\n    tag_40:\n        /* \"#utility.yul\":1174:1248   */\n      swap2\n      pop\n        /* \"#utility.yul\":1257:1350   */\n      tag_41\n        /* \"#utility.yul\":1346:1349   */\n      dup3\n        /* \"#utility.yul\":1257:1350   */\n      tag_27\n      jump\t// in\n    tag_41:\n        /* \"#utility.yul\":1375:1377   */\n      0x20\n        /* \"#utility.yul\":1370:1373   */\n      dup3\n        /* \"#utility.yul\":1366:1378   */\n      add\n        /* \"#utility.yul\":1359:1378   */\n      swap1\n      pop\n        /* \"#utility.yul\":1018:1384   */\n      swap2\n      swap1\n      pop\n      jump\t// out\n        /* \"#utility.yul\":1390:1809   */\n    tag_15:\n        /* \"#utility.yul\":1556:1560   */\n      0x00\n        /* \"#utility.yul\":1594:1596   */\n      0x20\n        /* \"#utility.yul\":1583:1592   */\n      dup3\n        /* \"#utility.yul\":1579:1597   */\n      add\n        /* \"#utility.yul\":1571:1597   */\n      swap1\n      pop\n        /* \"#utility.yul\":1643:1652   */\n      dup2\n        /* \"#utility.yul\":1637:1641   */\n      dup2\n        /* \"#utility.yul\":1633:1653   */\n      sub\n        /* \"#utility.yul\":1629:1630   */\n      0x00\n        /* \"#utility.yul\":1618:1627   */\n      dup4\n        /* \"#utility.yul\":1614:1631   */\n      add\n        /* \"#utility.yul\":1607:1654   */\n      mstore\n        /* \"#utility.yul\":1671:1802   */\n      tag_43\n        /* \"#utility.yul\":1797:1801   */\n      dup2\n        /* \"#utility.yul\":1671:1802   */\n      tag_28\n      jump\t// in\n    tag_43:\n        /* \"#utility.yul\":1663:1802   */\n      swap1\n      pop\n        /* \"#utility.yul\":1390:1809   */\n      swap2\n      swap1\n      pop\n      jump\t// out\n    stop\n\n    sub_0: assembly {\n            /* \"Campaign.sol\":5087:6371  contract Wallet {... */\n          mstore(0x40, 0xa0)\n            /* \"Campaign.sol\":5190:5263  constructor(address payable creator) {... */\n          callvalue\n          dup1\n          iszero\n          tag_1\n          jumpi\n          0x00\n          dup1\n          revert\n        tag_1:\n          pop\n          mload(0x40)\n          sub(codesize, bytecodeSize)\n          dup1\n          bytecodeSize\n          dup4\n          codecopy\n          dup2\n          dup2\n          add\n          0x40\n          mstore\n          dup2\n          add\n          swap1\n          tag_2\n          swap2\n          swap1\n          tag_3\n          jump\t// in\n        tag_2:\n            /* \"Campaign.sol\":5248:5255  creator */\n          dup1\n            /* \"Campaign.sol\":5238:5255  manager = creator */\n          0xffffffffffffffffffffffffffffffffffffffff\n          and\n          0x80\n          dup2\n          0xffffffffffffffffffffffffffffffffffffffff\n          and\n          dup2\n          mstore\n          pop\n          pop\n            /* \"Campaign.sol\":5190:5263  constructor(address payable creator) {... */\n          pop\n            /* \"Campaign.sol\":5087:6371  contract Wallet {... */\n          jump(tag_6)\n            /* \"#utility.yul\":88:205   */\n        tag_8:\n            /* \"#utility.yul\":197:198   */\n          0x00\n            /* \"#utility.yul\":194:195   */\n          dup1\n            /* \"#utility.yul\":187:199   */\n          revert\n            /* \"#utility.yul\":334:460   */\n        tag_10:\n            /* \"#utility.yul\":371:378   */\n          0x00\n            /* \"#utility.yul\":411:453   */\n          0xffffffffffffffffffffffffffffffffffffffff\n            /* \"#utility.yul\":404:409   */\n          dup3\n            /* \"#utility.yul\":400:454   */\n          and\n            /* \"#utility.yul\":389:454   */\n          swap1\n          pop\n            /* \"#utility.yul\":334:460   */\n          swap2\n          swap1\n          pop\n          jump\t// out\n            /* \"#utility.yul\":466:570   */\n        tag_11:\n            /* \"#utility.yul\":511:518   */\n          0x00\n            /* \"#utility.yul\":540:564   */\n          tag_20\n            /* \"#utility.yul\":558:563   */\n          dup3\n            /* \"#utility.yul\":540:564   */\n          tag_10\n          jump\t// in\n        tag_20:\n            /* \"#utility.yul\":529:564   */\n          swap1\n          pop\n            /* \"#utility.yul\":466:570   */\n          swap2\n          swap1\n          pop\n          jump\t// out\n            /* \"#utility.yul\":576:714   */\n        tag_12:\n            /* \"#utility.yul\":657:689   */\n          tag_22\n            /* \"#utility.yul\":683:688   */\n          dup2\n            /* \"#utility.yul\":657:689   */\n          tag_11\n          jump\t// in\n        tag_22:\n            /* \"#utility.yul\":650:655   */\n          dup2\n            /* \"#utility.yul\":647:690   */\n          eq\n            /* \"#utility.yul\":637:708   */\n          tag_23\n          jumpi\n            /* \"#utility.yul\":704:705   */\n          0x00\n            /* \"#utility.yul\":701:702   */\n          dup1\n            /* \"#utility.yul\":694:706   */\n          revert\n            /* \"#utility.yul\":637:708   */\n        tag_23:\n            /* \"#utility.yul\":576:714   */\n          pop\n          jump\t// out\n            /* \"#utility.yul\":720:879   */\n        tag_13:\n            /* \"#utility.yul\":785:790   */\n          0x00\n            /* \"#utility.yul\":816:822   */\n          dup2\n            /* \"#utility.yul\":810:823   */\n          mload\n            /* \"#utility.yul\":801:823   */\n          swap1\n          pop\n            /* \"#utility.yul\":832:873   */\n          tag_25\n            /* \"#utility.yul\":867:872   */\n          dup2\n            /* \"#utility.yul\":832:873   */\n          tag_12\n          jump\t// in\n        tag_25:\n            /* \"#utility.yul\":720:879   */\n          swap3\n          swap2\n          pop\n          pop\n          jump\t// out\n            /* \"#utility.yul\":885:1252   */\n        tag_3:\n            /* \"#utility.yul\":963:969   */\n          0x00\n            /* \"#utility.yul\":1012:1014   */\n          0x20\n            /* \"#utility.yul\":1000:1009   */\n          dup3\n            /* \"#utility.yul\":991:998   */\n          dup5\n            /* \"#utility.yul\":987:1010   */\n          sub\n            /* \"#utility.yul\":983:1015   */\n          slt\n            /* \"#utility.yul\":980:1099   */\n          iszero\n          tag_27\n          jumpi\n            /* \"#utility.yul\":1018:1097   */\n          tag_28\n          tag_8\n          jump\t// in\n        tag_28:\n            /* \"#utility.yul\":980:1099   */\n        tag_27:\n            /* \"#utility.yul\":1138:1139   */\n          0x00\n            /* \"#utility.yul\":1163:1235   */\n          tag_29\n            /* \"#utility.yul\":1227:1234   */\n          dup5\n            /* \"#utility.yul\":1218:1224   */\n          dup3\n            /* \"#utility.yul\":1207:1216   */\n          dup6\n            /* \"#utility.yul\":1203:1225   */\n          add\n            /* \"#utility.yul\":1163:1235   */\n          tag_13\n          jump\t// in\n        tag_29:\n            /* \"#utility.yul\":1153:1235   */\n          swap2\n          pop\n            /* \"#utility.yul\":1109:1245   */\n          pop\n            /* \"#utility.yul\":885:1252   */\n          swap3\n          swap2\n          pop\n          pop\n          jump\t// out\n            /* \"Campaign.sol\":5087:6371  contract Wallet {... */\n        tag_6:\n          mload(0x80)\n          codecopy(0x00, dataOffset(sub_0), dataSize(sub_0))\n          0x00\n          assignImmutable(\"0xbdb1df70217a0fc8cb4e3e99b55cd6570d97174b517460cc0ed3d1a51a56d2b7\")\n          return(0x00, dataSize(sub_0))\n        stop\n\n        sub_0: assembly {\n                /* \"Campaign.sol\":5087:6371  contract Wallet {... */\n              mstore(0x40, 0x80)\n              callvalue\n              dup1\n              iszero\n              tag_1\n              jumpi\n              0x00\n              dup1\n              revert\n            tag_1:\n              pop\n              jumpi(tag_2, lt(calldatasize, 0x04))\n              shr(0xe0, calldataload(0x00))\n              dup1\n              0x27506f53\n              eq\n              tag_3\n              jumpi\n              dup1\n              0x2e7700f0\n              eq\n              tag_4\n              jumpi\n              dup1\n              0x481c6a75\n              eq\n              tag_5\n              jumpi\n              dup1\n              0xeb12da4a\n              eq\n              tag_6\n              jumpi\n            tag_2:\n              0x00\n              dup1\n              revert\n                /* \"Campaign.sol\":6111:6257  function getAllTransactions()... */\n            tag_3:\n              tag_7\n              tag_8\n              jump\t// in\n            tag_7:\n              mload(0x40)\n              tag_9\n              swap2\n              swap1\n              tag_10\n              jump\t// in\n            tag_9:\n              mload(0x40)\n              dup1\n              swap2\n              sub\n              swap1\n              return\n                /* \"Campaign.sol\":6265:6368  function getTransactionCount() public view returns (uint256) {... */\n            tag_4:\n              tag_11\n              tag_12\n              jump\t// in\n            tag_11:\n              mload(0x40)\n              tag_13\n              swap2\n              swap1\n              tag_14\n              jump\t// in\n            tag_13:\n              mload(0x40)\n              dup1\n              swap2\n              sub\n              swap1\n              return\n                /* \"Campaign.sol\":5110:5150  address payable public immutable manager */\n            tag_5:\n              tag_15\n              tag_16\n              jump\t// in\n            tag_15:\n              mload(0x40)\n              tag_17\n              swap2\n              swap1\n              tag_18\n              jump\t// in\n            tag_17:\n              mload(0x40)\n              dup1\n              swap2\n              sub\n              swap1\n              return\n                /* \"Campaign.sol\":5629:6103  function addToBlockchain(... */\n            tag_6:\n              tag_19\n              0x04\n              dup1\n              calldatasize\n              sub\n              dup2\n              add\n              swap1\n              tag_20\n              swap2\n              swap1\n              tag_21\n              jump\t// in\n            tag_20:\n              tag_22\n              jump\t// in\n            tag_19:\n              stop\n                /* \"Campaign.sol\":6111:6257  function getAllTransactions()... */\n            tag_8:\n                /* \"Campaign.sol\":6189:6212  TransferStruct[] memory */\n              0x60\n                /* \"Campaign.sol\":6237:6249  transactions */\n              0x01\n                /* \"Campaign.sol\":6230:6249  return transactions */\n              dup1\n              sload\n              dup1\n              0x20\n              mul\n              0x20\n              add\n              mload(0x40)\n              swap1\n              dup2\n              add\n              0x40\n              mstore\n              dup1\n              swap3\n              swap2\n              swap1\n              dup2\n              dup2\n              mstore\n              0x20\n              add\n              0x00\n              swap1\n            tag_24:\n              dup3\n              dup3\n              lt\n              iszero\n              tag_25\n              jumpi\n              dup4\n              dup3\n              swap1\n              0x00\n              mstore\n              keccak256(0x00, 0x20)\n              swap1\n              0x05\n              mul\n              add\n              mload(0x40)\n              dup1\n              0xa0\n              add\n              0x40\n              mstore\n              swap1\n              dup2\n              0x00\n              dup3\n              add\n              0x00\n              swap1\n              sload\n              swap1\n              0x0100\n              exp\n              swap1\n              div\n              0xffffffffffffffffffffffffffffffffffffffff\n              and\n              0xffffffffffffffffffffffffffffffffffffffff\n              and\n              0xffffffffffffffffffffffffffffffffffffffff\n              and\n              dup2\n              mstore\n              0x20\n              add\n              0x01\n              dup3\n              add\n              0x00\n              swap1\n              sload\n              swap1\n              0x0100\n              exp\n              swap1\n              div\n              0xffffffffffffffffffffffffffffffffffffffff\n              and\n              0xffffffffffffffffffffffffffffffffffffffff\n              and\n              0xffffffffffffffffffffffffffffffffffffffff\n              and\n              dup2\n              mstore\n              0x20\n              add\n              0x02\n              dup3\n              add\n              sload\n              dup2\n              mstore\n              0x20\n              add\n              0x03\n              dup3\n              add\n              dup1\n              sload\n              tag_27\n              swap1\n              tag_28\n              jump\t// in\n            tag_27:\n              dup1\n              0x1f\n              add\n              0x20\n              dup1\n              swap2\n              div\n              mul\n              0x20\n              add\n              mload(0x40)\n              swap1\n              dup2\n              add\n              0x40\n              mstore\n              dup1\n              swap3\n              swap2\n              swap1\n              dup2\n              dup2\n              mstore\n              0x20\n              add\n              dup3\n              dup1\n              sload\n              tag_29\n              swap1\n              tag_28\n              jump\t// in\n            tag_29:\n              dup1\n              iszero\n              tag_30\n              jumpi\n              dup1\n              0x1f\n              lt\n              tag_31\n              jumpi\n              0x0100\n              dup1\n              dup4\n              sload\n              div\n              mul\n              dup4\n              mstore\n              swap2\n              0x20\n              add\n              swap2\n              jump(tag_30)\n            tag_31:\n              dup3\n              add\n              swap2\n              swap1\n              0x00\n              mstore\n              keccak256(0x00, 0x20)\n              swap1\n            tag_32:\n              dup2\n              sload\n              dup2\n              mstore\n              swap1\n              0x01\n              add\n              swap1\n              0x20\n              add\n              dup1\n              dup4\n              gt\n              tag_32\n              jumpi\n              dup3\n              swap1\n              sub\n              0x1f\n              and\n              dup3\n              add\n              swap2\n            tag_30:\n              pop\n              pop\n              pop\n              pop\n              pop\n              dup2\n              mstore\n              0x20\n              add\n              0x04\n              dup3\n              add\n              sload\n              dup2\n              mstore\n              pop\n              pop\n              dup2\n              mstore\n              0x20\n              add\n              swap1\n              0x01\n              add\n              swap1\n              jump(tag_24)\n            tag_25:\n              pop\n              pop\n              pop\n              pop\n              swap1\n              pop\n                /* \"Campaign.sol\":6111:6257  function getAllTransactions()... */\n              swap1\n              jump\t// out\n                /* \"Campaign.sol\":6265:6368  function getTransactionCount() public view returns (uint256) {... */\n            tag_12:\n                /* \"Campaign.sol\":6317:6324  uint256 */\n              0x00\n                /* \"Campaign.sol\":6344:6360  transactionCount */\n              dup1\n              sload\n                /* \"Campaign.sol\":6337:6360  return transactionCount */\n              swap1\n              pop\n                /* \"Campaign.sol\":6265:6368  function getTransactionCount() public view returns (uint256) {... */\n              swap1\n              jump\t// out\n                /* \"Campaign.sol\":5110:5150  address payable public immutable manager */\n            tag_16:\n              immutable(\"0xbdb1df70217a0fc8cb4e3e99b55cd6570d97174b517460cc0ed3d1a51a56d2b7\")\n              dup2\n              jump\t// out\n                /* \"Campaign.sol\":5629:6103  function addToBlockchain(... */\n            tag_22:\n                /* \"Campaign.sol\":5788:5789  1 */\n              0x01\n                /* \"Campaign.sol\":5768:5784  transactionCount */\n              0x00\n              dup1\n                /* \"Campaign.sol\":5768:5789  transactionCount += 1 */\n              dup3\n              dup3\n              sload\n              tag_35\n              swap2\n              swap1\n              tag_36\n              jump\t// in\n            tag_35:\n              swap3\n              pop\n              pop\n              dup2\n              swap1\n              sstore\n              pop\n                /* \"Campaign.sol\":5800:5812  transactions */\n              0x01\n                /* \"Campaign.sol\":5832:6002  TransferStruct(... */\n              mload(0x40)\n              dup1\n              0xa0\n              add\n              0x40\n              mstore\n              dup1\n                /* \"Campaign.sol\":5865:5875  msg.sender */\n              caller\n                /* \"Campaign.sol\":5832:6002  TransferStruct(... */\n              0xffffffffffffffffffffffffffffffffffffffff\n              and\n              dup2\n              mstore\n              0x20\n              add\n                /* \"Campaign.sol\":5894:5902  receiver */\n              dup6\n                /* \"Campaign.sol\":5832:6002  TransferStruct(... */\n              0xffffffffffffffffffffffffffffffffffffffff\n              and\n              dup2\n              mstore\n              0x20\n              add\n                /* \"Campaign.sol\":5921:5927  amount */\n              dup5\n                /* \"Campaign.sol\":5832:6002  TransferStruct(... */\n              dup2\n              mstore\n              0x20\n              add\n                /* \"Campaign.sol\":5946:5953  message */\n              dup4\n                /* \"Campaign.sol\":5832:6002  TransferStruct(... */\n              dup2\n              mstore\n              0x20\n              add\n                /* \"Campaign.sol\":5972:5987  block.timestamp */\n              timestamp\n                /* \"Campaign.sol\":5832:6002  TransferStruct(... */\n              dup2\n              mstore\n              pop\n                /* \"Campaign.sol\":5800:6013  transactions.push(... */\n              swap1\n              dup1\n              0x01\n              dup2\n              sload\n              add\n              dup1\n              dup3\n              sstore\n              dup1\n              swap2\n              pop\n              pop\n              0x01\n              swap1\n              sub\n              swap1\n              0x00\n              mstore\n              keccak256(0x00, 0x20)\n              swap1\n              0x05\n              mul\n              add\n              0x00\n              swap1\n              swap2\n              swap1\n              swap2\n              swap1\n              swap2\n              pop\n              0x00\n              dup3\n              add\n              mload\n              dup2\n              0x00\n              add\n              exp(0x0100, 0x00)\n              dup2\n              sload\n              dup2\n              0xffffffffffffffffffffffffffffffffffffffff\n              mul\n              not\n              and\n              swap1\n              dup4\n              0xffffffffffffffffffffffffffffffffffffffff\n              and\n              mul\n              or\n              swap1\n              sstore\n              pop\n              0x20\n              dup3\n              add\n              mload\n              dup2\n              0x01\n              add\n              exp(0x0100, 0x00)\n              dup2\n              sload\n              dup2\n              0xffffffffffffffffffffffffffffffffffffffff\n              mul\n              not\n              and\n              swap1\n              dup4\n              0xffffffffffffffffffffffffffffffffffffffff\n              and\n              mul\n              or\n              swap1\n              sstore\n              pop\n              0x40\n              dup3\n              add\n              mload\n              dup2\n              0x02\n              add\n              sstore\n              0x60\n              dup3\n              add\n              mload\n              dup2\n              0x03\n              add\n              swap1\n              dup2\n              tag_38\n              swap2\n              swap1\n              tag_39\n              jump\t// in\n            tag_38:\n              pop\n              0x80\n              dup3\n              add\n              mload\n              dup2\n              0x04\n              add\n              sstore\n              pop\n              pop\n                /* \"Campaign.sol\":6031:6095  Transfer(msg.sender, receiver, amount, message, block.timestamp) */\n              0xc4b32d7ff75a51e487f3cbb5d3202f2efecca1f4c2b987e0039c1d3220b48a83\n                /* \"Campaign.sol\":6040:6050  msg.sender */\n              caller\n                /* \"Campaign.sol\":6052:6060  receiver */\n              dup5\n                /* \"Campaign.sol\":6062:6068  amount */\n              dup5\n                /* \"Campaign.sol\":6070:6077  message */\n              dup5\n                /* \"Campaign.sol\":6079:6094  block.timestamp */\n              timestamp\n                /* \"Campaign.sol\":6031:6095  Transfer(msg.sender, receiver, amount, message, block.timestamp) */\n              mload(0x40)\n              tag_40\n              swap6\n              swap5\n              swap4\n              swap3\n              swap2\n              swap1\n              tag_41\n              jump\t// in\n            tag_40:\n              mload(0x40)\n              dup1\n              swap2\n              sub\n              swap1\n              log1\n                /* \"Campaign.sol\":5629:6103  function addToBlockchain(... */\n              pop\n              pop\n              pop\n              jump\t// out\n                /* \"#utility.yul\":7:152   */\n            tag_42:\n                /* \"#utility.yul\":105:111   */\n              0x00\n                /* \"#utility.yul\":139:144   */\n              dup2\n                /* \"#utility.yul\":133:145   */\n              mload\n                /* \"#utility.yul\":123:145   */\n              swap1\n              pop\n                /* \"#utility.yul\":7:152   */\n              swap2\n              swap1\n              pop\n              jump\t// out\n                /* \"#utility.yul\":158:373   */\n            tag_43:\n                /* \"#utility.yul\":288:299   */\n              0x00\n                /* \"#utility.yul\":322:328   */\n              dup3\n                /* \"#utility.yul\":317:320   */\n              dup3\n                /* \"#utility.yul\":310:329   */\n              mstore\n                /* \"#utility.yul\":362:366   */\n              0x20\n                /* \"#utility.yul\":357:360   */\n              dup3\n                /* \"#utility.yul\":353:367   */\n              add\n                /* \"#utility.yul\":338:367   */\n              swap1\n              pop\n                /* \"#utility.yul\":158:373   */\n              swap3\n              swap2\n              pop\n              pop\n              jump\t// out\n                /* \"#utility.yul\":379:542   */\n            tag_44:\n                /* \"#utility.yul\":477:481   */\n              0x00\n                /* \"#utility.yul\":500:503   */\n              dup2\n                /* \"#utility.yul\":492:503   */\n              swap1\n              pop\n                /* \"#utility.yul\":530:534   */\n              0x20\n                /* \"#utility.yul\":525:528   */\n              dup3\n                /* \"#utility.yul\":521:535   */\n              add\n                /* \"#utility.yul\":513:535   */\n              swap1\n              pop\n                /* \"#utility.yul\":379:542   */\n              swap2\n              swap1\n              pop\n              jump\t// out\n                /* \"#utility.yul\":548:674   */\n            tag_45:\n                /* \"#utility.yul\":585:592   */\n              0x00\n                /* \"#utility.yul\":625:667   */\n              0xffffffffffffffffffffffffffffffffffffffff\n                /* \"#utility.yul\":618:623   */\n              dup3\n                /* \"#utility.yul\":614:668   */\n              and\n                /* \"#utility.yul\":603:668   */\n              swap1\n              pop\n                /* \"#utility.yul\":548:674   */\n              swap2\n              swap1\n              pop\n              jump\t// out\n                /* \"#utility.yul\":680:776   */\n            tag_46:\n                /* \"#utility.yul\":717:724   */\n              0x00\n                /* \"#utility.yul\":746:770   */\n              tag_108\n                /* \"#utility.yul\":764:769   */\n              dup3\n                /* \"#utility.yul\":746:770   */\n              tag_45\n              jump\t// in\n            tag_108:\n                /* \"#utility.yul\":735:770   */\n              swap1\n              pop\n                /* \"#utility.yul\":680:776   */\n              swap2\n              swap1\n              pop\n              jump\t// out\n                /* \"#utility.yul\":782:890   */\n            tag_47:\n                /* \"#utility.yul\":859:883   */\n              tag_110\n                /* \"#utility.yul\":877:882   */\n              dup2\n                /* \"#utility.yul\":859:883   */\n              tag_46\n              jump\t// in\n            tag_110:\n                /* \"#utility.yul\":854:857   */\n              dup3\n                /* \"#utility.yul\":847:884   */\n              mstore\n                /* \"#utility.yul\":782:890   */\n              pop\n              pop\n              jump\t// out\n                /* \"#utility.yul\":896:973   */\n            tag_48:\n                /* \"#utility.yul\":933:940   */\n              0x00\n                /* \"#utility.yul\":962:967   */\n              dup2\n                /* \"#utility.yul\":951:967   */\n              swap1\n              pop\n                /* \"#utility.yul\":896:973   */\n              swap2\n              swap1\n              pop\n              jump\t// out\n                /* \"#utility.yul\":979:1087   */\n            tag_49:\n                /* \"#utility.yul\":1056:1080   */\n              tag_113\n                /* \"#utility.yul\":1074:1079   */\n              dup2\n                /* \"#utility.yul\":1056:1080   */\n              tag_48\n              jump\t// in\n            tag_113:\n                /* \"#utility.yul\":1051:1054   */\n              dup3\n                /* \"#utility.yul\":1044:1081   */\n              mstore\n                /* \"#utility.yul\":979:1087   */\n              pop\n              pop\n              jump\t// out\n                /* \"#utility.yul\":1093:1192   */\n            tag_50:\n                /* \"#utility.yul\":1145:1151   */\n              0x00\n                /* \"#utility.yul\":1179:1184   */\n              dup2\n                /* \"#utility.yul\":1173:1185   */\n              mload\n                /* \"#utility.yul\":1163:1185   */\n              swap1\n              pop\n                /* \"#utility.yul\":1093:1192   */\n              swap2\n              swap1\n              pop\n              jump\t// out\n                /* \"#utility.yul\":1198:1357   */\n            tag_51:\n                /* \"#utility.yul\":1272:1283   */\n              0x00\n                /* \"#utility.yul\":1306:1312   */\n              dup3\n                /* \"#utility.yul\":1301:1304   */\n              dup3\n                /* \"#utility.yul\":1294:1313   */\n              mstore\n                /* \"#utility.yul\":1346:1350   */\n              0x20\n                /* \"#utility.yul\":1341:1344   */\n              dup3\n                /* \"#utility.yul\":1337:1351   */\n              add\n                /* \"#utility.yul\":1322:1351   */\n              swap1\n              pop\n                /* \"#utility.yul\":1198:1357   */\n              swap3\n              swap2\n              pop\n              pop\n              jump\t// out\n                /* \"#utility.yul\":1363:1609   */\n            tag_52:\n                /* \"#utility.yul\":1444:1445   */\n              0x00\n                /* \"#utility.yul\":1454:1567   */\n            tag_117:\n                /* \"#utility.yul\":1468:1474   */\n              dup4\n                /* \"#utility.yul\":1465:1466   */\n              dup2\n                /* \"#utility.yul\":1462:1475   */\n              lt\n                /* \"#utility.yul\":1454:1567   */\n              iszero\n              tag_119\n              jumpi\n                /* \"#utility.yul\":1553:1554   */\n              dup1\n                /* \"#utility.yul\":1548:1551   */\n              dup3\n                /* \"#utility.yul\":1544:1555   */\n              add\n                /* \"#utility.yul\":1538:1556   */\n              mload\n                /* \"#utility.yul\":1534:1535   */\n              dup2\n                /* \"#utility.yul\":1529:1532   */\n              dup5\n                /* \"#utility.yul\":1525:1536   */\n              add\n                /* \"#utility.yul\":1518:1557   */\n              mstore\n                /* \"#utility.yul\":1490:1492   */\n              0x20\n                /* \"#utility.yul\":1487:1488   */\n              dup2\n                /* \"#utility.yul\":1483:1493   */\n              add\n                /* \"#utility.yul\":1478:1493   */\n              swap1\n              pop\n                /* \"#utility.yul\":1454:1567   */\n              jump(tag_117)\n            tag_119:\n                /* \"#utility.yul\":1601:1602   */\n              0x00\n                /* \"#utility.yul\":1592:1598   */\n              dup5\n                /* \"#utility.yul\":1587:1590   */\n              dup5\n                /* \"#utility.yul\":1583:1599   */\n              add\n                /* \"#utility.yul\":1576:1603   */\n              mstore\n                /* \"#utility.yul\":1425:1609   */\n              pop\n                /* \"#utility.yul\":1363:1609   */\n              pop\n              pop\n              pop\n              jump\t// out\n                /* \"#utility.yul\":1615:1717   */\n            tag_53:\n                /* \"#utility.yul\":1656:1662   */\n              0x00\n                /* \"#utility.yul\":1707:1709   */\n              0x1f\n                /* \"#utility.yul\":1703:1710   */\n              not\n                /* \"#utility.yul\":1698:1700   */\n              0x1f\n                /* \"#utility.yul\":1691:1696   */\n              dup4\n                /* \"#utility.yul\":1687:1701   */\n              add\n                /* \"#utility.yul\":1683:1711   */\n              and\n                /* \"#utility.yul\":1673:1711   */\n              swap1\n              pop\n                /* \"#utility.yul\":1615:1717   */\n              swap2\n              swap1\n              pop\n              jump\t// out\n                /* \"#utility.yul\":1723:2080   */\n            tag_54:\n                /* \"#utility.yul\":1801:1804   */\n              0x00\n                /* \"#utility.yul\":1829:1868   */\n              tag_122\n                /* \"#utility.yul\":1862:1867   */\n              dup3\n                /* \"#utility.yul\":1829:1868   */\n              tag_50\n              jump\t// in\n            tag_122:\n                /* \"#utility.yul\":1884:1945   */\n              tag_123\n                /* \"#utility.yul\":1938:1944   */\n              dup2\n                /* \"#utility.yul\":1933:1936   */\n              dup6\n                /* \"#utility.yul\":1884:1945   */\n              tag_51\n              jump\t// in\n            tag_123:\n                /* \"#utility.yul\":1877:1945   */\n              swap4\n              pop\n                /* \"#utility.yul\":1954:2019   */\n              tag_124\n                /* \"#utility.yul\":2012:2018   */\n              dup2\n                /* \"#utility.yul\":2007:2010   */\n              dup6\n                /* \"#utility.yul\":2000:2004   */\n              0x20\n                /* \"#utility.yul\":1993:1998   */\n              dup7\n                /* \"#utility.yul\":1989:2005   */\n              add\n                /* \"#utility.yul\":1954:2019   */\n              tag_52\n              jump\t// in\n            tag_124:\n                /* \"#utility.yul\":2044:2073   */\n              tag_125\n                /* \"#utility.yul\":2066:2072   */\n              dup2\n                /* \"#utility.yul\":2044:2073   */\n              tag_53\n              jump\t// in\n            tag_125:\n                /* \"#utility.yul\":2039:2042   */\n              dup5\n                /* \"#utility.yul\":2035:2074   */\n              add\n                /* \"#utility.yul\":2028:2074   */\n              swap2\n              pop\n                /* \"#utility.yul\":1805:2080   */\n              pop\n                /* \"#utility.yul\":1723:2080   */\n              swap3\n              swap2\n              pop\n              pop\n              jump\t// out\n                /* \"#utility.yul\":2154:3300   */\n            tag_55:\n                /* \"#utility.yul\":2275:2278   */\n              0x00\n                /* \"#utility.yul\":2311:2315   */\n              0xa0\n                /* \"#utility.yul\":2306:2309   */\n              dup4\n                /* \"#utility.yul\":2302:2316   */\n              add\n                /* \"#utility.yul\":2400:2404   */\n              0x00\n                /* \"#utility.yul\":2393:2398   */\n              dup4\n                /* \"#utility.yul\":2389:2405   */\n              add\n                /* \"#utility.yul\":2383:2406   */\n              mload\n                /* \"#utility.yul\":2419:2482   */\n              tag_127\n                /* \"#utility.yul\":2476:2480   */\n              0x00\n                /* \"#utility.yul\":2471:2474   */\n              dup7\n                /* \"#utility.yul\":2467:2481   */\n              add\n                /* \"#utility.yul\":2453:2465   */\n              dup3\n                /* \"#utility.yul\":2419:2482   */\n              tag_47\n              jump\t// in\n            tag_127:\n                /* \"#utility.yul\":2326:2492   */\n              pop\n                /* \"#utility.yul\":2578:2582   */\n              0x20\n                /* \"#utility.yul\":2571:2576   */\n              dup4\n                /* \"#utility.yul\":2567:2583   */\n              add\n                /* \"#utility.yul\":2561:2584   */\n              mload\n                /* \"#utility.yul\":2597:2660   */\n              tag_128\n                /* \"#utility.yul\":2654:2658   */\n              0x20\n                /* \"#utility.yul\":2649:2652   */\n              dup7\n                /* \"#utility.yul\":2645:2659   */\n              add\n                /* \"#utility.yul\":2631:2643   */\n              dup3\n                /* \"#utility.yul\":2597:2660   */\n              tag_47\n              jump\t// in\n            tag_128:\n                /* \"#utility.yul\":2502:2670   */\n              pop\n                /* \"#utility.yul\":2754:2758   */\n              0x40\n                /* \"#utility.yul\":2747:2752   */\n              dup4\n                /* \"#utility.yul\":2743:2759   */\n              add\n                /* \"#utility.yul\":2737:2760   */\n              mload\n                /* \"#utility.yul\":2773:2836   */\n              tag_129\n                /* \"#utility.yul\":2830:2834   */\n              0x40\n                /* \"#utility.yul\":2825:2828   */\n              dup7\n                /* \"#utility.yul\":2821:2835   */\n              add\n                /* \"#utility.yul\":2807:2819   */\n              dup3\n                /* \"#utility.yul\":2773:2836   */\n              tag_49\n              jump\t// in\n            tag_129:\n                /* \"#utility.yul\":2680:2846   */\n              pop\n                /* \"#utility.yul\":2931:2935   */\n              0x60\n                /* \"#utility.yul\":2924:2929   */\n              dup4\n                /* \"#utility.yul\":2920:2936   */\n              add\n                /* \"#utility.yul\":2914:2937   */\n              mload\n                /* \"#utility.yul\":2984:2987   */\n              dup5\n                /* \"#utility.yul\":2978:2982   */\n              dup3\n                /* \"#utility.yul\":2974:2988   */\n              sub\n                /* \"#utility.yul\":2967:2971   */\n              0x60\n                /* \"#utility.yul\":2962:2965   */\n              dup7\n                /* \"#utility.yul\":2958:2972   */\n              add\n                /* \"#utility.yul\":2951:2989   */\n              mstore\n                /* \"#utility.yul\":3010:3083   */\n              tag_130\n                /* \"#utility.yul\":3078:3082   */\n              dup3\n                /* \"#utility.yul\":3064:3076   */\n              dup3\n                /* \"#utility.yul\":3010:3083   */\n              tag_54\n              jump\t// in\n            tag_130:\n                /* \"#utility.yul\":3002:3083   */\n              swap2\n              pop\n                /* \"#utility.yul\":2856:3094   */\n              pop\n                /* \"#utility.yul\":3181:3185   */\n              0x80\n                /* \"#utility.yul\":3174:3179   */\n              dup4\n                /* \"#utility.yul\":3170:3186   */\n              add\n                /* \"#utility.yul\":3164:3187   */\n              mload\n                /* \"#utility.yul\":3200:3263   */\n              tag_131\n                /* \"#utility.yul\":3257:3261   */\n              0x80\n                /* \"#utility.yul\":3252:3255   */\n              dup7\n                /* \"#utility.yul\":3248:3262   */\n              add\n                /* \"#utility.yul\":3234:3246   */\n              dup3\n                /* \"#utility.yul\":3200:3263   */\n              tag_49\n              jump\t// in\n            tag_131:\n                /* \"#utility.yul\":3104:3273   */\n              pop\n                /* \"#utility.yul\":3290:3294   */\n              dup1\n                /* \"#utility.yul\":3283:3294   */\n              swap2\n              pop\n                /* \"#utility.yul\":2280:3300   */\n              pop\n                /* \"#utility.yul\":2154:3300   */\n              swap3\n              swap2\n              pop\n              pop\n              jump\t// out\n                /* \"#utility.yul\":3306:3586   */\n            tag_56:\n                /* \"#utility.yul\":3437:3447   */\n              0x00\n                /* \"#utility.yul\":3472:3580   */\n              tag_133\n                /* \"#utility.yul\":3576:3579   */\n              dup4\n                /* \"#utility.yul\":3568:3574   */\n              dup4\n                /* \"#utility.yul\":3472:3580   */\n              tag_55\n              jump\t// in\n            tag_133:\n                /* \"#utility.yul\":3458:3580   */\n              swap1\n              pop\n                /* \"#utility.yul\":3306:3586   */\n              swap3\n              swap2\n              pop\n              pop\n              jump\t// out\n                /* \"#utility.yul\":3592:3736   */\n            tag_57:\n                /* \"#utility.yul\":3693:3697   */\n              0x00\n                /* \"#utility.yul\":3725:3729   */\n              0x20\n                /* \"#utility.yul\":3720:3723   */\n              dup3\n                /* \"#utility.yul\":3716:3730   */\n              add\n                /* \"#utility.yul\":3708:3730   */\n              swap1\n              pop\n                /* \"#utility.yul\":3592:3736   */\n              swap2\n              swap1\n              pop\n              jump\t// out\n                /* \"#utility.yul\":3814:4973   */\n            tag_58:\n                /* \"#utility.yul\":3995:3998   */\n              0x00\n                /* \"#utility.yul\":4024:4109   */\n              tag_136\n                /* \"#utility.yul\":4103:4108   */\n              dup3\n                /* \"#utility.yul\":4024:4109   */\n              tag_42\n              jump\t// in\n            tag_136:\n                /* \"#utility.yul\":4125:4242   */\n              tag_137\n                /* \"#utility.yul\":4235:4241   */\n              dup2\n                /* \"#utility.yul\":4230:4233   */\n              dup6\n                /* \"#utility.yul\":4125:4242   */\n              tag_43\n              jump\t// in\n            tag_137:\n                /* \"#utility.yul\":4118:4242   */\n              swap4\n              pop\n                /* \"#utility.yul\":4268:4271   */\n              dup4\n                /* \"#utility.yul\":4313:4317   */\n              0x20\n                /* \"#utility.yul\":4305:4311   */\n              dup3\n                /* \"#utility.yul\":4301:4318   */\n              mul\n                /* \"#utility.yul\":4296:4299   */\n              dup6\n                /* \"#utility.yul\":4292:4319   */\n              add\n                /* \"#utility.yul\":4343:4430   */\n              tag_138\n                /* \"#utility.yul\":4424:4429   */\n              dup6\n                /* \"#utility.yul\":4343:4430   */\n              tag_44\n              jump\t// in\n            tag_138:\n                /* \"#utility.yul\":4453:4460   */\n              dup1\n                /* \"#utility.yul\":4484:4485   */\n              0x00\n                /* \"#utility.yul\":4469:4928   */\n            tag_139:\n                /* \"#utility.yul\":4494:4500   */\n              dup6\n                /* \"#utility.yul\":4491:4492   */\n              dup2\n                /* \"#utility.yul\":4488:4501   */\n              lt\n                /* \"#utility.yul\":4469:4928   */\n              iszero\n              tag_141\n              jumpi\n                /* \"#utility.yul\":4565:4574   */\n              dup5\n                /* \"#utility.yul\":4559:4563   */\n              dup5\n                /* \"#utility.yul\":4555:4575   */\n              sub\n                /* \"#utility.yul\":4550:4553   */\n              dup10\n                /* \"#utility.yul\":4543:4576   */\n              mstore\n                /* \"#utility.yul\":4616:4622   */\n              dup2\n                /* \"#utility.yul\":4610:4623   */\n              mload\n                /* \"#utility.yul\":4644:4770   */\n              tag_142\n                /* \"#utility.yul\":4765:4769   */\n              dup6\n                /* \"#utility.yul\":4750:4763   */\n              dup3\n                /* \"#utility.yul\":4644:4770   */\n              tag_56\n              jump\t// in\n            tag_142:\n                /* \"#utility.yul\":4636:4770   */\n              swap5\n              pop\n                /* \"#utility.yul\":4793:4884   */\n              tag_143\n                /* \"#utility.yul\":4877:4883   */\n              dup4\n                /* \"#utility.yul\":4793:4884   */\n              tag_57\n              jump\t// in\n            tag_143:\n                /* \"#utility.yul\":4783:4884   */\n              swap3\n              pop\n                /* \"#utility.yul\":4913:4917   */\n              0x20\n                /* \"#utility.yul\":4908:4911   */\n              dup11\n                /* \"#utility.yul\":4904:4918   */\n              add\n                /* \"#utility.yul\":4897:4918   */\n              swap10\n              pop\n                /* \"#utility.yul\":4529:4928   */\n              pop\n                /* \"#utility.yul\":4516:4517   */\n              0x01\n                /* \"#utility.yul\":4513:4514   */\n              dup2\n                /* \"#utility.yul\":4509:4518   */\n              add\n                /* \"#utility.yul\":4504:4518   */\n              swap1\n              pop\n                /* \"#utility.yul\":4469:4928   */\n              jump(tag_139)\n            tag_141:\n                /* \"#utility.yul\":4473:4487   */\n              pop\n                /* \"#utility.yul\":4944:4948   */\n              dup3\n                /* \"#utility.yul\":4937:4948   */\n              swap8\n              pop\n                /* \"#utility.yul\":4964:4967   */\n              dup8\n                /* \"#utility.yul\":4957:4967   */\n              swap6\n              pop\n                /* \"#utility.yul\":4000:4973   */\n              pop\n              pop\n              pop\n              pop\n              pop\n                /* \"#utility.yul\":3814:4973   */\n              swap3\n              swap2\n              pop\n              pop\n              jump\t// out\n                /* \"#utility.yul\":4979:5476   */\n            tag_10:\n                /* \"#utility.yul\":5184:5188   */\n              0x00\n                /* \"#utility.yul\":5222:5224   */\n              0x20\n                /* \"#utility.yul\":5211:5220   */\n              dup3\n                /* \"#utility.yul\":5207:5225   */\n              add\n                /* \"#utility.yul\":5199:5225   */\n              swap1\n              pop\n                /* \"#utility.yul\":5271:5280   */\n              dup2\n                /* \"#utility.yul\":5265:5269   */\n              dup2\n                /* \"#utility.yul\":5261:5281   */\n              sub\n                /* \"#utility.yul\":5257:5258   */\n              0x00\n                /* \"#utility.yul\":5246:5255   */\n              dup4\n                /* \"#utility.yul\":5242:5259   */\n              add\n                /* \"#utility.yul\":5235:5282   */\n              mstore\n                /* \"#utility.yul\":5299:5469   */\n              tag_145\n                /* \"#utility.yul\":5464:5468   */\n              dup2\n                /* \"#utility.yul\":5455:5461   */\n              dup5\n                /* \"#utility.yul\":5299:5469   */\n              tag_58\n              jump\t// in\n            tag_145:\n                /* \"#utility.yul\":5291:5469   */\n              swap1\n              pop\n                /* \"#utility.yul\":4979:5476   */\n              swap3\n              swap2\n              pop\n              pop\n              jump\t// out\n                /* \"#utility.yul\":5482:5600   */\n            tag_59:\n                /* \"#utility.yul\":5569:5593   */\n              tag_147\n                /* \"#utility.yul\":5587:5592   */\n              dup2\n                /* \"#utility.yul\":5569:5593   */\n              tag_48\n              jump\t// in\n            tag_147:\n                /* \"#utility.yul\":5564:5567   */\n              dup3\n                /* \"#utility.yul\":5557:5594   */\n              mstore\n                /* \"#utility.yul\":5482:5600   */\n              pop\n              pop\n              jump\t// out\n                /* \"#utility.yul\":5606:5828   */\n            tag_14:\n                /* \"#utility.yul\":5699:5703   */\n              0x00\n                /* \"#utility.yul\":5737:5739   */\n              0x20\n                /* \"#utility.yul\":5726:5735   */\n              dup3\n                /* \"#utility.yul\":5722:5740   */\n              add\n                /* \"#utility.yul\":5714:5740   */\n              swap1\n              pop\n                /* \"#utility.yul\":5750:5821   */\n              tag_149\n                /* \"#utility.yul\":5818:5819   */\n              0x00\n                /* \"#utility.yul\":5807:5816   */\n              dup4\n                /* \"#utility.yul\":5803:5820   */\n              add\n                /* \"#utility.yul\":5794:5800   */\n              dup5\n                /* \"#utility.yul\":5750:5821   */\n              tag_59\n              jump\t// in\n            tag_149:\n                /* \"#utility.yul\":5606:5828   */\n              swap3\n              swap2\n              pop\n              pop\n              jump\t// out\n                /* \"#utility.yul\":5834:5938   */\n            tag_60:\n                /* \"#utility.yul\":5879:5886   */\n              0x00\n                /* \"#utility.yul\":5908:5932   */\n              tag_151\n                /* \"#utility.yul\":5926:5931   */\n              dup3\n                /* \"#utility.yul\":5908:5932   */\n              tag_45\n              jump\t// in\n            tag_151:\n                /* \"#utility.yul\":5897:5932   */\n              swap1\n              pop\n                /* \"#utility.yul\":5834:5938   */\n              swap2\n              swap1\n              pop\n              jump\t// out\n                /* \"#utility.yul\":5944:6086   */\n            tag_61:\n                /* \"#utility.yul\":6047:6079   */\n              tag_153\n                /* \"#utility.yul\":6073:6078   */\n              dup2\n                /* \"#utility.yul\":6047:6079   */\n              tag_60\n              jump\t// in\n            tag_153:\n                /* \"#utility.yul\":6042:6045   */\n              dup3\n                /* \"#utility.yul\":6035:6080   */\n              mstore\n                /* \"#utility.yul\":5944:6086   */\n              pop\n              pop\n              jump\t// out\n                /* \"#utility.yul\":6092:6346   */\n            tag_18:\n                /* \"#utility.yul\":6201:6205   */\n              0x00\n                /* \"#utility.yul\":6239:6241   */\n              0x20\n                /* \"#utility.yul\":6228:6237   */\n              dup3\n                /* \"#utility.yul\":6224:6242   */\n              add\n                /* \"#utility.yul\":6216:6242   */\n              swap1\n              pop\n                /* \"#utility.yul\":6252:6339   */\n              tag_155\n                /* \"#utility.yul\":6336:6337   */\n              0x00\n                /* \"#utility.yul\":6325:6334   */\n              dup4\n                /* \"#utility.yul\":6321:6338   */\n              add\n                /* \"#utility.yul\":6312:6318   */\n              dup5\n                /* \"#utility.yul\":6252:6339   */\n              tag_61\n              jump\t// in\n            tag_155:\n                /* \"#utility.yul\":6092:6346   */\n              swap3\n              swap2\n              pop\n              pop\n              jump\t// out\n                /* \"#utility.yul\":6352:6427   */\n            tag_62:\n                /* \"#utility.yul\":6385:6391   */\n              0x00\n                /* \"#utility.yul\":6418:6420   */\n              0x40\n                /* \"#utility.yul\":6412:6421   */\n              mload\n                /* \"#utility.yul\":6402:6421   */\n              swap1\n              pop\n                /* \"#utility.yul\":6352:6427   */\n              swap1\n              jump\t// out\n                /* \"#utility.yul\":6433:6550   */\n            tag_63:\n                /* \"#utility.yul\":6542:6543   */\n              0x00\n                /* \"#utility.yul\":6539:6540   */\n              dup1\n                /* \"#utility.yul\":6532:6544   */\n              revert\n                /* \"#utility.yul\":6556:6673   */\n            tag_64:\n                /* \"#utility.yul\":6665:6666   */\n              0x00\n                /* \"#utility.yul\":6662:6663   */\n              dup1\n                /* \"#utility.yul\":6655:6667   */\n              revert\n                /* \"#utility.yul\":6679:6817   */\n            tag_65:\n                /* \"#utility.yul\":6760:6792   */\n              tag_160\n                /* \"#utility.yul\":6786:6791   */\n              dup2\n                /* \"#utility.yul\":6760:6792   */\n              tag_60\n              jump\t// in\n            tag_160:\n                /* \"#utility.yul\":6753:6758   */\n              dup2\n                /* \"#utility.yul\":6750:6793   */\n              eq\n                /* \"#utility.yul\":6740:6811   */\n              tag_161\n              jumpi\n                /* \"#utility.yul\":6807:6808   */\n              0x00\n                /* \"#utility.yul\":6804:6805   */\n              dup1\n                /* \"#utility.yul\":6797:6809   */\n              revert\n                /* \"#utility.yul\":6740:6811   */\n            tag_161:\n                /* \"#utility.yul\":6679:6817   */\n              pop\n              jump\t// out\n                /* \"#utility.yul\":6823:6978   */\n            tag_66:\n                /* \"#utility.yul\":6877:6882   */\n              0x00\n                /* \"#utility.yul\":6915:6921   */\n              dup2\n                /* \"#utility.yul\":6902:6922   */\n              calldataload\n                /* \"#utility.yul\":6893:6922   */\n              swap1\n              pop\n                /* \"#utility.yul\":6931:6972   */\n              tag_163\n                /* \"#utility.yul\":6966:6971   */\n              dup2\n                /* \"#utility.yul\":6931:6972   */\n              tag_65\n              jump\t// in\n            tag_163:\n                /* \"#utility.yul\":6823:6978   */\n              swap3\n              swap2\n              pop\n              pop\n              jump\t// out\n                /* \"#utility.yul\":6984:7106   */\n            tag_67:\n                /* \"#utility.yul\":7057:7081   */\n              tag_165\n                /* \"#utility.yul\":7075:7080   */\n              dup2\n                /* \"#utility.yul\":7057:7081   */\n              tag_48\n              jump\t// in\n            tag_165:\n                /* \"#utility.yul\":7050:7055   */\n              dup2\n                /* \"#utility.yul\":7047:7082   */\n              eq\n                /* \"#utility.yul\":7037:7100   */\n              tag_166\n              jumpi\n                /* \"#utility.yul\":7096:7097   */\n              0x00\n                /* \"#utility.yul\":7093:7094   */\n              dup1\n                /* \"#utility.yul\":7086:7098   */\n              revert\n                /* \"#utility.yul\":7037:7100   */\n            tag_166:\n                /* \"#utility.yul\":6984:7106   */\n              pop\n              jump\t// out\n                /* \"#utility.yul\":7112:7251   */\n            tag_68:\n                /* \"#utility.yul\":7158:7163   */\n              0x00\n                /* \"#utility.yul\":7196:7202   */\n              dup2\n                /* \"#utility.yul\":7183:7203   */\n              calldataload\n                /* \"#utility.yul\":7174:7203   */\n              swap1\n              pop\n                /* \"#utility.yul\":7212:7245   */\n              tag_168\n                /* \"#utility.yul\":7239:7244   */\n              dup2\n                /* \"#utility.yul\":7212:7245   */\n              tag_67\n              jump\t// in\n            tag_168:\n                /* \"#utility.yul\":7112:7251   */\n              swap3\n              swap2\n              pop\n              pop\n              jump\t// out\n                /* \"#utility.yul\":7257:7374   */\n            tag_69:\n                /* \"#utility.yul\":7366:7367   */\n              0x00\n                /* \"#utility.yul\":7363:7364   */\n              dup1\n                /* \"#utility.yul\":7356:7368   */\n              revert\n                /* \"#utility.yul\":7380:7497   */\n            tag_70:\n                /* \"#utility.yul\":7489:7490   */\n              0x00\n                /* \"#utility.yul\":7486:7487   */\n              dup1\n                /* \"#utility.yul\":7479:7491   */\n              revert\n                /* \"#utility.yul\":7503:7683   */\n            tag_71:\n                /* \"#utility.yul\":7551:7628   */\n              0x4e487b7100000000000000000000000000000000000000000000000000000000\n                /* \"#utility.yul\":7548:7549   */\n              0x00\n                /* \"#utility.yul\":7541:7629   */\n              mstore\n                /* \"#utility.yul\":7648:7652   */\n              0x41\n                /* \"#utility.yul\":7645:7646   */\n              0x04\n                /* \"#utility.yul\":7638:7653   */\n              mstore\n                /* \"#utility.yul\":7672:7676   */\n              0x24\n                /* \"#utility.yul\":7669:7670   */\n              0x00\n                /* \"#utility.yul\":7662:7677   */\n              revert\n                /* \"#utility.yul\":7689:7970   */\n            tag_72:\n                /* \"#utility.yul\":7772:7799   */\n              tag_173\n                /* \"#utility.yul\":7794:7798   */\n              dup3\n                /* \"#utility.yul\":7772:7799   */\n              tag_53\n              jump\t// in\n            tag_173:\n                /* \"#utility.yul\":7764:7770   */\n              dup2\n                /* \"#utility.yul\":7760:7800   */\n              add\n                /* \"#utility.yul\":7902:7908   */\n              dup2\n                /* \"#utility.yul\":7890:7900   */\n              dup2\n                /* \"#utility.yul\":7887:7909   */\n              lt\n                /* \"#utility.yul\":7866:7884   */\n              0xffffffffffffffff\n                /* \"#utility.yul\":7854:7864   */\n              dup3\n                /* \"#utility.yul\":7851:7885   */\n              gt\n                /* \"#utility.yul\":7848:7910   */\n              or\n                /* \"#utility.yul\":7845:7933   */\n              iszero\n              tag_174\n              jumpi\n                /* \"#utility.yul\":7913:7931   */\n              tag_175\n              tag_71\n              jump\t// in\n            tag_175:\n                /* \"#utility.yul\":7845:7933   */\n            tag_174:\n                /* \"#utility.yul\":7953:7963   */\n              dup1\n                /* \"#utility.yul\":7949:7951   */\n              0x40\n                /* \"#utility.yul\":7942:7964   */\n              mstore\n                /* \"#utility.yul\":7732:7970   */\n              pop\n                /* \"#utility.yul\":7689:7970   */\n              pop\n              pop\n              jump\t// out\n                /* \"#utility.yul\":7976:8105   */\n            tag_73:\n                /* \"#utility.yul\":8010:8016   */\n              0x00\n                /* \"#utility.yul\":8037:8057   */\n              tag_177\n              tag_62\n              jump\t// in\n            tag_177:\n                /* \"#utility.yul\":8027:8057   */\n              swap1\n              pop\n                /* \"#utility.yul\":8066:8099   */\n              tag_178\n                /* \"#utility.yul\":8094:8098   */\n              dup3\n                /* \"#utility.yul\":8086:8092   */\n              dup3\n                /* \"#utility.yul\":8066:8099   */\n              tag_72\n              jump\t// in\n            tag_178:\n                /* \"#utility.yul\":7976:8105   */\n              swap2\n              swap1\n              pop\n              jump\t// out\n                /* \"#utility.yul\":8111:8419   */\n            tag_74:\n                /* \"#utility.yul\":8173:8177   */\n              0x00\n                /* \"#utility.yul\":8263:8281   */\n              0xffffffffffffffff\n                /* \"#utility.yul\":8255:8261   */\n              dup3\n                /* \"#utility.yul\":8252:8282   */\n              gt\n                /* \"#utility.yul\":8249:8305   */\n              iszero\n              tag_180\n              jumpi\n                /* \"#utility.yul\":8285:8303   */\n              tag_181\n              tag_71\n              jump\t// in\n            tag_181:\n                /* \"#utility.yul\":8249:8305   */\n            tag_180:\n                /* \"#utility.yul\":8323:8352   */\n              tag_182\n                /* \"#utility.yul\":8345:8351   */\n              dup3\n                /* \"#utility.yul\":8323:8352   */\n              tag_53\n              jump\t// in\n            tag_182:\n                /* \"#utility.yul\":8315:8352   */\n              swap1\n              pop\n                /* \"#utility.yul\":8407:8411   */\n              0x20\n                /* \"#utility.yul\":8401:8405   */\n              dup2\n                /* \"#utility.yul\":8397:8412   */\n              add\n                /* \"#utility.yul\":8389:8412   */\n              swap1\n              pop\n                /* \"#utility.yul\":8111:8419   */\n              swap2\n              swap1\n              pop\n              jump\t// out\n                /* \"#utility.yul\":8425:8571   */\n            tag_75:\n                /* \"#utility.yul\":8522:8528   */\n              dup3\n                /* \"#utility.yul\":8517:8520   */\n              dup2\n                /* \"#utility.yul\":8512:8515   */\n              dup4\n                /* \"#utility.yul\":8499:8529   */\n              calldatacopy\n                /* \"#utility.yul\":8563:8564   */\n              0x00\n                /* \"#utility.yul\":8554:8560   */\n              dup4\n                /* \"#utility.yul\":8549:8552   */\n              dup4\n                /* \"#utility.yul\":8545:8561   */\n              add\n                /* \"#utility.yul\":8538:8565   */\n              mstore\n                /* \"#utility.yul\":8425:8571   */\n              pop\n              pop\n              pop\n              jump\t// out\n                /* \"#utility.yul\":8577:9002   */\n            tag_76:\n                /* \"#utility.yul\":8655:8660   */\n              0x00\n                /* \"#utility.yul\":8680:8746   */\n              tag_185\n                /* \"#utility.yul\":8696:8745   */\n              tag_186\n                /* \"#utility.yul\":8738:8744   */\n              dup5\n                /* \"#utility.yul\":8696:8745   */\n              tag_74\n              jump\t// in\n            tag_186:\n                /* \"#utility.yul\":8680:8746   */\n              tag_73\n              jump\t// in\n            tag_185:\n                /* \"#utility.yul\":8671:8746   */\n              swap1\n              pop\n                /* \"#utility.yul\":8769:8775   */\n              dup3\n                /* \"#utility.yul\":8762:8767   */\n              dup2\n                /* \"#utility.yul\":8755:8776   */\n              mstore\n                /* \"#utility.yul\":8807:8811   */\n              0x20\n                /* \"#utility.yul\":8800:8805   */\n              dup2\n                /* \"#utility.yul\":8796:8812   */\n              add\n                /* \"#utility.yul\":8845:8848   */\n              dup5\n                /* \"#utility.yul\":8836:8842   */\n              dup5\n                /* \"#utility.yul\":8831:8834   */\n              dup5\n                /* \"#utility.yul\":8827:8843   */\n              add\n                /* \"#utility.yul\":8824:8849   */\n              gt\n                /* \"#utility.yul\":8821:8933   */\n              iszero\n              tag_187\n              jumpi\n                /* \"#utility.yul\":8852:8931   */\n              tag_188\n              tag_70\n              jump\t// in\n            tag_188:\n                /* \"#utility.yul\":8821:8933   */\n            tag_187:\n                /* \"#utility.yul\":8942:8996   */\n              tag_189\n                /* \"#utility.yul\":8989:8995   */\n              dup5\n                /* \"#utility.yul\":8984:8987   */\n              dup3\n                /* \"#utility.yul\":8979:8982   */\n              dup6\n                /* \"#utility.yul\":8942:8996   */\n              tag_75\n              jump\t// in\n            tag_189:\n                /* \"#utility.yul\":8661:9002   */\n              pop\n                /* \"#utility.yul\":8577:9002   */\n              swap4\n              swap3\n              pop\n              pop\n              pop\n              jump\t// out\n                /* \"#utility.yul\":9022:9362   */\n            tag_77:\n                /* \"#utility.yul\":9078:9083   */\n              0x00\n                /* \"#utility.yul\":9127:9130   */\n              dup3\n                /* \"#utility.yul\":9120:9124   */\n              0x1f\n                /* \"#utility.yul\":9112:9118   */\n              dup4\n                /* \"#utility.yul\":9108:9125   */\n              add\n                /* \"#utility.yul\":9104:9131   */\n              slt\n                /* \"#utility.yul\":9094:9216   */\n              tag_191\n              jumpi\n                /* \"#utility.yul\":9135:9214   */\n              tag_192\n              tag_69\n              jump\t// in\n            tag_192:\n                /* \"#utility.yul\":9094:9216   */\n            tag_191:\n                /* \"#utility.yul\":9252:9258   */\n              dup2\n                /* \"#utility.yul\":9239:9259   */\n              calldataload\n                /* \"#utility.yul\":9277:9356   */\n              tag_193\n                /* \"#utility.yul\":9352:9355   */\n              dup5\n                /* \"#utility.yul\":9344:9350   */\n              dup3\n                /* \"#utility.yul\":9337:9341   */\n              0x20\n                /* \"#utility.yul\":9329:9335   */\n              dup7\n                /* \"#utility.yul\":9325:9342   */\n              add\n                /* \"#utility.yul\":9277:9356   */\n              tag_76\n              jump\t// in\n            tag_193:\n                /* \"#utility.yul\":9268:9356   */\n              swap2\n              pop\n                /* \"#utility.yul\":9084:9362   */\n              pop\n                /* \"#utility.yul\":9022:9362   */\n              swap3\n              swap2\n              pop\n              pop\n              jump\t// out\n                /* \"#utility.yul\":9368:10183   */\n            tag_21:\n                /* \"#utility.yul\":9463:9469   */\n              0x00\n                /* \"#utility.yul\":9471:9477   */\n              dup1\n                /* \"#utility.yul\":9479:9485   */\n              0x00\n                /* \"#utility.yul\":9528:9530   */\n              0x60\n                /* \"#utility.yul\":9516:9525   */\n              dup5\n                /* \"#utility.yul\":9507:9514   */\n              dup7\n                /* \"#utility.yul\":9503:9526   */\n              sub\n                /* \"#utility.yul\":9499:9531   */\n              slt\n                /* \"#utility.yul\":9496:9615   */\n              iszero\n              tag_195\n              jumpi\n                /* \"#utility.yul\":9534:9613   */\n              tag_196\n              tag_63\n              jump\t// in\n            tag_196:\n                /* \"#utility.yul\":9496:9615   */\n            tag_195:\n                /* \"#utility.yul\":9654:9655   */\n              0x00\n                /* \"#utility.yul\":9679:9740   */\n              tag_197\n                /* \"#utility.yul\":9732:9739   */\n              dup7\n                /* \"#utility.yul\":9723:9729   */\n              dup3\n                /* \"#utility.yul\":9712:9721   */\n              dup8\n                /* \"#utility.yul\":9708:9730   */\n              add\n                /* \"#utility.yul\":9679:9740   */\n              tag_66\n              jump\t// in\n            tag_197:\n                /* \"#utility.yul\":9669:9740   */\n              swap4\n              pop\n                /* \"#utility.yul\":9625:9750   */\n              pop\n                /* \"#utility.yul\":9789:9791   */\n              0x20\n                /* \"#utility.yul\":9815:9868   */\n              tag_198\n                /* \"#utility.yul\":9860:9867   */\n              dup7\n                /* \"#utility.yul\":9851:9857   */\n              dup3\n                /* \"#utility.yul\":9840:9849   */\n              dup8\n                /* \"#utility.yul\":9836:9858   */\n              add\n                /* \"#utility.yul\":9815:9868   */\n              tag_68\n              jump\t// in\n            tag_198:\n                /* \"#utility.yul\":9805:9868   */\n              swap3\n              pop\n                /* \"#utility.yul\":9760:9878   */\n              pop\n                /* \"#utility.yul\":9945:9947   */\n              0x40\n                /* \"#utility.yul\":9934:9943   */\n              dup5\n                /* \"#utility.yul\":9930:9948   */\n              add\n                /* \"#utility.yul\":9917:9949   */\n              calldataload\n                /* \"#utility.yul\":9976:9994   */\n              0xffffffffffffffff\n                /* \"#utility.yul\":9968:9974   */\n              dup2\n                /* \"#utility.yul\":9965:9995   */\n              gt\n                /* \"#utility.yul\":9962:10079   */\n              iszero\n              tag_199\n              jumpi\n                /* \"#utility.yul\":9998:10077   */\n              tag_200\n              tag_64\n              jump\t// in\n            tag_200:\n                /* \"#utility.yul\":9962:10079   */\n            tag_199:\n                /* \"#utility.yul\":10103:10166   */\n              tag_201\n                /* \"#utility.yul\":10158:10165   */\n              dup7\n                /* \"#utility.yul\":10149:10155   */\n              dup3\n                /* \"#utility.yul\":10138:10147   */\n              dup8\n                /* \"#utility.yul\":10134:10156   */\n              add\n                /* \"#utility.yul\":10103:10166   */\n              tag_77\n              jump\t// in\n            tag_201:\n                /* \"#utility.yul\":10093:10166   */\n              swap2\n              pop\n                /* \"#utility.yul\":9888:10176   */\n              pop\n                /* \"#utility.yul\":9368:10183   */\n              swap3\n              pop\n              swap3\n              pop\n              swap3\n              jump\t// out\n                /* \"#utility.yul\":10189:10369   */\n            tag_78:\n                /* \"#utility.yul\":10237:10314   */\n              0x4e487b7100000000000000000000000000000000000000000000000000000000\n                /* \"#utility.yul\":10234:10235   */\n              0x00\n                /* \"#utility.yul\":10227:10315   */\n              mstore\n                /* \"#utility.yul\":10334:10338   */\n              0x22\n                /* \"#utility.yul\":10331:10332   */\n              0x04\n                /* \"#utility.yul\":10324:10339   */\n              mstore\n                /* \"#utility.yul\":10358:10362   */\n              0x24\n                /* \"#utility.yul\":10355:10356   */\n              0x00\n                /* \"#utility.yul\":10348:10363   */\n              revert\n                /* \"#utility.yul\":10375:10695   */\n            tag_28:\n                /* \"#utility.yul\":10419:10425   */\n              0x00\n                /* \"#utility.yul\":10456:10457   */\n              0x02\n                /* \"#utility.yul\":10450:10454   */\n              dup3\n                /* \"#utility.yul\":10446:10458   */\n              div\n                /* \"#utility.yul\":10436:10458   */\n              swap1\n              pop\n                /* \"#utility.yul\":10503:10504   */\n              0x01\n                /* \"#utility.yul\":10497:10501   */\n              dup3\n                /* \"#utility.yul\":10493:10505   */\n              and\n                /* \"#utility.yul\":10524:10542   */\n              dup1\n                /* \"#utility.yul\":10514:10595   */\n              tag_204\n              jumpi\n                /* \"#utility.yul\":10580:10584   */\n              0x7f\n                /* \"#utility.yul\":10572:10578   */\n              dup3\n                /* \"#utility.yul\":10568:10585   */\n              and\n                /* \"#utility.yul\":10558:10585   */\n              swap2\n              pop\n                /* \"#utility.yul\":10514:10595   */\n            tag_204:\n                /* \"#utility.yul\":10642:10644   */\n              0x20\n                /* \"#utility.yul\":10634:10640   */\n              dup3\n                /* \"#utility.yul\":10631:10645   */\n              lt\n                /* \"#utility.yul\":10611:10629   */\n              dup2\n                /* \"#utility.yul\":10608:10646   */\n              sub\n                /* \"#utility.yul\":10605:10689   */\n              tag_205\n              jumpi\n                /* \"#utility.yul\":10661:10679   */\n              tag_206\n              tag_78\n              jump\t// in\n            tag_206:\n                /* \"#utility.yul\":10605:10689   */\n            tag_205:\n                /* \"#utility.yul\":10426:10695   */\n              pop\n                /* \"#utility.yul\":10375:10695   */\n              swap2\n              swap1\n              pop\n              jump\t// out\n                /* \"#utility.yul\":10701:10881   */\n            tag_79:\n                /* \"#utility.yul\":10749:10826   */\n              0x4e487b7100000000000000000000000000000000000000000000000000000000\n                /* \"#utility.yul\":10746:10747   */\n              0x00\n                /* \"#utility.yul\":10739:10827   */\n              mstore\n                /* \"#utility.yul\":10846:10850   */\n              0x11\n                /* \"#utility.yul\":10843:10844   */\n              0x04\n                /* \"#utility.yul\":10836:10851   */\n              mstore\n                /* \"#utility.yul\":10870:10874   */\n              0x24\n                /* \"#utility.yul\":10867:10868   */\n              0x00\n                /* \"#utility.yul\":10860:10875   */\n              revert\n                /* \"#utility.yul\":10887:11078   */\n            tag_36:\n                /* \"#utility.yul\":10927:10930   */\n              0x00\n                /* \"#utility.yul\":10946:10966   */\n              tag_209\n                /* \"#utility.yul\":10964:10965   */\n              dup3\n                /* \"#utility.yul\":10946:10966   */\n              tag_48\n              jump\t// in\n            tag_209:\n                /* \"#utility.yul\":10941:10966   */\n              swap2\n              pop\n                /* \"#utility.yul\":10980:11000   */\n              tag_210\n                /* \"#utility.yul\":10998:10999   */\n              dup4\n                /* \"#utility.yul\":10980:11000   */\n              tag_48\n              jump\t// in\n            tag_210:\n                /* \"#utility.yul\":10975:11000   */\n              swap3\n              pop\n                /* \"#utility.yul\":11023:11024   */\n              dup3\n                /* \"#utility.yul\":11020:11021   */\n              dup3\n                /* \"#utility.yul\":11016:11025   */\n              add\n                /* \"#utility.yul\":11009:11025   */\n              swap1\n              pop\n                /* \"#utility.yul\":11044:11047   */\n              dup1\n                /* \"#utility.yul\":11041:11042   */\n              dup3\n                /* \"#utility.yul\":11038:11048   */\n              gt\n                /* \"#utility.yul\":11035:11071   */\n              iszero\n              tag_211\n              jumpi\n                /* \"#utility.yul\":11051:11069   */\n              tag_212\n              tag_79\n              jump\t// in\n            tag_212:\n                /* \"#utility.yul\":11035:11071   */\n            tag_211:\n                /* \"#utility.yul\":10887:11078   */\n              swap3\n              swap2\n              pop\n              pop\n              jump\t// out\n                /* \"#utility.yul\":11084:11225   */\n            tag_80:\n                /* \"#utility.yul\":11133:11137   */\n              0x00\n                /* \"#utility.yul\":11156:11159   */\n              dup2\n                /* \"#utility.yul\":11148:11159   */\n              swap1\n              pop\n                /* \"#utility.yul\":11179:11182   */\n              dup2\n                /* \"#utility.yul\":11176:11177   */\n              0x00\n                /* \"#utility.yul\":11169:11183   */\n              mstore\n                /* \"#utility.yul\":11213:11217   */\n              0x20\n                /* \"#utility.yul\":11210:11211   */\n              0x00\n                /* \"#utility.yul\":11200:11218   */\n              keccak256\n                /* \"#utility.yul\":11192:11218   */\n              swap1\n              pop\n                /* \"#utility.yul\":11084:11225   */\n              swap2\n              swap1\n              pop\n              jump\t// out\n                /* \"#utility.yul\":11231:11324   */\n            tag_81:\n                /* \"#utility.yul\":11268:11274   */\n              0x00\n                /* \"#utility.yul\":11315:11317   */\n              0x20\n                /* \"#utility.yul\":11310:11312   */\n              0x1f\n                /* \"#utility.yul\":11303:11308   */\n              dup4\n                /* \"#utility.yul\":11299:11313   */\n              add\n                /* \"#utility.yul\":11295:11318   */\n              div\n                /* \"#utility.yul\":11285:11318   */\n              swap1\n              pop\n                /* \"#utility.yul\":11231:11324   */\n              swap2\n              swap1\n              pop\n              jump\t// out\n                /* \"#utility.yul\":11330:11437   */\n            tag_82:\n                /* \"#utility.yul\":11374:11382   */\n              0x00\n                /* \"#utility.yul\":11424:11429   */\n              dup3\n                /* \"#utility.yul\":11418:11422   */\n              dup3\n                /* \"#utility.yul\":11414:11430   */\n              shl\n                /* \"#utility.yul\":11393:11430   */\n              swap1\n              pop\n                /* \"#utility.yul\":11330:11437   */\n              swap3\n              swap2\n              pop\n              pop\n              jump\t// out\n                /* \"#utility.yul\":11443:11836   */\n            tag_83:\n                /* \"#utility.yul\":11512:11518   */\n              0x00\n                /* \"#utility.yul\":11562:11563   */\n              0x08\n                /* \"#utility.yul\":11550:11560   */\n              dup4\n                /* \"#utility.yul\":11546:11564   */\n              mul\n                /* \"#utility.yul\":11585:11682   */\n              tag_217\n                /* \"#utility.yul\":11615:11681   */\n              0xffffffffffffffffffffffffffffffffffffffffffffffffffffffffffffffff\n                /* \"#utility.yul\":11604:11613   */\n              dup3\n                /* \"#utility.yul\":11585:11682   */\n              tag_82\n              jump\t// in\n            tag_217:\n                /* \"#utility.yul\":11703:11742   */\n              tag_218\n                /* \"#utility.yul\":11733:11741   */\n              dup7\n                /* \"#utility.yul\":11722:11731   */\n              dup4\n                /* \"#utility.yul\":11703:11742   */\n              tag_82\n              jump\t// in\n            tag_218:\n                /* \"#utility.yul\":11691:11742   */\n              swap6\n              pop\n                /* \"#utility.yul\":11775:11779   */\n              dup1\n                /* \"#utility.yul\":11771:11780   */\n              not\n                /* \"#utility.yul\":11764:11769   */\n              dup5\n                /* \"#utility.yul\":11760:11781   */\n              and\n                /* \"#utility.yul\":11751:11781   */\n              swap4\n              pop\n                /* \"#utility.yul\":11824:11828   */\n              dup1\n                /* \"#utility.yul\":11814:11822   */\n              dup7\n                /* \"#utility.yul\":11810:11829   */\n              and\n                /* \"#utility.yul\":11803:11808   */\n              dup5\n                /* \"#utility.yul\":11800:11830   */\n              or\n                /* \"#utility.yul\":11790:11830   */\n              swap3\n              pop\n                /* \"#utility.yul\":11519:11836   */\n              pop\n              pop\n                /* \"#utility.yul\":11443:11836   */\n              swap4\n              swap3\n              pop\n              pop\n              pop\n              jump\t// out\n                /* \"#utility.yul\":11842:11902   */\n            tag_84:\n                /* \"#utility.yul\":11870:11873   */\n              0x00\n                /* \"#utility.yul\":11891:11896   */\n              dup2\n                /* \"#utility.yul\":11884:11896   */\n              swap1\n              pop\n                /* \"#utility.yul\":11842:11902   */\n              swap2\n              swap1\n              pop\n              jump\t// out\n                /* \"#utility.yul\":11908:12050   */\n            tag_85:\n                /* \"#utility.yul\":11958:11967   */\n              0x00\n                /* \"#utility.yul\":11991:12044   */\n              tag_221\n                /* \"#utility.yul\":12009:12043   */\n              tag_222\n                /* \"#utility.yul\":12018:12042   */\n              tag_223\n                /* \"#utility.yul\":12036:12041   */\n              dup5\n                /* \"#utility.yul\":12018:12042   */\n              tag_48\n              jump\t// in\n            tag_223:\n                /* \"#utility.yul\":12009:12043   */\n              tag_84\n              jump\t// in\n            tag_222:\n                /* \"#utility.yul\":11991:12044   */\n              tag_48\n              jump\t// in\n            tag_221:\n                /* \"#utility.yul\":11978:12044   */\n              swap1\n              pop\n                /* \"#utility.yul\":11908:12050   */\n              swap2\n              swap1\n              pop\n              jump\t// out\n                /* \"#utility.yul\":12056:12131   */\n            tag_86:\n                /* \"#utility.yul\":12099:12102   */\n              0x00\n                /* \"#utility.yul\":12120:12125   */\n              dup2\n                /* \"#utility.yul\":12113:12125   */\n              swap1\n              pop\n                /* \"#utility.yul\":12056:12131   */\n              swap2\n              swap1\n              pop\n              jump\t// out\n                /* \"#utility.yul\":12137:12406   */\n            tag_87:\n                /* \"#utility.yul\":12247:12286   */\n              tag_226\n                /* \"#utility.yul\":12278:12285   */\n              dup4\n                /* \"#utility.yul\":12247:12286   */\n              tag_85\n              jump\t// in\n            tag_226:\n                /* \"#utility.yul\":12308:12399   */\n              tag_227\n                /* \"#utility.yul\":12357:12398   */\n              tag_228\n                /* \"#utility.yul\":12381:12397   */\n              dup3\n                /* \"#utility.yul\":12357:12398   */\n              tag_86\n              jump\t// in\n            tag_228:\n                /* \"#utility.yul\":12349:12355   */\n              dup5\n                /* \"#utility.yul\":12342:12346   */\n              dup5\n                /* \"#utility.yul\":12336:12347   */\n              sload\n                /* \"#utility.yul\":12308:12399   */\n              tag_83\n              jump\t// in\n            tag_227:\n                /* \"#utility.yul\":12302:12306   */\n              dup3\n                /* \"#utility.yul\":12295:12400   */\n              sstore\n                /* \"#utility.yul\":12213:12406   */\n              pop\n                /* \"#utility.yul\":12137:12406   */\n              pop\n              pop\n              pop\n              jump\t// out\n                /* \"#utility.yul\":12412:12485   */\n            tag_88:\n                /* \"#utility.yul\":12457:12460   */\n              0x00\n                /* \"#utility.yul\":12412:12485   */\n              swap1\n              jump\t// out\n                /* \"#utility.yul\":12491:12680   */\n            tag_89:\n                /* \"#utility.yul\":12568:12600   */\n              tag_231\n              tag_88\n              jump\t// in\n            tag_231:\n                /* \"#utility.yul\":12609:12674   */\n              tag_232\n                /* \"#utility.yul\":12667:12673   */\n              dup2\n                /* \"#utility.yul\":12659:12665   */\n              dup5\n                /* \"#utility.yul\":12653:12657   */\n              dup5\n                /* \"#utility.yul\":12609:12674   */\n              tag_87\n              jump\t// in\n            tag_232:\n                /* \"#utility.yul\":12544:12680   */\n              pop\n                /* \"#utility.yul\":12491:12680   */\n              pop\n              pop\n              jump\t// out\n                /* \"#utility.yul\":12686:12872   */\n            tag_90:\n                /* \"#utility.yul\":12746:12866   */\n            tag_234:\n                /* \"#utility.yul\":12763:12766   */\n              dup2\n                /* \"#utility.yul\":12756:12761   */\n              dup2\n                /* \"#utility.yul\":12753:12767   */\n              lt\n                /* \"#utility.yul\":12746:12866   */\n              iszero\n              tag_236\n              jumpi\n                /* \"#utility.yul\":12817:12856   */\n              tag_237\n                /* \"#utility.yul\":12854:12855   */\n              0x00\n                /* \"#utility.yul\":12847:12852   */\n              dup3\n                /* \"#utility.yul\":12817:12856   */\n              tag_89\n              jump\t// in\n            tag_237:\n                /* \"#utility.yul\":12790:12791   */\n              0x01\n                /* \"#utility.yul\":12783:12788   */\n              dup2\n                /* \"#utility.yul\":12779:12792   */\n              add\n                /* \"#utility.yul\":12770:12792   */\n              swap1\n              pop\n                /* \"#utility.yul\":12746:12866   */\n              jump(tag_234)\n            tag_236:\n                /* \"#utility.yul\":12686:12872   */\n              pop\n              pop\n              jump\t// out\n                /* \"#utility.yul\":12878:13421   */\n            tag_91:\n                /* \"#utility.yul\":12979:12981   */\n              0x1f\n                /* \"#utility.yul\":12974:12977   */\n              dup3\n                /* \"#utility.yul\":12971:12982   */\n              gt\n                /* \"#utility.yul\":12968:13414   */\n              iszero\n              tag_239\n              jumpi\n                /* \"#utility.yul\":13013:13051   */\n              tag_240\n                /* \"#utility.yul\":13045:13050   */\n              dup2\n                /* \"#utility.yul\":13013:13051   */\n              tag_80\n              jump\t// in\n            tag_240:\n                /* \"#utility.yul\":13097:13126   */\n              tag_241\n                /* \"#utility.yul\":13115:13125   */\n              dup5\n                /* \"#utility.yul\":13097:13126   */\n              tag_81\n              jump\t// in\n            tag_241:\n                /* \"#utility.yul\":13087:13095   */\n              dup2\n                /* \"#utility.yul\":13083:13127   */\n              add\n                /* \"#utility.yul\":13280:13282   */\n              0x20\n                /* \"#utility.yul\":13268:13278   */\n              dup6\n                /* \"#utility.yul\":13265:13283   */\n              lt\n                /* \"#utility.yul\":13262:13311   */\n              iszero\n              tag_242\n              jumpi\n                /* \"#utility.yul\":13301:13309   */\n              dup2\n                /* \"#utility.yul\":13286:13309   */\n              swap1\n              pop\n                /* \"#utility.yul\":13262:13311   */\n            tag_242:\n                /* \"#utility.yul\":13324:13404   */\n              tag_243\n                /* \"#utility.yul\":13380:13402   */\n              tag_244\n                /* \"#utility.yul\":13398:13401   */\n              dup6\n                /* \"#utility.yul\":13380:13402   */\n              tag_81\n              jump\t// in\n            tag_244:\n                /* \"#utility.yul\":13370:13378   */\n              dup4\n                /* \"#utility.yul\":13366:13403   */\n              add\n                /* \"#utility.yul\":13353:13364   */\n              dup3\n                /* \"#utility.yul\":13324:13404   */\n              tag_90\n              jump\t// in\n            tag_243:\n                /* \"#utility.yul\":12983:13414   */\n              pop\n              pop\n                /* \"#utility.yul\":12968:13414   */\n            tag_239:\n                /* \"#utility.yul\":12878:13421   */\n              pop\n              pop\n              pop\n              jump\t// out\n                /* \"#utility.yul\":13427:13544   */\n            tag_92:\n                /* \"#utility.yul\":13481:13489   */\n              0x00\n                /* \"#utility.yul\":13531:13536   */\n              dup3\n                /* \"#utility.yul\":13525:13529   */\n              dup3\n                /* \"#utility.yul\":13521:13537   */\n              shr\n                /* \"#utility.yul\":13500:13537   */\n              swap1\n              pop\n                /* \"#utility.yul\":13427:13544   */\n              swap3\n              swap2\n              pop\n              pop\n              jump\t// out\n                /* \"#utility.yul\":13550:13719   */\n            tag_93:\n                /* \"#utility.yul\":13594:13600   */\n              0x00\n                /* \"#utility.yul\":13627:13678   */\n              tag_247\n                /* \"#utility.yul\":13675:13676   */\n              0x00\n                /* \"#utility.yul\":13671:13677   */\n              not\n                /* \"#utility.yul\":13663:13668   */\n              dup5\n                /* \"#utility.yul\":13660:13661   */\n              0x08\n                /* \"#utility.yul\":13656:13669   */\n              mul\n                /* \"#utility.yul\":13627:13678   */\n              tag_92\n              jump\t// in\n            tag_247:\n                /* \"#utility.yul\":13623:13679   */\n              not\n                /* \"#utility.yul\":13708:13712   */\n              dup1\n                /* \"#utility.yul\":13702:13706   */\n              dup4\n                /* \"#utility.yul\":13698:13713   */\n              and\n                /* \"#utility.yul\":13688:13713   */\n              swap2\n              pop\n                /* \"#utility.yul\":13601:13719   */\n              pop\n                /* \"#utility.yul\":13550:13719   */\n              swap3\n              swap2\n              pop\n              pop\n              jump\t// out\n                /* \"#utility.yul\":13724:14019   */\n            tag_94:\n                /* \"#utility.yul\":13800:13804   */\n              0x00\n                /* \"#utility.yul\":13946:13975   */\n              tag_249\n                /* \"#utility.yul\":13971:13974   */\n              dup4\n                /* \"#utility.yul\":13965:13969   */\n              dup4\n                /* \"#utility.yul\":13946:13975   */\n              tag_93\n              jump\t// in\n            tag_249:\n                /* \"#utility.yul\":13938:13975   */\n              swap2\n              pop\n                /* \"#utility.yul\":14008:14011   */\n              dup3\n                /* \"#utility.yul\":14005:14006   */\n              0x02\n                /* \"#utility.yul\":14001:14012   */\n              mul\n                /* \"#utility.yul\":13995:13999   */\n              dup3\n                /* \"#utility.yul\":13992:14013   */\n              or\n                /* \"#utility.yul\":13984:14013   */\n              swap1\n              pop\n                /* \"#utility.yul\":13724:14019   */\n              swap3\n              swap2\n              pop\n              pop\n              jump\t// out\n                /* \"#utility.yul\":14024:15419   */\n            tag_39:\n                /* \"#utility.yul\":14141:14178   */\n              tag_251\n                /* \"#utility.yul\":14174:14177   */\n              dup3\n                /* \"#utility.yul\":14141:14178   */\n              tag_50\n              jump\t// in\n            tag_251:\n                /* \"#utility.yul\":14243:14261   */\n              0xffffffffffffffff\n                /* \"#utility.yul\":14235:14241   */\n              dup2\n                /* \"#utility.yul\":14232:14262   */\n              gt\n                /* \"#utility.yul\":14229:14285   */\n              iszero\n              tag_252\n              jumpi\n                /* \"#utility.yul\":14265:14283   */\n              tag_253\n              tag_71\n              jump\t// in\n            tag_253:\n                /* \"#utility.yul\":14229:14285   */\n            tag_252:\n                /* \"#utility.yul\":14309:14347   */\n              tag_254\n                /* \"#utility.yul\":14341:14345   */\n              dup3\n                /* \"#utility.yul\":14335:14346   */\n              sload\n                /* \"#utility.yul\":14309:14347   */\n              tag_28\n              jump\t// in\n            tag_254:\n                /* \"#utility.yul\":14394:14461   */\n              tag_255\n                /* \"#utility.yul\":14454:14460   */\n              dup3\n                /* \"#utility.yul\":14446:14452   */\n              dup3\n                /* \"#utility.yul\":14440:14444   */\n              dup6\n                /* \"#utility.yul\":14394:14461   */\n              tag_91\n              jump\t// in\n            tag_255:\n                /* \"#utility.yul\":14488:14489   */\n              0x00\n                /* \"#utility.yul\":14512:14516   */\n              0x20\n                /* \"#utility.yul\":14499:14516   */\n              swap1\n              pop\n                /* \"#utility.yul\":14544:14546   */\n              0x1f\n                /* \"#utility.yul\":14536:14542   */\n              dup4\n                /* \"#utility.yul\":14533:14547   */\n              gt\n                /* \"#utility.yul\":14561:14562   */\n              0x01\n                /* \"#utility.yul\":14556:15174   */\n              dup2\n              eq\n              tag_257\n              jumpi\n                /* \"#utility.yul\":15218:15219   */\n              0x00\n                /* \"#utility.yul\":15235:15241   */\n              dup5\n                /* \"#utility.yul\":15232:15309   */\n              iszero\n              tag_258\n              jumpi\n                /* \"#utility.yul\":15284:15293   */\n              dup3\n                /* \"#utility.yul\":15279:15282   */\n              dup8\n                /* \"#utility.yul\":15275:15294   */\n              add\n                /* \"#utility.yul\":15269:15295   */\n              mload\n                /* \"#utility.yul\":15260:15295   */\n              swap1\n              pop\n                /* \"#utility.yul\":15232:15309   */\n            tag_258:\n                /* \"#utility.yul\":15335:15402   */\n              tag_259\n                /* \"#utility.yul\":15395:15401   */\n              dup6\n                /* \"#utility.yul\":15388:15393   */\n              dup3\n                /* \"#utility.yul\":15335:15402   */\n              tag_94\n              jump\t// in\n            tag_259:\n                /* \"#utility.yul\":15329:15333   */\n              dup7\n                /* \"#utility.yul\":15322:15403   */\n              sstore\n                /* \"#utility.yul\":15191:15413   */\n              pop\n                /* \"#utility.yul\":14526:15413   */\n              jump(tag_256)\n                /* \"#utility.yul\":14556:15174   */\n            tag_257:\n                /* \"#utility.yul\":14608:14612   */\n              0x1f\n                /* \"#utility.yul\":14604:14613   */\n              not\n                /* \"#utility.yul\":14596:14602   */\n              dup5\n                /* \"#utility.yul\":14592:14614   */\n              and\n                /* \"#utility.yul\":14642:14679   */\n              tag_260\n                /* \"#utility.yul\":14674:14678   */\n              dup7\n                /* \"#utility.yul\":14642:14679   */\n              tag_80\n              jump\t// in\n            tag_260:\n                /* \"#utility.yul\":14701:14702   */\n              0x00\n                /* \"#utility.yul\":14715:14923   */\n            tag_261:\n                /* \"#utility.yul\":14729:14736   */\n              dup3\n                /* \"#utility.yul\":14726:14727   */\n              dup2\n                /* \"#utility.yul\":14723:14737   */\n              lt\n                /* \"#utility.yul\":14715:14923   */\n              iszero\n              tag_263\n              jumpi\n                /* \"#utility.yul\":14808:14817   */\n              dup5\n                /* \"#utility.yul\":14803:14806   */\n              dup10\n                /* \"#utility.yul\":14799:14818   */\n              add\n                /* \"#utility.yul\":14793:14819   */\n              mload\n                /* \"#utility.yul\":14785:14791   */\n              dup3\n                /* \"#utility.yul\":14778:14820   */\n              sstore\n                /* \"#utility.yul\":14859:14860   */\n              0x01\n                /* \"#utility.yul\":14851:14857   */\n              dup3\n                /* \"#utility.yul\":14847:14861   */\n              add\n                /* \"#utility.yul\":14837:14861   */\n              swap2\n              pop\n                /* \"#utility.yul\":14906:14908   */\n              0x20\n                /* \"#utility.yul\":14895:14904   */\n              dup6\n                /* \"#utility.yul\":14891:14909   */\n              add\n                /* \"#utility.yul\":14878:14909   */\n              swap5\n              pop\n                /* \"#utility.yul\":14752:14756   */\n              0x20\n                /* \"#utility.yul\":14749:14750   */\n              dup2\n                /* \"#utility.yul\":14745:14757   */\n              add\n                /* \"#utility.yul\":14740:14757   */\n              swap1\n              pop\n                /* \"#utility.yul\":14715:14923   */\n              jump(tag_261)\n            tag_263:\n                /* \"#utility.yul\":14951:14957   */\n              dup7\n                /* \"#utility.yul\":14942:14949   */\n              dup4\n                /* \"#utility.yul\":14939:14958   */\n              lt\n                /* \"#utility.yul\":14936:15115   */\n              iszero\n              tag_264\n              jumpi\n                /* \"#utility.yul\":15009:15018   */\n              dup5\n                /* \"#utility.yul\":15004:15007   */\n              dup10\n                /* \"#utility.yul\":15000:15019   */\n              add\n                /* \"#utility.yul\":14994:15020   */\n              mload\n                /* \"#utility.yul\":15052:15100   */\n              tag_265\n                /* \"#utility.yul\":15094:15098   */\n              0x1f\n                /* \"#utility.yul\":15086:15092   */\n              dup10\n                /* \"#utility.yul\":15082:15099   */\n              and\n                /* \"#utility.yul\":15071:15080   */\n              dup3\n                /* \"#utility.yul\":15052:15100   */\n              tag_93\n              jump\t// in\n            tag_265:\n                /* \"#utility.yul\":15044:15050   */\n              dup4\n                /* \"#utility.yul\":15037:15101   */\n              sstore\n                /* \"#utility.yul\":14959:15115   */\n              pop\n                /* \"#utility.yul\":14936:15115   */\n            tag_264:\n                /* \"#utility.yul\":15161:15162   */\n              0x01\n                /* \"#utility.yul\":15157:15158   */\n              0x02\n                /* \"#utility.yul\":15149:15155   */\n              dup9\n                /* \"#utility.yul\":15145:15159   */\n              mul\n                /* \"#utility.yul\":15141:15163   */\n              add\n                /* \"#utility.yul\":15135:15139   */\n              dup9\n                /* \"#utility.yul\":15128:15164   */\n              sstore\n                /* \"#utility.yul\":14563:15174   */\n              pop\n              pop\n              pop\n                /* \"#utility.yul\":14526:15413   */\n            tag_256:\n              pop\n                /* \"#utility.yul\":14116:15419   */\n              pop\n              pop\n              pop\n                /* \"#utility.yul\":14024:15419   */\n              pop\n              pop\n              jump\t// out\n                /* \"#utility.yul\":15425:15543   */\n            tag_95:\n                /* \"#utility.yul\":15512:15536   */\n              tag_267\n                /* \"#utility.yul\":15530:15535   */\n              dup2\n                /* \"#utility.yul\":15512:15536   */\n              tag_46\n              jump\t// in\n            tag_267:\n                /* \"#utility.yul\":15507:15510   */\n              dup3\n                /* \"#utility.yul\":15500:15537   */\n              mstore\n                /* \"#utility.yul\":15425:15543   */\n              pop\n              pop\n              jump\t// out\n                /* \"#utility.yul\":15549:15691   */\n            tag_96:\n                /* \"#utility.yul\":15599:15608   */\n              0x00\n                /* \"#utility.yul\":15632:15685   */\n              tag_269\n                /* \"#utility.yul\":15650:15684   */\n              tag_270\n                /* \"#utility.yul\":15659:15683   */\n              tag_271\n                /* \"#utility.yul\":15677:15682   */\n              dup5\n                /* \"#utility.yul\":15659:15683   */\n              tag_45\n              jump\t// in\n            tag_271:\n                /* \"#utility.yul\":15650:15684   */\n              tag_84\n              jump\t// in\n            tag_270:\n                /* \"#utility.yul\":15632:15685   */\n              tag_45\n              jump\t// in\n            tag_269:\n                /* \"#utility.yul\":15619:15685   */\n              swap1\n              pop\n                /* \"#utility.yul\":15549:15691   */\n              swap2\n              swap1\n              pop\n              jump\t// out\n                /* \"#utility.yul\":15697:15823   */\n            tag_97:\n                /* \"#utility.yul\":15747:15756   */\n              0x00\n                /* \"#utility.yul\":15780:15817   */\n              tag_273\n                /* \"#utility.yul\":15811:15816   */\n              dup3\n                /* \"#utility.yul\":15780:15817   */\n              tag_96\n              jump\t// in\n            tag_273:\n                /* \"#utility.yul\":15767:15817   */\n              swap1\n              pop\n                /* \"#utility.yul\":15697:15823   */\n              swap2\n              swap1\n              pop\n              jump\t// out\n                /* \"#utility.yul\":15829:15963   */\n            tag_98:\n                /* \"#utility.yul\":15887:15896   */\n              0x00\n                /* \"#utility.yul\":15920:15957   */\n              tag_275\n                /* \"#utility.yul\":15951:15956   */\n              dup3\n                /* \"#utility.yul\":15920:15957   */\n              tag_97\n              jump\t// in\n            tag_275:\n                /* \"#utility.yul\":15907:15957   */\n              swap1\n              pop\n                /* \"#utility.yul\":15829:15963   */\n              swap2\n              swap1\n              pop\n              jump\t// out\n                /* \"#utility.yul\":15969:16116   */\n            tag_99:\n                /* \"#utility.yul\":16064:16109   */\n              tag_277\n                /* \"#utility.yul\":16103:16108   */\n              dup2\n                /* \"#utility.yul\":16064:16109   */\n              tag_98\n              jump\t// in\n            tag_277:\n                /* \"#utility.yul\":16059:16062   */\n              dup3\n                /* \"#utility.yul\":16052:16110   */\n              mstore\n                /* \"#utility.yul\":15969:16116   */\n              pop\n              pop\n              jump\t// out\n                /* \"#utility.yul\":16122:16291   */\n            tag_100:\n                /* \"#utility.yul\":16206:16217   */\n              0x00\n                /* \"#utility.yul\":16240:16246   */\n              dup3\n                /* \"#utility.yul\":16235:16238   */\n              dup3\n                /* \"#utility.yul\":16228:16247   */\n              mstore\n                /* \"#utility.yul\":16280:16284   */\n              0x20\n                /* \"#utility.yul\":16275:16278   */\n              dup3\n                /* \"#utility.yul\":16271:16285   */\n              add\n                /* \"#utility.yul\":16256:16285   */\n              swap1\n              pop\n                /* \"#utility.yul\":16122:16291   */\n              swap3\n              swap2\n              pop\n              pop\n              jump\t// out\n                /* \"#utility.yul\":16297:16674   */\n            tag_101:\n                /* \"#utility.yul\":16385:16388   */\n              0x00\n                /* \"#utility.yul\":16413:16452   */\n              tag_280\n                /* \"#utility.yul\":16446:16451   */\n              dup3\n                /* \"#utility.yul\":16413:16452   */\n              tag_50\n              jump\t// in\n            tag_280:\n                /* \"#utility.yul\":16468:16539   */\n              tag_281\n                /* \"#utility.yul\":16532:16538   */\n              dup2\n                /* \"#utility.yul\":16527:16530   */\n              dup6\n                /* \"#utility.yul\":16468:16539   */\n              tag_100\n              jump\t// in\n            tag_281:\n                /* \"#utility.yul\":16461:16539   */\n              swap4\n              pop\n                /* \"#utility.yul\":16548:16613   */\n              tag_282\n                /* \"#utility.yul\":16606:16612   */\n              dup2\n                /* \"#utility.yul\":16601:16604   */\n              dup6\n                /* \"#utility.yul\":16594:16598   */\n              0x20\n                /* \"#utility.yul\":16587:16592   */\n              dup7\n                /* \"#utility.yul\":16583:16599   */\n              add\n                /* \"#utility.yul\":16548:16613   */\n              tag_52\n              jump\t// in\n            tag_282:\n                /* \"#utility.yul\":16638:16667   */\n              tag_283\n                /* \"#utility.yul\":16660:16666   */\n              dup2\n                /* \"#utility.yul\":16638:16667   */\n              tag_53\n              jump\t// in\n            tag_283:\n                /* \"#utility.yul\":16633:16636   */\n              dup5\n                /* \"#utility.yul\":16629:16668   */\n              add\n                /* \"#utility.yul\":16622:16668   */\n              swap2\n              pop\n                /* \"#utility.yul\":16389:16674   */\n              pop\n                /* \"#utility.yul\":16297:16674   */\n              swap3\n              swap2\n              pop\n              pop\n              jump\t// out\n                /* \"#utility.yul\":16680:17451   */\n            tag_41:\n                /* \"#utility.yul\":16913:16917   */\n              0x00\n                /* \"#utility.yul\":16951:16954   */\n              0xa0\n                /* \"#utility.yul\":16940:16949   */\n              dup3\n                /* \"#utility.yul\":16936:16955   */\n              add\n                /* \"#utility.yul\":16928:16955   */\n              swap1\n              pop\n                /* \"#utility.yul\":16965:17036   */\n              tag_285\n                /* \"#utility.yul\":17033:17034   */\n              0x00\n                /* \"#utility.yul\":17022:17031   */\n              dup4\n                /* \"#utility.yul\":17018:17035   */\n              add\n                /* \"#utility.yul\":17009:17015   */\n              dup9\n                /* \"#utility.yul\":16965:17036   */\n              tag_95\n              jump\t// in\n            tag_285:\n                /* \"#utility.yul\":17046:17126   */\n              tag_286\n                /* \"#utility.yul\":17122:17124   */\n              0x20\n                /* \"#utility.yul\":17111:17120   */\n              dup4\n                /* \"#utility.yul\":17107:17125   */\n              add\n                /* \"#utility.yul\":17098:17104   */\n              dup8\n                /* \"#utility.yul\":17046:17126   */\n              tag_99\n              jump\t// in\n            tag_286:\n                /* \"#utility.yul\":17136:17208   */\n              tag_287\n                /* \"#utility.yul\":17204:17206   */\n              0x40\n                /* \"#utility.yul\":17193:17202   */\n              dup4\n                /* \"#utility.yul\":17189:17207   */\n              add\n                /* \"#utility.yul\":17180:17186   */\n              dup7\n                /* \"#utility.yul\":17136:17208   */\n              tag_59\n              jump\t// in\n            tag_287:\n                /* \"#utility.yul\":17255:17264   */\n              dup2\n                /* \"#utility.yul\":17249:17253   */\n              dup2\n                /* \"#utility.yul\":17245:17265   */\n              sub\n                /* \"#utility.yul\":17240:17242   */\n              0x60\n                /* \"#utility.yul\":17229:17238   */\n              dup4\n                /* \"#utility.yul\":17225:17243   */\n              add\n                /* \"#utility.yul\":17218:17266   */\n              mstore\n                /* \"#utility.yul\":17283:17361   */\n              tag_288\n                /* \"#utility.yul\":17356:17360   */\n              dup2\n                /* \"#utility.yul\":17347:17353   */\n              dup6\n                /* \"#utility.yul\":17283:17361   */\n              tag_101\n              jump\t// in\n            tag_288:\n                /* \"#utility.yul\":17275:17361   */\n              swap1\n              pop\n                /* \"#utility.yul\":17371:17444   */\n              tag_289\n                /* \"#utility.yul\":17439:17442   */\n              0x80\n                /* \"#utility.yul\":17428:17437   */\n              dup4\n                /* \"#utility.yul\":17424:17443   */\n              add\n                /* \"#utility.yul\":17415:17421   */\n              dup5\n                /* \"#utility.yul\":17371:17444   */\n              tag_59\n              jump\t// in\n            tag_289:\n                /* \"#utility.yul\":16680:17451   */\n              swap7\n              swap6\n              pop\n              pop\n              pop\n              pop\n              pop\n              pop\n              jump\t// out\n\n            auxdata: 0xa2646970667358221220ddd96b7cc3d2b7ccf62622357ca13b2a2de1ced8b1a7eed843a88b53a0b3166364736f6c63430008100033\n        }\n    }\n\n    auxdata: 0xa2646970667358221220fe384a384c4c41546252255b4b0d9e5de154b3140661c2e0deb2ab3a4b87aac664736f6c63430008100033\n}\n","bytecode":{"linkReferences":{},"object":"608060405234801561001057600080fd5b50611300806100206000396000f3fe608060405234801561001057600080fd5b50600436106100365760003560e01c806311ebbf241461003b578063d689b0d814610059575b600080fd5b610043610077565b60405161005091906103a8565b60405180910390f35b610061610259565b60405161006e91906103a8565b60405180910390f35b60008073ffffffffffffffffffffffffffffffffffffffff166000803373ffffffffffffffffffffffffffffffffffffffff1673ffffffffffffffffffffffffffffffffffffffff16815260200190815260200160002060009054906101000a900473ffffffffffffffffffffffffffffffffffffffff1673ffffffffffffffffffffffffffffffffffffffff1614610145576040517f08c379a000000000000000000000000000000000000000000000000000000000815260040161013c90610420565b60405180910390fd5b336040516101529061035a565b61015c91906103a8565b604051809103906000f080158015610178573d6000803e3d6000fd5b506000803373ffffffffffffffffffffffffffffffffffffffff1673ffffffffffffffffffffffffffffffffffffffff16815260200190815260200160002060006101000a81548173ffffffffffffffffffffffffffffffffffffffff021916908373ffffffffffffffffffffffffffffffffffffffff1602179055506000803373ffffffffffffffffffffffffffffffffffffffff1673ffffffffffffffffffffffffffffffffffffffff16815260200190815260200160002060009054906101000a900473ffffffffffffffffffffffffffffffffffffffff16905090565b60008073ffffffffffffffffffffffffffffffffffffffff166000803373ffffffffffffffffffffffffffffffffffffffff1673ffffffffffffffffffffffffffffffffffffffff16815260200190815260200160002060009054906101000a900473ffffffffffffffffffffffffffffffffffffffff1673ffffffffffffffffffffffffffffffffffffffff1614610352576000803373ffffffffffffffffffffffffffffffffffffffff1673ffffffffffffffffffffffffffffffffffffffff16815260200190815260200160002060009054906101000a900473ffffffffffffffffffffffffffffffffffffffff169050610357565b600090505b90565b610e8a8061044183390190565b600073ffffffffffffffffffffffffffffffffffffffff82169050919050565b600061039282610367565b9050919050565b6103a281610387565b82525050565b60006020820190506103bd6000830184610399565b92915050565b600082825260208201905092915050565b7f53656e64657220616c72656164792068617320612077616c6c65742e2e2e0000600082015250565b600061040a601e836103c3565b9150610415826103d4565b602082019050919050565b60006020820190508181036000830152610439816103fd565b905091905056fe60a060405234801561001057600080fd5b50604051610e8a380380610e8a833981810160405281019061003291906100cf565b8073ffffffffffffffffffffffffffffffffffffffff1660808173ffffffffffffffffffffffffffffffffffffffff1681525050506100fc565b600080fd5b600073ffffffffffffffffffffffffffffffffffffffff82169050919050565b600061009c82610071565b9050919050565b6100ac81610091565b81146100b757600080fd5b50565b6000815190506100c9816100a3565b92915050565b6000602082840312156100e5576100e461006c565b5b60006100f3848285016100ba565b91505092915050565b608051610d7361011760003960006102830152610d736000f3fe608060405234801561001057600080fd5b506004361061004c5760003560e01c806327506f53146100515780632e7700f01461006f578063481c6a751461008d578063eb12da4a146100ab575b600080fd5b6100596100c7565b604051610066919061065c565b60405180910390f35b610077610278565b604051610084919061068d565b60405180910390f35b610095610281565b6040516100a291906106c9565b60405180910390f35b6100c560048036038101906100c09190610885565b6102a5565b005b60606001805480602002602001604051908101604052809291908181526020016000905b8282101561026f57838290600052602060002090600502016040518060a00160405290816000820160009054906101000a900473ffffffffffffffffffffffffffffffffffffffff1673ffffffffffffffffffffffffffffffffffffffff1673ffffffffffffffffffffffffffffffffffffffff1681526020016001820160009054906101000a900473ffffffffffffffffffffffffffffffffffffffff1673ffffffffffffffffffffffffffffffffffffffff1673ffffffffffffffffffffffffffffffffffffffff168152602001600282015481526020016003820180546101d490610923565b80601f016020809104026020016040519081016040528092919081815260200182805461020090610923565b801561024d5780601f106102225761010080835404028352916020019161024d565b820191906000526020600020905b81548152906001019060200180831161023057829003601f168201915b50505050508152602001600482015481525050815260200190600101906100eb565b50505050905090565b60008054905090565b7f000000000000000000000000000000000000000000000000000000000000000081565b60016000808282546102b79190610983565b9250508190555060016040518060a001604052803373ffffffffffffffffffffffffffffffffffffffff1681526020018573ffffffffffffffffffffffffffffffffffffffff16815260200184815260200183815260200142815250908060018154018082558091505060019003906000526020600020906005020160009091909190915060008201518160000160006101000a81548173ffffffffffffffffffffffffffffffffffffffff021916908373ffffffffffffffffffffffffffffffffffffffff16021790555060208201518160010160006101000a81548173ffffffffffffffffffffffffffffffffffffffff021916908373ffffffffffffffffffffffffffffffffffffffff1602179055506040820151816002015560608201518160030190816103e99190610b63565b506080820151816004015550507fc4b32d7ff75a51e487f3cbb5d3202f2efecca1f4c2b987e0039c1d3220b48a83338484844260405161042d959493929190610ce3565b60405180910390a1505050565b600081519050919050565b600082825260208201905092915050565b6000819050602082019050919050565b600073ffffffffffffffffffffffffffffffffffffffff82169050919050565b600061049182610466565b9050919050565b6104a181610486565b82525050565b6000819050919050565b6104ba816104a7565b82525050565b600081519050919050565b600082825260208201905092915050565b60005b838110156104fa5780820151818401526020810190506104df565b60008484015250505050565b6000601f19601f8301169050919050565b6000610522826104c0565b61052c81856104cb565b935061053c8185602086016104dc565b61054581610506565b840191505092915050565b600060a0830160008301516105686000860182610498565b50602083015161057b6020860182610498565b50604083015161058e60408601826104b1565b50606083015184820360608601526105a68282610517565b91505060808301516105bb60808601826104b1565b508091505092915050565b60006105d28383610550565b905092915050565b6000602082019050919050565b60006105f28261043a565b6105fc8185610445565b93508360208202850161060e85610456565b8060005b8581101561064a578484038952815161062b85826105c6565b9450610636836105da565b925060208a01995050600181019050610612565b50829750879550505050505092915050565b6000602082019050818103600083015261067681846105e7565b905092915050565b610687816104a7565b82525050565b60006020820190506106a2600083018461067e565b92915050565b60006106b382610466565b9050919050565b6106c3816106a8565b82525050565b60006020820190506106de60008301846106ba565b92915050565b6000604051905090565b600080fd5b600080fd5b610701816106a8565b811461070c57600080fd5b50565b60008135905061071e816106f8565b92915050565b61072d816104a7565b811461073857600080fd5b50565b60008135905061074a81610724565b92915050565b600080fd5b600080fd5b7f4e487b7100000000000000000000000000000000000000000000000000000000600052604160045260246000fd5b61079282610506565b810181811067ffffffffffffffff821117156107b1576107b061075a565b5b80604052505050565b60006107c46106e4565b90506107d08282610789565b919050565b600067ffffffffffffffff8211156107f0576107ef61075a565b5b6107f982610506565b9050602081019050919050565b82818337600083830152505050565b6000610828610823846107d5565b6107ba565b90508281526020810184848401111561084457610843610755565b5b61084f848285610806565b509392505050565b600082601f83011261086c5761086b610750565b5b813561087c848260208601610815565b91505092915050565b60008060006060848603121561089e5761089d6106ee565b5b60006108ac8682870161070f565b93505060206108bd8682870161073b565b925050604084013567ffffffffffffffff8111156108de576108dd6106f3565b5b6108ea86828701610857565b9150509250925092565b7f4e487b7100000000000000000000000000000000000000000000000000000000600052602260045260246000fd5b6000600282049050600182168061093b57607f821691505b60208210810361094e5761094d6108f4565b5b50919050565b7f4e487b7100000000000000000000000000000000000000000000000000000000600052601160045260246000fd5b600061098e826104a7565b9150610999836104a7565b92508282019050808211156109b1576109b0610954565b5b92915050565b60008190508160005260206000209050919050565b60006020601f8301049050919050565b600082821b905092915050565b600060088302610a197fffffffffffffffffffffffffffffffffffffffffffffffffffffffffffffffff826109dc565b610a2386836109dc565b95508019841693508086168417925050509392505050565b6000819050919050565b6000610a60610a5b610a56846104a7565b610a3b565b6104a7565b9050919050565b6000819050919050565b610a7a83610a45565b610a8e610a8682610a67565b8484546109e9565b825550505050565b600090565b610aa3610a96565b610aae818484610a71565b505050565b5b81811015610ad257610ac7600082610a9b565b600181019050610ab4565b5050565b601f821115610b1757610ae8816109b7565b610af1846109cc565b81016020851015610b00578190505b610b14610b0c856109cc565b830182610ab3565b50505b505050565b600082821c905092915050565b6000610b3a60001984600802610b1c565b1980831691505092915050565b6000610b538383610b29565b9150826002028217905092915050565b610b6c826104c0565b67ffffffffffffffff811115610b8557610b8461075a565b5b610b8f8254610923565b610b9a828285610ad6565b600060209050601f831160018114610bcd5760008415610bbb578287015190505b610bc58582610b47565b865550610c2d565b601f198416610bdb866109b7565b60005b82811015610c0357848901518255600182019150602085019450602081019050610bde565b86831015610c205784890151610c1c601f891682610b29565b8355505b6001600288020188555050505b505050505050565b610c3e81610486565b82525050565b6000610c5f610c5a610c5584610466565b610a3b565b610466565b9050919050565b6000610c7182610c44565b9050919050565b6000610c8382610c66565b9050919050565b610c9381610c78565b82525050565b600082825260208201905092915050565b6000610cb5826104c0565b610cbf8185610c99565b9350610ccf8185602086016104dc565b610cd881610506565b840191505092915050565b600060a082019050610cf86000830188610c35565b610d056020830187610c8a565b610d12604083018661067e565b8181036060830152610d248185610caa565b9050610d33608083018461067e565b969550505050505056fea2646970667358221220ddd96b7cc3d2b7ccf62622357ca13b2a2de1ced8b1a7eed843a88b53a0b3166364736f6c63430008100033a2646970667358221220fe384a384c4c41546252255b4b0d9e5de154b3140661c2e0deb2ab3a4b87aac664736f6c63430008100033","opcodes":"PUSH1 0x80 PUSH1 0x40 MSTORE CALLVALUE DUP1 ISZERO PUSH2 0x10 JUMPI PUSH1 0x0 DUP1 REVERT JUMPDEST POP PUSH2 0x1300 DUP1 PUSH2 0x20 PUSH1 0x0 CODECOPY PUSH1 0x0 RETURN INVALID PUSH1 0x80 PUSH1 0x40 MSTORE CALLVALUE DUP1 ISZERO PUSH2 0x10 JUMPI PUSH1 0x0 DUP1 REVERT JUMPDEST POP PUSH1 0x4 CALLDATASIZE LT PUSH2 0x36 JUMPI PUSH1 0x0 CALLDATALOAD PUSH1 0xE0 SHR DUP1 PUSH4 0x11EBBF24 EQ PUSH2 0x3B JUMPI DUP1 PUSH4 0xD689B0D8 EQ PUSH2 0x59 JUMPI JUMPDEST PUSH1 0x0 DUP1 REVERT JUMPDEST PUSH2 0x43 PUSH2 0x77 JUMP JUMPDEST PUSH1 0x40 MLOAD PUSH2 0x50 SWAP2 SWAP1 PUSH2 0x3A8 JUMP JUMPDEST PUSH1 0x40 MLOAD DUP1 SWAP2 SUB SWAP1 RETURN JUMPDEST PUSH2 0x61 PUSH2 0x259 JUMP JUMPDEST PUSH1 0x40 MLOAD PUSH2 0x6E SWAP2 SWAP1 PUSH2 0x3A8 JUMP JUMPDEST PUSH1 0x40 MLOAD DUP1 SWAP2 SUB SWAP1 RETURN JUMPDEST PUSH1 0x0 DUP1 PUSH20 0xFFFFFFFFFFFFFFFFFFFFFFFFFFFFFFFFFFFFFFFF AND PUSH1 0x0 DUP1 CALLER PUSH20 0xFFFFFFFFFFFFFFFFFFFFFFFFFFFFFFFFFFFFFFFF AND PUSH20 0xFFFFFFFFFFFFFFFFFFFFFFFFFFFFFFFFFFFFFFFF AND DUP2 MSTORE PUSH1 0x20 ADD SWAP1 DUP2 MSTORE PUSH1 0x20 ADD PUSH1 0x0 KECCAK256 PUSH1 0x0 SWAP1 SLOAD SWAP1 PUSH2 0x100 EXP SWAP1 DIV PUSH20 0xFFFFFFFFFFFFFFFFFFFFFFFFFFFFFFFFFFFFFFFF AND PUSH20 0xFFFFFFFFFFFFFFFFFFFFFFFFFFFFFFFFFFFFFFFF AND EQ PUSH2 0x145 JUMPI PUSH1 0x40 MLOAD PUSH32 0x8C379A000000000000000000000000000000000000000000000000000000000 DUP2 MSTORE PUSH1 0x4 ADD PUSH2 0x13C SWAP1 PUSH2 0x420 JUMP JUMPDEST PUSH1 0x40 MLOAD DUP1 SWAP2 SUB SWAP1 REVERT JUMPDEST CALLER PUSH1 0x40 MLOAD PUSH2 0x152 SWAP1 PUSH2 0x35A JUMP JUMPDEST PUSH2 0x15C SWAP2 SWAP1 PUSH2 0x3A8 JUMP JUMPDEST PUSH1 0x40 MLOAD DUP1 SWAP2 SUB SWAP1 PUSH1 0x0 CREATE DUP1 ISZERO DUP1 ISZERO PUSH2 0x178 JUMPI RETURNDATASIZE PUSH1 0x0 DUP1 RETURNDATACOPY RETURNDATASIZE PUSH1 0x0 REVERT JUMPDEST POP PUSH1 0x0 DUP1 CALLER PUSH20 0xFFFFFFFFFFFFFFFFFFFFFFFFFFFFFFFFFFFFFFFF AND PUSH20 0xFFFFFFFFFFFFFFFFFFFFFFFFFFFFFFFFFFFFFFFF AND DUP2 MSTORE PUSH1 0x20 ADD SWAP1 DUP2 MSTORE PUSH1 0x20 ADD PUSH1 0x0 KECCAK256 PUSH1 0x0 PUSH2 0x100 EXP DUP2 SLOAD DUP2 PUSH20 0xFFFFFFFFFFFFFFFFFFFFFFFFFFFFFFFFFFFFFFFF MUL NOT AND SWAP1 DUP4 PUSH20 0xFFFFFFFFFFFFFFFFFFFFFFFFFFFFFFFFFFFFFFFF AND MUL OR SWAP1 SSTORE POP PUSH1 0x0 DUP1 CALLER PUSH20 0xFFFFFFFFFFFFFFFFFFFFFFFFFFFFFFFFFFFFFFFF AND PUSH20 0xFFFFFFFFFFFFFFFFFFFFFFFFFFFFFFFFFFFFFFFF AND DUP2 MSTORE PUSH1 0x20 ADD SWAP1 DUP2 MSTORE PUSH1 0x20 ADD PUSH1 0x0 KECCAK256 PUSH1 0x0 SWAP1 SLOAD SWAP1 PUSH2 0x100 EXP SWAP1 DIV PUSH20 0xFFFFFFFFFFFFFFFFFFFFFFFFFFFFFFFFFFFFFFFF AND SWAP1 POP SWAP1 JUMP JUMPDEST PUSH1 0x0 DUP1 PUSH20 0xFFFFFFFFFFFFFFFFFFFFFFFFFFFFFFFFFFFFFFFF AND PUSH1 0x0 DUP1 CALLER PUSH20 0xFFFFFFFFFFFFFFFFFFFFFFFFFFFFFFFFFFFFFFFF AND PUSH20 0xFFFFFFFFFFFFFFFFFFFFFFFFFFFFFFFFFFFFFFFF AND DUP2 MSTORE PUSH1 0x20 ADD SWAP1 DUP2 MSTORE PUSH1 0x20 ADD PUSH1 0x0 KECCAK256 PUSH1 0x0 SWAP1 SLOAD SWAP1 PUSH2 0x100 EXP SWAP1 DIV PUSH20 0xFFFFFFFFFFFFFFFFFFFFFFFFFFFFFFFFFFFFFFFF AND PUSH20 0xFFFFFFFFFFFFFFFFFFFFFFFFFFFFFFFFFFFFFFFF AND EQ PUSH2 0x352 JUMPI PUSH1 0x0 DUP1 CALLER PUSH20 0xFFFFFFFFFFFFFFFFFFFFFFFFFFFFFFFFFFFFFFFF AND PUSH20 0xFFFFFFFFFFFFFFFFFFFFFFFFFFFFFFFFFFFFFFFF AND DUP2 MSTORE PUSH1 0x20 ADD SWAP1 DUP2 MSTORE PUSH1 0x20 ADD PUSH1 0x0 KECCAK256 PUSH1 0x0 SWAP1 SLOAD SWAP1 PUSH2 0x100 EXP SWAP1 DIV PUSH20 0xFFFFFFFFFFFFFFFFFFFFFFFFFFFFFFFFFFFFFFFF AND SWAP1 POP PUSH2 0x357 JUMP JUMPDEST PUSH1 0x0 SWAP1 POP JUMPDEST SWAP1 JUMP JUMPDEST PUSH2 0xE8A DUP1 PUSH2 0x441 DUP4 CODECOPY ADD SWAP1 JUMP JUMPDEST PUSH1 0x0 PUSH20 0xFFFFFFFFFFFFFFFFFFFFFFFFFFFFFFFFFFFFFFFF DUP3 AND SWAP1 POP SWAP2 SWAP1 POP JUMP JUMPDEST PUSH1 0x0 PUSH2 0x392 DUP3 PUSH2 0x367 JUMP JUMPDEST SWAP1 POP SWAP2 SWAP1 POP JUMP JUMPDEST PUSH2 0x3A2 DUP2 PUSH2 0x387 JUMP JUMPDEST DUP3 MSTORE POP POP JUMP JUMPDEST PUSH1 0x0 PUSH1 0x20 DUP3 ADD SWAP1 POP PUSH2 0x3BD PUSH1 0x0 DUP4 ADD DUP5 PUSH2 0x399 JUMP JUMPDEST SWAP3 SWAP2 POP POP JUMP JUMPDEST PUSH1 0x0 DUP3 DUP3 MSTORE PUSH1 0x20 DUP3 ADD SWAP1 POP SWAP3 SWAP2 POP POP JUMP JUMPDEST PUSH32 0x53656E64657220616C72656164792068617320612077616C6C65742E2E2E0000 PUSH1 0x0 DUP3 ADD MSTORE POP JUMP JUMPDEST PUSH1 0x0 PUSH2 0x40A PUSH1 0x1E DUP4 PUSH2 0x3C3 JUMP JUMPDEST SWAP2 POP PUSH2 0x415 DUP3 PUSH2 0x3D4 JUMP JUMPDEST PUSH1 0x20 DUP3 ADD SWAP1 POP SWAP2 SWAP1 POP JUMP JUMPDEST PUSH1 0x0 PUSH1 0x20 DUP3 ADD SWAP1 POP DUP2 DUP2 SUB PUSH1 0x0 DUP4 ADD MSTORE PUSH2 0x439 DUP2 PUSH2 0x3FD JUMP JUMPDEST SWAP1 POP SWAP2 SWAP1 POP JUMP INVALID PUSH1 0xA0 PUSH1 0x40 MSTORE CALLVALUE DUP1 ISZERO PUSH2 0x10 JUMPI PUSH1 0x0 DUP1 REVERT JUMPDEST POP PUSH1 0x40 MLOAD PUSH2 0xE8A CODESIZE SUB DUP1 PUSH2 0xE8A DUP4 CODECOPY DUP2 DUP2 ADD PUSH1 0x40 MSTORE DUP2 ADD SWAP1 PUSH2 0x32 SWAP2 SWAP1 PUSH2 0xCF JUMP JUMPDEST DUP1 PUSH20 0xFFFFFFFFFFFFFFFFFFFFFFFFFFFFFFFFFFFFFFFF AND PUSH1 0x80 DUP2 PUSH20 0xFFFFFFFFFFFFFFFFFFFFFFFFFFFFFFFFFFFFFFFF AND DUP2 MSTORE POP POP POP PUSH2 0xFC JUMP JUMPDEST PUSH1 0x0 DUP1 REVERT JUMPDEST PUSH1 0x0 PUSH20 0xFFFFFFFFFFFFFFFFFFFFFFFFFFFFFFFFFFFFFFFF DUP3 AND SWAP1 POP SWAP2 SWAP1 POP JUMP JUMPDEST PUSH1 0x0 PUSH2 0x9C DUP3 PUSH2 0x71 JUMP JUMPDEST SWAP1 POP SWAP2 SWAP1 POP JUMP JUMPDEST PUSH2 0xAC DUP2 PUSH2 0x91 JUMP JUMPDEST DUP2 EQ PUSH2 0xB7 JUMPI PUSH1 0x0 DUP1 REVERT JUMPDEST POP JUMP JUMPDEST PUSH1 0x0 DUP2 MLOAD SWAP1 POP PUSH2 0xC9 DUP2 PUSH2 0xA3 JUMP JUMPDEST SWAP3 SWAP2 POP POP JUMP JUMPDEST PUSH1 0x0 PUSH1 0x20 DUP3 DUP5 SUB SLT ISZERO PUSH2 0xE5 JUMPI PUSH2 0xE4 PUSH2 0x6C JUMP JUMPDEST JUMPDEST PUSH1 0x0 PUSH2 0xF3 DUP5 DUP3 DUP6 ADD PUSH2 0xBA JUMP JUMPDEST SWAP2 POP POP SWAP3 SWAP2 POP POP JUMP JUMPDEST PUSH1 0x80 MLOAD PUSH2 0xD73 PUSH2 0x117 PUSH1 0x0 CODECOPY PUSH1 0x0 PUSH2 0x283 ADD MSTORE PUSH2 0xD73 PUSH1 0x0 RETURN INVALID PUSH1 0x80 PUSH1 0x40 MSTORE CALLVALUE DUP1 ISZERO PUSH2 0x10 JUMPI PUSH1 0x0 DUP1 REVERT JUMPDEST POP PUSH1 0x4 CALLDATASIZE LT PUSH2 0x4C JUMPI PUSH1 0x0 CALLDATALOAD PUSH1 0xE0 SHR DUP1 PUSH4 0x27506F53 EQ PUSH2 0x51 JUMPI DUP1 PUSH4 0x2E7700F0 EQ PUSH2 0x6F JUMPI DUP1 PUSH4 0x481C6A75 EQ PUSH2 0x8D JUMPI DUP1 PUSH4 0xEB12DA4A EQ PUSH2 0xAB JUMPI JUMPDEST PUSH1 0x0 DUP1 REVERT JUMPDEST PUSH2 0x59 PUSH2 0xC7 JUMP JUMPDEST PUSH1 0x40 MLOAD PUSH2 0x66 SWAP2 SWAP1 PUSH2 0x65C JUMP JUMPDEST PUSH1 0x40 MLOAD DUP1 SWAP2 SUB SWAP1 RETURN JUMPDEST PUSH2 0x77 PUSH2 0x278 JUMP JUMPDEST PUSH1 0x40 MLOAD PUSH2 0x84 SWAP2 SWAP1 PUSH2 0x68D JUMP JUMPDEST PUSH1 0x40 MLOAD DUP1 SWAP2 SUB SWAP1 RETURN JUMPDEST PUSH2 0x95 PUSH2 0x281 JUMP JUMPDEST PUSH1 0x40 MLOAD PUSH2 0xA2 SWAP2 SWAP1 PUSH2 0x6C9 JUMP JUMPDEST PUSH1 0x40 MLOAD DUP1 SWAP2 SUB SWAP1 RETURN JUMPDEST PUSH2 0xC5 PUSH1 0x4 DUP1 CALLDATASIZE SUB DUP2 ADD SWAP1 PUSH2 0xC0 SWAP2 SWAP1 PUSH2 0x885 JUMP JUMPDEST PUSH2 0x2A5 JUMP JUMPDEST STOP JUMPDEST PUSH1 0x60 PUSH1 0x1 DUP1 SLOAD DUP1 PUSH1 0x20 MUL PUSH1 0x20 ADD PUSH1 0x40 MLOAD SWAP1 DUP2 ADD PUSH1 0x40 MSTORE DUP1 SWAP3 SWAP2 SWAP1 DUP2 DUP2 MSTORE PUSH1 0x20 ADD PUSH1 0x0 SWAP1 JUMPDEST DUP3 DUP3 LT ISZERO PUSH2 0x26F JUMPI DUP4 DUP3 SWAP1 PUSH1 0x0 MSTORE PUSH1 0x20 PUSH1 0x0 KECCAK256 SWAP1 PUSH1 0x5 MUL ADD PUSH1 0x40 MLOAD DUP1 PUSH1 0xA0 ADD PUSH1 0x40 MSTORE SWAP1 DUP2 PUSH1 0x0 DUP3 ADD PUSH1 0x0 SWAP1 SLOAD SWAP1 PUSH2 0x100 EXP SWAP1 DIV PUSH20 0xFFFFFFFFFFFFFFFFFFFFFFFFFFFFFFFFFFFFFFFF AND PUSH20 0xFFFFFFFFFFFFFFFFFFFFFFFFFFFFFFFFFFFFFFFF AND PUSH20 0xFFFFFFFFFFFFFFFFFFFFFFFFFFFFFFFFFFFFFFFF AND DUP2 MSTORE PUSH1 0x20 ADD PUSH1 0x1 DUP3 ADD PUSH1 0x0 SWAP1 SLOAD SWAP1 PUSH2 0x100 EXP SWAP1 DIV PUSH20 0xFFFFFFFFFFFFFFFFFFFFFFFFFFFFFFFFFFFFFFFF AND PUSH20 0xFFFFFFFFFFFFFFFFFFFFFFFFFFFFFFFFFFFFFFFF AND PUSH20 0xFFFFFFFFFFFFFFFFFFFFFFFFFFFFFFFFFFFFFFFF AND DUP2 MSTORE PUSH1 0x20 ADD PUSH1 0x2 DUP3 ADD SLOAD DUP2 MSTORE PUSH1 0x20 ADD PUSH1 0x3 DUP3 ADD DUP1 SLOAD PUSH2 0x1D4 SWAP1 PUSH2 0x923 JUMP JUMPDEST DUP1 PUSH1 0x1F ADD PUSH1 0x20 DUP1 SWAP2 DIV MUL PUSH1 0x20 ADD PUSH1 0x40 MLOAD SWAP1 DUP2 ADD PUSH1 0x40 MSTORE DUP1 SWAP3 SWAP2 SWAP1 DUP2 DUP2 MSTORE PUSH1 0x20 ADD DUP3 DUP1 SLOAD PUSH2 0x200 SWAP1 PUSH2 0x923 JUMP JUMPDEST DUP1 ISZERO PUSH2 0x24D JUMPI DUP1 PUSH1 0x1F LT PUSH2 0x222 JUMPI PUSH2 0x100 DUP1 DUP4 SLOAD DIV MUL DUP4 MSTORE SWAP2 PUSH1 0x20 ADD SWAP2 PUSH2 0x24D JUMP JUMPDEST DUP3 ADD SWAP2 SWAP1 PUSH1 0x0 MSTORE PUSH1 0x20 PUSH1 0x0 KECCAK256 SWAP1 JUMPDEST DUP2 SLOAD DUP2 MSTORE SWAP1 PUSH1 0x1 ADD SWAP1 PUSH1 0x20 ADD DUP1 DUP4 GT PUSH2 0x230 JUMPI DUP3 SWAP1 SUB PUSH1 0x1F AND DUP3 ADD SWAP2 JUMPDEST POP POP POP POP POP DUP2 MSTORE PUSH1 0x20 ADD PUSH1 0x4 DUP3 ADD SLOAD DUP2 MSTORE POP POP DUP2 MSTORE PUSH1 0x20 ADD SWAP1 PUSH1 0x1 ADD SWAP1 PUSH2 0xEB JUMP JUMPDEST POP POP POP POP SWAP1 POP SWAP1 JUMP JUMPDEST PUSH1 0x0 DUP1 SLOAD SWAP1 POP SWAP1 JUMP JUMPDEST PUSH32 0x0 DUP2 JUMP JUMPDEST PUSH1 0x1 PUSH1 0x0 DUP1 DUP3 DUP3 SLOAD PUSH2 0x2B7 SWAP2 SWAP1 PUSH2 0x983 JUMP JUMPDEST SWAP3 POP POP DUP2 SWAP1 SSTORE POP PUSH1 0x1 PUSH1 0x40 MLOAD DUP1 PUSH1 0xA0 ADD PUSH1 0x40 MSTORE DUP1 CALLER PUSH20 0xFFFFFFFFFFFFFFFFFFFFFFFFFFFFFFFFFFFFFFFF AND DUP2 MSTORE PUSH1 0x20 ADD DUP6 PUSH20 0xFFFFFFFFFFFFFFFFFFFFFFFFFFFFFFFFFFFFFFFF AND DUP2 MSTORE PUSH1 0x20 ADD DUP5 DUP2 MSTORE PUSH1 0x20 ADD DUP4 DUP2 MSTORE PUSH1 0x20 ADD TIMESTAMP DUP2 MSTORE POP SWAP1 DUP1 PUSH1 0x1 DUP2 SLOAD ADD DUP1 DUP3 SSTORE DUP1 SWAP2 POP POP PUSH1 0x1 SWAP1 SUB SWAP1 PUSH1 0x0 MSTORE PUSH1 0x20 PUSH1 0x0 KECCAK256 SWAP1 PUSH1 0x5 MUL ADD PUSH1 0x0 SWAP1 SWAP2 SWAP1 SWAP2 SWAP1 SWAP2 POP PUSH1 0x0 DUP3 ADD MLOAD DUP2 PUSH1 0x0 ADD PUSH1 0x0 PUSH2 0x100 EXP DUP2 SLOAD DUP2 PUSH20 0xFFFFFFFFFFFFFFFFFFFFFFFFFFFFFFFFFFFFFFFF MUL NOT AND SWAP1 DUP4 PUSH20 0xFFFFFFFFFFFFFFFFFFFFFFFFFFFFFFFFFFFFFFFF AND MUL OR SWAP1 SSTORE POP PUSH1 0x20 DUP3 ADD MLOAD DUP2 PUSH1 0x1 ADD PUSH1 0x0 PUSH2 0x100 EXP DUP2 SLOAD DUP2 PUSH20 0xFFFFFFFFFFFFFFFFFFFFFFFFFFFFFFFFFFFFFFFF MUL NOT AND SWAP1 DUP4 PUSH20 0xFFFFFFFFFFFFFFFFFFFFFFFFFFFFFFFFFFFFFFFF AND MUL OR SWAP1 SSTORE POP PUSH1 0x40 DUP3 ADD MLOAD DUP2 PUSH1 0x2 ADD SSTORE PUSH1 0x60 DUP3 ADD MLOAD DUP2 PUSH1 0x3 ADD SWAP1 DUP2 PUSH2 0x3E9 SWAP2 SWAP1 PUSH2 0xB63 JUMP JUMPDEST POP PUSH1 0x80 DUP3 ADD MLOAD DUP2 PUSH1 0x4 ADD SSTORE POP POP PUSH32 0xC4B32D7FF75A51E487F3CBB5D3202F2EFECCA1F4C2B987E0039C1D3220B48A83 CALLER DUP5 DUP5 DUP5 TIMESTAMP PUSH1 0x40 MLOAD PUSH2 0x42D SWAP6 SWAP5 SWAP4 SWAP3 SWAP2 SWAP1 PUSH2 0xCE3 JUMP JUMPDEST PUSH1 0x40 MLOAD DUP1 SWAP2 SUB SWAP1 LOG1 POP POP POP JUMP JUMPDEST PUSH1 0x0 DUP2 MLOAD SWAP1 POP SWAP2 SWAP1 POP JUMP JUMPDEST PUSH1 0x0 DUP3 DUP3 MSTORE PUSH1 0x20 DUP3 ADD SWAP1 POP SWAP3 SWAP2 POP POP JUMP JUMPDEST PUSH1 0x0 DUP2 SWAP1 POP PUSH1 0x20 DUP3 ADD SWAP1 POP SWAP2 SWAP1 POP JUMP JUMPDEST PUSH1 0x0 PUSH20 0xFFFFFFFFFFFFFFFFFFFFFFFFFFFFFFFFFFFFFFFF DUP3 AND SWAP1 POP SWAP2 SWAP1 POP JUMP JUMPDEST PUSH1 0x0 PUSH2 0x491 DUP3 PUSH2 0x466 JUMP JUMPDEST SWAP1 POP SWAP2 SWAP1 POP JUMP JUMPDEST PUSH2 0x4A1 DUP2 PUSH2 0x486 JUMP JUMPDEST DUP3 MSTORE POP POP JUMP JUMPDEST PUSH1 0x0 DUP2 SWAP1 POP SWAP2 SWAP1 POP JUMP JUMPDEST PUSH2 0x4BA DUP2 PUSH2 0x4A7 JUMP JUMPDEST DUP3 MSTORE POP POP JUMP JUMPDEST PUSH1 0x0 DUP2 MLOAD SWAP1 POP SWAP2 SWAP1 POP JUMP JUMPDEST PUSH1 0x0 DUP3 DUP3 MSTORE PUSH1 0x20 DUP3 ADD SWAP1 POP SWAP3 SWAP2 POP POP JUMP JUMPDEST PUSH1 0x0 JUMPDEST DUP4 DUP2 LT ISZERO PUSH2 0x4FA JUMPI DUP1 DUP3 ADD MLOAD DUP2 DUP5 ADD MSTORE PUSH1 0x20 DUP2 ADD SWAP1 POP PUSH2 0x4DF JUMP JUMPDEST PUSH1 0x0 DUP5 DUP5 ADD MSTORE POP POP POP POP JUMP JUMPDEST PUSH1 0x0 PUSH1 0x1F NOT PUSH1 0x1F DUP4 ADD AND SWAP1 POP SWAP2 SWAP1 POP JUMP JUMPDEST PUSH1 0x0 PUSH2 0x522 DUP3 PUSH2 0x4C0 JUMP JUMPDEST PUSH2 0x52C DUP2 DUP6 PUSH2 0x4CB JUMP JUMPDEST SWAP4 POP PUSH2 0x53C DUP2 DUP6 PUSH1 0x20 DUP7 ADD PUSH2 0x4DC JUMP JUMPDEST PUSH2 0x545 DUP2 PUSH2 0x506 JUMP JUMPDEST DUP5 ADD SWAP2 POP POP SWAP3 SWAP2 POP POP JUMP JUMPDEST PUSH1 0x0 PUSH1 0xA0 DUP4 ADD PUSH1 0x0 DUP4 ADD MLOAD PUSH2 0x568 PUSH1 0x0 DUP7 ADD DUP3 PUSH2 0x498 JUMP JUMPDEST POP PUSH1 0x20 DUP4 ADD MLOAD PUSH2 0x57B PUSH1 0x20 DUP7 ADD DUP3 PUSH2 0x498 JUMP JUMPDEST POP PUSH1 0x40 DUP4 ADD MLOAD PUSH2 0x58E PUSH1 0x40 DUP7 ADD DUP3 PUSH2 0x4B1 JUMP JUMPDEST POP PUSH1 0x60 DUP4 ADD MLOAD DUP5 DUP3 SUB PUSH1 0x60 DUP7 ADD MSTORE PUSH2 0x5A6 DUP3 DUP3 PUSH2 0x517 JUMP JUMPDEST SWAP2 POP POP PUSH1 0x80 DUP4 ADD MLOAD PUSH2 0x5BB PUSH1 0x80 DUP7 ADD DUP3 PUSH2 0x4B1 JUMP JUMPDEST POP DUP1 SWAP2 POP POP SWAP3 SWAP2 POP POP JUMP JUMPDEST PUSH1 0x0 PUSH2 0x5D2 DUP4 DUP4 PUSH2 0x550 JUMP JUMPDEST SWAP1 POP SWAP3 SWAP2 POP POP JUMP JUMPDEST PUSH1 0x0 PUSH1 0x20 DUP3 ADD SWAP1 POP SWAP2 SWAP1 POP JUMP JUMPDEST PUSH1 0x0 PUSH2 0x5F2 DUP3 PUSH2 0x43A JUMP JUMPDEST PUSH2 0x5FC DUP2 DUP6 PUSH2 0x445 JUMP JUMPDEST SWAP4 POP DUP4 PUSH1 0x20 DUP3 MUL DUP6 ADD PUSH2 0x60E DUP6 PUSH2 0x456 JUMP JUMPDEST DUP1 PUSH1 0x0 JUMPDEST DUP6 DUP2 LT ISZERO PUSH2 0x64A JUMPI DUP5 DUP5 SUB DUP10 MSTORE DUP2 MLOAD PUSH2 0x62B DUP6 DUP3 PUSH2 0x5C6 JUMP JUMPDEST SWAP5 POP PUSH2 0x636 DUP4 PUSH2 0x5DA JUMP JUMPDEST SWAP3 POP PUSH1 0x20 DUP11 ADD SWAP10 POP POP PUSH1 0x1 DUP2 ADD SWAP1 POP PUSH2 0x612 JUMP JUMPDEST POP DUP3 SWAP8 POP DUP8 SWAP6 POP POP POP POP POP POP SWAP3 SWAP2 POP POP JUMP JUMPDEST PUSH1 0x0 PUSH1 0x20 DUP3 ADD SWAP1 POP DUP2 DUP2 SUB PUSH1 0x0 DUP4 ADD MSTORE PUSH2 0x676 DUP2 DUP5 PUSH2 0x5E7 JUMP JUMPDEST SWAP1 POP SWAP3 SWAP2 POP POP JUMP JUMPDEST PUSH2 0x687 DUP2 PUSH2 0x4A7 JUMP JUMPDEST DUP3 MSTORE POP POP JUMP JUMPDEST PUSH1 0x0 PUSH1 0x20 DUP3 ADD SWAP1 POP PUSH2 0x6A2 PUSH1 0x0 DUP4 ADD DUP5 PUSH2 0x67E JUMP JUMPDEST SWAP3 SWAP2 POP POP JUMP JUMPDEST PUSH1 0x0 PUSH2 0x6B3 DUP3 PUSH2 0x466 JUMP JUMPDEST SWAP1 POP SWAP2 SWAP1 POP JUMP JUMPDEST PUSH2 0x6C3 DUP2 PUSH2 0x6A8 JUMP JUMPDEST DUP3 MSTORE POP POP JUMP JUMPDEST PUSH1 0x0 PUSH1 0x20 DUP3 ADD SWAP1 POP PUSH2 0x6DE PUSH1 0x0 DUP4 ADD DUP5 PUSH2 0x6BA JUMP JUMPDEST SWAP3 SWAP2 POP POP JUMP JUMPDEST PUSH1 0x0 PUSH1 0x40 MLOAD SWAP1 POP SWAP1 JUMP JUMPDEST PUSH1 0x0 DUP1 REVERT JUMPDEST PUSH1 0x0 DUP1 REVERT JUMPDEST PUSH2 0x701 DUP2 PUSH2 0x6A8 JUMP JUMPDEST DUP2 EQ PUSH2 0x70C JUMPI PUSH1 0x0 DUP1 REVERT JUMPDEST POP JUMP JUMPDEST PUSH1 0x0 DUP2 CALLDATALOAD SWAP1 POP PUSH2 0x71E DUP2 PUSH2 0x6F8 JUMP JUMPDEST SWAP3 SWAP2 POP POP JUMP JUMPDEST PUSH2 0x72D DUP2 PUSH2 0x4A7 JUMP JUMPDEST DUP2 EQ PUSH2 0x738 JUMPI PUSH1 0x0 DUP1 REVERT JUMPDEST POP JUMP JUMPDEST PUSH1 0x0 DUP2 CALLDATALOAD SWAP1 POP PUSH2 0x74A DUP2 PUSH2 0x724 JUMP JUMPDEST SWAP3 SWAP2 POP POP JUMP JUMPDEST PUSH1 0x0 DUP1 REVERT JUMPDEST PUSH1 0x0 DUP1 REVERT JUMPDEST PUSH32 0x4E487B7100000000000000000000000000000000000000000000000000000000 PUSH1 0x0 MSTORE PUSH1 0x41 PUSH1 0x4 MSTORE PUSH1 0x24 PUSH1 0x0 REVERT JUMPDEST PUSH2 0x792 DUP3 PUSH2 0x506 JUMP JUMPDEST DUP2 ADD DUP2 DUP2 LT PUSH8 0xFFFFFFFFFFFFFFFF DUP3 GT OR ISZERO PUSH2 0x7B1 JUMPI PUSH2 0x7B0 PUSH2 0x75A JUMP JUMPDEST JUMPDEST DUP1 PUSH1 0x40 MSTORE POP POP POP JUMP JUMPDEST PUSH1 0x0 PUSH2 0x7C4 PUSH2 0x6E4 JUMP JUMPDEST SWAP1 POP PUSH2 0x7D0 DUP3 DUP3 PUSH2 0x789 JUMP JUMPDEST SWAP2 SWAP1 POP JUMP JUMPDEST PUSH1 0x0 PUSH8 0xFFFFFFFFFFFFFFFF DUP3 GT ISZERO PUSH2 0x7F0 JUMPI PUSH2 0x7EF PUSH2 0x75A JUMP JUMPDEST JUMPDEST PUSH2 0x7F9 DUP3 PUSH2 0x506 JUMP JUMPDEST SWAP1 POP PUSH1 0x20 DUP2 ADD SWAP1 POP SWAP2 SWAP1 POP JUMP JUMPDEST DUP3 DUP2 DUP4 CALLDATACOPY PUSH1 0x0 DUP4 DUP4 ADD MSTORE POP POP POP JUMP JUMPDEST PUSH1 0x0 PUSH2 0x828 PUSH2 0x823 DUP5 PUSH2 0x7D5 JUMP JUMPDEST PUSH2 0x7BA JUMP JUMPDEST SWAP1 POP DUP3 DUP2 MSTORE PUSH1 0x20 DUP2 ADD DUP5 DUP5 DUP5 ADD GT ISZERO PUSH2 0x844 JUMPI PUSH2 0x843 PUSH2 0x755 JUMP JUMPDEST JUMPDEST PUSH2 0x84F DUP5 DUP3 DUP6 PUSH2 0x806 JUMP JUMPDEST POP SWAP4 SWAP3 POP POP POP JUMP JUMPDEST PUSH1 0x0 DUP3 PUSH1 0x1F DUP4 ADD SLT PUSH2 0x86C JUMPI PUSH2 0x86B PUSH2 0x750 JUMP JUMPDEST JUMPDEST DUP2 CALLDATALOAD PUSH2 0x87C DUP5 DUP3 PUSH1 0x20 DUP7 ADD PUSH2 0x815 JUMP JUMPDEST SWAP2 POP POP SWAP3 SWAP2 POP POP JUMP JUMPDEST PUSH1 0x0 DUP1 PUSH1 0x0 PUSH1 0x60 DUP5 DUP7 SUB SLT ISZERO PUSH2 0x89E JUMPI PUSH2 0x89D PUSH2 0x6EE JUMP JUMPDEST JUMPDEST PUSH1 0x0 PUSH2 0x8AC DUP7 DUP3 DUP8 ADD PUSH2 0x70F JUMP JUMPDEST SWAP4 POP POP PUSH1 0x20 PUSH2 0x8BD DUP7 DUP3 DUP8 ADD PUSH2 0x73B JUMP JUMPDEST SWAP3 POP POP PUSH1 0x40 DUP5 ADD CALLDATALOAD PUSH8 0xFFFFFFFFFFFFFFFF DUP2 GT ISZERO PUSH2 0x8DE JUMPI PUSH2 0x8DD PUSH2 0x6F3 JUMP JUMPDEST JUMPDEST PUSH2 0x8EA DUP7 DUP3 DUP8 ADD PUSH2 0x857 JUMP JUMPDEST SWAP2 POP POP SWAP3 POP SWAP3 POP SWAP3 JUMP JUMPDEST PUSH32 0x4E487B7100000000000000000000000000000000000000000000000000000000 PUSH1 0x0 MSTORE PUSH1 0x22 PUSH1 0x4 MSTORE PUSH1 0x24 PUSH1 0x0 REVERT JUMPDEST PUSH1 0x0 PUSH1 0x2 DUP3 DIV SWAP1 POP PUSH1 0x1 DUP3 AND DUP1 PUSH2 0x93B JUMPI PUSH1 0x7F DUP3 AND SWAP2 POP JUMPDEST PUSH1 0x20 DUP3 LT DUP2 SUB PUSH2 0x94E JUMPI PUSH2 0x94D PUSH2 0x8F4 JUMP JUMPDEST JUMPDEST POP SWAP2 SWAP1 POP JUMP JUMPDEST PUSH32 0x4E487B7100000000000000000000000000000000000000000000000000000000 PUSH1 0x0 MSTORE PUSH1 0x11 PUSH1 0x4 MSTORE PUSH1 0x24 PUSH1 0x0 REVERT JUMPDEST PUSH1 0x0 PUSH2 0x98E DUP3 PUSH2 0x4A7 JUMP JUMPDEST SWAP2 POP PUSH2 0x999 DUP4 PUSH2 0x4A7 JUMP JUMPDEST SWAP3 POP DUP3 DUP3 ADD SWAP1 POP DUP1 DUP3 GT ISZERO PUSH2 0x9B1 JUMPI PUSH2 0x9B0 PUSH2 0x954 JUMP JUMPDEST JUMPDEST SWAP3 SWAP2 POP POP JUMP JUMPDEST PUSH1 0x0 DUP2 SWAP1 POP DUP2 PUSH1 0x0 MSTORE PUSH1 0x20 PUSH1 0x0 KECCAK256 SWAP1 POP SWAP2 SWAP1 POP JUMP JUMPDEST PUSH1 0x0 PUSH1 0x20 PUSH1 0x1F DUP4 ADD DIV SWAP1 POP SWAP2 SWAP1 POP JUMP JUMPDEST PUSH1 0x0 DUP3 DUP3 SHL SWAP1 POP SWAP3 SWAP2 POP POP JUMP JUMPDEST PUSH1 0x0 PUSH1 0x8 DUP4 MUL PUSH2 0xA19 PUSH32 0xFFFFFFFFFFFFFFFFFFFFFFFFFFFFFFFFFFFFFFFFFFFFFFFFFFFFFFFFFFFFFFFF DUP3 PUSH2 0x9DC JUMP JUMPDEST PUSH2 0xA23 DUP7 DUP4 PUSH2 0x9DC JUMP JUMPDEST SWAP6 POP DUP1 NOT DUP5 AND SWAP4 POP DUP1 DUP7 AND DUP5 OR SWAP3 POP POP POP SWAP4 SWAP3 POP POP POP JUMP JUMPDEST PUSH1 0x0 DUP2 SWAP1 POP SWAP2 SWAP1 POP JUMP JUMPDEST PUSH1 0x0 PUSH2 0xA60 PUSH2 0xA5B PUSH2 0xA56 DUP5 PUSH2 0x4A7 JUMP JUMPDEST PUSH2 0xA3B JUMP JUMPDEST PUSH2 0x4A7 JUMP JUMPDEST SWAP1 POP SWAP2 SWAP1 POP JUMP JUMPDEST PUSH1 0x0 DUP2 SWAP1 POP SWAP2 SWAP1 POP JUMP JUMPDEST PUSH2 0xA7A DUP4 PUSH2 0xA45 JUMP JUMPDEST PUSH2 0xA8E PUSH2 0xA86 DUP3 PUSH2 0xA67 JUMP JUMPDEST DUP5 DUP5 SLOAD PUSH2 0x9E9 JUMP JUMPDEST DUP3 SSTORE POP POP POP POP JUMP JUMPDEST PUSH1 0x0 SWAP1 JUMP JUMPDEST PUSH2 0xAA3 PUSH2 0xA96 JUMP JUMPDEST PUSH2 0xAAE DUP2 DUP5 DUP5 PUSH2 0xA71 JUMP JUMPDEST POP POP POP JUMP JUMPDEST JUMPDEST DUP2 DUP2 LT ISZERO PUSH2 0xAD2 JUMPI PUSH2 0xAC7 PUSH1 0x0 DUP3 PUSH2 0xA9B JUMP JUMPDEST PUSH1 0x1 DUP2 ADD SWAP1 POP PUSH2 0xAB4 JUMP JUMPDEST POP POP JUMP JUMPDEST PUSH1 0x1F DUP3 GT ISZERO PUSH2 0xB17 JUMPI PUSH2 0xAE8 DUP2 PUSH2 0x9B7 JUMP JUMPDEST PUSH2 0xAF1 DUP5 PUSH2 0x9CC JUMP JUMPDEST DUP2 ADD PUSH1 0x20 DUP6 LT ISZERO PUSH2 0xB00 JUMPI DUP2 SWAP1 POP JUMPDEST PUSH2 0xB14 PUSH2 0xB0C DUP6 PUSH2 0x9CC JUMP JUMPDEST DUP4 ADD DUP3 PUSH2 0xAB3 JUMP JUMPDEST POP POP JUMPDEST POP POP POP JUMP JUMPDEST PUSH1 0x0 DUP3 DUP3 SHR SWAP1 POP SWAP3 SWAP2 POP POP JUMP JUMPDEST PUSH1 0x0 PUSH2 0xB3A PUSH1 0x0 NOT DUP5 PUSH1 0x8 MUL PUSH2 0xB1C JUMP JUMPDEST NOT DUP1 DUP4 AND SWAP2 POP POP SWAP3 SWAP2 POP POP JUMP JUMPDEST PUSH1 0x0 PUSH2 0xB53 DUP4 DUP4 PUSH2 0xB29 JUMP JUMPDEST SWAP2 POP DUP3 PUSH1 0x2 MUL DUP3 OR SWAP1 POP SWAP3 SWAP2 POP POP JUMP JUMPDEST PUSH2 0xB6C DUP3 PUSH2 0x4C0 JUMP JUMPDEST PUSH8 0xFFFFFFFFFFFFFFFF DUP2 GT ISZERO PUSH2 0xB85 JUMPI PUSH2 0xB84 PUSH2 0x75A JUMP JUMPDEST JUMPDEST PUSH2 0xB8F DUP3 SLOAD PUSH2 0x923 JUMP JUMPDEST PUSH2 0xB9A DUP3 DUP3 DUP6 PUSH2 0xAD6 JUMP JUMPDEST PUSH1 0x0 PUSH1 0x20 SWAP1 POP PUSH1 0x1F DUP4 GT PUSH1 0x1 DUP2 EQ PUSH2 0xBCD JUMPI PUSH1 0x0 DUP5 ISZERO PUSH2 0xBBB JUMPI DUP3 DUP8 ADD MLOAD SWAP1 POP JUMPDEST PUSH2 0xBC5 DUP6 DUP3 PUSH2 0xB47 JUMP JUMPDEST DUP7 SSTORE POP PUSH2 0xC2D JUMP JUMPDEST PUSH1 0x1F NOT DUP5 AND PUSH2 0xBDB DUP7 PUSH2 0x9B7 JUMP JUMPDEST PUSH1 0x0 JUMPDEST DUP3 DUP2 LT ISZERO PUSH2 0xC03 JUMPI DUP5 DUP10 ADD MLOAD DUP3 SSTORE PUSH1 0x1 DUP3 ADD SWAP2 POP PUSH1 0x20 DUP6 ADD SWAP5 POP PUSH1 0x20 DUP2 ADD SWAP1 POP PUSH2 0xBDE JUMP JUMPDEST DUP7 DUP4 LT ISZERO PUSH2 0xC20 JUMPI DUP5 DUP10 ADD MLOAD PUSH2 0xC1C PUSH1 0x1F DUP10 AND DUP3 PUSH2 0xB29 JUMP JUMPDEST DUP4 SSTORE POP JUMPDEST PUSH1 0x1 PUSH1 0x2 DUP9 MUL ADD DUP9 SSTORE POP POP POP JUMPDEST POP POP POP POP POP POP JUMP JUMPDEST PUSH2 0xC3E DUP2 PUSH2 0x486 JUMP JUMPDEST DUP3 MSTORE POP POP JUMP JUMPDEST PUSH1 0x0 PUSH2 0xC5F PUSH2 0xC5A PUSH2 0xC55 DUP5 PUSH2 0x466 JUMP JUMPDEST PUSH2 0xA3B JUMP JUMPDEST PUSH2 0x466 JUMP JUMPDEST SWAP1 POP SWAP2 SWAP1 POP JUMP JUMPDEST PUSH1 0x0 PUSH2 0xC71 DUP3 PUSH2 0xC44 JUMP JUMPDEST SWAP1 POP SWAP2 SWAP1 POP JUMP JUMPDEST PUSH1 0x0 PUSH2 0xC83 DUP3 PUSH2 0xC66 JUMP JUMPDEST SWAP1 POP SWAP2 SWAP1 POP JUMP JUMPDEST PUSH2 0xC93 DUP2 PUSH2 0xC78 JUMP JUMPDEST DUP3 MSTORE POP POP JUMP JUMPDEST PUSH1 0x0 DUP3 DUP3 MSTORE PUSH1 0x20 DUP3 ADD SWAP1 POP SWAP3 SWAP2 POP POP JUMP JUMPDEST PUSH1 0x0 PUSH2 0xCB5 DUP3 PUSH2 0x4C0 JUMP JUMPDEST PUSH2 0xCBF DUP2 DUP6 PUSH2 0xC99 JUMP JUMPDEST SWAP4 POP PUSH2 0xCCF DUP2 DUP6 PUSH1 0x20 DUP7 ADD PUSH2 0x4DC JUMP JUMPDEST PUSH2 0xCD8 DUP2 PUSH2 0x506 JUMP JUMPDEST DUP5 ADD SWAP2 POP POP SWAP3 SWAP2 POP POP JUMP JUMPDEST PUSH1 0x0 PUSH1 0xA0 DUP3 ADD SWAP1 POP PUSH2 0xCF8 PUSH1 0x0 DUP4 ADD DUP9 PUSH2 0xC35 JUMP JUMPDEST PUSH2 0xD05 PUSH1 0x20 DUP4 ADD DUP8 PUSH2 0xC8A JUMP JUMPDEST PUSH2 0xD12 PUSH1 0x40 DUP4 ADD DUP7 PUSH2 0x67E JUMP JUMPDEST DUP2 DUP2 SUB PUSH1 0x60 DUP4 ADD MSTORE PUSH2 0xD24 DUP2 DUP6 PUSH2 0xCAA JUMP JUMPDEST SWAP1 POP PUSH2 0xD33 PUSH1 0x80 DUP4 ADD DUP5 PUSH2 0x67E JUMP JUMPDEST SWAP7 SWAP6 POP POP POP POP POP POP JUMP INVALID LOG2 PUSH5 0x6970667358 0x22 SLT KECCAK256 0xDD 0xD9 PUSH12 0x7CC3D2B7CCF62622357CA13B 0x2A 0x2D 0xE1 0xCE 0xD8 0xB1 0xA7 0xEE 0xD8 NUMBER 0xA8 DUP12 MSTORE8 LOG0 0xB3 AND PUSH4 0x64736F6C PUSH4 0x43000810 STOP CALLER LOG2 PUSH5 0x6970667358 0x22 SLT KECCAK256 INVALID CODESIZE 0x4A CODESIZE 0x4C 0x4C COINBASE SLOAD PUSH3 0x52255B 0x4B 0xD SWAP15 0x5D 0xE1 SLOAD 0xB3 EQ MOD PUSH2 0xC2E0 0xDE 0xB2 0xAB GASPRICE 0x4B DUP8 0xAA 0xC6 PUSH5 0x736F6C6343 STOP ADDMOD LT STOP CALLER "},"gasEstimates":{"creation":{"codeDepositCost":"972800","executionCost":"1008","totalCost":"973808"},"external":{"createWallet()":"infinite","getCampaignAddr()":"4882"}},"methodIdentifiers":{"createWallet()":"11ebbf24","getCampaignAddr()":"d689b0d8"}},"storageLayout":{"storage":[{"astId":393,"contract":"Campaign.sol:WalletFactory","label":"walletAddress","offset":0,"slot":"0","type":"t_mapping(t_address,t_address_payable)"}],"types":{"t_address":{"encoding":"inplace","label":"address","numberOfBytes":"20"},"t_address_payable":{"encoding":"inplace","label":"address payable","numberOfBytes":"20"},"t_mapping(t_address,t_address_payable)":{"encoding":"mapping","key":"t_address","label":"mapping(address => address payable)","numberOfBytes":"32","value":"t_address_payable"}}},"userdoc":{"kind":"user","methods":{},"version":1}}